:1000000000000420716B0000B56B0000B56B0000B0
:10001000B56B0000B56B0000B56B00000000000080
:10002000000000000000000000000000B56B0000B0
:10003000B56B000000000000B56B0000B56B000060
:10004000B56B0000B56B0000B56B0000B56B000030
:10005000B56B0000B56B0000B56B0000B56B000020
:10006000B56B0000B56B0000B56B0000B56B000010
:10007000B56B0000B56B0000B56B0000B56B000000
:10008000B56B0000B56B0000B56B0000B56B0000F0
:10009000B56B0000B56B0000B56B0000B56B0000E0
:1000A000B56B0000B56B0000B56B0000B56B0000D0
:1000B000B56B0000B56B0000000000000000000000
:1000C000B56B0000B56B0000B56B0000B56B0000B0
:0C00D000B56B0000B56B0000B56B0000C4
:1001000030B490F800F020F007016FF0000C10F010
:10011000070491F820F040F048804FF000046FF0A1
:100120000700D1E9002391F840F000F1080082FABD
:100130004CF2A4FA8CF283FA4CF3A2FA8CF34BBB88
:10014000D1E9022382FA4CF200F10800A4FA8CF201
:1001500083FA4CF3A2FA8CF3E3B9D1E9042382FACF
:100160004CF200F10800A4FA8CF283FA4CF3A2FAE4
:100170008CF37BB9D1E9062301F1200182FA4CF21C
:1001800000F10800A4FA8CF283FA4CF3A2FA8CF383
:10019000002BC6D0002A04BF04301A4612BAB2FAA5
:1001A00082F200EBD20030BC7047D1E9002304F0AA
:1001B0000305C4F100004FEAC50514F0040F91F8DF
:1001C00040F00CFA05F562EA05021CBF63EA05037C
:1001D00062464FF00004AAE710B51C4C00292468C1
:1001E0009AB02DDB009004904FF40270ADF80C0033
:1001F0004FF00000199013D001394FF6FF700291B3
:100200000591ADF80E006946204600F05DF8421CED
:1002100001DA8B232360009B00221A701AB010BDF4
:100220004FF6FF7002910591ADF80E006946204629
:1002300000F04AF8431C01DA8B2323601AB010BD8A
:100240008B2323604FF0FF30F8E700BF0000002051
:1002500030B51446002C9BB005462EDB1A464FF4F1
:100260000273ADF80C304FF0000300910491199324
:1002700013D04FF6FF73013CADF80E3069461E9B5C
:100280000294059400F020F8421C01DA8B232B60C5
:10029000009B00221A701BB030BD4FF6FF73ADF803
:1002A0000E3069461E9B0294059400F00DF8431C25
:1002B00001DA8B232B601BB030BD8B2303604FF022
:1002C000FF30F8E7000000002DE9F04FBFB00C460A
:1002D000079192460993089003F0D8FD03681093A4
:1002E0001846FFF70DFFA3890F901E0603D523695B
:1002F000002B00F0A8869FEDA47B0023CDE92233DC
:10030000CDE911338DED0C7B2EAA0E9321929146EF
:100310000593D3469BF80030002B00F042815C46E9
:1003200004E014F8013F002B00F01981252BF8D1CF
:10033000B4EB0B0540F016812378002B00F03181DF
:100340004FF000038DF8673000276378049704F1BD
:10035000010B4FF0FF3A0BF1010B9846A8F1200377
:10036000582B00F22B81DFE813F0520229012901FA
:100370004D0229012901290129012901290115021B
:100380004702290120022502290142025900590091
:1003900059005900590059005900590059002901C4
:1003A00029012901290129012901290129012901FD
:1003B00029016800A4012901A401290129012901B9
:1003C00029017D022901290195002901290129011D
:1003D00029012901A600290129014606290129012F
:1003E00029012901290129012901290129012901BD
:1003F0006F026A00A401A401A4016A026A00290133
:1004000029015D022901B9029700A802A30229016E
:1004100082022901A800290129016606A8F13003FA
:1004200000221BF8018B02EB820203EB4202A8F1CF
:100430003003092BF5D9049290E747F01007BD0669
:1004400040F17781099B073323F007031A46596867
:1004500052F8083B09920A460029C0F29581BAF188
:10046000000F9DF8674007DB27F08001029153EAF7
:10047000020100F0B283029F0A2B72F1000180F0AA
:100480006D8630338DF8B7300123029706930DF156
:10049000B70550E047F0100717F0200200F0608128
:1004A000099B073323F0070319465A6851F8083BA4
:1004B000099100210FE047F0100717F0200200F02B
:1004C0004581099B073323F0070319465A6851F801
:1004D000083B099101210024BAF1000F8DF8674013
:1004E00007DB27F08000029053EA020000F07683D9
:1004F000029F0129C0D0022900F0F1822EAD03F045
:100500000701DB0843EA4273D208303153EA02069E
:10051000284605F8011DF2D1FB0740F1EE82302993
:1005200000F0EB823023023805F8013C2EAB1B1A99
:10053000029706930546069B5345B8BF534603935F
:1005400000230B9314B1039B01330393029B13F01D
:10055000020345D0039B02330393022340E0B4EB34
:100560000B051ED0239B2B442393229B0133072B87
:10057000C9E900B522930BDC09F10809059B2B445E
:100580000593D9E6AFF300800000000000000000F2
:10059000DDE9071021AA02F043FE30B90DF1B809D8
:1005A000ECE7239B002B40F03C87079B9B895B0675
:1005B00001F10C8005983FB0BDE8F08FB8F1000F55
:1005C000EFD000238DF8673001238DF890800393DE
:1005D000069324AD4FF0000A0297CDF82CA05346A5
:1005E000029A239C12F084020A9205D1DDE90312DB
:1005F000561A002E00F304839DF867208AB1229AD0
:100600000DF1670101320134C9F80010072A4FF0DB
:10061000010123942292C9F8041000F32A8309F1FE
:10062000080983B1229A1AA901320234C9F80010CC
:10063000072A4FF0020123942292C9F8041000F314
:10064000268309F108090A9B802B00F0BD81069BD7
:10065000AAEB0306002E00F3F981029BDE0500F1F0
:100660004A81069BC9F804301C44229BC9F80050FB
:100670000133072B2394229300F3588209F10809D0
:10068000029B5A0705D5DDE903239D1A002D00F3CF
:100690000A83DDE9042303998A42ACBF9B185B18E7
:1006A0000593002C40F02E82002322930DF1B8090F
:1006B00030E6099B073323F00703B3EC027B55ECCC
:1006C000174B099325F0004315938DED147ADDE95E
:1006D0001401B74B4FF0FF328DED0C7B05F00EFF90
:1006E000002840F01084DDE91401B14B4FF0FF32D7
:1006F00005F0E6FE002840F0068400220023204694
:10070000294605F0D3FE002840F025869DF8674075
:10071000A84D27F080030293A74BB8F1470FD8BF2D
:100720001D464FF0000A032303930693CDF82CA037
:1007300008E7099AFC0652F8043B09921FD4780690
:100740001DD543F3C03211461BB285E6099951F815
:10075000043B099117F0100100F0CD830121BAE6A6
:10076000099951F8043B099117F010017FF4A1AEEB
:1007700017F040023FF49DAE0A469BB299E6DA17A5
:1007800011460029BFF66BAE5B4262EB42022D249C
:100790000121A1E6099B53F8042B0492002A80F260
:1007A000A283049A0993524204929BF8003047F0C6
:1007B0000407D0E55A4612F8018BB8F12A0F00F071
:1007C0004E87A8F13003092B98BF4FF0000A00F2C2
:1007D000B98612F8018B0AEB8A0A03EB4A0AA8F1E0
:1007E0003003092BF5D94AEAEA7A9346B6E59BF835
:1007F000003047F08007AEE52B238DF867309BF87B
:100800000030A8E59BF8003047F00107A3E59DF80C
:1008100067209BF80030002A7FF49DAD20228DF8E0
:10082000672098E59BF800306C2B03BF9BF80130E4
:1008300047F020070BF1010B47F010078BE59BF801
:10084000003047F0400786E5099B00228DF86720BD
:1008500053F8042B099301238DF8902003930693FA
:1008600024ADB7E69BF8003047F0080773E5099C14
:1008700054F8045B00268DF86760002D00F01285A7
:10088000BAF1000FC0F21A8452463146284603F0EE
:1008900007FB002800F04586431B069323EAE37319
:1008A0000994B2469DF86740029703930B9649E678
:1008B0009BF8003047F020074DE5099A52F8043BB9
:1008C000099247F63002ADF868203C4A119247F091
:1008D0000207002202214FF07808FCE5BD0640F136
:1008E0008183099B059A1B681A60D2175A60099B7D
:1008F000043309930EE5B8F1650F40F32381DDE978
:100900000C010022002305F0C7FD002800F007823B
:10091000229B2B4AC9F80020013301340122072B06
:1009200023942293C9F8042000F3958409F108095F
:100930001B9B0E9A934203DB029BDD077FF5A0AE63
:100940000F9B109A1C44C9E90023229B2394013376
:10095000072B229300F3998409F108090E9B5D1E71
:10096000002D7FF78DAE102D229B164F40F3D380C4
:10097000DDE907A8102605E009F10809103D102D52
:1009800040F3C98001331034072BC9E90076CDE963
:100990002234F1DD21AA5146404602F041FC0028F4
:1009A0007FF403AEDDE922340DF1B809E6E700BFBC
:1009B000FFFFEF7F707800006C78000090780000F7
:1009C000AC780000F06C0000DDE903239E1A002ED5
:1009D0007FF73DAE102E229BB74F24DD4A462146BD
:1009E000A946DDE9075404E0103E102E02F108028A
:1009F00016DD013310311020072BCDE922311760AD
:100A00005060F1DD21AA2946204602F009FC0028A9
:100A10007FF4CBAD103E102EDDE922312EAAE8DCAA
:100A20004D460C46914601333444072BCDE9223420
:100A3000C9F80070C9F8046000F31A84069BAAEB99
:100A40000306002E09F108097FF707AE102E229B3E
:100A5000994F2CDD4A462146B1464FF0100A2E46EA
:100A6000DDE9075406E0A9F11009B9F1100F02F110
:100A7000080218DD013390481031072BC2E9000A43
:100A8000CDE92231EFDD21AA2946204602F0C8FB3C
:100A900000287FF48AADA9F11009B9F1100FDDE942
:100AA00022312EAAE6DC35460C464E4691460133ED
:100AB0003444072BCDE92234C9F80070C9F804602A
:100AC00000F3EA8109F10809C7E50129029F4FF007
:100AD00000033FF4D6AC02291A467FF40FAD1198FB
:100AE0002EAD03F00F011B09415C05F8011D43EA1F
:100AF0000273120953EA0201F3D12EAB5B1B02977A
:100B0000069318E5DDE9071021AA02F089FB002809
:100B10003FF4CAAD49E501332C44072BC9F80070F6
:100B2000C9F80450CDE922347FF7A8ADDDE90710FC
:100B300021AA02F075FB00287FF437AD239C0DF14C
:100B4000B8099DE50E9B229E012B04F1010406F1DC
:100B5000010609F1080840F35B810123072ECDE966
:100B60002264C9F80050C9F8043000F3A2810F9B39
:100B7000109A01361C44072EC8E90023CDE92264EF
:100B800000F3A48108F108080E9BDDE90C0103F1D4
:100B9000FF390022002305F07FFC002840F053813C
:100BA000013601354C44072ECDE92264C8F80050C7
:100BB000C8F8049000F33A8108F10808129BC8F8BD
:100BC000043001361C44072E1DABCDE92264C8F861
:100BD0000030ABDC08F1080952E50121BAF1000F41
:100BE0007FF473AF002940F00E8117F001030693E4
:100BF00000F07E8130238DF8B7300DF1B7059AE40F
:100C0000102E229A2D4F26DD49462046A9461393E1
:100C1000DDE9075404E0103E102E01F1080116DD55
:100C2000013210301023072ACDE922200F604B60DB
:100C3000F1DD21AA2946204602F0F2FA00287FF4CD
:100C4000B4AC103E102EDDE922202EA9E8DC139B67
:100C50004D460446894601323444072ACDE9222410
:100C6000C9F80070C9F8046000F3B28209F10809FC
:100C7000C2E4DDE9071021AA139302F0D1FA00289B
:100C80007FF493AC239C139B0DF1B809C9E4DDE913
:100C9000071021AA02F0C4FA00287FF486AC239C36
:100CA0000DF1B809CFE4102D229B044F24DDDDE9BE
:100CB00007A8102609E000BFF06C0000E06C0000FF
:100CC000103D102D09F1080916DD01331034072BF2
:100CD000C9E90076CDE92234F2DD21AA5146404629
:100CE00002F09EFA00287FF460AC103D102DDDE983
:100CF00022340DF1B809E8DC01332C44072BC9E993
:100D00000075CDE922347FF7C4ACDDE9071021AAD4
:100D100002F086FA00287FF448AC239CB9E41B99C2
:100D2000002940F364820B9F0E9B9F42A8BF1F4681
:100D3000002F0BDD229B01333C44072BC9E90057F0
:100D40002394229300F3CF8309F108090B9E002F0F
:100D5000A8BFF61B002E00F385811B9B0E9A9342C1
:100D600080F26C810F9A10991444C9E90012229AFA
:100D700023940132072A229200F3F28209F1080932
:100D80000E9A0B99D31A561A9E42A8BF1E46002EE1
:100D90000EDD229AC9F8046001320D443444072A5A
:100DA000C9F800502394229200F3A98309F108099D
:100DB000002EACBF9D1B1D46002D7FF761AC102D92
:100DC000229BBB4F7FF7A7AEDDE907A8102605E001
:100DD00009F10809103D102D7FF79DAE0133103445
:100DE000072BC9E90076CDE92234F1DD21AA51466D
:100DF000404602F015FA00287FF4D7ABDDE9223433
:100E00000DF1B809E6E7CDF818A02EADFFF793BBBA
:100E1000029BD9073FF5A1AE0123072ECDE922643D
:100E2000C9F80050C9F804307FF7C8AEDDE90710F3
:100E300021AA02F0F5F900287FF4B7ABDDE92264BE
:100E40000DF1B808BAE60E9B012B7FF7B7AE112B58
:100E5000974F40F36582DDF820A0102507E008F1E8
:100E60000808A9F11009B9F1100F40F359820136B1
:100E70001034072EC8E90075CDE92264EFDD07992B
:100E800021AA504602F0CCF900287FF48EABDDE9B0
:100E900022640DF1B808E4E7DDE9071021AA02F0A9
:100EA000BFF900287FF481AB239C0DF1B809FFF74F
:100EB000D4BBDDE9071021AA02F0B2F900287FF4C3
:100EC00074ABDDE922640DF1B80850E6DDE90710E6
:100ED00021AA02F0A5F900287FF467ABDDE92264BE
:100EE0000DF1B80850E609939BF80030FFF733BACC
:100EF0002EADFFF720BB17F040021CBF0A469BB285
:100F00000121FFF7E8BADDE90C0102460B4605F0C6
:100F1000F5FA002840F05F83BAF1FF3F28F0200681
:100F200000F0FC82472E04D1BAF1000F08BF4FF049
:100F3000010ADDE90C0147F4807200290292C0F237
:100F400029829DED0C7B8DED167B00230A93B8F171
:100F5000650F00F0F28200F32482B8F1450F00F033
:100F6000EC821FAB01931CAB009302219DED160B8D
:100F700008981BAB524600F0CDFEF907054640F13C
:100F8000A88000EB0A04DDE916010022002305F029
:100F900083FA002840F025821F9BA34206D230210D
:100FA0005A1C1F9219701F9B9C42F9D81B9A0B92D6
:100FB0005B1B472E0E9300F09180B8F1660F40F056
:100FC00093800B9A07F00103002A43EA0A0340F3D7
:100FD0006182002B40F019830B9B039306934FF023
:100FE000660814E2FC066FD478066DD5099B059A55
:100FF0001B681A807BE42F4B119317F0200200F03E
:101000009F80099B073323F0070319465A6851F85C
:10101000083B0991F90740F1908053EA020100F082
:101020008C8030218DF868108DF8698047F00207B8
:101030000221FFF750BA204B1193DEE7029AD00746
:101040007FF59EAE8EE60898402100F023FB079BBB
:1010500018601861002800F0B682079A4023536197
:10106000FFF749B9102E229B114F40F366812246AB
:101070004FF01008DDE9074A05E009F10809103EC4
:10108000102E40F3598101331032072BC9E9007843
:10109000CDE92232F1DD21AA2146504602F0C0F806
:1010A00000287FF482AADDE922320DF1B809E6E7D3
:1010B000F06C00007C780000907800002846FFF774
:1010C0001FF80346FFF7E9BB099B059A1B681A60E6
:1010D0000DE41F9B1B1A0E931B9B0B930B9BDA1C9F
:1010E00080F28381A8F102080B9B8DF87480591E51
:1010F00000291B91B6BFC3F101012B232D23092920
:101100008DF8753000F39C81302330318DF87630C6
:1011100004238DF8771012930E9A129B012A134420
:10112000069340F31482069B0F9A1344069323EA16
:10113000E373039300230B9369E10221FFF7CBB91B
:10114000099951F8043B099117F010017FF462AF3F
:1011500017F040021CBF9BB20A465BE7CDE902874D
:10116000B34E2EAD4FF0050E991841F10001A6FBCC
:10117000010727F0030000EB9700091A581A984658
:10118000944662F100034FF0CC3202FB00F206FB02
:101190000322A0FB063003F001070244A7FB0E0761
:1011A0004018B8F10A0F4FEA530300F130007CF108
:1011B000000C43EAC27305F8010D4FEA5202D3D284
:1011C000DDE902872EAB5B1B02970693FFF7B3B9ED
:1011D000DDE9071021AA139302F022F800287FF41A
:1011E000E4A9239C139B0DF1B809FFF705BA229BD4
:1011F000904AC9F80020013301340122072B2394BF
:101200002293C9F8042000F3B88009F108090029E5
:1012100052D1029B0E9A03F0010313433FF430AA0C
:101220000F9B10991A19C9E90013229B23920133CD
:10123000072B229300F3378109F108090E99C9F8A9
:10124000005001338C18072BCDE92234C9F8041063
:101250007FF714AA6AE4DDE9071021AA01F0E0FF94
:1012600000287FF4A2A9239C0DF1B809FFF760BB09
:10127000DDE9071021AA01F0D3FF00287FF495A92A
:10128000239C0DF1B809FFF7E2B9DDE9071021AAA7
:1012900001F0C6FF00287FF488A9239C0DF1B8094E
:1012A000FFF75CBB5346062B28BF0623624D06930F
:1012B00009940393FFF78EB90F9B10981A19C9E987
:1012C0000003229B23920133072B229300F3EB8030
:1012D00009F108090029B1DA4E421031574F80F266
:1012E0003F81DDE907A8102405E009F10809103E57
:1012F000102E40F3358101331032072BC9E90074F9
:10130000CDE92232F1DD21AA5146404601F088FFA5
:1013100000287FF44AA9DDE922320DF1B809E6E799
:1013200001364C44072ECDE92264C8F80070C8F895
:1013300004907FF741AC79E5144601333444072B20
:10134000CDE92234C9F80070C9F8046000F3B9800F
:1013500009F1080901E52D248DF86740FFF7D8B998
:10136000DDE9071021AA01F05BFF00287FF41DA929
:101370001B9B239C0DF1B80902E5DDE9071021AAAA
:1013800001F04EFF00287FF410A91B99239C0DF15A
:10139000B8093CE701F1004317932D2316900A93F7
:1013A000D5E5B8F1660F7FF4DCADCDF80CA00321D4
:1013B000039C08981FAB01931CAB009322469DED44
:1013C000160B1BAB00F0A6FCB8F1660F05460444F3
:1013D0007FF4D9AD2B78302B00F0E7801B9B1C44A9
:1013E000D1E51B9A0B922346E2E59A45FFF67AAEC9
:1013F0000E9B0B9A934200F3CB80FE070B9B00F1F0
:10140000FB8023EAE372039206934FF067080A9B7E
:10141000002B62D02D238DF867304FF0000AFFF7C4
:1014200092B8DDE9071021AA01F0FAFEFFF7BDB876
:10143000CDCCCCCCAC780000A4780000F06C0000DF
:101440000DF183048D4E23461846A6FB0123DB08CD
:1014500003EB8302A1EB4202303200F8012C0A4672
:10146000632A194600F1FF33EEDC303103F8011C2A
:10147000831EA34280F0FE800DF1750213F8011B5C
:1014800002F8011FA342F9D13EAB181AA0F1710373
:10149000129341E6002B40F0D080012303934FF0DC
:1014A00066080693B3E7DDE9071021AA01F0B8FE4C
:1014B00000287FF47AA8DDE922321B990DF1B809E2
:1014C00008E7DDE9071021AA01F0AAFE00287FF451
:1014D0006CA8239C0DF1B8093FE4DDF828A09DF825
:1014E0006740FFF72FB8DDE9071021AA01F098FE49
:1014F00000287FF45AA8239C0DF1B80926E4DDE901
:10150000071021AA01F08CFE00287FF44EA81B9B37
:101510000E9A239CD31A0DF1B80949E44FF0060A3C
:1015200007E50994CDF80CA0CDF818A09DF8674008
:10153000029782460B90FFF705B80AF10103039367
:10154000022135E793464FF0000AFEF707BF17F078
:1015500001020B927FF4E7AD23EAE373039356E7AE
:1015600001333244072BCDE92232C9F80070C9F8A3
:1015700004607FF761AEDDE9071021AA01F050FE9B
:1015800000287FF412A8DDE922320DF1B80955E6F2
:10159000DDE90E3213440B9A0693002A41DD23EA5B
:1015A000E37303934FF0670831E7DDE9160100228A
:1015B000002304F071FF00284BD01B9B0B931C44AD
:1015C000631B0E93FDE4089A0C2313604FF0FF3366
:1015D0000593FEF7EFBF0D9B294D002BB8BF2D24BF
:1015E00027F080030293A8BF9DF86740254BB8BF42
:1015F0008DF86740FFF791B80F9A1344069323EADA
:10160000E37303934FF0670801E70F9B0AEB0308AE
:1016100008EB0203069323EAE37303934FF0660893
:10162000F5E60B9B069AC3F101031A4422EAE27322
:10163000069203934FF06708E9E60F9B03F1010858
:1016400008EB0A03069323EAE37303934FF066085B
:10165000DDE6039BC3F101031B931C4493E409994A
:101660009BF8013051F804AB099193464AEAEA7AB3
:10167000FEF771BE022312934EE500BFCDCCCCCC59
:101680007878000074780000014B1868704700BF3C
:10169000000000202DE9F04F01F10B05162D83B05D
:1016A000064623D8102900F2AF8001F0A3FC1025D4
:1016B00018230220C04F3B44A3F108025C68944207
:1016C00000F024816368E268A16823F00303CA6024
:1016D0002344304691605A6842F001025A6001F09A
:1016E0008BFC0834204603B0BDE8F08F35F00705C9
:1016F00000F18A80A94200F2878001F07BFCB5F5F9
:10170000FC7FC0F06B816B0A00F08280042B00F23A
:101710002381AB0903F1390003F1380EC300A64F52
:101720003B44A3F1080C5C68A44507D10DE0002AF6
:10173000E16880F2E5808C4507D00C46636823F0B1
:1017400003035A1B0F2AF2DD7046DFF870823C69F2
:10175000444500F0C280636823F0030CACEB050342
:101760000F2B00F33F81002BC7E9048880F22A8108
:10177000BCF5007FD7F804E080F0CE804FEADC01B2
:1017800001314FEA5C1C012303FA0CF357F83120B6
:10179000A2604EEA030E07EBC103083BE360C7F803
:1017A00004E047F83140D46083104FF0010C0CFA8C
:1017B00003FCF44532D81CEA0E0F08D120F00300D8
:1017C0004FEA4C0C1CEA0E0F00F10400F8D007EBB6
:1017D000C00AD6468146DEF80C300BE0596821F08D
:1017E00003014A1B0F2A1C46DB6800F3C180002A54
:1017F00080F2D5809E45F1D109F1010919F0030F5E
:101800000EF1080EE7D116E10C233360002469E7DE
:101810004FF4007340204FF03F0E80E7BC686368D0
:1018200023F00309A94503D3A9EB05030F2B57DCCC
:10183000DFF88CB1DBF8002004EB0903103208203C
:1018400002EB0508009301F0C7FBD7F8081401313B
:10185000024605D008F1FF388044414201EA0808F9
:1018600041463046019201F007FDB0F1FF3F019A79
:10187000824600F0D280009B834200F2CC80DBF8ED
:1018800004104144CBF80410084602F1FF3C40F03C
:10189000F4801AEA0C0F40F0F080D7F808A0C84492
:1018A00048F00100CAF80400DBF82C208A42DBF87B
:1018B000302038BFCBF82C108A4238BFCBF830101C
:1018C000544620F00308A845A8EB050301D30F2BCD
:1018D00006DC304601F090FB98E7D7F804E063E7B8
:1018E000621943F0010345F0010565603046BA60B6
:1018F000536001F081FB0834204603B0BDE8F08F4F
:10190000A2682344D16030468A60E4E6DC68A342E2
:101910007FF4D8AE023018E7BCF5206F4FEA5C22A6
:1019200072D3142A00F2088102F15C03DB005B32FF
:10193000F918FB580839994203D1E4E09B689942B1
:1019400004D05A6822F003026245F7D8D968C4E986
:1019500002318C60DC6027E7142B61D9542B00F234
:10196000F4802B0B03F16F0003F16E0EC300D6E67B
:10197000D4F808C03046661945F001056560CCF81A
:101980000C30C3F808C042F00103C7E90466C6E999
:1019900002887360625001F02FFB0834A2E62144F4
:1019A00030464A6842F001024A6054F8082FD3607A
:1019B0009A6001F021FB95E628010020300100200B
:1019C000B0060020A4443046DCF8043043F00103A4
:1019D000CCF8043001F010FB083483E6E80805F188
:1019E000080367E6621943F0010145F001056560EF
:1019F0003046C7E90422C2E90288516044F80C303D
:101A000001F0FAFA08346DE64FEA9C1202F139034C
:101A1000DB0038328CE7BC4228D0BC68606850E7F5
:101A200003F15C0003F15B0EC30078E65AF8083955
:101A3000534540F0D78010F0030F00F1FF30F5D18F
:101A40007B6823EA0C037B604FEA4C0C9C453FF615
:101A5000E5AEBCF1000F04D1E0E64FEA4C0C09F111
:101A600004091CEA030FF8D04846B0E6DBF804008E
:101A70004044CBF8040002F1FF3CD7F808140131D0
:101A80006DD0009BAAEB03031844CBF804001AF0B6
:101A90000703009341D0C3F108018A44D0440A44AB
:101AA00008EA0C01521A02EA0C013046019101F0D9
:101AB000E3FB421C6FD00199A0EB0A0000EB010888
:101AC000DBF80420C7F808A048F001001144BC422C
:101AD000CAF80400CBF804103FF4E6AEB9F10F0FDA
:101AE00040D96268A9F10C0020F0070002F0010261
:101AF00002436260052322180F28C2E9013352D83D
:101B0000DAF80400D0E692104FF0010C0CFA02F261
:101B10004EEA020EC7F804E019E70AEB080101EAF1
:101B20000C01521A02EA0C013046019101F0A4FBAB
:101B3000431CC0D10099C3E7542A17D84FEA1C327E
:101B400002F16F03DB006E32F2E6B3F5AA7F17D81D
:101B5000EB0B03F1780003F1770EC300DFE5C7F864
:101B600008A494E70123CAF80430B2E6B2F5AA7FCC
:101B700023D84FEADC3202F17803DB007732D7E674
:101B800040F25452934223D8AB0C03F17D0003F191
:101B90007C0EC300C3E5009BA3F108029044A8EBB0
:101BA0000A0800218CE704F10801304601F050F8E2
:101BB000DBF80410D7F808A0A2E740F254539A4289
:101BC0000CD84FEA9C4202F17D03DB007C32AFE689
:101BD0004FF47E737F204FF07E0EA0E54FF47E73AE
:101BE0007E22A5E67B682FE72DE9F04F03690C699B
:101BF000A34283B0C0F28A80013C01F1140500F1D8
:101C0000140855F8243058F8242001339A428E469F
:101C100081464FEA840105EB840708EB840AB2FB96
:101C2000F3F63AD3CDE900150022AC464046134600
:101C30005CF8041B05681FFA81FB06FB0B22090CEC
:101C40004FEA124B06FB01BB92B2A9B2891A1944A2
:101C50001FFA8BF3C3EB214303EB154389B241EA2F
:101C60000341674540F8041B4FEA1B424FEA2343F8
:101C7000DED2DDE9001558F8013073B9AAF1040A83
:101C8000D04504D307E0D04504F1FF3403D25AF81D
:101C90000439002BF7D0C9F810407146484601F0CE
:101CA00057FE00282EDB4146002255F8040BD1F8E0
:101CB00000C01FFA80FE1FFA8CF3A3EB0E0313443F
:101CC000020CC2EB234202EB1C429BB243EA0243EA
:101CD000AF4241F8043B4FEA2242E6D258F82420B2
:101CE00008EB84036AB9043B434504D807E09845F0
:101CF00004F1FF3403D253F80429002AF7D0C9F8BD
:101D000010400136304603B0BDE8F08F002003B02C
:101D1000BDE8F08F2DE9F04F9DB0CDE90A32029178
:101D2000816B269D04908DED060B57EC106B49B12D
:101D3000C26B4A600123934004468B6001F04CFB68
:101D40000023A363B7F10009B4BF012300232B6074
:101D5000774BBCBF29F00049CDF81C9033EA09034A
:101D600000F0AA809DED067B002251EC170B0023AA
:101D70008DED007B04F090FB804668B10A9A012348
:101D80001360279B13B1279A6A4B13606A4B059324
:101D900005981DB0BDE8F08F9DED000B04981AAAC0
:101DA0001BA901F043FF5FEA1955824640F09A8073
:101DB000DDE91A85454405F23243202B40F38C833C
:101DC000C3F1400309FA03F905F2124326FA03F3BB
:101DD00049EA030004F07EF80123013DA1F1F87106
:101DE0001293564B002203F037FF4BA3D3E9002395
:101DF00004F0EAF84AA3D3E9002303F02FFF0646D4
:101E000028460F4604F076F847A3D3E9002304F0F0
:101E1000DBF802460B463046394603F01FFF064604
:101E20000F4604F081FB002204460990002330464F
:101E3000394604F03BFB002840F02483099CA8EBC2
:101E4000050808F1FF33162C089300F28C813C4BF7
:101E500003EBC403D3E90023DDE9000104F026FB12
:101E6000002873D0631E099300231193089B002B55
:101E7000C0F27F8100230C93099B002B6CDA099B35
:101E80000C9A0D93D21A0C925A4200230993029B8A
:101E90001092092B6AD8052B40F32383043B02934D
:101EA0000025029B023B032B00F23886DFE813F08B
:101EB00070046D04650449040A9AC9F3130942F2D7
:101EC0000F7359EA060913601CD1279B002B00F001
:101ED00045861C4B05930833279A059813601DB05F
:101EE000BDE8F08FDDE90012C2F31303084643F0AA
:101EF0007F51CDF84880A5F2FF35DDF8688041F4C8
:101F000040116EE7279B002B40F0F6830E4B0593A4
:101F10003EE700BFAFF3008061436F63A787D23F06
:101F2000B3C8608B288AC63FFB799F501344D33FC8
:101F30000000F07FAD780000AC7800000000F83FB2
:101F4000106D0000B0780000BC780000B8F1000F00
:101F500040F3A38411900C90DDE9083213440893F8
:101F600000231093029B0D92092B94D90023012585
:101F700002930E954FF0FF3B0B93049BCDF84CB0B2
:101F80000021D963049801F001FA0590002800F0BF
:101F9000CE85DDE90432BBF10E0F9A6300F21881A1
:101FA000002D00F015810D99002940F34684B34BB4
:101FB00001F00F0203EBC203C805D3E900894FEA21
:101FC000211540F10884AE4BDDE90001D3E9082377
:101FD00004F024F9CDE9140105F00F0503277DB1C4
:101FE000A74EE90708D540464946D6E9002303F045
:101FF000EBFF0137804689466D1006F10806F0D1E7
:1020000042464B46DDE9140104F008F98046894652
:10201000119B43B19B4B00224046494604F046FACF
:10202000002840F00B85384603F064FF42464B46DB
:1020300003F0CAFF944B002203F010FEA1F150738D
:10204000CDE914011593BBF1000F00F0A8800D9BA2
:10205000CDE918B34946404604F066FA189A874B12
:1020600003EBC20313ED027B05468DED167B03F0F7
:1020700041FF0B4602464946404603F0EDFD059FF1
:102080000E9B30357E1CECB2804689463546002BCF
:1020900000F06C84DDE916237C49002004F0BEF8D2
:1020A000DDE9142303F0D8FD3C7042464B4604465C
:1020B0000D4604F019FA002840F0B884CDF850A07D
:1020C000CDF858B00027AB46A246189D2AE001374C
:1020D000AF4280F2FD846E4B50465946002203F019
:1020E00073FF6B4B002282468B464046494603F005
:1020F0006BFF8946804604F017FA044603F0FAFEA7
:1021000002460B464046494603F0A6FD303406F829
:10211000014B52465B468046894604F0C7F90028C9
:1021200040F0D38442464B465649002003F094FDCC
:1021300052465B4604F0BAF90028C8D0199BDDF876
:1021400050A0059A374603F1010802E0974200F0DB
:102150009B843E4617F8013D392BF7D00133DBB2A3
:102160003B7045467DE101231193089B002BBFF690
:1021700081AEC8F101030C93002308937CE6384636
:1021800003F0B8FE42464B4603F01EFF3E4B0022D2
:1021900003F064FDA1F15073CDE9140115933D4B9B
:1021A00000224046494603F057FDDDE9144522462A
:1021B0002B4606460F4604F097F9002840F073843A
:1021C00030463946224605F1004304F06FF928BB3A
:1021D0001B9B002BC0F290800D9A0E2A00F38C807E
:1021E000264B0D9A03EBC20393ED007B0B9B002B58
:1021F0008DED027B19DABBF1000F16DC0ED1254BF9
:102200000022DDE9020103F0DFFE02460B46DDE9B4
:10221000000104F055F9002800F045840023059ED4
:1022200000931F460B9BDD432DE2059B5D1CDDE902
:102230000278DDE900013A46434603F0EFFF04F07F
:1022400073F9064603F056FE3A46434603F0BCFED9
:1022500002460B46DDE9000103F0FEFC059A06F19B
:102260003003BBF1010F2F46137000F021830125CD
:10227000CDF800A0A846DDE9029A2BE0106D000021
:10228000006E00000000F03F00001C400000E03F36
:1022900000002440000014404A4653462046294688
:1022A00003F0BCFF04F040F9064603F023FE4A4663
:1022B000534603F089FE08F101080B460246294601
:1022C000204603F0C9FC06F13003D84507F8013B6E
:1022D00000F0EC82844B002203F076FE0022002303
:1022E00004460D4604F0D8F80028D5D00D9DDDF841
:1022F00000A001353E46B4E00E9A002A40F0D88096
:102300000023109E0C9D0E931F4665B1089A002A6B
:1023100009DD0C99AA421346A8BF2B46C91AED1A2B
:10232000D31A0C910893109B53B10E9B13B1002E3E
:1023300040F0F7825146109A049801F037FA82462D
:102340000498012101F04EF9099B0090002B40F008
:10235000BE81029B012B40F3D4810120089A1044D6
:1023600010F01F0000F09B80C0F12003042B40F30D
:10237000E3810C9BC0F11C00034402440C93054410
:1023800008920C9B002B05DD514604981A4601F07B
:1023900067FA8246089B002B05DD009904981A46CF
:1023A00001F05EFA0090119B002B40F07581BBF1AB
:1023B000000F40F34C810E9B002B40F0A4800D9D3C
:1023C0000135DDF81480009CDDF81090012607E04F
:1023D000514600230A22484601F008F80136824699
:1023E00021465046FFF700FCB34500F1300008F8E5
:1023F000010BEDDCBBF1000F059BCCBF5E46012657
:10240000814603EB060B002451460122049801F09B
:1024100027FA0099824601F09BFA002840F3EE81EA
:10242000059A02E0934500F003825E460BF1FF3B04
:1024300016F8013C392BF5D001338BF80030DDF86C
:1024400010800099404600F0C7FF57B12CB1BC4244
:1024500003D02146404600F0BFFF0498394600F003
:10246000BBFF0498514600F0B7FF002333700A9B6E
:102470001D60279B002B3FF48BAC05981E601DB0A0
:10248000BDE8F08F204603F035FD32463B4604F0B0
:1024900003F800287FF4D2AC631E0993CEE41C231A
:1024A0000C9A1A440C92089A1A441D44089268E740
:1024B000029A012A40F3AD81109B0BF1FF36B34223
:1024C000C0F26981BBF1000FA3EB060680F2EF8238
:1024D0000C9BA3EB0B056CE1C3F1200306FA03F0A0
:1024E00078E40125DDE400BF0000244039460023E4
:1024F00004980A2200F07AFF139B002B074640F352
:10250000FF820D969B46002D05DD394604982A462C
:1025100001F0A6F90746099B002B40F0E681B8467A
:10252000059E731E03EB0B04069B03F00103CDE92C
:102530000B43049C00995046FFF756FB39468346EF
:10254000504601F005FA009905464246204601F042
:1025500021FAC3680BF130090146ABBB0990504624
:1025600001F0F6F909990890204600F035FF089A25
:10257000002A54D1029B1BB90C9B002B00F0AE82A9
:10258000002D3FDB0B9BB3469E420BF8019B00F0F6
:10259000C381514600230A22204600F027FF474509
:1025A000824639464FF000034FF00A02204630D0F1
:1025B00000F01CFF4146074600230A22204600F097
:1025C00015FF5E468046B5E7049800F005FF002D34
:1025D00006DB069B03F00102029B1D432A4329D11F
:1025E00051460122049801F03BF90099824601F01E
:1025F000AFF9002840F3F680B9F1390F00F04982B5
:102600000BF131090D9D06F8019B3C46013547460B
:1026100015E700F0EBFE5E46074680468AE7002D90
:10262000C0F29382029B1D430C9B1D4300F08D82E0
:10263000002AA7DDB9F1390F00F02B820D9D09F1B9
:1026400001033C4606F8013B01354746F7E6029B8D
:10265000022B7FF7B0AEBBF1000F40F0258100994F
:1026600004985B46052200F0C1FE014600905046EA
:1026700001F06EF9002840F31781059E0D9D31236E
:1026800006F8013B01350099049800F0A5FE0135DC
:10269000002F7FF4E2AEE4E60099504601F058F9CD
:1026A0000028BFF684AE5146002304980D9C0A22F0
:1026B00000F09CFE0E9B661E8246002B7FF416AF38
:1026C000139B002B40F311820D9D9B4679E601463A
:1026D0001A46049801F06AF8029B0090012B6EDD07
:1026E00000230993009A136902EB8303186900F031
:1026F00027FFC0F1200031E6984B05930333FFF725
:10270000EBBB069B002B7FF428AEDDE90612C2F37B
:102710001303002B7FF421AE914B134033B10C9B7C
:1027200001330C93089B013308930123099A099301
:10273000002A3FF412AED5E73FF423AEC0F13C03CC
:10274000AEE601230E930B9B0D9A134403F1010B8C
:102750005E46012E1393B8BF0126172E40F3F98170
:10276000012204235B0003F11400B042114602F180
:102770000102F7D9049BD96304E401230E930B9E55
:10278000002E36DD1396B346E7E700230E93DAE713
:1027900000230E93F3E7109B099A1096F31A1A443C
:1027A000089B09925B4408930C9B1D465B440C9369
:1027B00000260498012100F015FF0746A5E5069BB9
:1027C000002B8DD1DDE90601C1F313030A46002B6E
:1027D000A2D0099086E79DED007B02278DED147B4A
:1027E000FFF7FDBB7FF40EAF19F0010F7FF404AFCC
:1027F00008E701230B939B46FFF7BFBB03D119F0FA
:10280000010F7FF40DAE5E461BF8013D302BFAD070
:1028100015E6129A002A00F09C8003F23343089ACE
:10282000109E1A4408920C9A15461A440C92C0E75E
:10283000059A31230135137001E600F0FA800D9AF4
:10284000484B554205F00F0203EBC203D3E90023C6
:10285000DDE9000103F0B8FB2D11CDE9140100F012
:102860005881414E0023022780468946EA0709D550
:10287000D6E900234046494603F0A6FB01378046CF
:10288000894601236D1006F10806EFD1002B7FF475
:10289000BFABDDE91489FFF7BBBBC8F101030890AA
:1028A0000C931190FFF758BB059EBBE4DDF800A028
:1028B00002460B4603F0D2F90D9DCDE9000101352A
:1028C00002460B46DDE90201A84603F0EFFD40B9E0
:1028D000DDE90023DDE9020103F0DEFD18B1F307B5
:1028E00001D5059A35E43E46BBE57968049800F0C9
:1028F0004DFD0546002800F021813B6902339A0016
:1029000007F10C010C3000F0CDFA049829460122A1
:1029100000F0A6FF804603E60D9D3C460135474684
:1029200072E5049C39463246204600F03FFF52468D
:1029300001460746204600F083FE51468046204669
:1029400000F04AFD109B9B1BC24610933FF4F8AC6D
:10295000F0E41A9BC3F1360361E700BFBC780000C6
:102960000000F07F106D0000006E0000DDE916230E
:10297000DDE9140103F028FB059B1C70189B012B5B
:10298000CDE90E0100F0C380189F059B12961F44ED
:102990007A4B00224046494603F016FB0D4604469A
:1029A00003F0C2FD814603F0A5FA09F130090246A1
:1029B0000B462046294603F04FF906F8019BBE421C
:1029C00080468946E4D1129D6D4B0022DDE90E015F
:1029D00003F044F902460B464046494603F084FDA5
:1029E00000286CD1DDE90E236549002003F034F99D
:1029F00002460B464046494603F058FD80B91B9BF2
:102A0000002BFFF67DAC0D9B0E2B3FF779AC5D4B99
:102A10000D9A03EBC20393ED007B8DED027B06E480
:102A20003E46013F16F8013C302BF9D0199D013587
:102A300017E5DDE900890227FFF7EABABBF1000FCD
:102A40003FF49DAB139C002C7FF7C2AB0D9B013B69
:102A50000022404649461993484B03F0B5FA804698
:102A60008946781C03F046FA42464B4603F0ACFA1E
:102A7000454B002203F0F2F8A1F15073CDE91401A7
:102A800018941593FFF7E6BA08F101083123FFF710
:102A900067BB0D9D059AB34639233C460BF8013BB5
:102AA00001354746C1E4002300931F46E5E5089B36
:102AB0005B4408930C9B1D465B440C9379E6199B81
:102AC000059A03F10108FFF744BBDDF850A0ADE71C
:102AD000DDF850A0DDF858B0FFF77ABBB9F1390F37
:102AE000D7D0002D3FF78CAD8CE5029B022B03DC89
:102AF0000D9DDDF84CB064E4DDF84CB00D96AAE510
:102B0000029B022BF8DCDDF84CB00D96FBE4374657
:102B10005AE7DDE914890227FFF77ABA049B0025FA
:102B2000DD632946184600F031FC0590D0B9174BFB
:102B30001748002240F2AF1100F002FC134B14487A
:102B40002A4640F2EF2100F0FBFB002A3FF748AD98
:102B500058E5049B0021D963FFF714BA0D4B059388
:102B6000FFF716B9DDE904329A634FF0FF33012213
:102B70000B9513930E929B46FFF72ABB000024404F
:102B80000000E03F106D000000001C40C078000015
:102B9000D4780000B07800002DE9F84306460820FC
:102BA000894600F019FADFF8A4800546304600F0A7
:102BB00021FAD8F808305F6827F00307A7F111045D
:102BC000A4EB09042C44B4FBF5F4013C05FB04F42C
:102BD000A54208DC0021304600F04EFBD8F8083052
:102BE0003B44984205D0304600F006FA0020BDE88C
:102BF000F8836142304600F03FFB01300FD0114AAC
:102C0000D8F808303F1B47F001075F601368304673
:102C10001B1B136000F0F0F90120BDE8F8830021D0
:102C2000304600F029FBD8F80820831A0F2BDADD94
:102C300043F001035360044B02491B68C01A08604B
:102C4000D1E700BFB4060020300500202801002095
:102C500000297CD02DE9F0410C46804600F0CAF9ED
:102C600054F8043C754FA4F1080523F001016818DD
:102C7000BE684268864222F0030200F08380DE07CD
:102C8000426000EB020C33D454F8084CDCF80430FA
:102C90002D1B2144AC6807F1080C644503F00103C7
:102CA00064D0D5F80CE0C4F80CE0CEF80840002B56
:102CB00000F0818041F001036B600160B1F5007F9D
:102CC00022D27868CB080122490901338A400243A5
:102CD00057F833107A6007EBC302083AC5E90212CD
:102CE00047F83350CD604046BDE8F04100F084B96C
:102CF000DCF80430DB072BD541F00103B1F5007F90
:102D000044F8043C0160DCD3B1F5206F4FEA512355
:102D100053D28B0903F1390003F13802C300F818CC
:102D2000FB580838984203D161E09B68984204D070
:102D30005A6822F003028A42F7D8D868C5E90230FF
:102D40008560DD604046BDE8F04100F055B9704750
:102D5000114407F1080C836863453FD0C268DA600C
:102D6000936041F001036B606950A7E7002B5FD1CE
:102D70000A44D0E90213CB60996042F001036B6012
:102D8000AA50B0E7DB070A4407D454F8083CED1A10
:102D90001A44D5E90213CB60996042F001036B60DD
:102DA000274BBD601B6893429DD8264B404619684F
:102DB000FFF7F2FE97E71144CDE7142B08D9542B07
:102DC0001DD80B0B03F16F0003F16E02C300A6E7E1
:102DD00003F15C0003F15B02C300A0E741F00103D3
:102DE000C7E90455C5E902CC6B6069507BE7796897
:102DF0009210012404FA02F20A437A609EE7B3F5C6
:102E0000AA7F06D8CB0B03F1780003F17702C30049
:102E100085E740F25452934206D88B0C03F17D00B3
:102E200003F17C02C3007AE74FF47E737E2276E7DB
:102E300041F001036B60016055E700BF28010020ED
:102E400034050020B0060020032A30B415D941EA29
:102E50000004A40784460B4604D0541E0FE0043A35
:102E6000032A08D91946604653F8044B5CF8045B02
:102E7000A542F4D0F1E760461946541E7AB1431ECC
:102E80000139021901E09A4209D013F8010F11F833
:102E900001CF6045F7D0A0EB0C0030BC704700209C
:102EA00030BC7047844641EA000313F003036DD140
:102EB000403A41D351F8043B40F8043B51F8043BFD
:102EC00040F8043B51F8043B40F8043B51F8043B04
:102ED00040F8043B51F8043B40F8043B51F8043BF4
:102EE00040F8043B51F8043B40F8043B51F8043BE4
:102EF00040F8043B51F8043B40F8043B51F8043BD4
:102F000040F8043B51F8043B40F8043B51F8043BC3
:102F100040F8043B51F8043B40F8043B51F8043BB3
:102F200040F8043B51F8043B40F8043B51F8043BA3
:102F300040F8043B403ABDD2303211D351F8043B43
:102F400040F8043B51F8043B40F8043B51F8043B83
:102F500040F8043B51F8043B40F8043B103AEDD2F2
:102F60000C3205D351F8043B40F8043B043AF9D243
:102F7000043208D0D2071CBF11F8013B00F8013B16
:102F800001D30B8803806046704700BF082A13D323
:102F90008B078DD010F003038AD0C3F10403D21A3B
:102FA000DB071CBF11F8013B00F8013B80D331F86F
:102FB000023B20F8023B7BE7043AD9D3013A11F8EF
:102FC000013B00F8013BF9D20B7803704B7843705A
:102FD0008B78837060467047082802D14FF4805088
:102FE000704708B5FEF750FB162303604FF0FF3023
:102FF00008BD00BF704700BF704700BF002070478A
:10300000024A0349034800F01DBF00BF38050020F5
:1030100001410000080000200C4B4168994210B5A6
:10302000044601D001F06CF8A168094B994202D026
:10303000204601F065F8E168064B994204D020462D
:10304000BDE8104001F05CB810BD00BFE4060020F0
:103050004C070020B4070020002070472DE9F843FA
:103060002A4C2B49DFF8BC90DFF8BC80294FC4F80C
:103070003811002504230822294604F15C00264E5D
:10308000E360C4E90055C4E90455A5606566A5611F
:1030900000F004F9214B63670822294604F1C400BB
:1030A000C4E90749C4E90987C4E91A55C4E91E55AA
:1030B0002567C4F8CC50C4F88050E66200F0EEF802
:1030C000174BC4F8DC30294604F16803082204F5E4
:1030D0009670C4F88430C4E92298C4E92476C4E91F
:1030E0003455C4E93855C4F8D850C4F83451C4F83C
:1030F000E85000F0D3F804F1D003C4E93C98C4E9E7
:103100003E76C4F8EC30BDE8F88300BFE40600204A
:1031100001300000294200004D420000090001007A
:1031200012000200C1410000E9410000F8B5254B42
:10313000D3F838310646002B3CD0234FD7E9013471
:10314000013B04D51DE05A1C04F1680419D0B4F900
:103150000C50013B002DF6D11C4BE360C4E9015536
:10316000C4E9045565662560A5610822294604F175
:103170005C0000F093F8C4E90C55C4E911552046F1
:10318000F8BD3D680DB12F46D8E74FF4D6713046F3
:10319000FEF780FA044680B10423C0E900530C30E6
:1031A0002946A0604FF4D072254600F077F83C60C5
:1031B0002F46C3E7FFF752FFBFE70C2338603360A9
:1031C000DDE700BFE4060020380500200100FFFF16
:1031D000436B03B17047044B044AD3F83831426360
:1031E000002BF7D13AE700BFE406002019300000B9
:1031F000704700BF704700BF024A0349002000F03B
:1032000021BE00BF38050020FD2F0000024A0349FF
:10321000002000F017BE00BF380500205930000024
:103220002DE9F843154692682C68FAB18046894624
:10323000083401E00834CFB16B68591E002B1746E3
:10324000696013DD54F8046C002EF3D0334654F853
:10325000082C4946404600F0D1FE431C07D0AA681E
:10326000921B1746AA600834002FE5D100200023E6
:10327000C5E90133BDE8F88338B5074D002204469F
:1032800008462A6003F0DAFC431C00D038BD2B68E6
:10329000002BFBD0236038BD20080020830730B509
:1032A00047D0541E002A3ED0CAB2034601E0013C7A
:1032B00039D303F8012B9D07F9D1032C2CD9CDB2BA
:1032C00005EB05250F2C05EB054535D9A4F11002BA
:1032D00022F00F0C03F1100EE6444FEA121C1A46BE
:1032E000C2E90055C2E9025510327245F8D10CF11D
:1032F000010214F00C0F03EB021204F00F0C13D0B8
:10330000ACF1040323F003030433134442F8045BD9
:103310009342FBD10CF003042CB1C9B21C4403F856
:10332000011BA342FBD130BD64461346002CF4D1EF
:10333000F9E703461446C0E71A46A446E0E700BF93
:1033400000B50B4C25681446EE681A4685B0034656
:103350000D464CB107490095CDE9011430460649A8
:1033600000F0BAFE00F00CFE04490C46F3E700BF83
:103370000000002000790000107900000C790000A6
:1033800008B513460022FFF7DBFF00BF436C70B5A2
:1033900005460C464BB153F8240080B1026843F84F
:1033A00024200023C0E9033370BD2122042100F052
:1033B000EFFD034668640028EDD1002070BD0121B7
:1033C00001FA04F6721D9200284600F0E1FD002883
:1033D000F3D0C0E90146E4E731B1436C4A6853F8E1
:1033E0002200086043F82210704700BF2DE9F04129
:1033F0000D6907460E461C4601F1140E0020DEF84A
:1034000000108BB202FB03434FEA134C090C02FB82
:1034100001CC01309BB203EB0C4385424EF8043BD8
:103420004FEA1C44EBDC3CB1B368AB4207DD06EB72
:10343000850301355C6135613046BDE8F081716816
:1034400038460131FFF7A2FF8046A8B13269023247
:1034500006F10C0192000C30FFF724FD7B6C7268C2
:1034600053F82210316043F82260464606EB85038C
:1034700001355C613561DFE7024B03484246BA2102
:10348000FFF75EFFC0780000407900002DE9F843A7
:103490001746284A1E4608330C46092E82FB0312A3
:1034A0004FEAE3730546C3EB62033ADD4FF0010CCC
:1034B00000214FEA4C0C634501F10101F9DC28467B
:1034C000FFF764FF014670B3089B4361092F4FF07B
:1034D0000103036112DC0A340927BE420BDDF61B2F
:1034E000264414F8013B0A22303B2846FFF77EFFB2
:1034F000B4420146F5D10846BDE8F88304F1090855
:1035000004EB0709444614F8013B0A22303B2846E5
:10351000FFF76CFF4C450146F5D1A7F10804444480
:10352000DBE70021CBE70A46034B0448D321FFF732
:1035300007FF00BF398EE338C078000040790000F3
:10354000B0F5803F034636BF030400201020B3F1DE
:10355000807F3CBF1B020830B3F1805F3CBF1B0182
:103560000430B3F1804F03D3002B06DB01307047EA
:103570009B0003D45B0003D42020704702307047C7
:1035800003307047036813F00702014607D0DA07DB
:103590001FD4980721D55B080B600120704798B2B3
:1035A000A0B11046DAB20AB908301B0A1A0704BFE4
:1035B0001B0904309A0704BF9B080230DA0703D4C2
:1035C0005B0800F1010006D00B6070471B0C102057
:1035D000E8E700207047202070479B080B6002201E
:1035E000704700BF38B5436C04460D464BB1586870
:1035F000B0B102685A6000220123C0E9032345618B
:1036000038BD2122042100F0C3FC03466064002879
:10361000EDD1094B0948002240F24511FFF790FE19
:103620001C220121204600F0B3FC0028F1D0012229
:103630000223C0E90123DEE7C078000040790000E2
:103640002DE9F04FD1F810801569A84585B00E46D8
:10365000924605DB2A46534645468A4690461E4614
:10366000DAF80830DAF8041005EB0804A342B8BF12
:103670000131FFF78BFE8446002800F08B8000F1BB
:10368000140707EB840E774505D23B46002243F82A
:10369000042B9E45FBD8143606EB88080AF1140962
:1036A000464509EB850566D2A5EB0A03153B23F0D9
:1036B00003030AF1150A043355452CBF9B464FF00E
:1036C000040BCDF808E00394AE46E24605E0090C91
:1036D0002AD1B04507F104074AD956F8041B8DB228
:1036E000002DF4D0CC463C46002301965CF8040B38
:1036F000216886B28AB2000C05FB0622090C1A4426
:1037000005FB001101EB124192B242EA0142E6458B
:1037100044F8042B4FEA1143E8D8019E47F80B30D8
:1037200056F8041C090CD4D03B68002248461D46BC
:103730003C469446028801FB02C202EB15429BB252
:1037400043EA024344F8043B50F8043B25684FEA3F
:10375000134CABB201FB0C3303EB124370454FEA41
:10376000134CE7D3B04547F80B3007F10407B4D842
:10377000DDE902E4D446002C02DC05E0013C03D084
:103780005EF8043D002BF9D06046CCF8104005B03F
:10379000BDE8F08F034B044862464FF4B171FFF768
:1037A000CFFD00BFC07800004079000012F0030395
:1037B0002DE9F041144607462CD10D46A4101CD02B
:1037C0003E6C86B3E3074FF0000806D4641014D0B3
:1037D0003068A8B10646E307F8D532462946384690
:1037E000FFF72EFF35B17B6C696853F821202A6002
:1037F00043F8215064100546EAD12846BDE8F0811F
:10380000324631463846FFF71BFF3060C0F8008073
:103810000646E0E7013B0F4A52F823200023FFF75A
:10382000E5FD0546CAE701213846FFF7AFFD06462C
:1038300040B1012340F27122C0E904320023386410
:103840000360BFE7044B0548324640F24511FFF7DD
:1038500077FD00BF006D0000C078000040790000D7
:103860002DE9F0470C4690462769A368496807EBA5
:1038700062177D1C9D4206464FEA621904DD5B001B
:103880009D4201F10101FADC3046FFF77FFD8446DD
:10389000002851D0B9F1000F00F114000EDD09F13C
:1038A00005024FEA820E03460CEB8202002143F828
:1038B000041B9342FBD1AEF114031844216904F1B7
:1038C000140318F01F0803EB81012DD0C8F1200963
:1038D00086464FF0000A1A6802FA08F242EA0A0223
:1038E0004EF8042B53F8042B994222FA09FAF2D825
:1038F0000B1B153B23F00303043304F11502914223
:1039000038BF042340F803A0BAF1000F00D13D46B0
:10391000736C6268CCF8105053F822102160604636
:1039200043F82240BDE8F087043853F8042B40F8F0
:10393000042F9942F9D8EAE7034B044862464FF452
:10394000EF71FFF7FDFC00BFC07800004079000078
:103950000B6984460069C01A16D10CF1140C14319D
:103960000CEB830210B401EB830301E0944508D211
:1039700052F8044D53F8041D8C42F7D005D24FF095
:10398000FF305DF8044B7047704701205DF8044B31
:10399000704700BF2DE9F04F15460A692B69D21A0E
:1039A000002A83B0884640F0878001F1140605F1B3
:1039B000140101EB830106EB830301E09E427ED2FA
:1039C00053F8044D51F8042D9442F7D075D32B468B
:1039D0000024454698466968FFF7D8FC81460028D0
:1039E00000F089802E69C460D8F8100005F1140B2E
:1039F00008F1140E09F1140A05F110020EEB800013
:103A00000BEB860157464FF0000CCDF804B05EF882
:103A1000044B52F8045F1FFA84FBABB2A3EB0B0319
:103A2000240C6344C4EB154404EB23449BB243EAE7
:103A30000443704547F8043B4FEA244CE7D8A0EB19
:103A4000080208F115084045A2F1150234BF002014
:103A5000012092080028DDF804B002F101044FEAC9
:103A6000840408BF04240BEB0405A942544433D951
:103A70002746284650F8043B1CFA83FE1A0C634480
:103A800002EB2E429BB243EA0243814247F8043BD9
:103A90004FEA224CEED80139491B21F003010C44B6
:103AA00023B954F8043D013E002BFAD04846C9F82A
:103AB000106003B0BDE8F08F89DA01248BE70021A4
:103AC000FFF764FC814678B101220023C0E904239A
:103AD000484603B0BDE8F08F00284FEA820208BFD5
:103AE00000220AEB0204DBE7064B07484A4640F295
:103AF0003721FFF725FC034B03484A4640F2452196
:103B0000FFF71EFCC07800004079000082B08DED08
:103B1000000B164B019A1340A3F15073002B06DDE6
:103B200000221946104641EC100B02B070475B4270
:103B3000B3F1A07F4FEA235209DA4FF40023134177
:103B400000221946104641EC100B02B07047A2F15A
:103B500014031E2BDABF4FF00042DA40012200238B
:103B60001946104641EC100B02B070470000F07F80
:103B7000F8B5046900F1140606EB8404271F54F815
:103B8000045C2846FFF7DCFCC0F120030A280B6028
:103B900033DDBE42A0F10B0119D254F8080C21B359
:103BA000C1F120078D4020FA07F215438840A4F1A7
:103BB000080145F07F538E4243F4401319D254F864
:103BC0000C1CF9400843024643EC102BF8BD0B28AF
:103BD0000AD005FA01F141F07F53002043F440136D
:103BE000024643EC102BF8BD002045F07F5343F410
:103BF0004013024643EC102BF8BDC0F10B0C25FA24
:103C00000CF1BE4241F07F5338BF54F8081C00F15C
:103C1000150034BF21FA0CF1002105FA00F0084329
:103C200043F44013024643EC102BF8BD2DE9F0435A
:103C30000E4683B0012159EC108B1546FFF7A6FB09
:103C40000446002846D0C9F30A57C9F313030FB13D
:103C500043F480130193B8F1000313D101A8FFF7D7
:103C600091FC019B63610122203022610FB3A7F216
:103C700033470744C0F1350037602860204603B061
:103C8000BDE8F08368460093FFF77CFC019BF8B128
:103C90000099C0F1200203FA02F2C3400A430193E3
:103CA000002B62610CBF01220222A3612261002F5E
:103CB000DDD104EB8203A0F2324030601869FFF7D7
:103CC0003FFCC0EB42102860204603B0BDE8F08303
:103CD000009AE5E7034B0448224640F20F31FFF714
:103CE0002FFB00BFC0780000407900002DE9F043B1
:103CF00083B0884669468146FFF73AFF01A94046EE
:103D000055EC104BFFF734FFD8F81030D9F81020DD
:103D1000D21ADDE900315B1A03EB4213002B59EC98
:103D2000108B0DDD05EB03573D4642464B462046C2
:103D3000294602F073FA41EC100B03B0BDE8F083A2
:103D4000C3EB033309EB03518946EEE7172870B53F
:103D500006460CDD0A490B4D0020002422462B4666
:103D600002F032F9013EF9D141EC100B70BD064B67
:103D700003EBC003D3E9040141EC100B70BD00BF9D
:103D80000000F03F00002440006D0000013949119F
:103D900001F1010C116902F1140303EB81018B4263
:103DA00000EB8C0C16D210B5A0F1040E53F8044BA6
:103DB0004EF8044F9942F9D88B1A153B23F00303B0
:103DC00004331844844504D9002340F8043B844557
:103DD000FBD810BD844505D9002340F8043B844539
:103DE000FBD87047704700BF03694A11934200F146
:103DF000140009DA00EB830302E053F8042DAAB99A
:103E00008342FAD80020704700EB8203F8DD11F0FE
:103E10001F01F5D010B450F8224024FA01F28A4074
:103E2000944209D001205DF8044B7047012070478F
:103E300053F8042D002AF5D18342F9D800205DF80B
:103E4000044B70472DE9F8430746884616464FF065
:103E50000009D6E90154013D10D4A389012B08D9EA
:103E6000B4F90E3001332146384602D0C04749EA42
:103E70000009013D6B1C04F16804EED13668002E88
:103E8000E7D14846BDE8F883F030704700487047F6
:103E9000340600200048704734060020000000006F
:103EA00001F0FF01102A2BDB10F0070F08D010F8EB
:103EB000013B013A8B422DD010F0070F42B3F6D1EF
:103EC000F0B441EA012141EA014122F007047FF008
:103ED00000070023F0E80256083C85EA010586EA5F
:103EE000010685FA47F5A3FA87F586FA47F6A5FA9B
:103EF00087F68EB9EED1F0BC01F0FF0102F00702A7
:103F000032B110F8013B013A83EA010313B1F8D151
:103F10000020704701387047002D06BF3546033832
:103F2000073815F0010F07D1013015F4807F02BF6B
:103F3000013015F4C03F0130F0BC0138704700BFBC
:103F400010B4034CD4F8E440A4465DF8044B604739
:103F50004405002082B049B15AB16BB113780B60AF
:103F60001278101E18BF012002B0704701A9002A64
:103F7000F3D1104602B070476FF00100F4E700BFC4
:103F800008B5062000F0CCFB012002F04BFE00BF7C
:103F900038B5A1FB021454BBFDF77CFB054650B3BA
:103FA00050F8042C22F00302043A242A10D8132AD1
:103FB00013D91B2AC0E9004416D9242AC0E90244B7
:103FC0000ABFC0E9044400F1100200F1180205E044
:103FD0002146FFF763F9284638BD02460023C2E9AF
:103FE00000339360284638BD00F10802F6E7FDF77C
:103FF0004BFB0C2303600025284638BD2DE9F04714
:104000008F681D46AF420B680C46164636D8B1F98C
:104010000CC01CF4906F0ED13D46184631462A461E
:1040200000F010FDA368DF1B2368A7602B4400206D
:104030002360BDE8F0874A69096902EB42025F1A12
:1040400002EBD2726B1C52103B44934292BF9146DA
:1040500099461A461CF4806F804611D01146FDF730
:1040600019FB824600B321693A46FEF71BFFA3897C
:1040700023F4906343F08003A38105E02F46CCE74F
:1040800000F0E8F8824658B10AEB0703A9EB0707EE
:10409000A760C4F810A0C4F8149023602F46BCE7B2
:1040A00021694046FEF7D4FDA3890C2243F040036A
:1040B000C8F800204FF0FF30A381BAE70CB400B578
:1040C00083B004AB53F8042B019300F03BFD03B025
:1040D0005DF804EB02B070470EB410B583B005ABC9
:1040E000064C53F8042B01930146206800F02AFD8A
:1040F00003B0BDE8104003B0704700BF00000020CF
:1041000070B539B106460C4608B1436B83B3B4F9B8
:104110000C3013B90025284670BD2146304600F00A
:10412000BBFBE36A054633B1E16930469847002896
:10413000B8BF4FF0FF35A3891B061CD4216B41B1DA
:1041400004F14003994202D03046FEF781FD00237E
:104150002363616C21B13046FEF77AFD002363646E
:10416000FFF746F80023A381FFF744F8284670BD07
:10417000FFF72EF8CBE721693046FEF769FDDDE752
:10418000024B01461868FFF7BBBF00BF00000020CC
:1041900010B4034CD4F8E040A4465DF8044B6047EB
:1041A0004405002049B1FF2A02D80A700120704757
:1041B0008A2303604FF0FF3070470846704700BF06
:1041C00010B50C46B1F90E1001F05EFA002803DBC1
:1041D000236D0344236510BDA38923F48053A38179
:1041E00010BD00BF002070472DE9F0410C46B1F929
:1041F0000C101F46CB05054616460BD421F4805102
:10420000A1813B46B4F90E1032462846BDE8F04184
:1042100000F0C2B9B4F90E100223002201F0ACFA8A
:10422000B4F90C10EAE700BF10B50C46B1F90E1056
:1042300001F0A2FAB4F90C30421C0EBF23F48053F3
:1042400043F480532065A38110BD00BFB1F90E1067
:1042500000F0B8B92DE9F84F1646002900F0968015
:104260000C46804606F10B05FEF7C4FE54F8041C0C
:10427000162DA4F1080921F0030758D81025AE42E5
:1042800058D8AF4260DABE4B9A6809EB070C62451A
:10429000DCF8040000F0908020F0010363445B68C8
:1042A000DB0768D420F003003B189D4247DDCB07B5
:1042B00012D454F8083CA9EB030BDBF8043023F0CC
:1042C0000302104400EB070A554540F3F68007EB64
:1042D000020A554540F3CC8031464046FDF7DAF9F5
:1042E0000646002800F0208154F8043C23F0010326
:1042F0004B44A0F10802934200F0B4803A1F242AF4
:1043000000F2D780132A00F2A280034622461168E9
:1043100019605168596092689A6021464046FEF7DC
:1043200097FC4046FEF768FE3046BDE8F88F35F052
:104330000705A4D50C23C8F80030002618E01F4656
:10434000DCE90223D3609A60D9F804307A1B0F2A83
:1043500003F0010309EB07001DD83B43C9F8043003
:10436000436843F0010343604046FEF745FE26469E
:104370003046BDE8F88FC907AED454F8083CA9EB25
:10438000030BDBF8043023F00302A0E7BDE8F84F8D
:104390001146FDF77FB909EB05012B4342F00102FD
:1043A000C9F804304A60436843F0010343600831B0
:1043B0004046FEF74DFCD7E720F00300C21905F197
:1043C000100C624580F29180CA0785D454F8082CFD
:1043D000A9EB020BDBF8042022F00302104400EBEF
:1043E000070AD4453FF773AF5E46DBF80C1056F86A
:1043F000080F3A1F242AC160886000F2AE80132A99
:1044000040F2A9802168CBF808106168CBF80C1045
:104410001B2A00F2A88008340BF1100221681160F9
:1044200061685160A16891600BEB0501AAEB050280
:1044300042F0010299604A60DBF8043003F00103A6
:104440002B434046CBF80430FEF7D6FD90E72368B7
:104450000360636843601B2A3CD804F1080200F142
:10446000080354E750F8043C23F003031F446BE7B0
:104470003A1F5E46DBF80C3056F8081F242ACB6042
:10448000996022D8132A1ED92368CBF808306368B4
:10449000CBF80C301B2A3BD808340BF110032268F0
:1044A0001A6062685A60A2689A6034465746D946D4
:1044B0004AE7214600F0C6FA2FE7DCE902133A1F6B
:1044C000CB609960D5E73346E9E72146304600F0F6
:1044D000B9FAEAE7A3688360E368C360242A27D0B7
:1044E00004F1100200F1100311E709EB05019960D6
:1044F000531B43F001034B6054F8043C03F00103E9
:104500002B43404644F8043CFEF776FD26462FE751
:10451000A368CBF81030E368CBF81430242A10D00D
:1045200010340BF11803BAE74046FEF765FD04E7C7
:10453000236903616169416104F1180200F1180304
:10454000E5E62369CBF818306369CBF81C301834E2
:104550000BF12003A3E7324660E72146304600F026
:1045600071FA074B60E7A168CBF81010E168CBF84F
:104570001410242A06D010340BF118024EE700BFA5
:10458000280100202269CBF818206269CBF81C2092
:1045900018340BF1200241E738B50C46084D84462B
:1045A000114620461A4600232B60644602F010FB99
:1045B000431C00D038BD2B68002BFBD0236038BDD6
:1045C0002008002038B5074D0022044608462A601E
:1045D00002F01CFB431C00D038BD2B68002BFBD025
:1045E000236038BD2008002038B5D0F818410CB140
:1045F000002038BD80210546FDF74CF80246C5F87D
:10460000180130B1031F7C3243F8044F9342FBD1B1
:10461000EEE74FF0FF3038BD30B51F2983B00546B7
:1046200009D8D0F818310C4653B153F8240043F898
:10463000242003B030BD162303604FF0FF30F8E7AD
:1046400080210192FDF726F8019AC5F8180103466A
:104650000028F2D0011F00F17C05002041F8040F72
:10466000A942FBD1E1E700BF1F2938B505461FD895
:10467000D0F818210C466AB152F8213053B1012B01
:1046800006D0591C10D0002142F82410204698472B
:10469000002038BD284600F0FDF822460146284695
:1046A000BDE8384000F0E0B816230360012038BDB3
:1046B000162303604FF0FF3038BD00BF1F292CD8F0
:1046C00038B5D0F818310C460546A3B153F824206C
:1046D00003EB84034AB1511C0BD0012A07D00025FB
:1046E00020461D609047284638BD012038BD032074
:1046F00038BD022038BD8021FCF7CCFF0346C5F849
:10470000180138B1021F00217C3042F8041F824298
:10471000FBD1DBE74FF0FF3038BD4FF0FF30704783
:1047200038B5144B1F281D681ED8D5F8182104462B
:1047300062B152F820304BB1012B05D0591C0FD07B
:10474000002142F820109847002038BD284600F08C
:10475000A1F8224601462846BDE8384000F084B85A
:1047600016232B60012038BD16232B604FF0FF303D
:1047700038BD00BF00000020124B1F2870B51E6816
:1047800009D8D6F8183104460D464BB153F8240029
:1047900043F8245070BD162333604FF0FF3070BDD6
:1047A00080213046FCF776FF0346C6F81801002842
:1047B000F3D0021F00217C3042F8041F8242FBD15B
:1047C000E4E700BF0000002038B50C4B1D68D5F8A9
:1047D00018410CB1002038BD80212846FCF75AFF53
:1047E000C5F8180138B1031F00F17C0243F8044FEB
:1047F0009342FBD1EEE74FF0FF3038BD00000020C0
:1048000038B5184B1F281D6828D80446D5F818015C
:10481000A0B150F8243000EB84004BB15A1C0BD0EF
:10482000012B07D00025056020469847284638BD53
:10483000012038BD032038BD022038BD8021284624
:10484000FCF728FFC5F8180140B1031F00F17C01F7
:10485000002243F8042F8B42FBD1DAE74FF0FF3000
:1048600038BD00BF0000002070B50C46084D03465F
:104870000026204611461C462E6002F0D5F9431C46
:1048800000D070BD2B68002BFBD0236070BD00BF33
:104890002008002002F0D0B9B1F90C202DE9F04138
:1048A00016070C4680464ED4496842F4006300293E
:1048B000A38163DDA56A002D42D0002112F480524D
:1048C000D8F80060C8F80010E16964D101234046BF
:1048D000A847451C02466ED0B4F90C30A56AE169C0
:1048E000580705D56368D21A236B0BB1E36BD21A54
:1048F00000234046A847431C4FD1D8F80010B4F914
:104900000C301D2940D8314ACA40D7073CD522690E
:10491000226023F40062A281DD044FF00002626095
:1049200001D5002945D0216BC8F8006041B104F1E0
:104930004003994202D04046FEF78AF900232363E0
:104940000020BDE8F0810E69002EF9D00D680E60E0
:1049500092070CBF4B690023AD1B8B600BE02B460D
:104960003246E169676A4046B847B0F1000CA5EBF2
:104970000C05664406DD002DF1DCE1E7E16B002962
:1049800098DCDDE7B4F90C3043F04003A3814FF02D
:10499000FF30BDE8F081226DA2E7B4F90C30226946
:1049A000226023F40062A281DB044FF00002626007
:1049B000B9D52065B7E7D8F80030002B8CD01D2B77
:1049C00001D0162BDED1C8F80060B9E70100402005
:1049D00010B5044682B008B1436B53B1B1F90C0075
:1049E00008B902B010BD204602B0BDE81040FFF784
:1049F00053BF0191FEF7ECFB0199EFE7A0B138B589
:104A00000C4B1D6804460DB16B6B4BB1B4F90C0037
:104A100000B938BD21462846BDE83840FFF73CBF05
:104A20002846FEF7D5FBF1E7034A04490448FFF79F
:104A300009BA00BF0000002038050020D14900005D
:104A40000800002088420ED98B1883420BD900EB56
:104A5000020C002A6ED0624613F801CD02F801CD97
:104A60009942F9D170470F2A0FD8034602F1FF3C53
:104A7000002A5FD00CF1010C013B8C4411F8012B92
:104A800003F8012F6145F9D1704740EA01039B0704
:104A900051D1A2F1100370B501F1200C23F00F05E4
:104AA00001F1100E00F11004AC441B095EF8105C1B
:104AB00044F8105C5EF80C5C44F80C5C5EF8085C32
:104AC00044F8085C5EF8045C44F8045C0EF1100ED7
:104AD000E64504F11004E9D1013312F00C0F01EBAB
:104AE000031102F00F0400EB031328D0043C24F060
:104AF00003064FEA940C1E441C1F8E465EF8045BAE
:104B000044F8045FB442F9D10CF1010402F003024D
:104B100003EB840301EB840102F1FF3C4AB10CF189
:104B2000010C013B8C4411F8012B03F8012F614566
:104B3000F9D170BD704702F1FF3C03469AE7224667
:104B4000EAE700BF2DE9F04FADB0CDE907301C46D4
:104B50000291934618B1436B002B00F00385029934
:104B6000B1F90C204B6E950405D442F4005223F4A5
:104B700000538A814B66980400F12485029BB3F9A7
:104B80000C20110740F1D3801B69002B00F0CF806F
:104B900002F01A020A2A00F0D9800023CDE910336E
:104BA0000DF17009CDF83C900993CA4605939BF826
:104BB0000030002B00F0F4805C4604E014F8013F64
:104BC000002B00F0D280252BF8D1B4EB0B0540F080
:104BD000CF802378002B00F0E3804FF000038DF8A6
:104BE00037304FF0FF320023CDE90323617804F121
:104BF000010B98460BF1010BA1F12003582B00F299
:104C0000DC80DFE813F0B201DA00DA00AD01DA008F
:104C1000DA00DA00DA00DA00DA007601A701DA0059
:104C200081018601DA00A20159005900590059009A
:104C300059005900590059005900DA00DA00DA0029
:104C4000DA00DA00DA00DA00DA00DA00DA00680006
:104C5000DA00DA00DA00DA00DA00DA00DA00DA0084
:104C6000DA00DA001902DA00DA00DA00DA00DA0033
:104C7000EA01DA00DA001D04DA00DA00DA00DA000C
:104C8000DA00DA00DA00DA00DA00DA00DD016A00C0
:104C9000DA00DA00DA00D8016A00DA00DA00CB01C3
:104CA000DA00BD011B047F027A02DA005902DA0041
:104CB0001904DA00DA004204A1F1300300221BF8E3
:104CC000011B02EB820203EB4202A1F13003092B2C
:104CD000F5D9049290E748F0100818F0200F00F082
:104CE000D780079B073323F007031A46596852F809
:104CF000083B07920A460029C0F2DE8003999DF81E
:104D000037500029C0F2E38053EA020128F08008FE
:104D100040F0DD80039B002B40F0598401934C460A
:104D2000002D00F0BE81019A01320192B9E1029D8D
:104D30000898294600F0BEFC002840F04384B5F9ED
:104D40000C2002F01A020A2A7FF427AF029BB3F963
:104D50000E30002BFFF621AF0299089823465A46E1
:104D60002DB0BDE8F04F00F059BCB4EB0B0517D0E7
:104D7000119B2B441193109B0133072BCAE900B5FB
:104D8000109305DC0AF1080A059B2B44059320E7E4
:104D9000029908980FAA00F005FD28B9CA46F3E762
:104DA000119B002B40F00084029B9B895B0600F165
:104DB000098405982DB0BDE8F08F0029F0D00023BC
:104DC0008DF8373001238DF84810019312AC002282
:104DD0000392069218F08407DDE9102105D10498AA
:104DE000019D451B002D00F34F829DF8370080B1D7
:104DF00001320DF137000131CAF80000072A4FF0E7
:104E00000100CDE91021CAF8040000F377820AF10D
:104E1000080A069878B101320EA80231CAF80000DB
:104E2000072A4FF00200CDE91021CAF8040000F370
:104E300073820AF1080A802F00F09B810398C51A3B
:104E4000002D00F3D58101321944072ACDE9102144
:104E5000CAF80040CAF8043000F302820AF1080AD6
:104E600018F0040F05D0049B019A9C1A002C00F343
:104E70006182DDE9042301988242ACBF9B181B18B4
:104E80000593002940F0F78100231093CA468EE66F
:104E9000079A18F0100F52F8043B079207D118F048
:104EA000400F04D043F3C03211461BB223E7DA1798
:104EB00011460029BFF622AF03995B4262EB420222
:104EC0002D2500298DF8375001DB28F080080A2BAA
:104ED00072F1000180F0F3823033DBB28DF86F3075
:104EE000039B012BB8BF012301930DF16F04012334
:104EF00016E7079B53F8042B0492002A80F288825D
:104F0000049A0793524204929BF8001048F0040858
:104F100070E6584610F8011B2A2900F05A83A1F1C7
:104F20003003092B98BF002200F2478310F8011BC1
:104F300002EB820203EB4202A1F13003092BF5D907
:104F400042EAE2730393834656E69BF8001048F06A
:104F500080084FE62B239BF800108DF8373049E688
:104F60009BF8001048F0010844E69DF837309BF8A4
:104F70000010002B7FF43EAE20238DF8373039E649
:104F800018F0200F00F04D82079B059A1B681A60ED
:104F9000D2175A60079B0433079308E69BF800106A
:104FA0006C2903BF9BF8011048F020080BF1010B9E
:104FB00048F010081EE69BF8001048F0400819E67B
:104FC000079B00228DF8372053F8042B0793012309
:104FD0008DF84820019312ACF9E648F0100111F069
:104FE000200200F0DE81079B073323F007031846F9
:104FF0005A6850F8083B079003980025A8428DF89E
:105000003750C0F2A782012553EA020021F0800840
:1050100040F094800398002840F09E82002D40F0DC
:10502000F38111F0010300F0F88130228DF86F2038
:1050300001930DF16F0434E048F0100111F02002EB
:1050400000F0BE81079B073323F0070318465A6818
:1050500050F8083B079003980025A8428DF8375078
:10506000D2DA88464C4603F00701DB0843EA427374
:10507000D208303153EA0205204604F8011DF2D16E
:1050800018F0010F6DD030296BD0039A023830230D
:1050900004F8013CA9EB00039A42B8BF1A46044643
:1050A000019218F0020206923FF494AE019A023285
:1050B0000192022206928DE6079D039B55F8044B50
:1050C00000218DF83710002C00F05E82002BC0F21A
:1050D000DF811A462046FEF7E3FE002800F06B82CF
:1050E000031B9DF8372023EAE3710191002A00F0A9
:1050F000528200220795039215E69BF8001048F0B3
:10510000200877E5079A52F8043B079247F63002E9
:10511000ADF83820B24A099248F002080022002176
:105120008DF83710039900290DDB414653EA020040
:105130004FF0020521F080083FF46CAF012D00F024
:105140005482022D8ED109984C4603F00F011B09A1
:10515000415C04F8011D43EA0273120953EA02019B
:10516000F3D1039AA9EB04039A42B8BF1A460192FD
:1051700097E70498019D451B002D7FF75FAE102D2A
:10518000984E23DD06945046089C10279A4604E06A
:10519000103D102D00F1080015DD01321031072AF5
:1051A000C0E90067CDE91021F2DD02990FAA20467F
:1051B00000F0F8FA00287FF4F7AD103D102DDDE97E
:1051C00010214846E9DC069C5346824601322944B8
:1051D000072ACDE91021CAF80060CAF8045000F38C
:1051E000C5810398C51A002D0AF1080A7FF72BAE76
:1051F000102D7C4E26DD03945046089CB2461027A5
:105200001E4604E0103D102D00F1080016DD0132AD
:10521000744B1031072AC0E90037CDE91021F1DDC8
:1052200002990FAA204600F0BDFA00287FF4BCAD19
:10523000103D102DDDE910214846E8DC039C334683
:105240005646824601322944072ACDE91021CAF880
:105250000060CAF8045000F3C9800AF1080AF2E5B8
:10526000029908980FAA00F09DFA00287FF49CADDF
:105270001199CA46F4E5029908980FAA00F092FA2B
:1052800000283FF401AE8FE5102D574E28DDCDE903
:105290000A7450463746089C029E9A4604E0103D28
:1052A000102D00F1080016DD013210311023072AFD
:1052B000CDE9102107604360F1DD0FAA3146204699
:1052C00000F070FA00287FF46FAD103D102DDDE97D
:1052D00010214846E8DC3E460B9C0A9F5346824616
:1052E00001322944072ACDE91021CAF80060CAF822
:1052F000045000F321810AF1080A76E50299089822
:105300000A930FAA00F04EFA00287FF44DADDDE9B4
:1053100010210A9BCA467CE50299089806930FAAB9
:1053200000F040FA00287FF43FADDDE91021069B34
:10533000CA4680E5102C109B2B4E1FDD089FDDF820
:105340000880102504E0103C102C0AF1080A15DD35
:1053500001331031072BCAE90065CDE91031F2DDC8
:105360000FAA4146384600F01DFA00287FF41CAD14
:10537000103C102CDDE91031CA46E9DC0133214430
:10538000072BCAE90064CDE910317FF772AD0299AD
:1053900008980FAA00F006FA00287FF405AD1199CD
:1053A00067E5079850F8043B079011F010007FF470
:1053B00023AE11F040023FF41FAE9BB202461BE643
:1053C000079850F8043B079011F010007FF443AEAB
:1053D00011F040023FF43FAE9BB202463BE600BFF5
:1053E000907800003C6F00002C6F00000299089834
:1053F00003930FAA00F0D6F900287FF4D5ACDDE9BD
:105400001021039BCA461EE5039B01934C4648E6C8
:105410009BF800100793FFF7EDBB039A01924C46EF
:105420003FE618F0100F38D118F0400F35D0079B29
:10543000059A1B681A80ADE54146D0E54146FDE579
:105440006B4B099318F020022CD0079B073323F0F5
:10545000070318465A6850F8083B079018F0010FE8
:105460003FF45DAE53EA02003FF459AE8DF83910B7
:1054700030218DF8381000218DF83710039900295C
:1054800080F28D8048F002085DE65A4B0993D9E717
:105490002046FAF735FE034623E6079B059A1B686C
:1054A0001A6077E5079850F8043B079018F0100051
:1054B000D4D118F040021CBF9BB20246CEE74E4E3C
:1054C000CDF804A04C464FF0050E991841F10001AB
:1054D000A6FB010727F0030000EB9700091A581AF2
:1054E0009A46944662F100034FF0CC3202FB00F280
:1054F00006FB0322A0FB063003F001070244A7FBD2
:105500000E074018BAF10A0F4FEA530300F13000BA
:105510007CF1000C43EAC27304F8010D4FEA520219
:10552000D3D2039ADDF804A0A9EB04039A42B8BFD2
:105530001A460192FFF7F4BB029908980A930FAA42
:1055400000F030F900287FF42FACDDE910210A9B30
:10555000CA464AE48846BAE4012D7FF4F2AD00253C
:105560003023BBE4FDF734FEFFF7F9BA029908983F
:1055700006930FAA00F016F900287FF415ACDDE9B8
:105580001021069BCA4659E4062B28BF06231B4C54
:10559000079501931BE4CDE9062503921AE428F050
:1055A000800141F00208CEE5029908980FAA00F0A8
:1055B000F9F8FFF7F9BB039B93E5002383460393B8
:1055C000FFF71ABB4FF0FF330593FFF7F2BB302311
:1055D00084E4079B9BF8011053F8042B079342EADD
:1055E000E27283460392FFF705BB00256FE400BF1C
:1055F0007C78000090780000CDCCCCCCA478000062
:1056000010B4054C8446134620685DF8044B0A46E6
:105610006146FFF797BA00BF0000002070B50C4646
:105620008989ADF58D6D21F00201ADF80C101AA934
:10563000009104914FF4806102910591616E19917E
:10564000E189ADF80E10E1690791616A09910021C5
:10565000069169460646FFF775FA051E07DB69469F
:105660003046FFF7B5F9002818BF4FF0FF35BDF8F9
:105670000C305B0603D5A38943F04003A381284681
:105680000DF58D6D70BD00BF38B50C46084D8446D4
:10569000114620461A4600232B60644601F0A3FA07
:1056A000431C00D038BD2B68002BFBD0236038BDD5
:1056B0002008002038B52F4B1B6805460C4613B157
:1056C0005A6B002A4BD0B4F90C3018071CD522694C
:1056D00022B313F0010107D0616900204942A060A4
:1056E000A1613AB1002038BD980758BF6169A16037
:1056F000002AF7D1190658BF1046F4D543F04003ED
:10570000A3814FF0FF3038BDD9062CD55A0712D4EB
:10571000226943F00803A381002ADAD103F420713F
:10572000B1F5007FD5D02146284600F04BF8B4F9FA
:105730000C302269CDE7216B51B104F14002914256
:1057400004D02846FDF784FAB4F90C300022226315
:1057500022690021C4E9002123F02403D9E7184677
:10576000FDF736FDAFE7092243F040032A60A3812D
:10577000C7E700BF0000002038B50C46084D84463E
:10578000114620461A4600232B60644601F041FA78
:10579000431C00D038BD2B68002BFBD0236038BDE4
:1057A00020080020936810B514461BB91846002342
:1057B000636010BD00F0CCF80023A3600023636099
:1057C00010BD00BF2DE9F041B1F90C300C4699072E
:1057D00096B008D504F143030122C4E904322360E2
:1057E00016B0BDE8F081B4F90E100029064626DB9C
:1057F0006A4600F085F800281FDB019D05F470451E
:10580000A5F50055B5FA85F54FF480686D094FF49C
:10581000006741463046FBF73DFFE8B1B4F90C3074
:10582000C4F8148043F0800320602061A3813DBB55
:105830003B43A38116B0BDE8F081B4F90C3013F0FE
:10584000800519D04FF040080025414630462F46CC
:10585000FBF720FF0028E1D1B4F90C309A05BFD442
:1058600023F0030304F1430243F002030121C4E9DE
:105870000421A3812260B3E74FF480682F46C8E774
:10588000B4F90E10304600F051F810B9B4F90C30EC
:10589000CEE7A38923F0030343F001031BB2C7E75C
:1058A00070B50C46B1F90E10002996B015461E468B
:1058B00014DB6A4600F024F800280FDB019901F49C
:1058C0007041A1F50051B1FA81F14FF480634909AB
:1058D0004FF4006031602B6016B070BDA18911F0EB
:1058E000800106D000214023084631602B6016B0AD
:1058F00070BD4FF48063084631602B6016B070BDF8
:1059000070B50C46084D03460026204611461C463D
:105910002E6001F080F9431C00D070BD2B68002B75
:10592000FBD0236070BD00BF2008002038B5074DB4
:105930000022044608462A6001F072F9431C00D098
:1059400038BD2B68002BFBD0236038BD2008002019
:105950009368002B00F0F8802DE9F04FB1F90CC0EE
:105960001CF0080F83B0904681460C4631D00B697D
:105970007BB31CF00207D8F8006038D00027D4F8B9
:1059800024B0E169DFF8C4A23D4655452B463A46AE
:1059900028BF53464846C5B1D847002840F3CA80BF
:1059A000D8F808301B1A07442D1AC8F80830002B05
:1059B00000F0B68055452B46D4F824B0E16928BFE5
:1059C00053463A464846002DE6D1D6E900750836DA
:1059D000DBE721464846FFF76DFE002840F0AF8028
:1059E000B4F90CC0D8F800601CF00207C6D11CF056
:1059F000010A63D12368A168574618468B46002FD9
:105A000058D01CF4007F00F0B580B9420A4600F27D
:105A1000E1801CF4906F2FD0216962695D1A02EB5E
:105A2000420202EBD2726B1C52103B44934292BF73
:105A300093469B461A461CF4806F00F0EA8011469C
:105A40004846FBF727FE002800F0F9802A46216926
:105A50000090FDF727FAA289009B22F4906242F0A1
:105A60008002A2815819ABEB0505C4F814B023617C
:105A7000A5602060BB463A4651460092FEF7E2FF21
:105A8000A1682368009AA1EB0B011A443D46A1606E
:105A900022600027D8F808305B1BAA44C8F80830F9
:105AA000002B3DD02368A168B4F90CC018468B4682
:105AB000002FA6D1D6E900A708369EE73846BB4698
:105AC0003D460097002D41D0002846D0009A20681E
:105AD000A168D4E90473AA4228BF2A46B84204D96F
:105AE00001EB030A524500F38580934275DCE169BE
:105AF000676A5A464846B847B0F1000A1ADD009B6B
