:020000040800F2
:1000000040AD0020B14B0008D94500089D4B0008C9
:100010009D4B00089D4B00089D4B00080000000010
:10002000000000000000000000000000F14C00088B
:100030009D4B000800000000BD4C00088D6B0008BF
:10004000794E0008794E0008794E0008794E000874
:10005000794E0008794E0008794E0008794E000864
:10006000794E0008794E0008794E0008794E000854
:10007000794E0008794E0008794E0008794E000844
:10008000794E0008794E0008794E0008794E000834
:10009000794E0008794E0008794E0008794E000824
:1000A000794E0008794E0008794E0008794E000814
:1000B000794E0008794E0008794E0008794E000804
:1000C000794E0008794E0008794E0008794E0008F4
:1000D000794E0008794E0008794E0008794E0008E4
:1000E000794E0008794E0008794E0008794E0008D4
:1000F000794E0008794E0008794E0008794E0008C4
:10010000794E0008794E0008794E0008794E0008B3
:10011000794E0008794E0008794E0008794E0008A3
:10012000794E0008794E0008794E0008794E000893
:10013000794E0008794E0008794E0008794E000883
:10014000794E0008794E0008794E0008794E000873
:10015000794E0008794E0008794E0008794E000863
:10016000794E0008794E0008794E0008794E000853
:10017000794E0008794E0008794E0008794E000843
:08018000794E0008794E0008D9
:1001880081F0004102E000BF83F0004330B54FEA40
:1001980041044FEA430594EA050F08BF90EA020FAD
:1001A8001FBF54EA000C55EA020C7FEA645C7FEA40
:1001B800655C00F0E2804FEA5454D4EB5555B8BF63
:1001C8006D420CDD2C4480EA020281EA030382EAD4
:1001D800000083EA010180EA020281EA0303362D66
:1001E80088BF30BD11F0004F4FEA01314FF4801C39
:1001F8004CEA113102D0404261EB410113F0004F4B
:100208004FEA03334CEA133302D0524263EB430301
:1002180094EA050F00F0A780A4F10104D5F1200E9F
:100228000DDB02FA0EFC22FA05F2801841F10001FA
:1002380003FA0EF2801843FA05F359410EE0A5F1CE
:1002480020050EF1200E012A03FA0EFC28BF4CF0FF
:10025800020C43FA05F3C01851EBE37101F00045B5
:1002680007D54FF0000EDCF1000C7EEB00006EEBC2
:100278000101B1F5801F1BD3B1F5001F0CD349084C
:100288005FEA30004FEA3C0C04F101044FEA4452A3
:1002980012F5800F80F09A80BCF1004F08BF5FEA2A
:1002A800500C50F1000041EB045141EA050130BD0A
:1002B8005FEA4C0C404141EB0101013C28BFB1F51C
:1002C800801FE9D291F0000F04BF01460020B1FA67
:1002D80081F308BF2033A3F10B03B3F120020CDA3A
:1002E8000C3208DD02F1140CC2F10C0201FA0CF018
:1002F80021FA02F10CE002F11402D8BFC2F1200C7D
:1003080001FA02F120FA0CFCDCBF41EA0C01904032
:10031800E41AA2BF01EB0451294330BD6FEA04047B
:100328001F3C1CDA0C340EDC04F11404C4F1200266
:1003380020FA04F001FA02F340EA030021FA04F378
:1003480045EA030130BDC4F10C04C4F1200220FACF
:1003580002F001FA04F340EA0300294630BD21FA0D
:1003680004F0294630BD94F0000F83F4801306BFD3
:1003780081F480110134013D4EE77FEA645C18BFC7
:100388007FEA655C29D094EA050F08BF90EA020F5E
:1003980005D054EA000C04BF1946104630BD91EA56
:1003A800030F1EBF0021002030BD5FEA545C05D159
:1003B8004000494128BF41F0004130BD14F5800498
:1003C8003CBF01F5801130BD01F0004545F0FE410C
:1003D80041F470014FF0000030BD7FEA645C1ABF41
:1003E800194610467FEA655C1CBF0B46024650EA78
:1003F800013406BF52EA033591EA030F41F40021A4
:1004080030BD00BF90F0000F04BF0021704730B529
:100418004FF4806404F132044FF000054FF00001FE
:1004280050E700BF90F0000F04BF0021704730B5BF
:100438004FF4806404F1320410F0004548BF404294
:100448004FF000013EE700BF42004FEAE2014FEAE9
:1004580031014FEA02701FBF12F07F4393F07F4FC4
:1004680081F06051704732F07F4208BF704793F0C7
:100478007F4F04BF41F40021704730B54FF46074DA
:1004880001F0004521F000411CE700BF50EA0102DD
:1004980008BF704730B54FF000050AE050EA010286
:1004A80008BF704730B511F0004502D5404261EBF6
:1004B80041014FF4806404F132045FEA915C3FF437
:1004C800D8AE4FF003025FEADC0C18BF03325FEAD4
:1004D800DC0C18BF033202EBDC02C2F1200300FA85
:1004E80003FC20FA02F001FA03FE40EA0E0021FAAA
:1004F80002F11444BDE600BF70B54FF0FF0C4CF498
:10050800E06C1CEA11541DBF1CEA135594EA0C0F49
:1005180095EA0C0F00F0DEF82C4481EA030621EA84
:100528004C5123EA4C5350EA013518BF52EA0335BF
:1005380041F4801143F4801338D0A0FB02CE4FF071
:100548000005E1FB02E506F00042E0FB03E54FF0A1
:100558000006E1FB03569CF0000F18BF4EF0010E99
:10056800A4F1FF04B6F5007F64F5407404D25FEA95
:100578004E0E6D4146EB060642EAC62141EA555148
:100588004FEAC52040EA5E504FEACE2EB4F1FD0C8A
:1005980088BFBCF5E06F1ED8BEF1004F08BF5FEA08
:1005A800500E50F1000041EB045170BD06F00046BA
:1005B80046EA010140EA020081EA0301B4EB5C0467
:1005C800C2BFD4EB0C0541EA045170BD41F480115F
:1005D8004FF0000E013C00F3AB8014F1360FDEBF84
:1005E800002001F0004170BDC4F10004203C35DA60
:1005F8000C341BDC04F11404C4F1200500FA05F3E3
:1006080020FA04F001FA05F240EA020001F0004283
:1006180021F0004110EBD37021FA04F642EB0601F9
:100628005EEA430E08BF20EAD37070BDC4F10C0423
:10063800C4F1200500FA04F320FA05F001FA04F2E7
:1006480040EA020001F0004110EBD37041F10001D3
:100658005EEA430E08BF20EAD37070BDC4F12005DE
:1006680000FA05F24EEA020E20FA04F301FA05F246
:1006780043EA020321FA04F001F0004121FA04F2EE
:1006880020EA020000EBD3705EEA430E08BF20EABE
:10069800D37070BD94F0000F0FD101F000464000F8
:1006A80041EB010111F4801F08BF013CF7D041EA7A
:1006B800060195F0000F18BF704703F0004652007E
:1006C80043EB030313F4801F08BF013DF7D043EA4F
:1006D8000603704794EA0C0F0CEA135518BF95EA05
:1006E8000C0F0CD050EA410618BF52EA4306D1D18C
:1006F80081EA030101F000414FF0000070BD50EAAB
:10070800410606BF1046194652EA430619D094EA34
:100718000C0F02D150EA013613D195EA0C0F05D11E
:1007280052EA03361CBF104619460AD181EA030172
:1007380001F0004141F0FE4141F470014FF000002A
:1007480070BD41F0FE4141F4780170BD70B54FF0C5
:10075800FF0C4CF4E06C1CEA11541DBF1CEA135545
:1007680094EA0C0F95EA0C0F00F0A7F8A4EB050427
:1007780081EA030E52EA03354FEA013100F088801E
:100788004FEA03334FF0805545EA131343EA1263E7
:100798004FEA022245EA111545EA10654FEA00269C
:1007A8000EF000419D4208BF964244F1FD0404F555
:1007B800407402D25B084FEA3202B61A65EB0305B1
:1007C8005B084FEA32024FF480104FF4002CB6EB6E
:1007D800020E75EB030E22BFB61A754640EA0C00EE
:1007E8005B084FEA3202B6EB020E75EB030E22BF2E
:1007F800B61A754640EA5C005B084FEA3202B6EB6F
:10080800020E75EB030E22BFB61A754640EA9C002D
:100818005B084FEA3202B6EB020E75EB030E22BFFD
:10082800B61A754640EADC0055EA060E18D04FEABB
:10083800051545EA16754FEA06164FEAC30343EA5B
:1008480052734FEAC2025FEA1C1CC0D111F4801F28
:100858000BD141EA00014FF000004FF0004CB6E721
:1008680011F4801F04BF01430020B4F1FD0C88BFC0
:10087800BCF5E06F3FF6AFAEB5EB030C04BFB6EBCB
:10088800020C5FEA500C50F1000041EB045170BDBE
:100898000EF0004E4EEA113114EB5C04C2BFD4EBEB
:1008A8000C0541EA045170BD41F480114FF0000E6F
:1008B800013C90E645EA060E8DE60CEA135594EAEB
:1008C8000C0F08BF95EA0C0F3FF43BAF94EA0C0FEE
:1008D8000AD150EA01347FF434AF95EA0C0F7FF463
:1008E80025AF104619462CE795EA0C0F06D152EAB7
:1008F80003353FF4FDAE1046194622E750EA41069B
:1009080018BF52EA43067FF4C5AE50EA41047FF4AB
:100918000DAF52EA43057FF4EBAE12E74FF0FF3C10
:1009280006E000BF4FF0010C02E000BF4FF0010CE1
:100938004DF804CD4FEA410C7FEA6C5C4FEA430C5A
:1009480018BF7FEA6C5C1BD001B050EA410C0CBFA9
:1009580052EA430C91EA030F02BF90EA020F00200B
:10096800704710F1000F91EA030F58BF994208BF72
:1009780090422CBFD8176FEAE37040F0010070472F
:100988004FEA410C7FEA6C5C02D150EA013C07D186
:100998004FEA430C7FEA6C5CD6D152EA033CD3D0D1
:1009A8005DF8040B704700BF8446104662468C46CB
:1009B8001946634600E000BF01B5FFF7B7FF0028FE
:1009C80048BF10F1000F01BD4DF808EDFFF7F4FF27
:1009D8000CBF012000205DF808FB00BF4DF808EDB2
:1009E800FFF7EAFF34BF012000205DF808FB00BFD5
:1009F8004DF808EDFFF7E0FF94BF012000205DF8F7
:100A080008FB00BF4DF808EDFFF7CEFF94BF0120AB
:100A180000205DF808FB00BF4DF808EDFFF7C4FFA4
:100A280034BF012000205DF808FB00BF7BB972B914
:100A38000029BEBF00204FF0004106E008BF002893
:100A48001CBF6FF000414FF0FF3000F057B8ADF118
:100A5800080C6DE904CE002909DB002B1ADB00F035
:100A68004FF8DDF804E0DDE9022304B070474042A6
:100A780061EB4101002B1BDB00F042F8DDF804E0DC
:100A8800DDE9022304B0404261EB4101524263EBCD
:100A980043037047524263EB430300F031F8DDF83B
:100AA80004E0DDE9022304B0404261EB41017047F4
:100AB800524263EB430300F023F8DDF804E0DDE97C
:100AC800022304B0524263EB4303704753B94AB957
:100AD800002908BF00281CBF4FF0FF314FF0FF303E
:100AE80000F00CB8ADF1080C6DE904CE00F008F880
:100AF800DDF804E0DDE9022304B07047704700BF69
:100B08002DE9F04786468C460846089E15467446E9
:100B18001946002B40F0C2808542B2FA82F245D9CC
:100B28004AB1C2F1200300FA02FC2EFA03F3954001
:100B380043EA0C0C94404FEA154EA8B2BCFBFEF8F1
:100B4800230C0EFB18CC08FB00F943EA0C4399452B
:100B580028D9EB1808F1FF3704D2994502D9A8F132
:100B680002072B44A3EB0903A4B2B3FBFEFC0EFB64
:100B78001C330CFB00F044EA0344A04214D92C199E
:100B88000CF1FF3304D2A04202D9ACF102032C4489
:100B9800241A43EA07401EB1D4400023346073602E
:100BA800BDE8F0874746DDE76346F1E792BB431BA4
:100BB80001214FEA154EAFB2B3FBFEFC200C0EFB31
:100BC8001C330CFB07F840EA0343984562D9EB183D
:100BD8000CF1FF3004D2984502D9ACF102002B4445
:100BE800A3EB0803A4B2B3FBFEFC0EFB1C330CFB07
:100BF80007F744EA0344A7424ED92C190CF1FF33F6
:100C080004D2A74202D9ACF102032C44E41B43EA04
:100C18000040C0E7C2F1200320FA03F1954090405C
:100C28002EFA03F303434FEA154EAFB2B1FBFEFCB5
:100C38000EFB1C10190C0CFB07F841EA0041884513
:100C480004FA02F422D969180CF1FF3004D288455D
:100C580002D9ACF102002944A1EB08019BB2B1FB17
:100C6800FEFC0EFB1C110CFB07F743EA01439F42F5
:100C78000ED9EB180CF1FF3104D29F4202D9ACF126
:100C880002012B44DB1B41EA004192E76046E3E79F
:100C98006146F7E76046A3E76346B7E7834206D9AC
:100CA80016B9002108467BE7C6E900E0F9E7B3FA80
:100CB80083F78FB9834201D3724508D8BEEB02048B
:100CC80060EB030301209C461EB9002168E7384603
:100CD800FAE7C6E9004CF8E7C7F1200CBB4022FA56
:100CE8000CF41C432EFA0CF120FA0CF3B840014323
:100CF8004FEA14490EFA07F5B3FBF9F81FFA84FE18
:100D080009FB18300B0C08FB0EFA43EA00439A451E
:100D180002FA07F240D9E31808F1FF3004D29A45E5
:100D280002D9A8F102002344A3EB0A0389B2B3FB5A
:100D3800F9F809FB183308FB0EFE41EA03418E451A
:100D48002CD9611808F1FF3304D28E4502D9A8F1D5
:100D58000203214443EA0040A0FB0298A1EB0E01E4
:100D68004145CE46434602D306D14D4504D2B9EBA0
:100D7800020E68EB04030138002EA6D0B5EB0E0274
:100D880061EB030101FA0CFC22FA07F34CEA0303B6
:100D9800F940C6E9003198E74046C5E74346D9E738
:100DA80010F8012B11F8013B012A28BF9A42F7D00D
:100DB800D01A7047034611F8012B03F8012B002ABB
:100DC800F9D17047034613F8012B002AFBD1181AF2
:100DD80001387047000000002DE9F04704468AB04A
:100DE800884617460BF0F0FC0A220023FFF76EFE38
:100DF800B8F1010F06460D4608D1CDE900012A4A8F
:100E08000821204609F05DFC002012E07F68274891
:100E18003946FFF7C5FF78B125483946FFF7C0FFC7
:100E280050B12046234A3B46012109F04AFC6FF0A5
:100E380004000AB0BDE8F0873046294618A3D3E974
:100E48000023FFF7F3FD06460D46104619461A4AD9
:100E58000023FFF7EBFD80460F46104619464EF675
:100E680060220023FFF7E2FD8246894610461946B4
:100E78004FF47A720023FFF7D9FDCDE904A9CDE933
:100E88000601CDE90823CDE90287CDE900650B4AC3
:100E98000821204609F015FCB6E700BFAFF3008033
:100EA800005C2605000000005CE400086DE4000812
:100EB80070E4000879E4000880EE360090E4000849
:100EC80008B5024807F056FB002008BD3EE20008BE
:100ED8002DE9F04F91B08407009302F004030293C8
:100EE800C2F3C20303F10103DDF8689003920546DB
:100EF8000E46059340F0BA81041D30B1072909D880
:100F08006FF01B0011B0BDE8F08F01F00706341D2B
:100F1800C6F10806009B4FF00008591E4FF0040A5E
:100F28004FF0FF330193CDF810804746C346534630
:100F38000DB1009A22600598002800F3E8809848CF
:100F4800009A824203D397488242C0F0E080039A15
:100F5800A4EB050E92074FEA9E0000F103810F2FC4
:100F680000F2B180002D00F0058107F140020DEB81
:100F7800020C019A0CF8200C0CF8102C0498013083
:100F88000490E7E07A285DD84B280ED8472859D82E
:100F980029282DD8252852D054D820287AD023386B
:100FA800D0F1000B4BEB000B74E04C382E2849D8DD
:100FB800DFE800F0704848484848484848484848EA
:100FC8004B484848484848484859484B4B5959594C
:100FD800704B6D487048184B184848827F4B4848FA
:100FE8004B487F0000204FF0000B4FF0040A38E018
:100FF8002A38C0B2012202FA00F010EA0E0F49D1D5
:1010080010F0625C2FD110EA020B43D06046013C1D
:101018005444B4FBFAF40AFB04F4002D61D0A3EBAA
:10102800050CA444B4453FF66BAF002868D1042BE7
:1010380047D159F8043B2360043404232AE0019A79
:10104800013A01924FF0000B24E011F8010C6C28D2
:1010580034D111F8023C00206C2B8346C5D14FF0E7
:10106800080A5346D3E709F1070929F007090734A5
:10107800F9E802AB24F0070435B106982044B042E1
:101088003FF63EAFC4E900AB08344FF0000B4FF019
:10109800080A534611F8010F002878D0BBF1000F59
:1010A8007FF470AF2528F5D1019B013301934FF0F0
:1010B800010B4FF0040AECE7584694E700208346FA
:1010C800A5E7082B02D06FF015001BE709F1070907
:1010D80029F00709F9E80223C4E9002308340823A2
:1010E800D8E768B9042B02D109F10409A4E7082B51
:1010F800E9D109F1070929F0070909F10809EDE71C
:10110800059A013A059259F8042B009210E7039AC0
:10111800900720D5A4EB050E4FEA9E004FF0010C76
:10112800BEF5007FCFD20F2FCDD8F5B107F1400221
:101138000DEB020EC0B2019A0EF8200C0EF8102C1E
:10114800BCF1000F3FF41AAF60F07F000EF8200CDE
:1011580008F101080137C5F10802043406924FF678
:10116800DA7E97E74FF0000CDAE7BCF1000F01D008
:101178000136EFE7029802360028EBD10098CDE956
:101188000631FFF71FFEDDE906310644E2E7631B7F
:10119800B3F5806F97D23DB9A6F10804E018B1E61F
:1011A80014D0000820020108029A28609B082B70BE
:1011B8009DF81030C2B1EB7085F80280B8F1000FCD
:1011C80005D008A80022C5F1010C97420ED1C5F13F
:1011D80001030DF120094FF0000A01930DF1300BC6
:1011E800574512D1601B8DE66B70E5E710F8013B9F
:1011F800190608D504EB0C0EB64503F07F033FF63D
:101208007FAE04F8013B0132DFE7B8F1000F03D0ED
:1012180099F90020002A17DB029BD3B11AF80B209A
:1012280004F8012B0022019B98182044B0423FF695
:1012380067AE99F8000004F8010B00990392204664
:101248000BF0E3FD039A14440AF1010A09F10109BC
:10125800C6E799F8002055F822300093029B45F81C
:1012680022300098FFF7AEFD421CDCE76FF00D005E
:1012780048E600BF2DE9F04F97B000AF90F802A004
:10128800D7F880B03B62CBF3C0030446FA62BB6177
:10129800894641B9457800780AEB800020444D45DD
:1012A80017D8A0EB0409E378FB61BAF1000F02D06C
:1012B8001BF0010F16D1FB6953BBFB6A1BB13A6ADD
:1012C8004946204698474D4628465C37BD46BDE806
:1012D800F08F461C3046FFF775FD0130304409F1A8
:1012E8000109DCE7237862687A62FA6A9900796111
:1012F80004EB8301002A40F004814D460E4601EBC1
:101308000A094FF000084E4550D101EB0A0610E0DB
:101318001BF0020FD1D023789A007A6162687A6252
:10132800FA6A04EB8301002A7BD14D4601EB0A06D9
:1013380090461BF0050F0CBF02230123FB62FB69DB
:1013480006EB430A0BF00203BB625645BCD016F805
:10135800021B16F8013C54F823909B4B994502D385
:101368009A4B99453AD3BB69002B44D0786A08F068
:10137800CBFB00283FD09648036813F0060F13D024
:10138800E9468AB06A46934B53617B6AC2E90631E3
:101398004FF400731384904B42F8103F00234FF42E
:1013A800125100F027FDCD46023DCEE716F8013B6D
:1013B800F96254F82300FFF705FDD7F88430F96A7D
:1013C80001304BB1D7F8883098453EBFD7F8843004
:1013D80023F8180008F10108054494E7BB6923B114
:1013E800786A08F091FB0028C5D11BF0010F05D1E0
:1013F800FB6AED1AA9E7BB6A002BA6D04846FFF79F
:10140800E1FCD7F8843053B1D7F8883098453FBF0E
:10141800D7F88420431C22F8183008F10108054445
:1014280093E7BAF1000F72D01BF0040672D0D046D1
:10143800002607F1480052463B61B9620BF0E5FC13
:10144800B96A3B6901EB0A02BA62FA69F9695200A2
:10145800FA60BA6A02EB41023A610BF00202BA6022
:101468003A69B96A8A4257D162787A621BF0020FE8
:1014780032440CBF4FEA580100211BF0010FD2B2D1
:1014880040F09F801BF0040F14BF40460020BB6152
:101498006270A070E1703A6A7969FB6A20469847E1
:1014A800051EFFF611AFBB6923707B6A6370FB6989
:1014B800E37041463A6AFB6A84F802A007F14800E3
:1014C8009847B0F10008C0F2B5807B693A6AA9EB89
:1014D8000A01C91AFB68C91AD7E90A0398470028FC
:1014E800C0F2AA80A84408EB00054FF0000B07F1F2
:1014F800380AB34572D300213A6AFB6A084698470E
:10150800E2E656464FF0000807F1380093E75646E2
:10151800D04697E7B04695E7BA6A12F8021BBA6256
:1015280012F8015C284A54F82500904202D3274A51
:1015380090421ED3BA6932B1786A7B6008F0E4FA47
:101548007B6800288CD1BA6802BB08F1280207F131
:10155800300C08F10100944407F1580252FA80F067
:1015680008F102080CF8101C5FFA88F800F8105C03
:1015780076E7BA693AB1786A7B6008F0C5FA7B68A1
:1015880000287FF46DAF1BF0010F09D006F1280287
:1015980007F13000711C161806F8205CCEB25FE720
:1015A8001BF0040F3FF45CAF08F1280207F130008C
:1015B80008F1010102EB000808F8105C5FFA81F8F5
:1015C8004EE7002063E700BF14D00008200201089E
:1015D8005001002051E20008040000011BF80A3005
:1015E80087F8373054F82390D7F88430FBB133F8B4
:1015F8001B803A6AFB6A012107F1370098470028E7
:101608001ADB0544B8F1000F06D14846FFF7DAFBAC
:1016180000F101081FFA88F83A6AFB6A4146484611
:101628009847002808DB05440BF1010B61E7D7F860
:101638008480DEE7454647E6054645E6014B1860E7
:10164800704700BF0000002080B505460E461746CB
:10165800984606F0C5FA03460BF0CEFCDFF8189062
:10166800044649F80030424630463946A84754F8FF
:10167800090003F0C7FA00BF0800000008B50446D7
:10168800EFF31183102383F31288BFF36F8F0AF0EF
:10169800C9FE204603F0A4FA024808F05CFA0AF0F2
:1016A8005AF8FCE705E30008034A536823F00203ED
:1016B80053600020704700BF002004E0084B1A6800
:1016C80042F480721A601A6842F400721A601A684A
:1016D80042F480621A60034B034A1A600020704784
:1016E800003C0240C80000200024F4002DE9F04727
:1016F800DFF85880044607464FF0010914B9384608
:10170800BDE8F08794FAA4F5B5FA85F509FA05F36A
:101718002E0108EB05156FEA030A24EA03042B7B64
:10172800002BEBD058F806301B694BB9464404220D
:1017380073682846196807EA0A0700F01BFBDDE70B
:10174800284698470028D9D1F0E700BFF0D4000810
:1017580030B51049104889B000220BF037F80F4D0A
:101768000F4900220023CDE9062300240E23CDE9EA
:101778000334CDE901440B4B00944FF440722846E2
:1017880005F056FF0849284605F07EFE204609B0B8
:1017980030BD00BFB517000860060020A00100207A
:1017A80000940020C11A00082EE30008014805F043
:1017B8001FBE00BF840100202DE9F04780461E4867
:1017C8000F4608F0E2FC064678B300252846BDE837
:1017D800F087237B6BB12368DB680BB12046984701
:1017E80023681B69CBB9636804221968204600F096
:1017F800C1FA013610344C45EBD3B8F1000FE5D0EF
:10180800002DE2D02846FFF771FF0546002FF7D0DC
:101818000021642006F0C6F9F2E720469847002820
:10182800E1D00AFA06F31D43E3E7044CDFF8109011
:1018380005464FF0010ADEE7680D0020F0D40008E5
:1018480000D5000808B5034608462BB1044A1360C2
:1018580000F072FD002008BD6FF01500FBE700BF27
:101868000400002010B5044C237813B9034805F090
:10187800BFFD0123237010BDA89200208401002021
:1018880010B50446084808F080FC5CB1BFF35B8FD4
:10189800064B53E8001F013943E80012002AF8D12B
:1018A800BFF35B8F10BD00BF600D0020640D0020EA
:1018B8000020064BBFF35B8F014653E8000F43E857
:1018C8000012002AF9D1BFF35B8F7047600D00202A
:1018D80070B5FFF7EDFF084C084E0546B44200D33B
:1018E80070BD63685B792BB123685B6813B12946C7
:1018F800204698471034F1E7F0D4000800D50008D6
:1019080010B5044C0449204608F02CFA034B1C601F
:1019180010BD00BF0C01002058D80008580D002049
:10192800094A0A4808B500231370094A1360094A8E
:101938004FF47A711360FFF785FFFFF7E1FFBDE809
:10194800084000F067B900BFA9920020ADA10008C7
:10195800600D0020640D002001460022014800238C
:1019680008F021BA0C010020014808F0B7BA00BFFE
:101978000C010020024B0146186808F003BB00BFA9
:10198800580D0020014808F038BB00BF0C010020AA
:101998002DE9F041314B187800285DD0FFF7E4FFBE
:1019A800044698B1BFF35B8F2D4B53E8001F0139F4
:1019B80043E80012002AF8D1BFF35B8F294DDFF806
:1019C800A880454526D32046FFF7D4FF274B284C4F
:1019D8001B68002B12DD0AF0F7FE0A220023FFF72E
:1019E80075F8D4E90032C01A40F2E93361EB02011C
:1019F800984271F1000101D3FFF76AFFD4E9003280
:101A080013F57A7342F10002C4E90032BDE8F041EF
:101A1800FFF7B8BF6B685B793BB121784B0706D5F8
:101A28002B6821461B68284698471035C9E7204689
:101A38002688C1F3C20700F0BDFAC6F38216024633
:101A4800002EEDD00028EBDB01233946284600F0B4
:101A5800ABF9B042E9D3E3E7BDE8F081A8920020F2
:101A6800640D0020F0D4000800D50008600D0020A7
:101A78005806002070B50D4D297861B90120FFF78F
:101A88009BFE0B4C0B4EB44206D3FFF781FF002898
:101A9800FBD101232B7070BD63685B791BB1236890
:101AA80020469B6898471034EDE700BFA9920020B4
:101AB800F0D4000800D5000800212DE9F0470846B9
:101AC800FFF77AFE044658B34FF4FA784FF000094E
:101AD8000BF092FA1B4B1C4A1B58136033B11B4B7B
:101AE8001B68092B02DD1A4805F082FC194FDFF844
:101AF80060A0002544B12046FFF7F8FD044618B958
:101B08004FF0FF384FF0FF39FFF742FF064628B97C
:101B1800B5B942464B46504605F090FC3546E9E7D4
:101B28004FF0FF384FF0FF39D2E72B689B691BB1A4
:101B380000221146284698471035BD42F5D3E8E7FC
:101B4800054DFAE7080000005C0D0020640D002038
:101B58008401002000D50008F0D4000813B5184807
:101B680008F013FB174B1B7873B1EFF311841023A4
:101B780083F31288BFF36F8FFFF70AFF84F311888E
:101B8800BFF36F8F02B010BD0F4B1B68002BF9D04D
:101B980050B900220023CDE900230C4842F210720C
:101BA800002306F0D3FAEDE70928EBD107480AF03D
:101BB80019FE074802B0BDE8104005F019BC00BF87
:101BC800640D0020A99200205C0D00206006002012
:101BD8008401002010B5064B1B680446984721462F
:101BE800A060044808F05BF9BDE81040FFF7B6BFF5
:101BF800040000200C010020044A054B9B1AB1EB9D
:101C0800D30F34BF52F831000020704788D4000841
:101C1800F0D400080B480C4B30B51B1A0B4CDB08F2
:101C280000210430994200D130BD10F831202568D8
:101C380002F0070225F007052A4344F8042B013176
:101C4800F0E700BF88D40008F0D400085001002055
:101C5800F8B50B4F0B4DED1B0646ED080024AC42C2
:101C680003D14FF0FF342046F8BD57F8340020B1B7
:101C78003146FFF795F80028F5D00134EFE700BFAB
:101C880088D40008F0D4000800282DE9F0478846D9
:101C980015461F461DDADFF89890264E4FF0000AC9
:101CA800A6EB090636095446B24509F1100902D1D6
:101CB8002046BDE8F08759F80C0C3B4600792A46C7
:101CC8004146FFF7E1FF844238BF04460AF1010AA2
:101CD800EAE7194B194AD21AB5EBD20F26D203EB11
:101CE800C5031C79BC4228BF3C46154EC0B200EB68
:101CF800400056F825300722824023EA020304F008
:101D08000702824013430021032223FA02F000F065
:101D18000700814202F1030238BF01461E2AF4D1AE
:101D280023F007030B4346F82530C1E70024DCE71E
:101D3800F0D4000800D5000888D40008F0D40008C2
:101D480050010020F8B5094D094BED1A06460F461B
:101D5800ED080024AC4200D3F8BD002122B23B4676
:101D68003046013408F039FAA4B2F3E7F0D4000899
:101D780088D4000838B50B4BC31A0D461B11114601
:101D8800426801331371436804469971FFF7DAFF1B
:101D980063681D60636801225A71BDE83840FFF727
:101DA80061BD00BFF0D4000870B14168097973B112
:101DB800002A17DBCBB20C4951F8220003EB43038E
:101DC800D84000F0070070474FF0FF31EFE70749B0
:101DD8000748401AB2EBD00F3ABF01EBC2010879AD
:101DE80018467047042070475001002088D4000826
:101DF800F0D400082DE9F04F8FB004AFC1F34A28A2
:101E0800B8600D4691467B600C0DB8F1000F67D0A5
:101E1800002607F114034FF0040B4FF00A0AC7F825
:101E28000C80C7E907667E620193CDF808B0CDF84B
:101E380000A007F11C03F96832464846FFF71AFA72
:101E4800B0F5006F034620D32A48036813F0060F45
:101E580017D06C468AB0D9F8041004AB264DC3E9F4
:101E6800055140F2FF71D9611A464FF40071198487
:101E7800224B42F8103F4FF412513346FFF7BAFF96
:101E8800A5462C37BD46BDE8F08FC0F30A0804F11B
:101E98001700184420F0070080083B60FFF75CFD3E
:101EA80068F35325044690B13B68154AC7E90836DC
:101EB80000F1100107F11403F961CDE900A3CDF891
:101EC80008B0F96807F11C034846FFF7D3F968F32F
:101ED80053257B68B9682A46204608F0A8F9D0E758
:101EE80004F1170020F007008008FFF735FD0446CD
:101EF800EDE700BF6401002043E30008040000018F
:101F08000BA200082DE9F04F87B0DDE91279DDE971
:101F1800105A0446039193469846DFB1CDF80090D5
:101F28003B46524610210020CDF81490FEF7D0FF12
:101F3800B0F5006F06460ED31C48036813F0060F71
:101F480030D01B4A40F2FF73022107B0BDE8F04FC2
:101F580008F0C6B93E4605F11700304420F00700E6
:101F680004F007048008FFF7F7FC0BF0070BE40008
:101F780044EA8B1444EA462444EA0554054640B131
:101F88003FB1CDF800903B46524631461030FEF73F
:101F98009FFF039943462246284607B0BDE8F04F05
:101FA80008F045B907B0BDE8F08F00BF6401002014
:101FB80082E30008406820B1034BC01A40F38F0049
:101FC80070474FF0FF307047500100200EB403B542
:101FD80003AB014653F8042B0448019303F0EAF8D5
:101FE80002B05DF804EB03B0704700BF4BA30008D4
:101FF800CA0605D48B064CBF02490349FFF7E6BF62
:10200800704700BFBBE50008BAE300082DE9F04FB0
:1020180089B09B46149B06939DF84CA0159B05938D
:10202800169B179E049304460D469046BAF1000F7E
:1020380000F09D8006F48073079308F0CCF806F052
:102048000209024600283ED091492046FFF7BEFF0C
:102058000746B9F1000F08D016F0440F35D18D4965
:102068002A462046FFF7B2FF074406F0010353B1A2
:10207800894B8A4953F82A20894B2046002A08BFF1
:102088001A46FFF7A3FF06F48073002B49D006F029
:102098000803002B63D1B8F1000F66D0814942468E
:1020A8002046FFF793FF0546069B3D44002B6DD164
:1020B800049B002B73D1F30700F1E48031462046DE
:1020C800FFF796FFD8E00746C3E7774B1868002864
:1020D800CAD0764B4FF47A791B68B5FBF3F54FF409
:1020E8006161B5FBF0F300FB135509FB05F54FF0F3
:1020F8003C0CB3FBF1F201FB1231B5FBF0FEB1FB76
:10210800FCF300FB1E550CFB131109FB05F50091B0
:10211800B5FBF0F56649CDE901E52046FFF756FF26
:10212800A2E706F00803EBB1624B634953F82A2093
:102138002046FFF74BFF0546B8F1000F05D0594977
:1021480042462046FFF742FF0544BBF1000FABD0E3
:102158005A495A462046FFF739FF0544A4E74FF08D
:10216800000BE1E706F00805E6E745469CE7BBF10A
:10217800010F069B06D1002B64D1049B002B7BD05A
:1021880000250CE0002BF8D04D485CE04D48069B3C
:102198004D49224607F087FC049B002B68D0DFF8E6
:1021A8002C81DFF82C91049F3146102F204628BF40
:1021B8001027FFF71DFF4FF0000B5D4545DC059B21
:1021C80049461A782046FFF701FF4FF0010B1BF034
:1021D800070F03D141462046FFF7F8FE5F453BD97C
:1021E800059B494613F80B202046FFF7EFFE0BF13D
:1021F800010BBBF1100FEAD1364920464FF0000B16
:10220800FFF7E4FE5A46059B9A5CA2F120015F297C
:1022180028BF2E2230492046FFF7D8FE0BF1010BCC
:10222800BBF1100F1DD01BF0070F03D1414620460C
:10223800FFF7CCFE5F455A46E5D841462046FFF7F2
:10224800C5FEEBE71F485546A1E741462046FFF784
:10225800BDFE0BF1010BB0E720492046FFF7B6FEA3
:10226800C5E7059B3B440593049BDB1B04939AD16C
:10227800BAF1000F7FF41FAF204609B0BDE8F04F58
:1022880008F052B8064A05492046FFF79FFE15E7B1
:10229800C2E30008C6E300086CD8000828E8000874
:1022A800BDE30008EBE30008700D00206C0D002072
:1022B800CFE3000880D80008EFE30008F5E3000842
:1022C80081A300084BA30008BD51000802E40008E0
:1022D800FAE3000804E400083AEE000800E4000805
:1022E80073B542F20F738B4228BF0B4605680F4A3D
:1022F80004460521684606F04FF963680C495B6897
:1023080006460422284608F001F863683246694602
:1023180028465B6807F0FAFF636806495B6817227E
:10232800284607F0F3FF02B070BD00BFF7F80008B9
:102338001EE4000806E40008074A00210123904231
:1023480006D8064A01B901231360054B1860704787
:1023580040085B000121F2E740420F006C0D0020AD
:10236800700D0020014B03600020704794D80008CE
:1023780008B5034A034B082108F0A3F9002008BD5B
:1023880049E4000843E4000810B5044604F0A0FC42
:10239800084A03460821204608F093F9064A2046D1
:1023A800082108F08EF90548214605F0D5FC0020E3
:1023B80010BD00BFDEE40008FDE40008C9230008E2
:1023C80070B58EB004460D46D0F89C600AF0A0F8AF
:1023D80002460AF011FE254B1958254B002A18BF52
:1023E8001346CDE90043234A234B28468C4218BFA5
:1023F8001346224A082108F064F9D4E90A23CDE9F2
:10240800022394F90E300093237B1D4A28460821A5
:1024180008F057F906A92022204605F045F8626E13
:1024280000920346174A0821284608F04AF905A9E8
:1024380020460AF07DF8034630B1134A08212846A1
:1024480008F03FF90EB070BD059A6423B11ACDE9C2
:1024580000214B430D4AB3FBF6F30821CDE9026393
:102468002846334608F02DF9ECE700BF08000000C5
:1024780007E5000802E4000821F800080AE500085A
:1024880016E5000842E5000859E5000886E5000859
:10249800F0B5002593B0044629460AAF1C220BA8C4
:1024A8000AF0DBFC144E1A22202138460AF0D5FC2B
:1024B8002146124805F050FC09AA4FF40061304645
:1024C8000AF02AF809996422C1F5006042434FF4E2
:1024D8000063D20ACDE90403CDE902310692204611
:1024E800CDE90057064AA6F14003082108F0E9F8AB
:1024F800284613B0F0BD00BFC09F0020E9250008A2
:10250800BDE5000810B5044604F000FC034A034684
:102518000821204608F0D5F8002010BD06E600087E
:102528002DE9F34117460023044601AAB868019330
:102538000A2101F065FB019DC6B255B12B46154A2B
:102548000121204608F0BDF8019D284602B0BDE8EB
:10255800F081042E0AD9104A33460121204608F09A
:10256800B0F8204608F0E7F80125EEE77868FFF7AD
:102578006FFBB0F1000805DA7B68084A01212046A4
:1025880008F09FF8002133460FFA88F2084607F052
:1025980024FEDAE71CE6000843E600085AE60008CD
:1025A80037B5134600220192054601AA58680A2148
:1025B80001F026FB019C4CB920EAE0700A2180FB5F
:1025C800010105F0EFFA204603B030BD2346034A67
:1025D8000121284608F075F8019CF4E779E600081F
:1025E800F0B50446D0F89C6089B00D4607A909F0FB
:1025F8009FFF034630B1104A0821284608F061F8C9
:1026080009B0F0BD204609F083FF0C4F079A002857
:1026180018BF0746B11A6423CDE902214B43CDE91F
:102628000076B3FBF6F3064ACDE904630821234696
:10263800284608F046F8E3E759E5000807E50008EA
:1026480099E600082DE9F04387B00546684604F08E
:1026580011FC009E184A194FDFF86480DFF8649077
:10266800142303FB00660821284608F02AF8009C7A
:10267800B44203D3002007B0BDE8F08323680BB150
:102688001A7832B923463A46142101A805F084FF86
:1026980001AB42460821284608F013F8204609F005
:1026A800D7FE094B094A002808BF4B46082128468F
:1026B80008F007F81434DBE717E8000821E80008F9
:1026C80026E800080EE8000808E8000899EE000867
:1026D8008B1E022B2DE9F04107468846144637D851
:1026E80060681022002105F0F9FFB8F1020F0646D4
:1026F80007D1264A20230821384607F0E2FF33682D
:1027080016E00A220021A06805F0E8FFC5B21F4ABA
:102718002B460821384607F0D4FFB8F1040F1AD029
:10272800102D0DD0202DEAD0082D0CD13378DBB236
:10273800174A0821384607F0C4FF0020BDE8F08199
:1027480033889BB2F4E7134A0821384607F0B9FFEB
:102758006FF01500F2E7E0681022002105F0BEFFD7
:102768000D4A034604460821384607F0AAFF102DF3
:1027780006D0202D07D0082DE5D1E4B23470DCE76F
:10278800A4B23480D9E73460D7E700BF5FE8000817
:102798008AE8000874E800089BE800082DE9F04F73
:1027A800594BDFF868A185B0914601220746884653
:1027B8001A6002F02DFD4FF0FF3520262C464946C1
:1027C8005246404602F048FD411C07D16A1C52D1CE
:1027D8004F4A0121384607F074FF1DE0732820D0C6
:1027E800772833D0612817D1DFF828B11022DBF819
:1027F8000000002105F072FF05460028DFD10AF02D
:10280800FBFB454B1B58162BD9D1DBF80030434A4C
:102818000121384607F055FF6FF0150005B0BDE8F7
:10282800F08FDFF8F0B00022DBF80000114605F069
:1028380055FF04460028C2D10AF0DEFB364B1B5870
:10284800162BBCD1DBF80030354AE1E7DFF8C4B01D
:102858000022DBF80000114605F040FF064600287C
:10286800ADD10AF0C9FB2C4B1B58162BA7D1DBF8AE
:1028780000302C4ACCE7631C01D12B4AA9E75FFA48
:1028880086F8C6F3C406002C3CD06B4629461A4687
:10289800A6EB050C0CE0B8F1100F1DD0B8F1200F15
:1028A80020D0B8F1080F2AD1087818703144334481
:1028B800A64203D80CEB01001028ECD9102CA14635
:1028C80028BF4FF0100929464B46384601F064F8F6
:1028D8001035A4EB0904D6E7088880B21870000AFE
:1028E8005870E3E7086818704FEA102E83F801E083
:1028F8004FEA104E000E83F802E0D870D6E70B4A74
:10290800082167E7204689E774000020E9E8000805
:10291800F0E800082C1100200C000000AFE80008C7
:10292800C2E80008D5E800080DE9000874E80008C6
:1029380070B5104E044633780D4681B12BB1BDE811
:1029480070400D4A012107F0BCBE012333700B4AC9
:102958000821204607F0B5FE0123337004E083F018
:1029680001033370002BF2D129462046BDE87040A0
:1029780007F0FEBEAA92002027E9000862E90008D5
:1029880070B504463C480378182B02D10B78112BFC
:1029980031D0013A0B468D18AB4225D18B5C0A78B1
:1029A8000370A2F13003092B344C04D922F0200320
:1029B800413B052B04D823683149CA5401332360AD
:1029C8002368022B34D110222D48002105F086FE01
:1029D8002C4A136803F8010B13602B4A1368013360
:1029E80013600023236023E013F8016B182ED3D162
:1029F8001E78112ED0D1244D244A2B680821204658
:102A080007F05FFE20460021FFF792FF204B187861
:102A180070B9204A2B681168042B0ADC08B11160D0
:102A28002B6013F003010BD1126813681BBA1360F3
:102A380070BD086800BA41F8040B043B0120EBE7BD
:102A48005B4203F0030358BF5942022904D11268BC
:102A580013885BBA9BB2EAE70329E9D110680268D8
:102A68001104C2F3074301F47F010B4302F47F42D0
:102A780013430360DCE700BFAB920020740D002015
:102A8800AD920020800D0020780D00208CE9000810
:102A9800AC9200207C0D00202DE9F84F0C462B4904
:102AA800DFF8AC80DFF8AC90DFF8ACB000230B6047
:102AB8002A4988F8003006460B601546012C2F4637
:102AC80055F804AF1ED90222494650460AF03CF890
:102AD80080B99AF80220003A18BF0122924420498E
:102AE800022250460AF030F830B9012388F8003045
:102AF800013CE3E70022F1E749465046FEF750F96A
:102B0800A8B9043700221146786805F071FD154B05
:102B1800002211461860786805F06AFD124B1349C7
:102B280018603046FFF704FF0020BDE8F88F9AF8D8
:102B380000202D2AE6D19AF80120002AE2D0534637
:102B48005A460821304607F0BCFDD1E7740D002035
:102B5800AC920020A6E90008ACE90008780D002036
:102B6800A9E90008800D00207C0D002089290008B3
:102B780007B50A4809F06CFC60B1094A07491268B0
:102B8800084804230093012300F078FF002003B0D5
:102B98005DF804FB6FF01200F9E700BFBCD1000834
:102BA80034DA000800D5000810B54468C4E90012FA
:102BB800A36042684023D36402F1580313630023DF
:102BC8000821C2E90E33C2E91133C2E90633C2E96A
:102BD8000933D1621468536302F15001136411611F
:102BE80053611362C2F8D030A36823B19B6C13B150
:102BF800044920469847A3689B6A0BB1204698472A
:102C0800002010BD112C00082DE9F74304460D469D
:102C180083685B6C03B19847A3685B6B0BBB4FF091
:102C2800000905F13008EA6C01A9404607F0F2F9FD
:102C38000746002836D0A36801999B693BB3024632
:102C480020469847064628B33146404607F001FA21
:102C5800B7424FF00109E6D0D5E901310020984785
:102C680003E0204698470028D9D1A3685B6A63BB74
:102C780005F11007EA6A01A9384607F01EFA064668
:102C880050BB204607F0D3FBC5F8D0602FE06FF0AB
:102C98005706D9E70146404607F0DBF9B9F1000FBE
:102CA800E3D0D9E71648036813F0060F03D0154A96
:102CB800022107F00CFBA3689B69002BEED00122D0
:102CC8000DF1030120469847E8E720469847002879
:102CD800CED103B0BDE8F083A36801995B695BB10D
:102CE8000246204698470146384607F006FAD5E9D5
:102CF800013101209847ECE76FF05701F4E700BF76
:102D0800780100200DEB000810B5816804461831E1
:102D180001F0AAF9A168034A20461831BDE810401D
:102D280001F048B94FEB000838B58368D3F878321A
:102D3800DB0704461DD4C06908F066FA60680368BA
:102D48005B689847054620B9E06808F032FCA3683C
:102D58001D75A3685B6C13B1294620469847A36884
:102D68000AF04AF90022C3F82023034B185801F04F
:102D780049FF6FF00F05ECE708000000014907F074
:102D8800FABB00BFBBE50008F7B504468068D0F879
:102D980078325A070D4605D5002107F00EFCE06889
:102DA80008F0D9FBE368DB6873B9002D3BD0A6684F
:102DB80006F15607384607F0D8FB002835D03946C3
:102DC80006F5AB70FDF7F6FFA268E0680DF10603A3
:102DD8005632294608F0C2FB58B9A06800F5AB7115
:102DE8005630FDF7E7FFA068563007F0BEFBADF898
:102DF8000600204607F0EBFFA368D3F874329B0661
:102E080003D50B49606907F0B6FB204600F060FF68
:102E1800A268BDF80630A2F85230A2682046A2F88F
:102E2800503007F039FF03B0F0BD86F85601CBE704
:102E380088D500082DE9F04FA7B004465422002198
:102E480011A80AF00AF80023CDE90533A368204643
:102E58005633029307F0C2FF204607F006FF10B969
:102E68006069FFF78BFFA06814220021183009F071
:102E7800F4FF204607F09DFEA168E068B1F85020F5
:102E88005631002608F0A1FB204608F020FC4FF040
:102E9800FF37B24603960DF14408B3463546B146AE
:102EA800DDE90532012A6DD0132B6ED85FBBBBF16B
:102EB800000F0AD0204608F02BFCA26814235632D3
:102EC80011A90DEB030007F0F3FCB9F1000F0CD0CA
:102ED80099F81130FE2B08D1059B26AA02EB830234
:102EE80052F8542C0AB101330593A068059D436A32
:102EF800002B40F0B680CEB1C3699E422DD00D960E
:102F080000F1180524E0029A0223414606A807F0BA
:102F1800CFFC0699D8F804200292034631B1012962
:102F28000AD148B16D4A204608F00AF86FF0070543
:102F3800284627B0BDE8F08F059B002B34D0D8F881
:102F4800000001F0B1F898B166B1A5680D96183582
:102F58000CAE0FCE0FC533682B602046FFF7D4FEAA
:102F68000125E5E75E4A0121204607F0E9FFDDE794
:102F7800059BCBB1D8F800202946204601F046FA37
:102F8800022809D1059B132B91D9069B022B8ED1C0
:102F9800544B554A0121C6E7032805D0059B013348
:102FA80005934FF0010B7BE7039B33B9D8F800106A
:102FB80007AA484607F073FD054608F10408013FD3
:102FC8009DB3EB68BBF1000F08D0F3B1204607F0C2
:102FD80005FF204607F060FE444AC4E7ABB1A3688A
:102FE800DDF814A0AE4603F1180CBEE80F00ACE8FB
:102FF8000F00DEF80030CCF80030AB682BB96B7CE2
:10300800FE2B04BF2F7C07F1FF37D5F804C0BCF1B5
:10301800000F08D0AE46BEE80F000CAE0FC6DEF8B3
:10302800003033606646A94603E0059B53B101238F
:103038000393069B17B9022B7FF432AF059B01332C
:1030480005932DE7A368DB6A13B1DB68002BEED18B
:10305800274B0093274A119B0121204607F070FF58
:10306800E5E790F82830A5EB0A05BBB190F82910E0
:103078004FF6FF72FF2918BF0A469D4202D3134438
:103088009D420BD983691C4A0121204607F058FF4D
:103098002046FFF739FE6FF0150549E7012107F0D3
:1030A80081FAA06800F5437007F0A0FAA36811AA96
:1030B800294602EB8A025B6A204698470546A068C3
:1030C8004FF0FF324FF0FF3300F5437007F035FA49
:1030D800A068002107F066FA2AE700BF5DEB000848
:1030E80071EB0008D2EB000875E600088FEB0008CA
:1030F800BEEB0008B1EE0008F6EB000810B58368D7
:1031080002221A7583689B6C0446BBB907F0ECF978
:103118008368D3F87832DB040BD50321084B094ABE
:1031280007F00EFFA0686FF4805100F51E7007F0DD
:10313800F5F92046BDE8104000F01EBF10BD00BFE5
:1031480011EC000828E800082DE9F04F04468068D3
:10315800B1B0012100F51E7007F0D1F9A3681B7DFD
:10316800022B20D100230993A36860689E6C036832
:103178001D6909AB0EB310221BA9A847099B93B17F
:10318800A068012107F00EFA099A1BA92046B0474A
:10319800A068002107F006FAA3689B6C002BE3D116
:1031A8002046FFF7ABFFA0686FF0010100F51E7025
:1031B80031B0BDE8F04F07F0B1B901220DF123019C
:1031C800A847099B002BEED09DF923209DF82310DA
:1031D800A368002AC8DB5A7D032A00F29882DFE838
:1031E80012F0040085029C0296020D297CD00A295F
:1031F80058D0B3F878226FF3CA02A3F878220929C5
:10320800A06800F086803DD80029ADD0082900F0DC
:10321800FC810346D3F874229207A5D501391629F3
:10322800A2D801A252F821F0C53700084D3600088F
:103238005536000845360008B937000873360008C7
:1032480071310008713100087131000871310008CE
:103258007B3600088336000871310008AD36000857
:1032680071310008B7360008713100087131000863
:103278007131000871310008BB360008713100084F
:10328800E53600081B2941D07F2900F0CA81A1F149
:1032980020025E2A0346BDD8012107F08EF99DF869
:1032A8002310B9E0D3F87822C2F3C7022AB1D3F8C1
:1032B8007822C2F3C7020A2AACD1B3F8782261F3A4
:1032C800CA02A3F87822A568B5F85010C1B92846F3
:1032D80007F073F9E06808F03EF96069FFF74EFD02
:1032E8002046FFF70BFF3FE7D3F87822C2F3C70267
:1032F800002AE2D0D3F87822C2F3C7020D2ADBE70E
:103308002046FFF797FDC5F82403E9E70123437535
:103318002AE7D0F874329B077FF526AF012107F022
:103328004CF9A068B0F85030FF2B3FF41DAFB0F84F
:10333800522000F1560100F5AB7009F066FDA36854
:10334800B3F852201344002583F85651A2681BA9EC
:10335800142302F5AB720BA807F0AAFA0B991429EB
:103368003FF602AF30AB03EB810343F8545CA3682C
:10337800B3F85220002A53D0134493F85530202B29
:1033880002D0093B042B4BD800294CD100250A95C3
:103398000A9B30AA02EB8303002653F854AC50462C
:1033A80007F0E3F8B3468146B046374616AA3946D1
:1033B800284600F0EBFB0346002840D1012EA76801
:1033C80065D10A9B30AA02EB830353F8540C07F02B
:1033D800CCF807F1180206464146284600F0D6FB0D
:1033E8000568284607F0C1F8864205D0821B92B2CC
:1033F800A919204607F0EBFDA068B0F85230034445
:1034080093F85630202B31D0093B042B2ED9D0F815
:103418007432DF072FD42021204600F075FDA3E683
:103428000129B3D9013900200CAB009301900AABF4
:103438001BAA07F05FFB05460028A9D194E61B6884
:1034480003934A465146184609F07EFB60B9039B30
:103458001846FDF7B7FC584538BF58461FFA80FB99
:10346800002E08BFB846013601379FE701212046E4
:1034780007F046FC78E6002107F0A9F8202120464D
:1034880000F042FDA068012107F0A1F86CE6049065
:103498007FF66AAE0A9A30AB03EB8202C14652F855
:1034A800543C0393184607F060F8049B0590A7F86E
:1034B80040300496A26849461832284600F066FB58
:1034C800039BD0F800A009F101094BB1BAF1000F34
:1034D80006D0059A1946504609F036FB0028E9D16E
:1034E800A168BAF1000F4ED1A1F840A0049B013B9E
:1034F8000493DFD16069FFF741FC204600F03CFDF2
:103508000A9B30AA02EB830308F1010A53F8540C12
:1035180007F02BF8414611AA8146284600F036FBF1
:103528000746A0683968FF2200F5AB7009F01EFB5A
:103538003B6803934FF6FF77B84616AA51462846CC
:103548000AF1010B00F022FB002852D0A1680368A1
:1035580001F25511002211F801EF985C704503D172
:1035680010B101324245F6D1B9F1000F01D04A45F8
:1035780007DBBA4206F1FF36A8BF3A46012E97B2DA
:1035880037D0DA46D9E79948069106F0EEFF069952
:1035980007914A8F00EB0B07BFB2121A504692FBF5
:1035A800F7F292B2069206F0E0FF0799069A3F1AE0
:1035B800B1F8400000F1010CA1F840C0B0FBF2F1F5
:1035C80002FB110080B2BFB260B9884B884ACDF8BF
:1035D80000A00621204607F0B3FC3946204600F03B
:1035E80061FB83E7834A53460621204607F0A8FC7F
:1035F800F3E7002F3FF4B8AD0399A7EB090292B2A5
:103608004944204607F0E3FCAEE5D0F874329E0743
:103618007FF5AAAD012106F0D0FF204607F0F8FC9F
:10362800A2E5D0F874329D077FF59EAD012106F022
:10363800C4FFA368D3F874321907EED4204607F004
:10364800C8FC91E5204607F0D2FB8DE5204607F03F
:10365800C5FB204607F009FB10B96069FFF78EFB30
:10366800A068012106F0A9FF3AE6204607F0C8FB4A
:103678007AE5204607F0CFFB76E5D3F874329B064F
:1036880003D55D49606906F076FFA368D3F8743204
:103698009F0603D55949606906F06DFF204600F082
:1036A8006BFC61E500212046FFF76EFB5CE501211C
:1036B800F9E7204607F08BFB204606F015FF0121AD
:1036C800A06806F07AFFA368D3F874329E067FF5E7
:1036D8004BAD4B49606906F04EFF45E5204600F0CA
:1036E80071FBA068012106F068FF3DE55B2902D166
:1036F80002225A7538E5D3F874329D0706D5622937
:1037080007D14FF0FF31204607F023FBA3680022C2
:10371800EFE76629FAD10121F5E700225A75A26878
:10372800D2F8743298077FF51FADA1F131031B2B36
:103738003FF61AAD01A151F823F000BFC1370008C8
:10374800CD370008E1370008B537000871310008A7
:1037580071310008713100087131000871310008B9
:1037680071310008713100087131000871310008A9
:10377800713100087131000871310008B73600084E
:10378800AD360008733600084D3600087131000860
:10379800B937000871310008C537000871310008D1
:1037A8007131000871310008D137000803235375BF
:1037B800204607F013FBD7E403235375204607F090
:1037C80006FBD1E403235375A068D0F8741201F006
:1037D800010181F0010157E603235375A368D3F86B
:1037E80074329B077FF5C0AC28E700BF01E40008EE
:1037F80055EC000828E800088DD5000892D5000887
:1038080088D5000810B583681A7D012A04462BD193
:10381800D3F87822510408D5D3F87422520704D477
:103828000146DA6CC06907F0D8FCA0684FF0FF3297
:103838004FF0FF3300F5437006F07FFE2046082165
:1038480000F082FA206806F090FE18B10849606915
:1038580006F091FE2046FFF751FCA06800F5437082
:1038680006F0C4FE002010BD6FF08500FBE700BF26
:10387800BAE500082DE9F04104468068154600F5D0
:103888001E70002937D04FF4804106F038FEA36837
:10389800DD646068036800219B68984700284BD165
:1038A8002046FFF7AFFF002846D1244E244FDFF80B
:1038B8009480A06800F52F704FF0FF324FF0FF336F
:1038C800032104F07DFC0546A0684FF0FF324FF05D
:1038D800FF3300F543709DB106F02FFE20462B46BE
:1038E800194A012107F02CFBA068BDE8F04100F55A
:1038F800437006F07BBE6FF4804106F00FFEC6E70A
:1039080006F01BFE32460221204606F018FE3A4613
:103918002946204606F013FE20464246012106F0BD
:103928000EFE606803685B6903B19847A06800F5FC
:10393800437006F05BFEBCE7BDE8F081312D00085E
:1039480051310008F9A500085BEC000810B50D4AD4
:103958000446082106F0B5FE20460B4A082106F069
:10396800B0FE2046094A082106F0ABFE2046084A68
:10397800082106F0A6FE2046064A002100F01AFBA0
:10398800002010BD72EC0008B0EC00080FED000834
:1039980063ED0008FDED0008F8B51E4617460B4616
:1039A8002F4A0821044606F08CFE6EB33B782D4A58
:1039B8000821204606F085FE01256A0704D12A4A17
:1039C8000821204606F07DFEAE4223D97B5D254ABC
:1039D8000821204606F075FE0135102DEDD1234A49
:1039E8000821204606F06DFED6B91F4A0821204658
:1039F80006F067FE0125AE422B4613D81A4A082165
:103A0800204606F05EFE18E0194A0821204606F016
:103A180058FE0125164A0821204606F052FEDBE72B
:103A280000252B46FB5CA3F120025F2A28BF2E232A
:103A3800104A0821204606F044FE0135102D07D013
:103A48006B07D8D1084A0821204606F03AFED2E78B
:103A58002046094ABDE8F840082106F032BE00BFFA
:103A680013EE0008FAE3000802E4000804E4000882
:103A780000E400083AEE00081AEE00082DE9F043C9
:103A8800044680688846D0F8201389B015461F463A
:103A9800002960D14FF44A7209F0DFF9E06807F0B5
:103AA800FCFDA06800F5437008F015FD4FF42F7970
:103AB8004FF41F76A068304408F0F6FFA068002293
:103AC800831901214844103608F0C5FFB6F52F7F49
:103AD80009F11409EED1A36900261E60A06802212D
:103AE80000F51E7006F00BFDA36850225A87A368E4
:103AF80018221A872168204606F0F0FDA368174AA5
:103B080066F38205C3F874526068036841461D680D
:103B18002346A8470546D0B9A36801221A75D4E9F7
:103B28000A0100220023CDE906230E230393109BEC
:103B38000495CDE901730094094B4FF4006203F03A
:103B480077FDA368C3F82003616A03F09DFC28464B
:103B580009B0BDE8F0836FF07705F8E799A500088C
:103B68007D38000810B5044613460A460146064843
:103B780001F020FB23691B7923B12046BDE81040E2
:103B880006F0FCBD10BD00BF9DA7000838B50B4668
:103B9800154648B91449154A521AB3EB920F05D283
:103BA80051F82350284638BD84680CB90025F9E738
:103BB8000F4A94420AD30F4A944207D21846226801
:103BC800294690472B68002BECD1EFE70A4A94422C
:103BD80002D30A4A944205D3246814225343E518B1
:103BE800E358F0E70133F8E730D500085CD5000862
:103BF80070D5000874D500085CD5000870D5000899
:103C0800F7B51646027800232D2A0446019305D1FC
:103C18006FF015033360002003B0F0BD09F0ECF934
:103C28000B4F0546C3510A46204601A904F056FD2C
:103C3800EB59222B02D16FF02103EBE7002BE7D1E0
:103C4800019BA342E4D01B78002BE5D0E0E700BF3E
:103C58000C0000008368D3F874329B0603D5024930
:103C6800406906F0E4BF704798D50008014906F09E
:103C7800DEBF00BFBBE500080A1E0DDC0ED04223E4
:103C88008168D1F87412890608D5002A0449406968
:103C9800B8BF524206F0CBBF4123F1E7704700BFDF
:103CA80036EE00080A1E0DDC0ED044238168D1F8D8
:103CB8007412890608D5002A04494069B8BF5242DF
:103CC80006F0B5BF4323F1E7704700BF36EE0008A2
:103CD8002DE9F0478568DFF86890044605F156003D
:103CE800FDF770F8002395F83C7086B29846A268F4
:103CF800558FED1BB54209DB002E1FDD5633606979
:103D08001049BDE8F0471A4406F091BF1D442A4403
:103D1800563392F856A082F85680A26860691A4411
:103D2800494606F084FFA3682B4483F856A0A3688D
:103D38005B8FDB1BF61A00272B46D8E7BDE8F08718
:103D480075E6000828E8000808290A4617D8836895
:103D580093F83E10914212D083F83E208368082AD7
:103D6800D3F8743205D0990609D50549406906F09B
:103D78005EBF9B0603D50349406906F058BF7047EC
:103D88003DEE00089DD5000838B50D460978044673
:103D9800FFF7DAFF6A78072A11D8A36893F83F106B
:103DA80091420CD083F83F20A368D3F874329B0665
:103DB80005D560690249BDE8384006F038BF38BD0E
:103DC80046EE0008F8B58368B3F850200446002A88
:103DD80055D0B3F85210002951D0553103F156058A
:103DE8000B441846A84206D3014611F80169202E53
:103DF8003CD0A8423CD286B29DB2AB1B9BB2591CA8
:103E0800471CD21A0144384609F00DF8A268B2F8E6
:103E18005030711B13FA81F3A2F85030A368B3F83D
:103E280050201344002283F8562009B2204606F099
:103E380067FFA368D3F874329A0603D510496069FE
:103E480006F0F5FE3B460F4A0821204607F078F8B1
:103E58002046FFF7FFFEA368D3F874329B060ED501
:103E680060690949BDE8F84006F0E1BE0846B9E7CF
:103E7800014611F80169202EBDD00846B9E7F8BD02
:103E8800A2D5000828E80008A6D500082DE9F041C9
:103E980004460D4617460AB1FFF7DCFEA368B3F8DF
:103EA8005220D3F87412563213444A0721D51846C3
:103EB800FCF788FFDFF848800646A6B9A368B3F880
:103EC8005020A3F85220A06806F0BEFE20B107B12A
:103ED80015B16069FFF7CAFE6942204609B2BDE81C
:103EE800F04106F00DBF6069414606F0A0FE013EB4
:103EF800E3E7044A0821204607F022F8DEE700BF7E
:103F080021F8000828E8000813B583688DF8071021
:103F1800D3F874220446D00725D5B3F85210B3F865
:103F280050208A421FD0481CA3F852000B449DF829
:103F3800072083F85620A368D3F87412890710D590
:103F4800D3F8743260690B4913F0040F18BF2A22A2
:103F580006F06DFE204606F088FE10B16069FFF796
:103F680085FE02B010BD01220DF10701204606F0C2
:103F7800F4FFF6E73AEE000810B504468368094AEC
:103F8800022106F0DDFFA368D3F874329B0707D53A
:103F98002046FFF79DFE2046BDE8104006F08BBE88
:103FA80010BD00BF28E80008014907F0A3B900BF09
:103FB800BBE500082DE9F04F0E46002189B0044604
:103FC80017460D4603AA304601F10108FFF7DEFD4A
:103FD800B0B995B127B13A460821204606F0B0FF9E
:103FE8001E4FDFF87C90DFF87CA0002103AA304642
:103FF80001F10108FFF7CAFD60B909B0BDE8F08F0B
:10400800006810B1FCF7DEFE80B2854238BF054675
:104018004146D7E703688BB11A787AB1D0F804B073
:104028004A46CDE9005308213B46204606F088FF62
:10403800BBF1000F04D16069FFF7B6FF4146D5E731
:10404800524620463B46082106F07AFF6A1D92B286
:104058005946204607F05BF9F0E700BF64EE000818
:104068004FEE0008F5E30008F7B50F6805460E4661
:10407800A7B13846FCF7A6FE84B2094B0093284640
:10408800084A3B46082106F05BFFE21C716892B2C1
:10409800284603B0BDE8F04007F039B93C46ECE7E4
:1040A80060EE000856EC000810B507490446FCF716
:1040B80077FE38B105492046FCF772FEB0FA80F069
:1040C800400910BD0120FCE756EE000859EE000833
:1040D80010B58368D3F874329B06044603D50649A5
:1040E800406907F08BF9A36850225A87A368182201
:1040F8001A87002010BD00BFAAD5000808B583693B
:10410800034A1B68082106F0DCFA002008BD00BF3E
:1041180067EE00082DE9F3410F4A104C104EDFF806
:1041280044800821054606F0CCFA0023B44203F186
:10413800010703D3002002B0BDE8F081626A019252
:10414800A26800929BB242460821284606F0B9FAB6
:1041580030343B46EAE700BF77EE000800D5000898
:1041680030D500088FEE000808B5024906F0B6FA07
:10417800002008BDBCE500087FB50F4E04460025A9
:10418800A268E0680DF10E0302F5AB72012107F099
:10419800E5F9BDF80E00A36850B103F5AB730093C1
:1041A80032462B460821204606F08BFA0135E7E710
:1041B80083F8560104B070BDA0EE000810B504469F
:1041C80006F0CEFA034A03460821204606F079FA9B
:1041D800002010BDA2E90008022907B50DD15368D7
:1041E80001930E4B009313680D4A012106F069FAFA
:1041F8006FF0150003B05DF804FB8368094AD3F833
:10420800743213F0020F4FF00801074B08BF134632
:10421800064A06F056FA0020ECE700BFB7EE0008A1
:10422800AEEE0008AAEE00089FE70008CCEE0008F2
:1042380010B58368D3F874329A06044603D5074943
:10424800406907F0DBF8A368D3F874329B0603D5FE
:104258000349606907F0D2F8002010BDB1D5000805
:10426800B6D50008F0B5012985B004460CD05368CE
:104278000193604B009313685F4A012106F021FA0D
:104288006FF0150005B0F0BD8368D3F87432990655
:1042980003D55A49406907F0B1F86FF0F901204693
:1042A800FFF7EAFCFA212046FFF7FCFCA06800258E
:1042B8004FF48072294600F5AB708DF80B5008F06A
:1042C800CCFD4F49606907F099F8606906F056FA25
:1042D8004FF47A766068036801221F690DF10B01BB
:1042E80003ABB847039BF3B9013E4FF47A70B6B2FB
:1042F80008F09FF8002EEDD1A368D3F874329B061E
:1043080003D54049606907F079F8A36850225A87B5
:10431800A36818221A8720463B4A032106F0D1F9E0
:104328006FF00700AEE79DF80B20A3681B2A53D057
:1043380093F856111B29CDD1522A4DD15A19002371
:1043480082F85631A66896F857215B2A2BD106F2D7
:104358005710022510F8011F2A463B2905F10105CF
:10436800ADB223D1FF2AC7D002F5AB7216FA82F19B
:10437800002211F8010F18BB86F85601FA2AA16825
:1043880028BFFA224A87FA2BA26828BFFA23138784
:10439800A368D3F874329A0603D51A49606907F0FE
:1043A8002DF800206EE786F85631A5E703EB830366
:1043B800303901EB4301B5F5807F8BB2CAD19BE759
:1043C800013502EB8202ADB2303800EB4200B5F5A0
:1043D800807F82B2CDD18FE72B440135ADB2092D54
:1043E80083F856217FF676AFA368002283F856211A
:1043F80082E700BFB7EE0008AEEE0008BCD50008A3
:1044080017EF0008C0D50008DDEE00082DE9F04FD1
:10441800074689B01546894621B1104607F043F989
:1044280000285BD1032455E05C463CE029460AF5A8
:10443800AB7008F0B7FB0646002854D0FCF7C2FC66
:1044480082B2601C01323146304408F0ECFC22464E
:104458005946304608F0D9FC4FF020033355BAF8D6
:10446800543001331C44AAF8544008F101080024D0
:1044780001994B1C03AA48460193FFF787FB0646A0
:10448800E8B131680022284607F0B3FA0028EFD1D6
:10449800D6F800B0D7F808A0BBF1000FC4D0584632
:1044A800FCF790FC84B2BAF854302344FF2BBDDDEE
:1044B8000E4A2B460321384606F042FD0124B8F186
:1044C800000F07D0B8682A4600F1540100F5AB7018
:1044D80006F0BEFA204609B0BDE8F08F4FF000089C
:1044E80041460224C5E70224E9E700BFDFF30008DC
:1044F8002DE9F843054600AF0C46002948D0DFF8FF
:10450800B890D9F800305A0742D06E468AB0D1E93F
:104518000001A3686A46DFF8A4C04FF00508C2E9A5
:1045280005C0C2E9071342F8108F00234FF4215148
:104538004846FDF75FFCD9F800305B07B54627D041
:104548008AB0D4E9030163696A46DFF874C0C2E936
:104558000713C2E905C042F8108F002348464FF4FC
:104568002151FDF747FCD9F800305807B5460FD060
:10457800E3690121134A484605F0B2FED9F8003034
:10458800590705D0A369104A0121484605F0A8FE3D
:10459800012D0AD1EFF3058307480268520704D0BA
:1045A8000A4A103B294605F09BFE2146284602F0A0
:1045B800ABFCBD46BDE8F8837001002037F4000865
:1045C80066F4000895F40008A4F40008D2F4000882
:1045D80008B5034B1B689847BDE8084000F026B8AB
:1045E8004800002030BFFFF7FDBF00BF2DE9F041B4
:1045F8000B4EDFF8308006EB0807CC1B0546324629
:104608000949204608F001FCA01942460021083C4F
:1046180008F023FCC5F8A84007F10800BDE8F081C0
:10462800000000000800000074D50008074A9368DD
:1046380093F90E10002907DB526993421FBF044A01
:10464800536843F080535360704700BF6C9200205A
:1046580000ED00E0F8B5374C23685B0706460D46C9
:1046680003D03549204607F067F8344B9B6ADF04CE
:1046780051D52368580703D031492E4807F05CF814
:1046880017202E4B9B6A190507D523685A0703D0B4
:104698002C49284807F050F81820284FBB6A9B057A
:1046A80019D52368580703D02749224807F044F84A
:1046B800BB6BBA6A11040DD52268520704D0234A8D
:1046C8001C48012105F00CFE26B11C4A936A23F40C
:1046D800004393621920194B9B6A5B0507D5236831
:1046E8005F0703D01A49134807F026F81A20134B1E
:1046F8009A6AD60511D52368590703D015490D487C
:1047080007F01AF81B200D4A936A43F47F4393621B
:1047180000232B70F8BD1620B3E79B6A9A04F2D5E4
:1047280023685B0703D00C49024807F005F81C20F2
:10473800E9E700BF70010020E5F4000800ED00E0A3
:10474800FBF400080CF500081FF5000838F5000810
:104758004DF5000868F5000880F5000810B52D4CE7
:1047680023685A0703D02C49204606F0E5FF2B4B57
:104778009B6A9B014BD52368580703D028492548D5
:1047880006F0DAFF1E20254B9B6AD90107D523685E
:104798005A0703D023491F4806F0CEFF1F201F4B9E
:1047A8009B6A1B0307D52368580703D01E4919487D
:1047B80006F0C2FF2120194B9B6A590307D52368CD
:1047C8005A0703D01949134806F0B6FF2220134BA5
:1047D8009B6A9B0307D52368590703D014490D48E2
:1047E80006F0AAFF23200D4B9B6ADA0307D523683E
:1047F8005B0703D00F49074806F09EFF2420074AAD
:10480800936A6FEA03436FEA1343936210BD1D2056
:10481800B9E700BF70010020AFF5000800ED00E027
:10482800C7F50008DAF50008F4F5000812F60008E4
:1048380037F6000851F600082DE9F047454D2B687A
:10484800894659078046174603D04349284606F04B
:1048580073FF424B9B6ADA0639D52B685B0703D096
:104868003F493C4806F068FF11243C4B9B6A1E07F1
:1048780007D52B68580703D03A49364806F05CFF3D
:104888001224DFF8D8A0DAF82830990721D52B6848
:104898005A0703D034492F4806F04EFFDAF834603F
:1048A800DAF828301B0651D52B685C0705D02F4A4B
:1048B80028483346012105F013FDB9F1000F04D053
:1048C800264A936A23F080039362132403E010249A
:1048D800CBE76FF01506214B9B6AD80707D52B68E5
:1048E800590703D022491B4806F026FF14241B4B06
:1048F8009B6A9A0607D52B685B0703D01D491548A4
:1049080006F01AFF1524154B9A6AD50602D49A6A3E
:1049180090070AD55B68190507D54146304600F06F
:1049280059FA10B180F3098802240C4B9A6A92064E
:1049380042BF5A6A22F400525A629A6A42F0FF024F
:104948009A6200233B702046BDE8F0876FF0150699
:10495800BBE700BF700100207CF6000800ED00E016
:1049680092F600080CF50008C5F60008DDF6000808
:10497800F3F6000880F500082DE9F041744B8AB081
:10498800D3F8048000AF0446C8F30806002585F371
:104998001188BFF36F8F02F07F43B3F17F4F0AD1C5
:1049A80002F00C03082B15D16A480368590702D096
:1049B800694906F0C1FE00252C460023FB71F31E51
:1049C800092B00F29F80DFE803F00A91948D9D9DEA
:1049D8009D9D9D9712074CBF0C460125EDE75D4E46
:1049E80033685B0703D05D49304606F0A5FE002317
:1049F800FB71574BDA6A900708D53368590703D01B
:104A08005749544806F098FE00233CE0DA6A002A29
:104A180004DA33685A07F7D05249F2E7DB6A5B00D9
:104A2800F2D53368580703D04F494A4806F084FE48
:104A3800474BA1695A6942F480725A61BFF34F8F9C
:104A4800BFF36F8F5A6931F8021C22F480725A61E1
:104A5800BFF34F8FBFF36F8F4DF60272914208D0AC
:104A68009A6AD2B28AB3FA1D01212046FFF7E4FE02
:104A78003AE03368590705D023683C4A3548012194
:104A880005F02EFC2368FA79DAB907F1080604F173
:104A9800200C20686168324603C208346445164613
:104AA800F7D17A6A002D4DD0C2F3080121B96FEA17
:104AB80052226FEA42227A6207F108011846FFF78C
:104AC80017FD2837BD46BDE8F0819A6A12F47F4F7A
:104AD80004D0F91D0120FFF7BDFD05E09B6AB3F581
:104AE800803F91D3FFF73AFE0346CCE7FA1D002139
:104AF800BBE7F91D0020EEE7164803685A0783D084
:104B08001B497FE7134803685B073FF47DAF194AE9
:104B1800194B18F4F87FE8468AB018BF13466A465E
:104B28001649C2E905134FF400731384103E144B61
:104B3800D66142F8103F00234FF41151FDF75AF99E
:104B4800C54661E722F4FF7222F00102B3E700BF15
:104B580000ED00E07001002040F700086BF7000846
:104B680082F70008A3F70008B1F70008D0F700089B
:104B7800ECF7000827F7000812F7000810F80008FB
:104B880004000001024A536943F01003536170475F
:104B980000ED00E0EFF30880EFF3098101B57246FC
:104BA800FFF7EAFE01BD00BF102080F311880B4813
:104BB8004FF0AA014FF4046207F075FC07484FF460
:104BC8000461401880F30988EFF314800221084338
:104BD80080F31488BFF36F8F00F0BCF8809F00202B
:104BE800BFF34F8F0549064BCA6802F4E0621343CE
:104BF800CB60BFF34F8F00BFFDE700BF00ED00E0C3
:104C08000400FA05084B9B6883420BD1EFF3058338
:104C180043B1064B5A6842F080525A605A6A22F4ED
:104C280000425A6207F072BD6C92002000ED00E06D
:104C38000A4A93686FF00A01C3F8B0100849C3F82C
:104C4800AC004B6843F080534B60002383F311881A
:104C5800BFF36F8F9368D3F8B00070476C92002051
:104C680000ED00E010B50446EFF31183102383F341
:104C78001288BFF36F8F0C4B586998600B4B4FF03D
:104C880000625A600A4BD0F8A8201A600022D0F8B7
:104C9800AC30C0F8AC2083F31188BFF36F8F00F0FD
:104CA80005F9204610BD00BF6C92002000ED00E021
:104CB8000C1100200B498A684FF030001044EFF3C4
:104CC800098C80E8F01F74467046FFF7CBFFA646B4
:104CD80004498A6802F1300090E8F01F8CF30988D3
:104CE800704700006C9200201EF0040F0CBFEFF319
:104CF8000880EFF30980816911F8021C0229FFD0AE
:104D080001B506F015FD01BD40B2002807DB044AD5
:104D18004109012300F01F00834042F82130704709
:104D280000E100E040B20028A8BF00F1604001F1B6
:104D38000101B8BF064B4FEA0111ACBF00F5614055
:104D480000F00F00C9B2B4BF195480F800137047BF
:104D580014ED00E00F4A08B50F4B22F07F029A606D
:104D6800BFF34F8FBFF36F8FD3F8882022F4700200
:104D7800C3F88820EFF3148323F0040383F3148823
:104D8800BFF36F8F02F0C0F903F00AF800F064F87F
:104D980002F00CFA0000000800ED00E042F8203CA8
:104DA800009B42F81C3C0A49019B42F8183C029BB4
:104DB80042F8143C21F001014FF0807342F8043CA2
:104DC80042F8081C0023203A0265C0F8AC3070474E
:104DD800511600080A4A0346906878B113F1160F75
:104DE800D0F8980005D0A0F140029A4205D8834235
:104DF80003D2814228BF002070470020704700BFBF
:104E08006C92002008B515460C4A0D4B9060D0F8FE
:104E1800A8201A600E4600F049F82C4686F3098847
:104E28004FF00000074B984720464FF000014FF025
:104E380000024FF00003044C204700BF6C92002092
:104E48000C11002051B7000851160008014B102220
:104E58001A61704700ED00E0044800231021C218D1
:104E68000133522B82F80013F9D1704700E100E0BA
:104E780008B5EFF30583064A103B02EBC30152F86D
:104E8800330049688847BDE80840FFF7CFBB00BF3B
:104E9800F8D10008024B034A0348012100F092B8F8
:104EA800000002200000002098DD0008D0F89820BB
:104EB800054B403A1A60054A4021C3E901121846D9
:104EC800012100F089B800BF1011002000000B1567
:104ED80008B503461148D0F89020C2F30722013ADA
:104EE80093420AD90E480268520703D00D4A01219D
:104EF80005F0F6F96FF0150008BDC0F898300A689B
:104F080022F01F021A4342F01002C0F89C208A685F
:104F180042F00102C0F8A0201846EDE700ED00E0DD
:104F28006C01002027F80008F0B50E4685B01F4632
:104F380004460025B54210DA606828B3AFB1431EB5
:104F480018420DD0124803685B0704D0114A2B465B
:104F5800012105F0C5F96FF01502104605B0F0BD46
:104F68001F28EFD921680B42ECD12368019306F082
:104F7800FFFBA36801A90343D0B20393FFF7A8FF7F
:104F880010F1160FE7D0421C01350C34D2E700BFF0
:104F98006C0100204DF80008044B0522C3F894204A
:104FA800BFF34F8FBFF36F8F704700BF00ED00E076
:104FB800BFF35F8F024B0022C3F89420704700BFF5
:104FC80000ED00E010B5034C01232278FFF7ACFF99
:104FD800207010BDCD92002008B50B4A002312782E
:104FE800FFF7A2FF10F1160F07D0084A0021D2F8E8
:104FF8009030C3F30723984200DB08BDC2F898003D
:10500800C2F8A0100130F2E7CD92002000ED00E0D8
:105018002DE9F04357485849D0F890300D68C3F34C
:1050280007239D4285B000F2A180FFF7C1FF4968C0
:105038000022954201F10C011AD1504C504F2570B5
:105048006846FDF78FF9DFF83C81DFF83C910646AA
:105058000025AE421FD1237846490020D1F8902080
:10506800C2F3072293427BDBFFF796FF00204CE058
:10507800C0F8982051F80C3C23F01F03134343F069
:105088001003C0F89C3051F8043C43F00103C0F809
:10509800A0300132CDE7009800EB05114FEA051C5E
:1050A800CB683B40B3F5000F44D00AD8B3F5001FD6
:1050B8002ED0B3F5800F34D0B3F5801F10D0013552
:1050C800C7E7B3F1807F3ED0B3F1007FF7D150F846
:1050D8000C3088684A6806F04BFB40F4802009E0F1
:1050E80050F80C3088684A6806F042FB40F0885057
:1050F80040F43020039001A92078CDE90123FFF77F
:10510800E7FE002828DA6FF0150005B0BDE8F08347
:1051180050F80C3088684A6806F02AFB40EA080014
:10512800E8E750F80C3088684A6806F021FB40EA46
:105138000900DFE750F80C3088684A6806F018FB69
:1051480040F08270D6E750F80C3088684A6806F05C
:105158000FFB40F08870CDE7237801332370AEE76A
:10516800C1F89830C1F8A000013377E74FF0FF305D
:10517800CBE700BF00ED00E0A4DD0008CD920020E1
:105188000000F0FF000008110000020208B5024B01
:105198001B689847002008BD1C110020034B044AD7
:1051A8001860937843F00203937070471C11002035
:1051B8004C000020F0B587B007460E461446002183
:1051C800102268461D4607F048FE02238DF802307B
:1051D8002A46054B019321466846CDE9047603F03B
:1051E8007FFB07B0F0BD00BF99B7000808B50649B6
:1051F800064821F00701C1F1005202F5003204F01F
:1052080015FC002008BD00BFC7B3002020110020F6
:1052180008B500F0B7F80A4941610A490122C0E916
:1052280000220A6008490A60084A00231360084AF5
:1052380003611360C0E90233064A136008BD00BF6A
:10524800BCE500087800002074000020341100201C
:10525800301100202C1100202DE9F04107460E46A0
:10526800154600F08FF8C36804461BB943691A78DD
:10527800002A41D10023E3606368BB4256F823202B
:1052880008DB324B6361204600F062F84FF0FF30D4
:10529800BDE8F081511C616192F80080B8F12D0FD2
:1052A800EFD1911C61615178A1602D2904D19278C8
:1052B8006AB901336360E4E749B9244B6361414645
:1052C800284607F034FC0028DDD0C4F80880D4F85C
:1052D80008802846414607F02AFCB8F13A0F63696E
:1052E80000D070B91B7813B9636801336360204636
:1052F80000F02EF83F20CBE75A1C42611B788360F0
:10530800E5E742783A2A0BD0002222611B7813B9CC
:10531800636801336360204600F01AF8A068B7E7B5
:1053280018786268094928B901329742626004DD39
:1053380056F82230C4E90431EAE761612D783A2D44
:105348002046D5D100F004F82846A1E7BCE50008BE
:10535800074B02681A60074B42681A60064B82685E
:105368001A60064BC2681A60054B02691A607047DA
:105378007800002074000020341100203011002033
:105388002C110020004870475C0000202DE9F041F6
:105398000F4E104F054600244FF001082B7853FAA2
:1053A80084F01F280DDC726908FA00F333EA020260
:1053B80007D1736157F830301BB107EBC002516851
:1053C80098476A780134E3B29A42E7D2BDE8F0819F
:1053D800003C014038110020044B184400230133DD
:1053E800994200F8012BFADC704700BFDC0000206E
:1053F80010B4064B064902460C6818560123934020
:1054080023430B6010BCFFF77FBC00BFDC0000200B
:10541800003C01401F2806DC034901220B6882403A
:1054280023EA02030B607047003C014003292AD895
:10543800DFE801F0020E141F134B01229968824025
:1054480021EA02019960D96821EA0202DA6070470C
:105458000D4B0122996882401143F3E70A4B012260
:10546800D96882401143D960996821EA02029A609A
:105478007047012303FA00F0034B9A6802439A60CD
:10548800DA681043D8607047003C014030B50A4BD9
:1054980053F830408C4204D103EBC0056D68954247
:1054A80005D034B943F8301003EBC0035A6000202C
:1054B80030BD6FF00F00FBE738110020034B0022CE
:1054C80043F8302003EBC0035A60704738110020BE
:1054D80010B51D4B18680B68302B14460BD00DD82F
:1054E8005A1E042A11D8023B032B04D8DFE803F024
:1054F8000228161E00202060002010BD402B0BD073
:1055080006D8342BF7D0382BF5D06FF08500F4E7A8
:10551800442B09D0A82BF7E78008ECE700F0A4F8A3
:105528004FF4A873C00858434008E4E700F09CF81B
:105538004FF4A873C00858430723B0FBF3F0DAE729
:105548004FF4FA40D7E700BFC8000020F8B5424F33
:10555800424C00F09FF8384606F00BFB01F0EAFBDE
:10556800A3683F4AC3F303131578D35C47FA05F5DC
:1055780020FA03F6AE4202D2284601F009FC23685D
:1055880023F480232360236843F480332360334B60
:105598001A689203FCD55A6F42F001025A675A6F93
:1055A8009407FCD59A6802F00C02082A17D11A68E9
:1055B800900707D41A6842F001021A60274A136854
:1055C8009907FCD5254B9A6822F003029A609A68DD
:1055D80012F00C0FFBD19A6822F0F0029A601F4C6F
:1055E800236823F080732360636823F44033636087
:1055F800636823F0706343F0E063636000F038F899
:10560800236843F08073236023689B01FCD5A3685B
:1056180023F0F003A360A36823F0030343F002031D
:10562800A3600E4CA36803F00C03082BFAD1AE421A
:1056380002D3284601F0ACFB0A4B1F60A36823F491
:10564800E05343F4A053A360A36823F4604343F4F6
:105658000043A3600020F8BD007A030A0038024026
:10566800BA000108C80000200048704700127A00FC
:10567800054B06495A681140054A0A435A605A6858
:1056880022F440325A607047003802400080BFFF61
:1056980008544000064B1A6C42F080521A641B6C86
:1056A80082B003F080530193019B02B0704700BFA2
:1056B8000038024008B5074806F0CAFE38B1064867
:1056C800FFF76CFD0448FBF7B9FF002008BD6FF039
:1056D8001200FBE7BCD10008E55600080A2838B5D7
:1056E800074D044604D1AB680D215B6828469847EE
:1056F800AB6803485B68E1B29847204638BD00BFF5
:10570800BCD1000800487047F8DD000807B503461B
:1057180006480268520704D0054A0091012104F0A6
:10572800E9FD6FF0150003B05DF804FB5801002097
:10573800BFF8000870B5044607F046F80A220023AF
:10574800FBF7C4F923691B68DA6810F5FA5641F1CA
:10575800000512F0F20F06D0DA6802F0F202DA6001
:105768006FF0040070BD23691B68D86810F480309E
:10577800F8D007F029F80A220023FBF7A7F9864298
:1057880075EB0101EFDA054803685B07E8D0044AC6
:105798004FF4FA53012104F0A3FDE1E7580100207A
:1057A800E9F80008F7B51C461746012322460546C6
:1057B8000E4606F041FA70B91E4803685B0705D02B
:1057C8001D4A00943346012104F094FD6FF015043E
:1057D800204603B0F0BD002CFAD0286906F0FFF986
:1057E8002B691B681A69002A19DB23463A46314699
:1057F800284606F09FFA2B69044628461F68FFF7DB
:1058080099FF064688B12869043001F0F1FD28693E
:10581800002C08BF3446043001F0EAFDD8E7074AF7
:105828005A6002F188325A60DFE73B6943F000436F
:105838003B61ECE758010020FAF8000823016745AE
:10584800F7B5012305460E46144606F0F5F970B97A
:1058580029480368590705D0284A0094334601218E
:1058680004F048FD6FF01504204603B0F0BD002C8D
:10587800FAD0286906F0B3F92B691B681A69002A5F
:105888001DDB22463146284606F0EBF92B691B68DA
:105898001A685205044618D42B6928461F68FFF772
:1058A80049FF064610B32869043001F0A1FD2869B4
:1058B800002C08BF3446043001F09AFDD4E7104AA2
:1058C8005A6002F188325A60DBE71A6822F4806273
:1058D8001A601A6842F480521A601A6822F48052D8
:1058E8001A601A6842F480621A60D5E73B6943F08F
:1058F80000433B61DBE700BF5801002025F90008A1
:1059080023016745024B0B6003231360704700BFF8
:1059180000DE000810B50C46002105F085F900B13D
:10592800006820600023E3606360014BA36010BD42
:1059380070D5000807B5536800931368044A01211D
:1059480004F0BFFE6FF0150003B05DF804FB00BF64
:1059580085F900082DE9F04F194689B083461046AD
:1059680092461F46FAF792FDDDE91223FAF7EEFE9A
:1059780000220023DDE9144580468946FBF74CF8F0
:1059880068B11B4B002240464946FAF7DFFE024643
:105998000B4620462946FAF7D9FE04460D4600264E
:1059A800144B002220462946FBF72CF8D8B9F6B24A
:1059B800114B124A03EB8603CDE90445CDE9028970
:1059C800CDE900A706930821584604F07AFE09B0ED
:1059D800BDE8F08F20462946094B0022FAF78CFDD6
:1059E80004460D46DCE70136052EF3D10426DFE731
:1059F80000408F400000904068FF00089FF90008B1
:105A08000000503F032970B5044616461D4604D8C9
:105A1800144A012104F055FE18E000221146B0682E
:105A280002F05CFE00222860F068114602F056FE83
:105A3800049B18602B68013BB3F5804F09D30A4AD1
:105A48004FF480430121204604F03BFE6FF015001F
:105A580070BD431E092B03D9044A01212046D9E70A
:105A68000020F5E7D3F900080AFA000830FA000820
:105A78002DE9F7431F461368DDF8288006460D46D2
:105A88005868144601A9102202F028FE019BC8F8A4
:105A980000001B787BB12368586801F0F7F938607B
:105AA80098B9194A3046012104F00BFE6FF0120034
:105AB80003B0BDE8F083DFF85490484606F0C8FC10
:105AC80008B9134AEEE7C7F80090019B1B780BB999
