:020000040800F2
:10000000805B00204D2600083D1E000839260008B0
:1000100039260008392600083926000800000000AB
:100020000000000000000000000000005927000848
:100030003926000800000000252700082D7500085B
:1000400091290008912900089129000891290008A8
:100050009129000891290008912900089129000898
:100060009129000891290008912900089129000888
:100070009129000891290008912900089129000878
:100080009129000891290008912900089129000868
:100090009129000891290008912900089129000858
:1000A0009129000891290008912900089129000848
:1000B0009129000891290008912900089129000838
:1000C0009129000891290008912900089129000828
:1000D0009129000891290008912900089129000818
:1000E0009129000891290008912900089129000808
:1000F00091290008912900089129000891290008F8
:1001000091290008912900089129000891290008E7
:1001100091290008912900089129000891290008D7
:1001200091290008912900089129000891290008C7
:1001300091290008912900089129000891290008B7
:1001400091290008912900089129000891290008A7
:100150009129000891290008912900089129000897
:100160009129000891290008912900089129000887
:100170009129000891290008912900089129000877
:100180009129000891290008912900089129000867
:100190009129000891290008912900089129000857
:0C01A0009129000891290008912900080D
:1001AC0053B94AB9002908BF00281CBF4FF0FF31D2
:1001BC004FF0FF3000F00CB8ADF1080C6DE904CE37
:1001CC0000F008F8DDF804E0DDE9022304B0704724
:1001DC00704700BF2DE9F04786468C460846089EBE
:1001EC00154674461946002B40F0C2808542B2FA7F
:1001FC0082F245D94AB1C2F1200300FA02FC2EFA70
:10020C0003F3954043EA0C0C94404FEA154EA8B208
:10021C00BCFBFEF8230C0EFB18CC08FB00F943EAE0
:10022C000C43994528D9EB1808F1FF3704D29945AE
:10023C0002D9A8F102072B44A3EB0903A4B2B3FB28
:10024C00FEFC0EFB1C330CFB00F044EA0344A04202
:10025C0014D92C190CF1FF3304D2A04202D9ACF101
:10026C0002032C44241A43EA07401EB1D440002355
:10027C0034607360BDE8F0874746DDE76346F1E71D
:10028C0092BB431B01214FEA154EAFB2B3FBFEFCF0
:10029C00200C0EFB1C330CFB07F840EA034398457B
:1002AC0062D9EB180CF1FF3004D2984502D9ACF1AD
:1002BC0002002B44A3EB0803A4B2B3FBFEFC0EFB21
:1002CC001C330CFB07F744EA0344A7424ED92C1904
:1002DC000CF1FF3304D2A74202D9ACF102032C4437
:1002EC00E41B43EA0040C0E7C2F1200320FA03F10B
:1002FC00954090402EFA03F303434FEA154EAFB2EC
:10030C00B1FBFEFC0EFB1C10190C0CFB07F841EAB0
:10031C000041884504FA02F422D969180CF1FF3027
:10032C0004D2884502D9ACF102002944A1EB0801A2
:10033C009BB2B1FBFEFC0EFB1C110CFB07F743EA56
:10034C0001439F420ED9EB180CF1FF3104D29F42AE
:10035C0002D9ACF102012B44DB1B41EA004192E7CC
:10036C006046E3E76146F7E76046A3E76346B7E715
:10037C00834206D916B9002108467BE7C6E900E09E
:10038C00F9E7B3FA83F78FB9834201D3724508D8E2
:10039C00BEEB020460EB030301209C461EB9002156
:1003AC0068E73846FAE7C6E9004CF8E7C7F1200CD5
:1003BC00BB4022FA0CF41C432EFA0CF120FA0CF37D
:1003CC00B84001434FEA14490EFA07F5B3FBF9F8AC
:1003DC001FFA84FE09FB18300B0C08FB0EFA43EADB
:1003EC0000439A4502FA07F240D9E31808F1FF30AE
:1003FC0004D29A4502D9A8F102002344A3EB0A03C4
:10040C0089B2B3FBF9F809FB183308FB0EFE41EA7D
:10041C0003418E452CD9611808F1FF3304D28E4567
:10042C0002D9A8F10203214443EA0040A0FB029840
:10043C00A1EB0E014145CE46434602D306D14D45B4
:10044C0004D2B9EB020E68EB04030138002EA6D0DF
:10045C00B5EB0E0261EB030101FA0CFC22FA07F377
:10046C004CEA0303F940C6E9003198E74046C5E77A
:10047C004346D9E7034613F8012B002AFBD1181A7F
:10048C000138704710B528B1006898B10C300BF0EA
:10049C00DEFC10BD0F4C40F2453322460E490F488E
:1004AC000BF087FE0E480BF084FE40F245312046DF
:1004BC000BF076FE074C40F24633224609490748BA
:1004CC000BF077FE06480BF074FE40F246312046E6
:1004DC000BF066FE280D0108580D0108600D01088F
:1004EC00800D0108840D010810B530B104460021BF
:1004FC00FFF7C8FF88B9002010BD0C4C40F6D8237C
:10050C0022460B490B480BF054FE0B480BF051FEE6
:10051C0040F6D82120460BF043FE08212046FFF779
:10052C00B1FF08B10120E7E70020E5E7280D01083D
:10053C00580D0108600D0108800D010870B592B0CE
:10054C00504B0293002001900090034603224E4929
:10055C000BF08AFC04F0FEF8002862D004460390ED
:10056C004A4B029300200190009003460322464917
:10057C000BF07AFC20220AA920460DF0F7F900288E
:10058C005BDB0AAB0393424B02930020019000907B
:10059C00034603223C490BF067FC2046FFF7A4FFFF
:1005AC00002855D03B4B03933B4B0293002001900A
:1005BC0000900346032234490BF056FC0323062219
:1005CC00364920460DF0BBF80546002842D1334B86
:1005DC001A7859789878DD781E795B7908930796A4
:1005EC0006950590049103922D4B029300200190E7
:1005FC0000900346032224490BF036FC204604F0FD
:10060C00F9FA0546002831D1264B029300200190BF
:10061C000090034603221C490BF026FC284612B01E
:10062C0070BD214B029301900090034601221649A4
:10063C000BF01AFC6FF01205F0E71C4B0293002034
:10064C0001900090034603220F490BF00DFCA4E728
:10065C00174BA8E70390174B0293002001900090D2
:10066C000346012208490BF0FFFBD7E70390124B1E
:10067C0002930020019000900346012202490BF0E6
:10068C00F3FBCBE7A00D0108B80C0108EC0D010839
:10069C00080E0108940D0108380E010840080020CE
:1006AC006C0E0108C80E0108D00D01081C0E0108C3
:1006BC00980D01084C0E0108A40E0108F0B58FB07E
:1006CC002D4B0293002401940094234603222B49C2
:1006DC0020460BF0C9FB2546002D1ADD0394284B50
:1006EC0002930020019000900346032223490BF053
:1006FC00BBFB002C32D0234B0293002401940094BA
:10070C00234603221D4920460BF0AEFB20460FB0BA
:10071C00F0BD284604F00CF80646C8B1013420227E
:10072C0006A90DF023F9002814DB06AF3046FFF7BD
:10073C00DBFE88B1144B059304970394134B02937F
:10074C00002001900090034603220C490BF08CFB17
:10075C000135C1E70E4FE9E70E4BECE70E4B029368
:10076C000020019000900346012204490BF07CFB11
:10077C006FF01200CBE700BFE80E0108B80C0108BF
:10078C00340F0108740F0108940D0108140F0108AF
:10079C002C0E0108980D0108540F0108F0B585B016
:1007AC00734D744E02960024019400942346032248
:1007BC00294620460BF058FB6F4B02930194009492
:1007CC0023460322294620460BF04EFB6B4B02932B
:1007DC000194009423460322294620460BF044FB47
:1007EC00674B02930194009423460322294620462A
:1007FC000BF03AFB029601940094234603222946FF
:10080C0020460BF031FBFFF799FE002845D1FFF78E
:10081C0055FF0646002840F0A080002E48D1544DCC
:10082C00544F029700240194009423460322294636
:10083C0020460BF019FB534B029301940094234672
:10084C000322294620460BF00FFB4F4B02930194D9
:10085C00009423460322294620460BF005FB4B4B04
:10086C0002930194009423460322294620460BF060
:10087C00FBFA474B0293019400942346032229462A
:10088C0020460BF0F1FA02970194009423460322C0
:10089C00294620460BF0E8FA3EE006463D4B029313
:1008AC000020019000900346012231490BF0DCFA44
:1008BC002F4D304F029700240194009423460322BD
:1008CC00294620460BF0D0FA334B02930194009446
:1008DC0023460322294620460BF0C6FA03962F4BDB
:1008EC0002930194009423460322294620460BF0E0
:1008FC00BBFA2B4B02930194009423460322294606
:10090C0020460BF0B1FA029701940094234603227F
:10091C00294620460BF0A8FA00244CF25030002156
:10092C000AF08EF9013403941E4B029300200190BF
:10093C000090034603220E490BF096FA022CECD9D8
:10094C00194B0293002001900090034603220849A2
:10095C000BF08AFA304605B0F0BD144B0293002020
:10096C00019000900346012201490BF07DFA54E7F7
:10097C00B80C0108980F0108C40F0108F40F010806
:10098C001810010894100108B4100108E8100108AF
:10099C00001101084C100108201101084411010834
:1009AC00581101088C110108B011010870100108D0
:1009BC00C0434FF0000C944519D230B511F80C30EF
:1009CC0083EA000E0EF00F0E0A4C54F82E5085EAF6
:1009DC00101080EA131303F00F0354F8233083EA4A
:1009EC0010100CF1010C9445E8D3C04330BDC0434A
:1009FC00704700BFEC11010800293BD038B50D46FB
:100A0C00046820460BF0C7FA0146C20004EBC00391
:100A1C005B8813F0010F0FD000EB530334F8330055
:100A2C001B1A994217D1A3185A8822F001025A8036
:100A3C0020460BF0CCFA38BD0F4CAF2322460F49A1
:100A4C000F480BF0B6FB29460E480BF0B2FBAF215A
:100A5C0020460BF0A5FB084CB72322460A49084850
:100A6C000BF0A7FB294609480BF0A3FBB721204646
:100A7C000BF096FB704700BF2C12010850120108B6
:100A8C00600D0108641201089C120108C4120108CF
:100A9C002DE9F843154606684B420B4001F1FF392E
:100AAC0019EA010904D0032B4BD84C46994603E0B4
:100ABC000C46042940D90423621E224245D1002D44
:100ACC0067D0B268B2EBD50F66D96119C91A0B3170
:100ADC00C90830460BF0ACFA074600285FD0014637
:100AEC0030460BF0D7F900EB0908A04408F1FF38A9
:100AFC00B8FBF4F804FB08F8A8EB090808EB0504AC
:100B0C00073424F00704414630460BF044FA0546FE
:100B1C00A41BE410874228D3EF0006EBC5035B88C7
:100B2C0005EB53039C422AD33E44738843F00103E4
:100B3C0073804046BDE8F88311460BF0B4FA80464A
:100B4C00F7E74C4699460423B6E7164C4FF4A273CC
:100B5C002246154915480BF02CFB15480BF029FBC8
:100B6C004FF4A27120460BF01BFB0246394630466F
:100B7C000BF0DAF9394630460BF01DFACCE7224679
:100B8C00294630460BF0D0F9214630460BF013FACB
:100B9C00CAE74FF00008CCE74FF00008C9E74FF068
:100BAC000008C6E72C12010800130108600D0108AB
:100BBC001C13010870B5B2F5802F1FD20346042A0E
:100BCC002CD9043AC81D20F007000A4422F0070271
:100BDC00121AD508172A31D9186085600023C36012
:100BEC00B5FA85F1C1F1200EC1F124018900CE1DA9
:100BFC00F1084B1CAB4231D8002345E0344C40F299
:100C0C00EB132246334934480BF0D3FA33480BF03C
:100C1C00D0FA40F2EB1120460BF0C2FA2C4C4FF4F8
:100C2C00F97322462E492C480BF0C3FA2D480BF0D1
:100C3C00C0FA4FF4F97120460BF0B2FA244C40F292
:100C4C00FB132246284924480BF0B3FA25480BF035
:100C5C00B0FA40F2FB1120460BF0A2FA1C4C4FF4F8
:100C6C000373224621491C480BF0A3FA1D480BF0D4
:100C7C00A0FA4FF4037120460BF092FA03F1040C26
:100C8C00002440F82C4001337345F7DB4C00A4B230
:100C9C0044804FF0000CA0F800C044F001044480E4
:100CAC006B1A4FEA430E26F00704A51C20F805E04A
:100CBC00015322F00704951C20F805C0024403538D
:100CCC00538843F0010353800BF075F970BD00BFDE
:100CDC002C1201083C130108600D01085413010883
:100CEC006C13010890130108AC130108D813010808
:100CFC002DE9F04F91B005920393134602F00402D4
:100D0C000092C3F3C20210F00303019340F070820F
:100D1C0080468A460132041D002850D0B8F1000FDD
:100D2C0005D0A4EB08030433534500F26482039B03
:100D3C005D1E019B04930693029300264FF0FF3B2C
:100D4C000427B946B8F1000F01D0039B2360531E52
:100D5C000793002A40F36181059B13F0020229D00E
:100D6C000120A4EB08018B081AB1B1F5007F80F0CB
:100D7C006881029A0F2A00F27481B8F1000F00F01A
:100D8C008481DBB2029901F140026A4402F8103C02
:100D9C0002F820BC002800F0748163F07F0301F19D
:100DAC0040026A4402F8103C049B01330493029BFA
:100DBC000133029304340022CC4640463DE001F05E
:100DCC00070A5444CAF1080AA8E7002634E00026B2
:100DDC0032E0002630E00827BC462DE025292BD137
:100DEC000BF1010B01260427BC4625E04729EED860
:100DFC002A2914D32A39C9B24FF0010E0EFA01F187
:100E0C004FF6DA7E11EA0E0F16D111F0625F40F048
:100E1C00C28011F0010F40F08D8000260CE02529D6
:100E2C0003D10BF1FF3B002606E001D9002603E0BD
:100E3C00202901D02329CCD11D466B1C69780029AF
:100E4C0000F04E81002EC9D07A29BED84C29CDD3C2
:100E5C004C392E2962D80FF2080E5EF821F000BF33
:100E6C00450E0008290F0008290F0008290F00085B
:100E7C00290F0008290F0008290F0008290F000866
:100E8C00290F0008290F0008290F0008290F000856
:100E9C00390F0008290F0008290F0008290F000836
:100EAC00290F0008290F0008290F0008290F000836
:100EBC00290F0008A30F0008290F0008390F00089C
:100ECC00390F0008A30F0008A30F0008A30F000898
:100EDC00450E0008390F0008E30D0008290F000823
:100EEC00450E0008290F0008FF0F0008390F0008F5
:100EFC00FF0F0008290F0008290F00080710000831
:100F0C00330F0008390F0008290F0008290F0008BB
:100F1C00390F0008290F00082D0F000800268BE759
:100F2C000427BC4688E70427BC4685E729786C294A
:100F3C0025D000263C44013CB4FBF7F407FB04F439
:100F4C00254620B1211A6144514500F25781002AEF
:100F5C0058D1BCF1040F00F0A980BCF1080F40F08F
:100F6C00AD801A99073121F0070101F108051A9596
:100F7C00D1E9008908B1C4E9008908345CE713F8A9
:100F8C00021C6C2903D000260427BC46D2E700269D
:100F9C000827BC46CEE729784C291AD01A99073174
:100FAC0021F0070101F108061A96D1E90067073410
:100FBC0024F0070440B1211A0831514513D829787F
:100FCC004C2913D0C4E90067083400260827BC4616
:100FDC0032E71A99073121F0070101F108061A9638
:100FEC00D1E90067E3E76FF01B00FEE0C4E900679E
:100FFC00EAE700260427BC469CE732460026042775
:10100C00BC4697E72C46E14680461A9A111D1A9168
:10101C0012680392079A1D4694E67D4B039A9A42F6
:10102C0004D37C4B9A420AD3002300E00023002B0C
:10103C007FF492AE059B03F00202002091E601239F
:10104C00F5E7754C4FF41F732246744974480BF046
:10105C00B0F874480BF0ADF84FF41F7120460BF04C
:10106C009FF86D4C40F2812322466C496C480BF082
:10107C00A0F86D480BF09DF840F2812120460BF052
:10108C008FF8069B0133069391E610B10AF1010A21
:10109C008DE6009B13B10AF1020A88E60398FFF76C
:1010AC00E9F900EB0A0303F1020A80E61A990D1D17
:1010BC001A95096800B121600434BDE6E146564C2E
:1010CC0040F2C6232246554955480BF072F8494662
:1010DC0056480BF06EF840F2C62120460BF060F833
:1010EC008046231AB3F5806F13D210B3002202602E
:1010FC009B080370009B03B3069BC370049B88F88A
:10110C0002309BBB019DDDF80890DDF810B0039F09
:10111C004DE0414C40F2D2232246404940480BF06E
:10112C0048F843480BF045F840F2D22120460BF02A
:10113C0037F85344A3F1080057E0069B4370DDE7F2
:10114C0001339842DED903F140026A4412F8101CB4
:10115C0012F9102C002AF3DA01F07F01A4EB08023B
:10116C00013252454DD804F8011BE9E7019B029866
:10117C00E7E7009B43B305F140036B4413F8203CB5
:10118C0004F8013B019EA4EB08033344013353459F
:10119C003AD805F140036B4413F8103C04F8013BBA
:1011AC003246394620460FF0C1FA34440135A94580
:1011BC0019D9BBF1000FDCD005F140036B4413F9D6
:1011CC00103C002BD5DAF1E705F140036B4413F822
:1011DC00103C58F82370002248F823203846FFF7BB
:1011EC0049F9461CCFE7A4EB080011B0BDE8F08F1D
:1011FC006FF00D00F9E76FF01B00F6E76FF01B00C6
:10120C00F3E76FF01B00F0E76FF01B00EDE700BF9A
:10121C0088070108283D010804140108C43B010893
:10122C00600D01084C140108701401088C1401089D
:10123C00A4140108014B1860704700BF4808002037
:10124C0080B505460E461746984609F04BFD0346F9
:10125C000FF08AFA0446DFF8189049F8003042463D
:10126C0039463046A84754F8090001F0FFF900BF91
:10127C000800000008B50FF03EF90022431819D2FF
:10128C0013440D4AA2FB03CE2EF0030C0CEB9E0C68
:10129C00A3EB0C03C01A61F100014FF0CC3300FB3F
:1012AC0003F302FB0133A0FB02021344400840EAA3
:1012BC00C37008BD0122E3E7CDCCCCCC034A536804
:1012CC0043F0020353600020704700BF002004E08D
:1012DC00084B1A6842F480721A601A6842F4007261
:1012EC001A601A6842F480621A60034B034A1A604F
:1012FC0000207047003C0240140900200024F40038
:10130C0010B143685879704710B5064C40F233134E
:10131C002246054905480AF04CFF40F2331120469D
:10132C000AF03EFFD014010808150108600D0108F1
:10133C0010B520B10268D26802B1904710BD054CBF
:10134C008B232246044905480AF033FF8B212046A3
:10135C000AF026FFD014010808150108600D0108D9
:10136C0010B520B10268126962B1904710BD064CED
:10137C009E232246054906480AF01BFF9E21204663
:10138C000AF00EFF0020F1E7D0140108081501083F
:10139C00600D010810B518B102689268904710BD35
:1013AC00054CD0232246054905480AF002FFD021FE
:1013BC0020460AF0F5FE00BFD014010808150108FC
:1013CC00600D010810B520B171B102681268904728
:1013DC0010BD0B4CB22322460A490B480AF0E9FE19
:1013EC00B22120460AF0DCFE054CB3232246074905
:1013FC0005480AF0DEFEB32120460AF0D1FE00BFFC
:10140C00D014010808150108600D01082015010809
:10141C0038B50546144C00E01034144B9C4212D8DD
:10142C00124B9C421FD22046FFF76AFF0028F3D0D4
:10143C00294620460AF0E7FE0028EDD02946204632
:10144C00FFF7C0FFE8E70A4C40F2F31322460949C4
:10145C0009480AF0AEFE09480AF0ABFE40F2F3115F
:10146C0020460AF09DFE38BD080D0108180D010834
:10147C003415010864150108600D01088815010870
:10148C0008B50FF038F80022431819D213440D4A4E
:10149C00A2FB03CE2EF0030C0CEB9E0CA3EB0C0367
:1014AC00C01A61F100014FF0CC3300FB03F302FBD7
:1014BC000133A0FB02021344400840EAC37008BD8C
:1014CC000122E3E7CDCCCCCC2DE9F0410746054613
:1014DC00EDB195FAA5F6B6FA86F60E4C04EB0614A9
:1014EC000123B3406FEA030825EA0305237B002B95
:1014FC00EED02046FFF734FF0028E9D107EA0807B1
:10150C00636804221968204600F068F9E0E7384661
:10151C00BDE8F081080D01082DE9F041314B324A4C
:10152C009B1A8F2B12D880460F46304BBFF35B8F24
:10153C0053E8006F721C43E800210029F8D1BFF377
:10154C005B8F002E4AD1284C002514E0284C40F229
:10155C003F132246274928480AF02BFE40F23F1140
:10156C0020460AF01DFE636804221968204600F02C
:10157C0035F9013510341B4B9C4211D8194B9C4248
:10158C001ED2237B002BF4D02046FFF7D1FE204641
:10159C00FFF7E6FE0028E6D00123AB401E43E8E748
:1015AC00134C4FF4A6732246144913480AF001FE5B
:1015BC0013480AF0FEFD4FF4A67120460AF0F0FD28
:1015CC00B8F1000F0BD056B13046FFF77DFF064641
:1015DC00002FF8D00A200AF01DFEF4E70026304652
:1015EC00BDE8F081180D0108080D01085C0E002003
:1015FC0034150108A8150108600D010864150108CF
:10160C0088150108014B53F820007047D8150108C4
:10161C0048B108B5054A1060054B1960084600F042
:10162C004DFB002008BD6FF0150070474C080020E2
:10163C00500E002008B50023054A1370054A1360AC
:10164C00054A13604FF47A710448FFF7E1FF08BDB7
:10165C0075430020540E0020580E00208D140008F5
:10166C00174B1B7803B1704710B500210120FFF711
:10167C0053FF144C00E01034134B9C420BD8124B0C
:10168C009C4218D22046FFF73BFE0028F3D02046A0
:10169C00FFF780FEEFE70D4C4FF4DC7322460C494C
:1016AC000C480AF086FD0C480AF083FD4FF4DC71FF
:1016BC0020460AF075FD024B01221A7010BD00BFC6
:1016CC0075430020080D0108180D01083415010898
:1016DC0064150108600D010888150108014B0122F1
:1016EC001A707047744300200D4BBFF35B8F53E8A7
:1016FC00001F013143E80012002AF8D1BFF35B8FC1
:10170C0000B97047074BBFF35B8F53E8001F0139DB
:10171C0043E80012002AF8D1BFF35B8FF1E700BF5A
:10172C00540E0020580E002010B50446044B1B68C4
:10173C009847A060214603480AF067FD10BD00BF22
:10174C004C0800204409002010B1436819717047FF
:10175C0010B5054CDF232246044905480AF029FD43
:10176C00DF2120460AF01CFDD014010808150108E1
:10177C00600D010828B142681160436801225A715A
:10178C00704710B5064C4FF48C7322460549064839
:10179C000AF00FFD4FF48C7120460AF001FD00BFDA
:1017AC00D014010808150108600D01080248034B0C
:1017BC00C01AC008704700BF080D0108A80C01082A
:1017CC0010B50C46FFF7F2FFA04203D9024B53F8B9
:1017DC00340010BD0020FCE7A80C010870B50446CD
:1017EC000D461646074BC31A1B110133D9B2FFF72E
:1017FC00ABFF63689E7129462046FFF7BBFFFFF7DE
:10180C006DFF70BD080D01082DE9F04F87B004AFD6
:10181C0081460D4690461E46D7F830B0D7F838A012
:10182C00BAF1000F28D0FB6B7B60009353467A6BA8
:10183C0010210020FFF75CFA002810DBB0F5006FD8
:10184C001BD340F2FF7303932B4B029300200190A8
:10185C0000900346022229490AF01BFD3BE0284C6C
:10186C0040F265132246274927480AF0A2FC40F2B1
:10187C00651120460AF094FC0020014600EB0B0396
:10188C00173300246FF300046FF341046FF38204E9
:10189C0069F3C50468F3881460F353246BF31F5485
:1018AC0023F00703ADEB030D0DF110086B4613F19C
:1018BC0020000AD0BAF1000F07D0FB6B00935346FF
:1018CC007A6BFFF715FA002809DB334622462946C6
:1018DC0040460AF0C7FC0C37BD46BDE8F08F084CFB
:1018EC0040F285132246074907480AF062FC40F291
:1018FC00851120460AF054FC7C160108C00C010826
:10190C004416010870160108600D0108406820B1EA
:10191C00034BC01A40F3CF0070474FF0FF307047B5
:10192C00A80C01080EB400B582B0014603AB53F805
:10193C00042B0193034801F0DBFA02B05DF804EBD1
:10194C0003B07047BDC2000830B585B011F0440F2C
:10195C0005D01A4B1C6834B9002005B030BD1849AD
:10196C00FFF7E0FFF9E7174B1968B2FBF1F1B1FB98
:10197C00F4FC154AA2FB0C32D20A4FF4616E0EFB3A
:10198C0012CE124BA3FB0E535B0904FB1C114FF43C
:10199C007A7C0CFB01F1B1FBF4F504FB15110CFB8B
:1019AC0001F1B1FBF4F102910195C3EB0311AEEB24
:1019BC00810100910649FFF7B5FFCEE7640E0020C8
:1019CC00B4160108600E0020C5B3A29189888888DE
:1019DC00C016010861B108B52AB1064A52F8232095
:1019EC0012B9054A00E0044A0449FFF79BFF08BD01
:1019FC00704700BF80170108DC160108180E01089B
:101A0C002DE9F04105461746069EDDF81C8081B98C
:101A1C0000242EB1324611492846FFF783FF0444B7
:101A2C00B8F1000F14D06FB1099B042B13D00C49E3
:101A3C0009E00C4B099A53F822200B49FFF772FF6F
:101A4C000446E6E7064942462846FFF76BFF044486
:101A5C002046BDE8F0810549F5E700BFF8160108FE
:101A6C00E816010894170108F0160108E41601089D
:101A7C002DE9F04F87B0049205939DF84C60042E2D
:101A8C0030D805460C4601F0020B01F0010AC1F3F7
:101A9C00C00801F480790AF0E3FB024678B31C49D4
:101AAC002846FFF73FFF0746BBF1000F29D132460E
:101ABC00514628460AF029FCB9F1000F01D0002349
:101ACC0011930396129B0293119B0193109B00930D
:101ADC000023049A41462846FFF792FF384407B08A
:101AEC00BDE8F08F0B4C40F2622322460A490B48AA
:101AFC000AF05FFB40F2622120460AF051FB0027FE
:101B0C00D2E7059A21462846FFF71EFF0744CEE789
:101B1C0038170108FC1601082C170108600D010884
:101B2C0011F0100F0BD108B511F0200F03D00449A0
:101B3C00FFF7F8FE08BD0349FFF7F4FEFAE770471C
:101B4C00F41F01083C1701082DE9F04105460F462A
:101B5C00164698460699FFF7E3FF0024444505DA3C
:101B6C0024492846FFF7DEFE0134F7E7002409E09C
:101B7C0020492846FFF7D6FE0BE01F492846FFF701
:101B8C00D1FE01340F2C0CDC002C02DD14F0070FFD
:101B9C00EED0B442F1D23A5D18492846FFF7C2FEA6
:101BAC00EFE717492846FFF7BDFE002409E011496D
:101BBC002846FFF7B7FE0BE012492846FFF7B2FEA6
:101BCC0001340F2C13DC002C02DD14F0070FEED0C7
:101BDC00B44207D23A5D0C4B9B5C13F0970FEBD1E0
:101BEC002E22E9E703492846FFF79CFEE8E7BDE80B
:101BFC00F08100BFF41601084817010840170108CE
:101C0C004C17010850170108183C01082DE9F04148
:101C1C0084B004469DF82C500C9F0E9EA5B9012B48
:101C2C0020D020484FF0000837B13B4622461E49D1
:101C3C000AF072FA002819DB2EBB6DBB20460AF0A5
:101C4C0097FB04B0BDE8F08103950A9802900193CC
:101C5C0000920B4600220F992046FFF709FF8046A1
:101C6C001248E1E711484FF00008DDE7104C4FF443
:101C7C002F7322460F4910480AF09BFA4FF42F712C
:101C8C0020460AF08DFA0F9B0093434632460D997D
:101C9C0020460AF052FBD0E72A460F9920460AF05C
:101CAC0040FBCBE7DBC20008FD2E0008BDC20008DC
:101CBC00FC16010854170108600D0108074B01229E
:101CCC001A6004E04008054A13685B001360044B7B
:101CDC009842F7D8034B1860704700BF600E002085
:101CEC0040420F00640E002070B506460D460024DD
:101CFC0005E0315D044883685B6898470134AC4269
:101D0C00F7D3284670BD00BF9409010810B543688D
:101D1C001C6809480EF013F918B123685B685C6005
:101D2C0010BD064C99232246054906480AF041FA93
:101D3C00992120460AF034FA94090108A8170108E1
:101D4C00E8170108600D0108014B03600020704783
:101D5C005818010870B586B005460368426881685A
:101D6C001C4E0591049203931B4B02930024019487
:101D7C00009423460122314620460AF057FBEB68BB
:101D8C002A696969059104920393144B0293019497
:101D9C00009423460122314620460AF047FBEB69AA
:101DAC0003930F4B02930194009423460122314676
:101DBC0020460AF03BFBAB6903930A4B0293019458
:101DCC00009423460122314620460AF02FFB06B030
:101DDC0070BD00BFF00C01085818010888180108E4
:101DEC00B8180108C818010830B585B004460D466E
:101DFC0011B10846FFF7AEFF012C05D0294620464D
:101E0C0006F0C0F805B030BDEFF30583103B03932B
:101E1C00054B0293002001900090034601220349D8
:101E2C000AF004FBEAE700BFF8180108F00C0108FF
:101E3C0008B5034B1B68984700F02EF808BD00BF8F
:101E4C005808002030BFFFF7FDBF00BF38B504466F
:101E5C00054D2A4605490EF069FC054A002160191A
:101E6C000EF072FC38BD00BF00000000180D010818
:101E7C000400000070B50646054D064B1D444C1B76
:101E8C002046FFF7E3FF083C746705F1080070BDBE
:101E9C000000000004000000074B9B6893F90E2023
:101EAC00002A08DB044A5269934204D0034A53685F
:101EBC0043F08053536070472043002000ED00E056
:101ECC0081690D4B5A6942F480725A61BFF34F8F8E
:101EDC00BFF36F8F31F8021C5A6922F480725A6179
:101EEC00BFF34F8FBFF36F8F4DF60273994201D042
:101EFC00002070470120704700ED00E010B584B061
:101F0C0000241C7002F07F44B4F17F4F19D102F011
:101F1C000C04082C05D012F0080F0FD0084604B0A2
:101F2C0010BD094B02930024019400942346012216
:101F3C00064920460AF091FA2046F0E701221A7071
:101F4C00EDE70020EBE700BF0C190108F00C0108CD
:101F5C00F0B585B005460F4614464C4B0293002055
:101F6C00019000900346012249490AF076FA494B48
:101F7C009B6A13F4805F26D11626464B9B6A13F49A
:101F8C00006F2CD1434B9B6A13F4007F33D1414B30
:101F9C009B6A13F4806F55D13E4B9B6A13F4807F80
:101FAC005CD13C4B9B6A13F4005F63D1394A936A52
:101FBC0043F47F439362012128460AF04CFA2070C7
:101FCC00304605B0F0BD344B0293002001900090D8
:101FDC00034601222E490AF040FA1726CDE72F4B73
:101FEC0002930020019000900346012228490AF038
:101FFC0034FA1826C6E72A4B029300200190009071
:10200C000346012222490AF028FA224B9A6B9B6A5A
:10201C0013F4004F01D11926B9E70392214B029317
:10202C000020019000900346012219490AF015FA8C
:10203C0037B1184A936A23F4004393621926A6E732
:10204C001926A4E7184B0293002001900090034638
:10205C0001220F490AF001FA1A269DE7134B02934D
:10206C000020019000900346012209490AF0F5F97D
:10207C001B269BE70E4B0293002001900090034619
:10208C00012203490AF0E9F91C268FE738190108E7
:10209C00F00C010800ED00E050190108641901086A
:1020AC007819010894190108AC190108C81901081C
:1020BC00E019010800B585B03D4B0293002001905A
:1020CC000090034601223B490AF0C7F93A4B9B6A40
:1020DC0013F0007F23D11D20374B9B6A13F0807FB8
:1020EC0029D1354B9B6A13F4002F30D1324B9B6AAC
:1020FC0013F4802F37D1304B9B6A13F4003F3ED141
:10210C002D4B9B6A13F4803F45D12B4A936A6FEA9F
:10211C0003436FEA1343936205B05DF804FB274B4E
:10212C0002930020019000900346012221490AF0FD
:10213C0094F91E20D0E7224B0293002001900090CE
:10214C00034601221B490AF088F91F20C9E71D4BE1
:10215C0002930020019000900346012215490AF0D9
:10216C007CF92120C2E7184B0293002001900090CB
:10217C00034601220F490AF070F92220BBE7134BEA
:10218C0002930020019000900346012209490AF0B5
:10219C0064F92320B4E70E4B0293002001900090C9
:1021AC000346012203490AF058F92420ADE700BF89
:1021BC00101A0108F00C010800ED00E0281A0108C3
:1021CC003C1A0108581A0108781A0108A01A0108CB
:1021DC00BC1A010800B585B000200870054B0293AD
:1021EC00019000900346012203490AF036F905B02C
:1021FC005DF804FBE81A0108F00C010800B587B083
:10220C000F2910DC094B103904910393084B0293EE
:10221C000020019000900346012206490AF01DF9A6
:10222C0007B05DF804FB044BEDE700BF0C1B010885
:10223C00401B0108F00C0108241B01082DE9F0419A
:10224C0084B004460F461546624B02930020019061
:10225C0000900346012260490AF0FFF85F4B9B6A2D
:10226C0013F0100F3DD110265C4B9B6A13F0080F36
:10227C0043D15A4B9B6A13F0020F4AD16FF01508E9
:10228C00564B9B6A13F0010F6ED1544B9B6A13F0A3
:10229C00200F75D1514B9B6A13F0100F04D14F4B8B
:1022AC009B6A13F0020F04D04C4B5B6813F4006F65
:1022BC0072D14A4B9B6A13F0200F04D0474A536AE1
:1022CC0023F400535362454A936A43F0FF0393622D
:1022DC00012120460AF0BFF82870304604B0BDE852
:1022EC00F0813F4B029300200190009003460122A5
:1022FC0039490AF0B2F81126B6E73A4B029300209E
:10230C00019000900346012233490AF0A6F81226E8
:10231C00AFE7354B02930020019000900346012259
:10232C002D490AF09AF82D4BD3F834809B6A13F0A0
:10233C00800F03D16FF015081326A1E7CDF80C80A0
:10234C002A4B02930020019000900346012222495F
:10235C000AF083F837B1214A936A23F08003936221
:10236C0013268DE713268BE7214B02930020019057
:10237C0000900346012218490AF06FF8142684E7EE
:10238C001C4B02930020019000900346012212493D
:10239C000AF063F815267DE72146404600F090FAD6
:1023AC00A0B90E4B9B6A13F0100F82D0124C40F266
:1023BC005D1322461149124809F0FBFE114809F041
:1023CC00F8FE40F25D11204609F0EAFE80F3098820
:1023DC0002266EE7541B0108F00C010800ED00E02A
:1023EC006C1B010864190108A01B0108B81B01082B
:1023FC00D01B0108E0190108F01B0108241C01087E
:10240C00600D0108701C010870B584B006460D46BD
:10241C00484B029300240194009423460122464920
:10242C0020460AF01AF82C70444BDC6A14F00204B3
:10243C002AD1424BDB6A002B34DB404BDB6A13F0B6
:10244C00804F66D03E4B02930020019000900346D3
:10245C00012239490AF001F83046FFF731FD60BB23
:10246C00364B9B6A13F0FF0F35D1344B9B6A13F438
:10247C007F4F37D1314B9B6AB3F5803F39D3304610
:10248C00FFF718FE04460AE02E4B02930024019439
:10249C000094234601222849204609F0DEFF2046FD
:1024AC0004B070BD284B02930020019000900346AD
:1024BC000122214909F0D1FFF1E733680393234B43
:1024CC000293002001900090034601221A4909F062
:1024DC00C4FF3468E3E72A4601213046FFF7AEFE1D
:1024EC000446DCE72A4601213046FFF731FD04465D
:1024FC00D5E7174C40F22A3322461649164809F004
:10250C0058FE164809F055FE40F22A31204609F0D3
:10251C0047FE0F4C40F22E3322460E490E4809F06E
:10252C0048FE0F4809F045FE40F22E31204609F0D6
:10253C0037FE00BF941C0108F00C010800ED00E010
:10254C00E01C0108AC1C0108D01C0108001D01088E
:10255C00F01B0108C43B0108600D01081C1D01089B
:10256C00401D010830B58BB0274B5D68C5F30805DD
:10257C00002383F31188BFF36F8F0DF12603FFF750
:10258C00BDFC58B104460DF12702294609F074FF31
:10259C0005469DF827308BB10BB030BD1B4C4FF46A
:1025AC008B6322461A491B4809F003FE1A4809F0AE
:1025BC0000FE4FF48B61204609F0F2FD0DF1040C86
:1025CC0020686168A268E368ACE80F002069616963
:1025DC00A269E369ACE80F009DF826304BB1089B6B
:1025EC00C3F308025AB96FEA53236FEA43230893E3
:1025FC0005E0089B23F4FF7323F00103089301A962
:10260C002846FFF7F1FBC7E700ED00E0F01B0108DF
:10261C00701D0108600D0108841D0108024A5369F0
:10262C0043F010035361704700ED00E0EFF30880B6
:10263C00EFF3098101B57246FFF794FF01BD00BFAE
:10264C00102080F3118808484FF40461401880F37F
:10265C000988EFF314800221084380F31488BFF338
:10266C006F8F00F0E9F80000C049002008B50A4B54
:10267C009B68834202D008F03BFB08BDEFF3058357
:10268C00002BF8D0054B5A6842F080525A605A6AB7
:10269C0022F400425A62EEE72043002000ED00E0F5
:1026AC00094A936898676FF00A01D96707494B6824
:1026BC0043F080534B60002383F31188BFF36F8F7B
:1026CC009368D86F704700BF2043002000ED00E0F6
:1026DC0010B50446EFF31183102383F31288BFF374
:1026EC006F8F0A4B58699860094B4FF000625A6023
:1026FC00426F084B1A60836F0022826783F3118844
:10270C00BFF36F8F00F05CF9204610BD2043002012
:10271C0000ED00E0980E00200B498A684FF0300065
:10272C001044EFF3098C80E8F01F74467046FFF7F5
:10273C00CFFFA64604498A6802F1300090E8F01FEA
:10274C008CF3098870470000204300201EF0040F12
:10275C000CBFEFF30880EFF30980816911F8021CBC
:10276C000229FFD001B509F070FE01BD002807DB7E
:10277C0000F01F02400901239340024A42F8203026
:10278C00704700BF00E100E000280CDB00F01F02E6
:10279C004009012393402030034A42F82030BFF314
:1027AC004F8FBFF36F8F704700E100E0002808DB0C
:1027BC000901C9B200F1604000F5614080F80013D6
:1027CC00704700F00F000901C9B2014B1954704752
:1027DC0014ED00E04209054B53F8222000F01F00D5
:1027EC00012303FA00F01040704700BF00E100E045
:1027FC0070B505460C4601310F2903D840B2FFF7DE
:10280C00D5FF70BD084E582332460849084809F0D8
:10281C00D0FC0F232A462146064809F0CAFC582151
:10282C00304609F0BDFC00BFC41D0108FC1D0108A9
:10283C00600D0108181E010808B50F4B0F4A22F055
:10284C007F029A60BFF34F8FBFF36F8FD3F888204E
:10285C0022F47002C3F88820EFF3148323F00403EE
:10286C0083F31488BFF36F8F05F0D6FC08F07EFC61
:10287C0000F06EF805F038FD00ED00E000000008F7
:10288C0010B4A2F120040D4942F8081C21F00101FA
:10289C0042F8081C42F8203C019B42F81C3C029B6D
:1028AC0042F8183C039B42F8143C4FF0807342F8FA
:1028BC00043C04650023836710BC70474D1200086C
:1028CC000E4B9B68A3B110F1160F0AD05A6EA2F1F1
:1028DC00400C84450ED882420ED98A4206D800207C
:1028EC0070475A6E8A4201D800207047586E704764
:1028FC0000207047002070470020704720430020C4
:10290C0008B50E4615460B4A9060426F0A4B1A608A
:10291C0000F056F82C4686F309884FF00000074B60
:10292C00984720464FF000014FF000024FF0000393
:10293C00034C204720430020980E0020EFC40008D1
:10294C004D120008014B10221A61704700ED00E097
:10295C00002207E003F1604303F56143102183F883
:10296C00001301325A2A09DC53B2002BF2DA03F0BD
:10297C000F030349194410230B76F2E7704700BF8D
:10298C00FCEC00E008B5EFF30583103B044A02EBC6
:10299C00C301496852F833008847FFF77DFA08BD38
:1029AC00D009010808B5034B034A0121034800F084
:1029BC00BFF908BD0000032000000020581E0108CC
:1029CC0008B5436E403B0548036040234360044B0D
:1029DC008360012100F0CEF908BD00BF9C0E0020E1
:1029EC0000000B15084AC2F898000B6823F01F036F
:1029FC00034343F01003C2F89C308B6843F001038F
:102A0C00C2F8A030704700BF00ED00E010B584B0F4
:102A1C0004460D4BD3F89030C3F30723013B984287
:102A2C0004D8FFF7DFFF204604B010BD0390074B1E
:102A3C00029300200190009003460122044909F002
:102A4C0075FD6FF01500EFE700ED00E0681E010862
:102A5C00D80C01082DE9F04385B080460F46994605
:102A6C001646002509E02146F0B209F06EFD064637
:102A7C0010F1160F1ED001360135BD421ADA05EBE6
:102A8C00450408EB84046268002AF5D0B9F1000F04
:102A9C00E9D0204609F039FD0028E4D10395074B15
:102AAC0002930190009003460122054909F03EFD76
:102ABC006FF01506304605B0BDE8F083901E010896
:102ACC00D80C010810B5034C01232278FFF7C2FF84
:102ADC00207010BD7643002008B500230B4A1278F5
:102AEC00FFF7B8FF10F1160F0FD0024606E0084BA7
:102AFC00C3F898200021C3F8A0100132044BD3F87E
:102B0C009030C3F307239342F1DC08BD76430020D9
:102B1C0000ED00E0F0B585B0054603A8FFF714F909
:102B2C000646002425E0B3F5801F21D1506851F8EA
:102B3C000C109368202B67D9B3F1004F66D8013B7A
:102B4C00B3FA83F3C3F11F035B0003F03E0343F0BE
:102B5C00885343F4302300900191029369462878FE
:102B6C00FFF754FF0028C0F2BE802B7801332B7086
:102B7C000134B44280F0BA804FEA041C039901EB93
:102B8C000412D068030D1B05B3F5000F71D01ED8CD
:102B9C00B3F5001F3CD0B3F5800FC4D1506851F889
:102BAC000C109368202B60D9B3F1004F5FD8013B18
:102BBC00B3FA83F3C3F11F035B0003F03E0343F04E
:102BCC00E06343F40033009001910293C6E7B3F144
:102BDC00807F69D0B3F1007FCAD1506851F80C10D6
:102BEC009368202B7BD9B3F1004F7AD8013BB3FA11
:102BFC0083F3C3F11F035B0003F03E0343F4802314
:102C0C00009001910293A9E70823A0E73E239EE7D9
:102C1C00576851F80C109368202B22D9B3F1004F50
:102C2C0021D8013BB3FA83F3C3F11F035B0003F01C
:102C3C003E0343F0885343F4002300970191029321
:102C4C0010F0010F8AD02B4C6D2322462A492B48B9
:102C5C0009F0AFFA2A4809F0ACFA6D21204609F0C8
:102C6C009FFA0823E5E73E23E3E70823A7E73E2383
:102C7C00A5E7506851F80C109368202B10D9B3F1CC
:102C8C00004F0FD8013BB3FA83F3C3F11F035B0072
:102C9C0003F03E0343F082730090019102935DE7D1
:102CAC000823F7E73E23F5E7506851F80C109368BA
:102CBC00202B10D9B3F1004F0FD8013BB3FA83F39B
:102CCC00C3F11F035B0003F03E0343F088730090D5
:102CDC000191029342E70823F7E73E23F5E7082327
:102CEC008CE73E238AE76FF0150000E0002005B06A
:102CFC00F0BD00BFB41E0108E41E0108600D010800
:102D0C000C1F0108044B0522C3F89420BFF34F8F0E
:102D1C00BFF36F8F704700BF00ED00E0BFF35F8F14
:102D2C00024B0022C3F89420704700BF00ED00E076
:102D3C0038B50C46FFF7C6FE10F1160F00D038BDA3
:102D4C00084D4FF4B4732A460749084809F031FA84
:102D5C002146074809F02DFA4FF4B471284609F0C2
:102D6C001FFA00BFB41E0108C43B0108600D010826
:102D7C003C1F010838B50C46FFF7AEFE10F1160FDC
:102D8C0000D038BD084D40F287132A460749084841
:102D9C0009F00FFA2146074809F00BFA40F28711A7
:102DAC00284609F0FDF900BFB41E0108C43B010818
:102DBC00600D0108681F010838B5394B1D68394B87
:102DCC00D3F89030C3F307239D4203D8FFF7A6FF37
:102DDC0000241FE0344C40F29F1322463349344800
:102DEC0009F0E7F92F4BD3F89020C2F307222946BC
:102DFC00304809F0DEF940F29F11204609F0D0F975
:102E0C00274B5B6804EB440103EB81012046FFF781
:102E1C00E9FD0134A542F3D827480570FFF77AFE87
:102E2C0010F1160F02D0244B1A7816E01E4C40F20B
:102E3C00C91322461D491E4809F0BBF91F4809F069
:102E4C00B8F940F2C911204609F0AAF9154BC3F89C
:102E5C0098200021C3F8A0100132124BD3F8903007
:102E6C00C3F307239A42F1DBFFF74CFF0D4BD3F86A
:102E7C009030C3F30723082B01D1002038BD0A4C36
:102E8C0040F20F2322460E49094809F092F90D48E9
:102E9C0009F08FF940F20F21204609F081F900BFAB
:102EAC006C20010800ED00E0B41E0108C43B0108D1
:102EBC00600D0108981F010876430020CC1F010803
:102ECC00F81F01084820010808B5024B1B689847F9
:102EDC00002008BDA80E0020034B1860034A93780D
:102EEC0043F0020393707047A80E00205C0800208A
:102EFC0030B587B00D46114600240094019402941D
:102F0C0003940494059402228DF80220044A019241
:102F1C00049005951A46684608F03CFD07B030BD94
:102F2C0095C5000808B5064921F00701C1F100520A
:102F3C0002F540320348FDF73DFE002008BD00BFFE
:102F4C00B7710020AC0E0020034BC01A8010034B4D
:102F5C0003FB00F0704700BF200A0020C54EECC4F4
:102F6C003422024B02FB0030704700BF200A0020C5
:102F7C0010B5437A33B943687BB9002303824369A4
:102F8C00C36010BD0A4C5A2322460A490A4809F06C
:102F9C0010F95A21204609F003F9054C5B2322460F
:102FAC000649054809F005F95B21204609F0F8F8B7
:102FBC009C200108C0200108600D0108D4200108E4
:102FCC002DE9F04784B00546039114469A466846AD
:102FDC000DF095FADDE900892DB305F11C06EFF330
:102FEC001187102383F31288BFF36F8F304608F0DC
:102FFC008BF818B3304608F0B1F8698C002971D001
:10300C002B8C99423AD200220023284605F0A0FED0
:10301C00044698B3304608F087F8F0B187F311886E
:10302C00BFF36F8F3AE05A4CEE23224659495A4867
:10303C0009F0BFF8EE21204609F0B2F8574C88236E
:10304C0022465749544809F0B4F83146554809F01E
:10305C00B0F88821204609F0A3F8504C40F2311307
:10306C00224651494C4809F0A4F831464F4809F022
:10307C00A0F840F23111204609F092F86C8C631ED6
:10308C006B84304608F050F8D8B187F31188BFF341
:10309C006F8F2146284609F082FA0446039D002DC5
:1030AC004FD1002363610123237200236372636099
:1030BC00039B63822046FFF75BFF204604B0BDE80C
:1030CC00F087364C40F2311322463749324809F02A
:1030DC0070F83146354809F06CF840F23111204651
:1030EC0009F05EF8304608F01FF8B0B187F311888C
:1030FC00BFF36F8F5AEA040306D00DF035FB2C4B4F
:10310C001A582C4B9A4219D022465346284605F0A1
:10311C001FFE04460028C1D1CFE7204C40F23113EA
:10312C00224621491C4809F044F831461F4809F051
:10313C0040F840F23111204609F032F80024A24642
:10314C00E2E742464B4668460DF00FFADDE90023F4
:10315C0003A9204609F038FA0646606190B1039B3A
:10316C009D42A0D90A4C40F24B13224612490A4800
:10317C0009F01FF8114809F01CF840F24B112046D9
:10318C0009F00EF8204609F033FA344695E700BFF3
:10319C009C200108F0200108600D0108F8200108AE
:1031AC00282101084021010858210108702101083B
:1031BC0008000000100D002088210108800D010876
:1031CC0038B5044680B9124C40F2CB132246114953
:1031DC00114808F0EEFF40F2CB11204608F0E0FF5A
:1031EC00204609F005FA2C4684B16568237A013B28
:1031FC00DBB2237253B9E3606360A07AFFF7B0FED1
:10320C00836A002BECD020469847ECE738BD00BF12
:10321C009C200108C4210108600D0108034620B15F
:10322C0018465B68002BFBD1704710B5064C4FF469
:10323C00107322460549064808F0BBFF4FF4107185
:10324C00204608F0ADFF00BF9C200108C4210108F6
:10325C00600D010838B558B10C460546A9B1436854
:10326C0023B10846FFF7DAFF6B6843606C6038BD2A
:10327C000C4C40F24B2322460B490C4808F099FFAA
:10328C0040F24B21204608F08BFF064C4FF4137391
:10329C0022460749054808F08CFF4FF4137120466D
:1032AC0008F07EFF9C200108A4210108600D010894
:1032BC00AC21010882888A4206D30346521A8280C6
:1032CC00006808441860704710B5064C40F2C313F0
:1032DC0022460549054808F06CFF40F2C311204610
:1032EC0008F05EFFC821010804220108600D0108E6
:1032FC00F8B504460D46036886889F1909F0BAF99B
:10330C00A84203D32E44A6803846F8BD054C3E2374
:10331C0022460549054808F04CFF3E21204608F09E
:10332C003FFF00BFC821010814220108600D0108ED
:10333C0010B518B103688BB1986810BD0F4C4FF4E1
:10334C00687322460E490F4808F033FF0E4808F008
:10335C0030FF4FF46871204608F022FF074C40F212
:10336C00A13322460949074808F023FF064808F014
:10337C0020FF40F2A131204608F012FF280D010871
:10338C00580D0108600D0108800D0108840D01081D
:10339C0010B518B103688BB1186810BD0F4C40F212
:1033AC00AF3322460E490F4808F003FF0E4808F0D1
:1033BC0000FF40F2AF31204608F0F2FE074C4FF40C
:1033CC006C7322460949074808F0F3FE064808F0DA
:1033DC00F0FE4FF46C71204608F0E2FE280D010857
:1033EC00580D0108600D0108800D0108840D0108BD
:1033FC0010B518B1006888B1103010BD0F4C40F2F8
:10340C00354322460E490F4808F0D3FE0E4808F00B
:10341C00D0FE40F23541204608F0C2FE074C40F287
:10342C00364322460949074808F0C3FE064808F00F
:10343C00C0FE40F23641204608F0B2FE280D0108CD
:10344C00580D0108600D0108800D0108840D01085C
:10345C0000487047482201082DE9F84307460E46FC
:10346C00FFF796FFD0F808803846FFF761FFB8F1F8
:10347C00000F6BD0044696F83330C3F30213012BC4
:10348C0022D096F83330012262F3061386F83330DB
:10349C0035464FF4C169AB6A6BB34B462A46394685
:1034AC00204609F01AFB00283ED028460AF0B3FD4E
:1034BC00D8F818403846FFF76BFF2946A04704465A
:1034CC00F8B9AB68002023E03146384609F095F98D
:1034DC00054600283DD0864209D090F833300122B1
:1034EC0062F3061380F833304FF4C169D3E73546E5
:1034FC004FF00809CFE7184BAB62062385F82C3048
:10350C00CBE7284609F0AFF910E01A8A10445B6843
:10351C00002BFAD10446284609F0A5F928460AF0F2
:10352C001EFD2046BDE8F8836FF00B04B9F5C16FA2
:10353C00F7D130460AF0ECFCAB68D968103138464C
:10354C0000F014FC28460AF00AFDEAE76FF00104CB
:10355C00E7E76FF00B04E4E74822010870B58CB084
:10356C0004460E4615463022002168460DF0ECF854
:10357C0001238DF800308DF807502CB123681BB156
:10358C005A68104B9A4201D00CB070BD2046FFF720
:10359C00FFFE04468568EB68984710F4805FF3D013
:1035AC002B69002BF0D03388012BEDD10DF10101EB
:1035BC00301D09F069FA2B696A460A2120469847A2
:1035CC00E2E700BFE40A002038B50546FFF7B0FE7D
:1035DC0004460123037645611049043005F098FF39
:1035EC00284609F0B8F810F4806F03D0237E43F01E
:1035FC0004032376284609F0AEF810F4805F06D158
:10360C0000F0C6FB637E43F00203637638BD044AC8
:10361C000021044801F0B0F8F2E700BF5FCA0008CF
:10362C0069350008B80E002030B583B00A46002377
:10363C00019301AB01460C4809F020FB044670B124
:10364C00094B1B6883420AD0074D02460199284654
:10365C0009F089FA2B6823602C606B6813B1204643
:10366C0003B030BD6C60FAE7D80E0020064B18682A
:10367C0030B102681A605B68984202D00023036084
:10368C007047014B5A60F9E7E80E002010B5044B67
:10369C005C681CB12146184609F078FA204610BD2A
:1036AC00D80E002010B582B014460023019301AB54
:1036BC000A460146044809F0E1FA18B12268026191
:1036CC00A288828202B010BDD80E002010B504462C
:1036DC00002303601C4B5B6843B318601A4B5860A3
:1036EC000CF009FF034600205A1823D20244174855
:1036FC00A0FB02CE2EF0030C0CEB9E0CA2EB0C02EA
:10370C009B1A61F100014FF0CC3203FB02F200FB7B
:10371C000122A3FB003002445B0843EAC2736360DE
:10372C000B4807F099FE084306D010BD064B5860B5
:10373C001860D5E70120D9E744F62062002305483C
:10374C0006F0A6F8F1E700BFE00E0020CDCCCCCC03
:10375C00080B0020F80A002010B518B1006888B1D9
:10376C00103010BD0F4C40F2354322460E490F4825
:10377C0008F01FFD0E4808F01CFD40F235412046B4
:10378C0008F00EFD074C40F2364322460949074823
:10379C0008F00FFD064808F00CFD40F236412046BB
:1037AC0008F0FEFC280D0108580D0108600D0108F9
:1037BC00800D0108840D010810B528B1006898B17E
:1037CC000C3009F087FB10BD0F4C40F245332246FC
:1037DC000E490F4808F0EDFC0E4808F0EAFC40F2E8
:1037EC004531204608F0DCFC074C40F246332246BB
:1037FC000949074808F0DDFC064808F0DAFC40F2FD
:10380C004631204608F0CCFC280D0108580D010863
:10381C00600D0108800D0108840D010810B528B158
:10382C0004460D21FFF7C8FF80B110BD0C4C4FF4BE
:10383C00397322460B490C4808F0BBFC0B4808F0C6
:10384C00B8FC4FF43971204608F0AAFC04F12800AA
:10385C004FF0FF324FF0FF3305F044F8E5E700BFBF
:10386C00280D0108580D0108600D0108800D010894
:10387C0010B528B104460D21FFF79EFF80B110BD95
:10388C000A4C40F2EF23224609490A4808F091FC01
:10389C00094808F08EFC40F2EF21204608F080FC2D
:1038AC0004F1280005F036F9E9E700BF280D0108FE
:1038BC00580D0108600D0108800D010810B582B08B
:1038CC000A460023019301AB01460A4809F0D6F9D8
:1038DC00044620B102460199064809F044F9054B0B
:1038EC001B6813B1204602B010BD034805F0D8FF89
:1038FC00F8E700BFE00E0020F80A002070B50CF0CD
:10390C00FAFD0022431826D21344384AA2FB034581
:10391C0025F0030404EB95041B1BC01A61F1000194
:10392C004FF0CC3300FB03F302FB0133A0FB02028C
:10393C001344460846EAC3764FF0FF324FF0FF338C
:10394C002B4804F0CFFF2B4B1C686CB1256885B15C
:10395C007CB925460DE00122D6E7264B59601AE0CA
:10396C00254B5A601A601FE0254602E02B462C4678
:10397C001D4614B363689B1B03F5FA63002B1CDC18
:10398C000121204609F0B3FA22462168194B19602F
:10399C005B689C42E1D000232360174B5B68002BD3
:1039AC00DED01A60144B5A60002DDFD02B68002B30
:1039BC00DDD0002DDBD12B46D9E784B163689B1B8E
:1039CC0013F5FA6F0FD003F5FA63990F9A00D2181A
:1039DC0041F1000392185B41084805F059FF044877
:1039EC0005F098F870BD00221346F5E7CDCCCCCC91
:1039FC00C40E0020E00E0020E80E0020F80A002083
:103A0C002DE9F04182B00446002873D00D461646CD
:103A1C008768FFB112B34FF0FF324FF0FF333648D7
:103A2C0004F060FF2946A069FFF7FEFD804628B32D
:103A3C00314805F06FF8D8F80800FFF78DFE0368E1
:103A4C002362062384F8243008F11002A26284F861
:103A5C002C302746384602B0BDE8F081806909F069
:103A6C00AFFE0028D7D1A3695B68002BD3D003F13C
:103A7C0038059B6B002BCED13746EBE700232A464B
:103A8C00A1691E4809F0FAF80746A8B120460AF0C9
:103A9C003FFA014607F118000CF05EFBA8B900963E
:103AAC00234642462946A06909F04BF9074688B1DE
:103ABC00114805F02FF8CDE7FFF7D8FD8046002818
:103ACC00EDD1FFF7E3FD8046E9E70B4805F022F85E
:103ADC004746BFE7B8F1000FEAD0094B1A68C8F89F
:103AEC000020C3F800805B68002BE1D1044BC3F8C5
:103AFC000480DDE70746ADE7C40E0020E00E002091
:103B0C00E80E00202DE9F04383B0054688461446A4
:103B1C001F469DF82890FFF781FE4FF0FF324FF0C3
:103B2C00FF33504804F0DEFE41462846FFF7C6FE40
:103B3C0070B1064623680361A38883824A4B1A68D6
:103B4C00026018605B68002B66D1474B586063E0DD
:103B5C004FB9B9F1000F0CD1424804F0DBFF2846F5
:103B6C00FFF786FE7AE0224641462846FFF79AFD8B
:103B7C00EFE70023019301AB424629463A4809F08E
:103B8C007DF820B122680261A2888282E4E7FFF707
:103B9C006DFD064688B30CF0AEFC034608460021CA
:103BAC001A1830D20A443149A1FB027C2CF00307CD
:103BBC0007EB9C07D21B9B1A60F100004FF0CC3234
:103BCC0003FB02F201FB0022A3FB01310A445B0858
:103BDC0043EAC2737360B560D8F80030F3602368B1
:103BEC003361A388B382204B1A6832601E605B6815
:103BFC00002BB1D11C4B5E60AEE7FFF747FD0646CC
:103C0C000028C8D1A8E70121CCE72B465B682146E8
:103C1C0028469847002817DBB369CBB106F118008A
:103C2C004FF0FF324FF0FF3305F092F804460623B5
:103C3C0080F82C308368DB688362002DE5D02B681C
:103C4C00002BE3D05B68E1E720460AF088F9E3E754
:103C5C00044804F05FFF2846FFF70AFE03B0BDE8F6
:103C6C00F08300BFC40E0020D80E0020CDCCCCCCED
:103C7C00F8B507464FF0FF324FF0FF33364804F0EB
:103C8C0031FE364B1C68C4B1256805B10CB1002659
:103C9C0018E02546FBE70021204609F028F92246CA
:103CAC0031462E4808F05FFF2D4B1A6822601C60CD
:103CBC005B6873B92A4B5C600BE02546E7E72B4643
:103CCC002C461D4674B1002FE5D0A368BB42E2D050
:103CDC002646002DF3D02B68002BF1D0002DEFD110
:103CEC002B46EDE71F4B1D68B5B12E68CEB1C5B99B
:103CFC002E4616E00121284609F0F9F82A462146FD
:103D0C00184808F030FF164B1A682A601D605B6873
:103D1C0073B9134B5D600BE02E4602E0334635461B
:103D2C001E4675B1002FE5D0AB68BB42E2D02C46E5
:103D3C00002EF3D03368002BF1D0002EEFD1334698
:103D4C00EDE7084B1B681BB1034804F0E3FEF8BD1C
:103D5C00054805F0A5FDF7E7C40E0020D80E00209D
:103D6C00E80E0020E00E0020F80A002008B50A46F4
:103D7C0000230146054808F081FF20B1012109F01C
:103D8C00B6F8002008BD6FF00100FBE7E00E002044
:103D9C00194B1B78002B2DD170B5184B00241C60CF
:103DAC005C60174B1C605C60164B1C605C6000E038
:103DBC000134012C13DC342504FB05F505F1180046
:103DCC00114E30440CF0A4F9AA190C4B196871511E
:103DDC001A605B68002BEBD1084B5A60E8E70B4983
:103DEC000B4805F0B9FC0B480CF040F9024B0122D2
:103DFC001A7070BD704700BF77430020E80E00209A
:103E0C00E00E0020D80E0020F00E0020093900082A
:103E1C00F80A0020C40E002010B518B1006888B153
:103E2C00103010BD0F4C40F2354322460E490F485E
:103E3C0008F0BFF90E4808F0BCF940F235412046B5
:103E4C0008F0AEF9074C40F23643224609490748C0
:103E5C0008F0AFF9064808F0ACF940F236412046BC
:103E6C0008F09EF9280D0108580D0108600D010895
:103E7C00800D0108840D010810B528B1006898B1B7
:103E8C000C3009F0E1F910BD0F4C40F245332246DD
:103E9C000E490F4808F08DF90E4808F08AF940F2E7
:103EAC004531204608F07CF9074C40F24633224657
:103EBC000949074808F07DF9064808F07AF940F2FC
:103ECC004631204608F06CF9280D0108580D010800
:103EDC00600D0108800D0108840D01080268130AA9
:103EEC0003F47F4343EA1263110201F47F010B4395
:103EFC0043EA02631B0C1B040248834214BF0020DC
:103F0C00012070470000FEA908B58269094B1340D7
:103F1C00094A934201D0002008BD0388012B01D02F
:103F2C000020F9E70430FFF7D9FF08B10020F3E7D0
:103F3C000120F1E700FF020000010200002303B1A1
:103F4C00704703EB03129100044A0A44402182F8A3
:103F5C003C10012182F83D100B44F0E7740F002057
:103F6C0010B518B1006888B1103010BD0F4C40F27C
:103F7C00354322460E490F4808F01BF90E4808F04D
:103F8C0018F940F23541204608F00AF9074C40F286
:103F9C00364322460949074808F00BF9064808F051
:103FAC0008F940F23641204608F0FAF8280D0108CD
:103FBC00580D0108600D0108800D0108840D0108E1
:103FCC0010B518B103688BB1186810BD0F4C40F2D6
:103FDC00AF3322460E490F4808F0EBF80E4808F0B4
:103FEC00E8F840F2AF31204608F0DAF8074C4FF40D
:103FFC006C7322460949074808F0DBF8064808F0BC
:10400C00D8F84FF46C71204608F0CAF8280D010856
:10401C00580D0108600D0108800D0108840D010880
:10402C0010B370B58CB00E46154604460368EBB160
:10403C005A68114B9A4202D001200CB070BD09F0A5
:10404C001BFA304214D0022E0CD00F216A462046A7
:10405C0009F020FA70B9009B35EA030314BF012064
:10406C000020EAE70E21F1E7012070470120E4E788
:10407C000120E2E70020E0E7E40A002010B540B19F
:10408C0003460268AAB1062900D891761B68987E6F
:10409C0010BD104C40F25A3322460F490F4808F01D
:1040AC0088F80F4808F085F840F25A31204608F09D
:1040BC0077F8084C40F25B3322460A49074808F06F
:1040CC0078F8074808F075F840F25B31204608F0A4
:1040DC0067F800BF280D0108580D0108600D010894
:1040EC00800D0108840D010810B518B103688BB15F
:1040FC00987E10BD0F4C40F26D3322460E490F488E
:10410C0008F057F80E4808F054F840F26D3120468C
:10411C0008F046F8074C40F26E332246094907482E
:10412C0008F047F8064808F044F840F26E31204693
:10413C0008F036F8280D0108580D0108600D01082B
:10414C00800D0108840D010810B518B103688BB1FE
:10415C00986810BD0F4C4FF4687322460E490F48F7
:10416C0008F027F80E4808F024F84FF46871204640
:10417C0008F016F8074C40F2A133224609490748CB
:10418C0008F017F8064808F014F840F2A131204660
:10419C0008F006F8280D0108580D0108600D0108FB
:1041AC00800D0108840D010808B10430704710B56A
:1041BC00074C40F2444322460649074807F0F9FFF2
:1041CC00064807F0F6FF40F24441204607F0E8FFAE
:1041DC00280D0108580D0108600D0108800D01081B
:1041EC0010B528B1006898B10C3009F075F910BD04
:1041FC000F4C40F2453322460E490F4807F0D9FFC9
:10420C000E4807F0D6FF40F24531204607F0C8FFB4
:10421C00074C40F2463322460949074807F0C9FFCC
:10422C00064807F0C6FF40F24631204607F0B8FFBB
:10423C00280D0108580D0108600D0108800D0108BA
:10424C00840D010810B518B10021FFF7C9FF10BD8E
:10425C00074C4FF42F6322460649074807F0A9FF85
:10426C00064807F0A6FF4FF42F61204607F098FF91
:10427C00280D0108580D0108600D0108800D01087A
:10428C0010B518B10921FFF7ABFF10BD074C40F674
:10429C00123322460649074807F08BFF064807F001
:1042AC0088FF40F61231204607F07AFF280D0108EE
:1042BC00580D0108600D0108800D010810B518B1EA
:1042CC000A21FFF78DFF10BD074C40F6363322460E
:1042DC000649074807F06DFF064807F06AFF40F6ED
:1042EC003631204607F05CFF280D0108580D0108F7
:1042FC00600D0108800D010810B528B104460D2190
:10430C00FFF76EFF80B110BD0C4C4FF43973224691
:10431C000B490C4807F04DFF0B4807F04AFF4FF4D0
:10432C003971204607F03CFF04F128004FF0FF32B2
:10433C004FF0FF3304F0D6FAE5E700BF280D010873
:10434C00580D0108600D0108800D010810B538B139
:10435C0014304FF0FF324FF0FF3304F0C3FA10BDAE
:10436C00074C40F2D32322460649074807F021FFA9
:10437C00064807F01EFF40F2D321204607F010FF3D
:10438C00280D0108580D0108600D0108800D010869
:10439C0010B528B104460D21FFF722FF80B110BDE6
:1043AC000A4C40F2EF23224609490A4807F001FF64
:1043BC00094807F0FEFE40F2EF21204607F0F0FE20
:1043CC0004F1280004F0A6FBE9E700BF280D010862
:1043DC00580D0108600D0108800D010810B518B1C9
:1043EC00143004F097FB10BD074C40F2DA23224640
:1043FC000649074807F0DDFE064807F0DAFE40F2F2
:10440C00DA21204607F0CCFE280D0108580D0108D2
:10441C00600D0108800D010810B504464FF0FF3205
:10442C004FF0FF33214804F05DFA214B196839B184
:10443C000A6802B111B14FF0FF3C06E00A46FAE7F8
:10444C000A46F8E7134611461A46B1B1CB69098CF6
:10445C004FF47A7000FB01331B1B002B0BDD9C45CA
:10446C0028BF9C46002AEDD01368002BEBD0002A05
:10447C00E9D11346E7E74FF0000CBCF1FF3F10D039
:10448C004FEA9C734FEA8C0212EB0C0243F10003CF
:10449C0092185B41074805F0FBF9044804F03AFB1D
:1044AC0010BD044805F0FCF9F7E700BFF80900203F
:1044BC00B80F0020280B0020F8B50CF01CF80022D7
:1044CC00431826D213442B4AA2FB034525F00304C0
:1044DC0004EB95041B1BC01A61F100014FF0CC33A7
:1044EC0000FB03F302FB0133A0FB0202134446085A
:1044FC0046EAC3764FF0FF324FF0FF331E4804F00C
:10450C00F1F91E4B1C68A4B1256805B11CB100273C
:10451C0014E00122D6E72546F9E72246394617482A
:10452C0008F031FF94F822306FF3000384F8223046
:10453C000FE02546EBE72B462C461D4694B1E3696C
:10454C00228C4FF47A7101FB02339B1B002BE4DDB0
:10455C002746002DEFD02B68002BEDD0002DEBD192
:10456C002B46E9E73046FFF757FF034804F0D2FA31
:10457C00F8BD00BFCDCCCCCCF8090020B80F002082
:10458C0010B528B1006898B10C3009F059F810BD7D
:10459C000F4C40F2033322460E490F4807F009FE38
:1045AC000E4807F006FE40F20331204607F0F8FDF6
:1045BC00074C4FF4417322460949074807F0F9FDAF
:1045CC00064807F0F6FD4FF44171204607F0E8FD70
:1045DC00280D0108580D0108600D0108800D010817
:1045EC00840D010810B528B1006898B10C3009F0A1
:1045FC003AF810BD0F4C4FF4457322460E490F4844
:10460C0007F0D7FD0E4807F0D4FD4FF44571204656
:10461C0007F0C6FD074C40F21533224609490748FE
:10462C0007F0C7FD064807F0C4FD40F215312046DF
:10463C0007F0B6FD280D0108580D0108600D0108A2
:10464C00800D0108840D010810B528B1006898B1DF
:10465C000C3009F021F810BD0F4C40F223332246E8
:10466C000E490F4807F0A5FD0E4807F0A2FD40F2D9
:10467C002331204607F094FD074C4FF44973224632
:10468C000949074807F095FD064807F092FD4FF4DD
:10469C004971204607F084FD280D0108580D0108CA
:1046AC00600D0108800D0108840D010810B528B1BA
:1046BC00006898B10C3009F003F810BD0F4C4FF4A2
:1046CC004D7322460E490F4807F073FD0E4807F054
:1046DC0070FD4FF44D71204607F062FD074C40F21F
:1046EC00353322460949074807F063FD064807F0B1
:1046FC0060FD40F23531204607F052FD280D0108CF
:10470C00580D0108600D0108800D0108840D010889
:10471C0008B50449044805F01FF8044B00221A6040
:10472C005A6008BDC5440008280B0020B80F0020B3
:10473C00002807DD0138054B03EB8010044B984231
:10474C0002D27047002070470020FAE7880A002048
:10475C00C80A0020054A064B9A4205D0054B18683A
:10476C0000B17047104670470020FAE7880A002015
:10477C00C80A0020C00F0020F8B504460F461646A4
:10478C004FF0FF324FF0FF330A4804F0ABF80A4DFC
:10479C002146284608F00AFE2B6823602C606B68C3
:1047AC002BB16760A660034804F0B4F9F8BD6C60E7
:1047BC00F7E700BFF8090020640F002038B5044665
:1047CC000D46FFF7C3FD06212046FFF709FD78B320
:1047DC0063683BB105B12B6000252046FFF7FEFD59
:1047EC00284638BD4FF0FF324FF0FF33124804F02B
:1047FC0079F800232BB1104804F08CF96FF0020506
:10480C00EBE703EB03110D4A02EB8102126C0AB1C8
:10481C000133EFE703EB0311084A02EB81016160FE
:10482C000C6405B12960044804F074F90025D4E740
:10483C006FF08505D1E700BFF8090020740F002048
:10484C0038B50D4678B9124C0022124B9C420FD849
:10485C00104B9C420AD22946204608F069FE0246BB
:10486C0020B94034F1E708F063FE0246104638BD2B
:10487C00094C40F6CC5322460849094807F099FCEC
:10488C00084807F096FC40F6CC51204607F088FC0F
:10489C00880A0020C80A0020502201087C22010846
:1048AC00600D010888150108F0B583B000238DF860
:1048BC00073079B107460E460846FFF70FFB002874
:1048CC003ED157B30DF107023146384608F090FE41
:1048DC0005463BE0394C40F65E6322463849394880
:1048EC0007F067FC384807F064FC40F65E61204630
:1048FC0007F056FC40341D46344B9C4210D8334BC9
:10490C009C4223D20DF107023146204608F070FE7E
:10491C0003460028EED12B46ECE73D462C4CEBE74A
:10492C00264C40F6676322462A49264807F041FC8C
:10493C00294807F03EFC40F66761204607F030FC42
:10494C0047B10121384608F065FF054655B32846A6
:10495C0003B0F0BDFFF7FEFE012108F05BFF05463A
:10496C000028F4D11A4C194B9C4209D8174B9C4285
:10497C00ECD20121204608F04DFF88B94034F2E713
:10498C000E4C40F67E63224612490E4807F011FC8D
:10499C00114807F00EFC40F67E61204607F000FC43
:1049AC000546D3E70121384608F039FF05460028B3
:1049BC00CDD100F021FB0546C9E700BF502201080C
:1049CC009C220108600D0108800D0108C80A002016
:1049DC00880A00208022010888150108F8B50646CF
:1049EC000F46224C03E02046FFF7F8FC4034204BE6
:1049FC009C4228D81E4B9C4235D22046FFF7A6FC81
:104A0C006268002AEFD000231BB12046FFF7E6FCBA
:104A1C00ECE702EB43118D7E15F0020F09D0590122
:104A2C00515A012905D1316802EB43104068884284
:104A3C0001D00133E8E707B13C6002EB4315204697
:104A4C00FFF7CCFC10E00B4C40F6A26322460A495F
:104A5C000A4807F0AEFB0A4807F0ABFB40F6A26130
:104A6C00204607F09DFB00252846F8BD880A00204B
:104A7C00C80A00205022010880220108600D01089C
:104A8C00881501082DE9F04106460F4690464FF077
:104A9C00FF324FF0FF33124803F024FF114B1B6819
:104AAC0023B11C683CB133B91C4604E01C4602E03F
:104ABC00254623462C466BB15B6842463946304648
:104ACC009847002CF4D02568002DF2D0002CF0D1A2
:104ADC002546EEE7024804F01DF8BDE8F08100BF62
:104AEC00F80900206C0F0020F0B585B0002302936C
:104AFC000393002944D004460D46234B1B688BB10D
:104B0C0091F82C20896A684608F0A2FC50B90DF186
:104B1C00020302939DF801308DF80C3095F82D307E
:104B2C008DF80D306F6909212046FFF759FB98B1BC
:104B3C002046FFF7E1FB6CB1236803B15B685B684F
:104B4C0029462046984706462046FFF721FC002EB2
:104B5C0007DA03E02346F2E76FF07206284609F005
:104B6C00FEF91FB13146384608F030FC029B4BB1C0
:104B7C00324602A92046FFF785FF012005B0F0BDA3
:104B8C000020FBE70120F9E76C0F002038B5044644
:104B9C0008F0A6FE054620B92046FFF7E1F90368A8
:104BAC002BB108212046FFF7EBFC85B138BD0D4C2D
:104BBC0041F22F4322460C490C4807F0FAFA0C48F4
:104BCC0007F0F7FA41F22F41204607F0E9FA2046A8
:104BDC0008F004FC10F0080FE8D1204608F0A3FC04
:104BEC00E4E700BF50220108A0220108600D010873
:104BFC00800D010838B50446FFF7A8FB00212046BC
:104C0C00FFF7EEFA00283AD18CB323688BB35B68BC
:104C1C008BB39B688BB32046FFF7D2F9B8B10BF07E
:104C2C008EF978B3236803B15B689B680121204639
:104C3C009847051E06DB00212046FFF7A1FC204605
:104C4C0008F05EFE2046FFF7C9FB284638BD0F4C26
:104C5C0041F2D94322460E490E4807F0AAFA0E48F3
:104C6C0007F0A7FA41F2D941204607F099FA00253E
:104C7C00E1E70025DFE70025DDE70025DBE76FF046
:104C8C007705DFE76FF00505DCE700BF5022010870
:104C9C00D4220108600D0108800D010810B558B12F
:104CAC000446FFF753FB09212046FFF79BFC98B104
:104CBC002046FFF793FB10BD094C41F223532246CB
:104CCC000849094807F075FA084807F072FA41F2EA
:104CDC002351204607F064FA204608F011FEE7E75E
:104CEC0050220108580D0108600D0108800D0108C3
:104CFC0010B558B10446FFF729FB09212046FFF7F0
:104D0C00D5FC98B92046FFF769FB10BD094C41F260
:104D1C00305322460849094807F04BFA084807F077
:104D2C0048FA41F23051204607F03AFA204608F092
:104D3C00E7FDE7E750220108580D0108600D010856
:104D4C00800D010810B5044608F0CAFD40B9ACB19D
:104D5C002368ABB15A680B4B9A4205D0002010BDAA
:104D6C00204608F0AAFBFAE72046FFF7EDF9837E10
:104D7C00012B01D00020F2E70120F0E70020EEE744
:104D8C000020ECE7E40A002000283CD0F8B50E46E1
:104D9C00054600293AD00846FBF76CFB0746082865
:104DAC0037D81D4C00E040341C4B9C4211D81B4B97
:104DBC009C421ED2AC42F6D02046FFF7F5F97A1C85
:104DCC00314604300BF03FFC0028ECD16FF077003B
:104DDC0018E0134C41F27C6322461249124807F04A
:104DEC00E8F9124807F0E5F941F27C61204607F03A
:104DFC00D7F92846FFF7D8F97A1C314604300BF066
:104E0C0095FC0020F8BD6FF0150070476FF0150091
:104E1C00F8E76FF05A00F5E7880A0020C80A00206E
:104E2C0050220108D8220108600D010888150108DC
:104E3C0010B584B004460023019302938DF80C3016
:104E4C00FFF780FF78B92CB123681BB15A68154B5A
:104E5C009A4212D09DF80430CBB101A92046FFF73D
:104E6C0093FF04B010BD104A1368591C11600F4A0F
:104E7C00082101A806F062FDECE70D4A1368591CE5
:104E8C0011600C4A082101A806F058FDE2E70A4A15
:104E9C001368591C1160094A082101A806F04EFD3F
:104EAC00DBE700BFE40A0020600F0020F8220108B5
:104EBC005C0F002000230108580F00200823010874
:104ECC0038B54FF0FF324FF0FF33294803F00AFD9D
:104EDC0009F03CFB274C002501E001354034264B02
:104EEC009C4216D8244B9C4223D22046FFF75CF9F7
:104EFC000023436083600373204608F0FDFB2046CB
:104F0C00FFF752F90379002BE7D12046FFF790FF0A
:104F1C00E3E71A4C41F2037322461949194807F08A
:104F2C0048F9194807F045F941F20371204607F09A
:104F3C0037F94DB10F4A9B1AB5EB931F08D1284690
:104F4C00FEF7FCFFFFF7E4FB094803F0E3FD38BD77
:104F5C000A4C41F2237322460C490A4807F029F9FE
:104F6C000B4807F026F941F22371204607F018F997
:104F7C00F8090020880A0020C80A002050220108E5
:104F8C0080220108600D0108881501081023010812
:104F9C00800D010810B5124C00E04034114B9C42BE
:104FAC000CD8104B9C4219D203212046FFF718F95C
:104FBC000028F2D12046FFF71DFEEEE70A4C41F225
:104FCC003B73224609490A4807F0F3F8094807F0F1
:104FDC00F0F841F23B71204607F0E2F810BD00BF3B
:104FEC00880A0020C80A00205022010880220108EB
:104FFC00600D010888150108004870472C23010832
:10500C00004870472823010808B54FF0FF320121F2
:10501C0001480BF0B0F808BDC40F0020A0B1036824
:10502C000BB1188B704710B5084C4FF49B6322469C
:10503C000749084807F0BDF8074807F0BAF84FF4DD
:10504C009B61204607F0ACF800207047280D010842
:10505C00840D0108600D0108800D0108F8B50446A7
:10506C000D461E4690F83370C7F30217806988B15D
:10507C00FFF7D4FF012F0FD0A369ABB11B68ABB105
:10508C005A680B4B9A420DD02846801BA84228BF69
:10509C002846F8BD0020EDE7B0F5107F38BF4FF47F
:1050AC001070F2E70E30F0E72846EEE72846ECE702
:1050BC00E40A002010B518B1006888B1103010BD9A
:1050CC000F4C40F2354322460E490F4807F071F859
:1050DC000E4807F06EF840F23541204607F060F8B4
:1050EC00074C40F2364322460949074807F061F85D
:1050FC00064807F05EF840F23641204607F050F8BB
:10510C00280D0108580D0108600D0108800D0108DB
:10511C00840D010808B50146014808F0E5FE08BDFC
:10512C00200A002008B50146014808F0DDFE08BD44
:10513C00540A002010B544680548844203D0084640
:10514C00FFF7F0FF10BD0846FFF7E4FFFAE700BFDA
:10515C008C09002070B582B0044616461D460BF033
:10516C00C6F808B10026354632462B4601A9204622
:10517C0003F066FAA8B9019D3C22002128460BF0E9
:10518C00E3FA0123EB616C60074B9C4205D0284687
:10519C0008F041FF019802B070BD012385F838304A
:1051AC00F5E70020F7E700BFAC090020F8B504468E
:1051BC0015460E4629B922B990F8333013F0700F0A
:1051CC002ED00BF094F818B100220023CDE9062361
:1051DC00204608F0F3FE0746F0B994F833102A463F
:1051EC00C1F30211204608F022FD3B462A46311835
:1051FC002046FFF733FF014662680C4B9A420DD0F4
:10520C000B48DDE9062308F0C3FD014650B12046EA
:10521C0008F015FF0020F8BD0020E6E70548F0E790
:10522C000020F8E76FF00B00F5E700BFAC09002099
:10523C00200A0020540A00202DE9004884B0DDE942
:10524C0006BCCDE902BC009313460A46014603484E
:10525C0008F005FF04B0BDE8008800BFAC090020D1
:10526C002DE9004884B0DDE906BCCDE902BC009311
:10527C0013460A460146034808F0F1FE04B0BDE8A7
:10528C00008800BF8C09002008B90F20704710B5AA
:10529C00064CBB2322460649064806F08AFF064800
:1052AC0006F087FFBB21204606F07AFF5023010849
:1052BC007C230108600D0108800D010808B5A822A7
:1052CC00024B02FB003009F02CF908BD580B0020F2
:1052DC00072800D90020014B185C704754240108A2
:1052EC002DE9F04188B00025002D02DD08B0BDE8A5
:1052FC00F081E8B2FFF7C8FFA0F11006A82405FB67
:10530C0004F4DFF8488004EB080738460AF000FF85
:10531C00203404EB08004FF4C8630D4903FB05115E
:10532C004FF0FF324FF0FF33CDE9062300230493F7
:10533C000396029301930097064B4FF4C06204F05E
:10534C0079FB08B10AF0DEFF0135CDE7580B0020E0
:10535C008043002037E500082DE9F04182B0074674
:10536C00884615464FF0FF324FF0FF331A4803F0D2
:10537C00B9FA1A4B1C686FF001061BE0637C6A7863
:10538C00934200D003BBA36813B1BA6993421BD1FB
:10539C006668E36800932B46424639462046B04780
:1053AC00061E11DA0C4803F0B5FB304602B0BDE81E
:1053BC00F0811C46002CF5D094F810C02B789C453D
:1053CC00DCD02346002CF4D02368002BF1D0002C29
:1053DC00EFD12346EDE700BF0C0A0020DC0F0020C4
:1053EC0000B310B5044603B3002020606060A060D9
:1053FC00E06020616360217462744FF0FF324FF003
:10540C00FF330B4803F06EFA0A4B1A6822601C60DB
:10541C005B6823B1064803F07DFB002010BD054BF3
:10542C005C60F7E76FF0150070476FF01500F5E75B
:10543C000C0A0020DC0F002020B1B0F85E00C0F395
:10544C00C020704710B5084C4FF4D2732246074960
:10545C00074806F0AEFE074806F0ABFE4FF4D271DB
:10546C00204606F09DFE00BF5C2401089024010834
:10547C00600D0108800D010810B520B190F9600095
:10548C00FFF756F910BD084C40F2C72322460749D6
:10549C00074806F08EFE074806F08BFE40F2C72147
:1054AC00204606F07DFE00BF5C2401089024010814
:1054BC00600D0108800D01082DE9F04F89B00593AE
:1054CC00846990F83360C6F30216731EDBB2012BAD
:1054DC0000F2E080074688461546112A23D04FF08B
:1054EC000009CA46CDF8009053464246314638462C
:1054FC0009F091F8002800F0D180012E1AD04FF05D
:10550C00000BCDF810B04FF0FF324FF0FF33654871
:10551C0003F0E8F9644B1C68002307934FF0FF324B
:10552C000692039328E0059B1B68B3F800A0B3F820
:10553C000290D7E7D8F8003003F1100B584609F069
:10554C0012F8049010B14FF0000BDCE759462046DE
:10555C00FFF776F983460028D5D10490D3E7BB69D1
:10556C000293A069FFF788FF029B83420CD023466D
:10557C0024680CB1002B5FD0002C5FD0A06918B14F
:10558C00FFF75AFF0028EAD194F822300BB19E4263
:10559C00EDD1228CAA42EAD1022BE8D8E3880BB1D8
:1055AC005345E4D1E3890BB14B45E0D194F823305A
:1055BC00029313F0020F07D00123221D41463846F7
:1055CC0008F0E5FF0028D2D0029B13F0040F08D09E
:1055DC00002304F10C024146384608F0D8FF00289D
:1055EC00C5D0029B03F07803069A9A42BFDA049A5C
:1055FC001AB91BB206930394B9E74FF47A720023DD
:10560C00384608F017FF029068B163699C46E3695D
:10561C000093059B424602992046E047022807D09A
:10562C00049B0793A3E71F4803F074FA022032E0AF
:10563C00029808F094FCF3E71C469DE7039B9BB192
:10564C005C69DD69174803F065FA049B0BB1079B95
:10565C006BB98CB10095059B424639460398A0471F
:10566C00022818D0002016E0039D0024EAE73846F3
:10567C0008F075FC00200EE0049B8BB9BBF1000F09
:10568C0001D0022007E003221146384609F0CAF87F
:10569C00022000E0022009B0BDE8F08F0220FAE7FA
:1056AC000220F8E7E4090020E40F0020104A002350
:1056BC00136053600F4A13605360002B03DD704777
:1056CC000B4A54600EE010B403EB8302D1000A487D
:1056DC000C18074AD2F800C040F801C01460526898
:1056EC00002AEDD00133002BEEDD10BC704700BF5B
:1056FC00EC0F0020E40F0020F40F002008B5034B42
:10570C00002208210248FFF76BFE08BDDBE600080B
:10571C001C100020F0B585B004460D4602AB00937A
:10572C000823019390F83330C3F30213022B09D0F2
:10573C001E4F6946204608F0C9FE064690B3A36882
:10574C00002204E01A4FF4E7198A0A445B68002B24
:10575C00FAD194F83230D21A92B294F83630D21A76
:10576C0093B2C2F3072242EA0322B2803946A069FF
:10577C0008F0AAF800B965B11121204608F0DBF950
:10578C00034660B1F38094F8343043F0080384F896
:10579C0034306946204608F0BDFE05B0F0BD4FF62A
:1057AC00FF73EFE76FF06800F7E700BF0100400000
:1057BC0000044000F8B505460C4690F83330C3F3AE
:1057CC000213022B13D01F4F2146284608F07EFEF1
:1057DC00064670B12146284608F09CFE48B9B388AD
:1057EC00190241EA132189B2AC68002307E0164F75
:1057FC00EAE700242046F8BD228A13446468002C92
:10580C00FAD195F832209B1A95F836209B1A9942BA
:10581C00F0D13946A86908F05DF888B1F3883BB936
:10582C0095F83330C3F30213012BE3D13446E1E78F
:10583C001121284608F07FF90028DBD13446D9E73E
:10584C003446D7E7010040000004400038B5054657
:10585C00002401E00134E4B26B78A34216D328781B
:10586C0020441F28F6DC01238340094A526933EA9D
:10587C000202EFD1064A5361064B53F83020002A3E
:10588C00E8D003EBC00359689047E3E738BD00BF8D
:10589C00003C014030100020002399420ADD10B476
:1058AC0000EB030C044C04F80C2001339942F7DC98
:1058BC0010BC7047704700BF6C08002008B502464A
:1058CC00054B185601239340044A11680B4313608F
:1058DC0006F0F7FD08BD00BF6C080020003C01403D
:1058EC001F2806DC0122824002490B6823EA0203CE
:1058FC000B607047003C014003292ED8DFE801F013
:10590C00020E192401228240144B996821EA0201EB
:10591C009960D96821EA0202DA607047012282405C
:10592C000E4B996811439960D96821EA0202DA603A
:10593C00704701228240094BD9681143D96099689C
:10594C0021EA02029A60704701238340034A91685E
:10595C0019439160D1680B43D3607047003C014000
:10596C0010B40D4B53F830308B4209D08BB90A4B25
:10597C0043F8301003EBC0035A60002010BC704792
:10598C00054C04EBC00CDCF804409442EED1002032
:10599C00F4E76FF00F00F1E730100020034B00220A
:1059AC0043F8302003EBC0035A60704730100020DE
:1059BC000C4B1B6813F0020F09D10A4A136843F011
:1059CC0001031360074B1B6813F0020FFAD0054A52
:1059DC00936823F003039360024B9B6813F00C0F46
:1059EC00FAD17047003802400C4B1A6842F48022FE
:1059FC001A601A6842F480321A60084B1B6813F460
:105A0C00003FFAD0054A536F43F001035367034B31
:105A1C005B6F13F0020FFAD0704700BF00380240E2
:105A2C0010B5144B9B6803F00C03082B1AD0114CC7
:105A3C00236823F080732360636823F4403363602E
:105A4C00636823F0706343F0E063636000F0FAF87E
:105A5C00236843F080732360064B1B6813F0007FB0
:105A6C00FAD010BDFFF7A4FF024A936823F0F003AD
:105A7C009360DCE70038024039B133B1B0FBF1F090
:105A8C0002FB00F0B0FBF3F0704710B5054C5B2344
:105A9C0022460549054806F08CFB5B21204606F0A2
:105AAC007FFB00BFD424010818250108600D0108F4
:105ABC00F8B50C461546394B1E680421304609F0E2
:105ACC00A7F907460221304609F0A2F92368442BB6
