:020000040800F2
:10000000407D00205D5700088551000849570008D1
:1000100049570008495700084957000800000000E8
:100020000000000000000000000000009D580008D3
:10003000495700080000000069580008DD7D0108EC
:10004000255A0008255A0008255A0008255A000894
:10005000255A0008255A0008255A0008255A000884
:10006000255A0008255A0008255A0008255A000874
:10007000255A0008255A0008255A0008255A000864
:10008000255A0008255A0008255A0008255A000854
:10009000255A0008255A0008255A0008255A000844
:1000A000255A0008255A0008255A0008255A000834
:1000B000255A0008255A0008255A0008255A000824
:1000C000255A0008255A0008255A0008255A000814
:1000D000255A0008255A0008255A0008255A000804
:1000E000255A0008255A0008255A0008255A0008F4
:1000F000255A0008255A0008255A0008255A0008E4
:10010000255A0008255A0008255A0008255A0008D3
:10011000255A0008255A0008255A0008255A0008C3
:10012000255A0008255A0008255A0008255A0008B3
:10013000255A0008255A0008255A0008255A0008A3
:10014000255A0008255A0008255A0008255A000893
:10015000255A0008255A0008255A0008255A000883
:10016000255A0008255A0008255A0008255A000873
:10017000255A0008255A0008255A0008255A000863
:08018000255A0008255A000869
:08018800FFFFFFFFFFFFFFFF77
:1001900001F0FF01102A2BDB10F0070F08D010F838
:1001A000013B013A8B422DD010F0070F42B3F6D13C
:1001B000F0B441EA012141EA014122F007047FF055
:1001C00000070023F0E80256083C85EA010586EAAC
:1001D000010685FA47F5A3FA87F586FA47F6A5FAE8
:1001E00087F68EB9EED1F0BC01F0FF0102F00702F4
:1001F00032B110F8013B013A83EA010313B1F8D19F
:100200000020704701387047002D06BF354603387F
:10021000073815F0010F07D1013015F4807F02BFB8
:10022000013015F4C03F0130F0BC0138704700BF09
:100230007BB972B90029BEBF00204FF0004106E033
:1002400008BF00281CBF6FF000414FF0FF3000F0E6
:1002500057B8ADF1080C6DE904CE002909DB002B7D
:100260001ADB00F04FF8DDF804E0DDE9022304B00A
:100270007047404261EB4101002B1BDB00F042F86C
:10028000DDF804E0DDE9022304B0404261EB410106
:10029000524263EB43037047524263EB430300F067
:1002A00031F8DDF804E0DDE9022304B0404261EBFF
:1002B00041017047524263EB430300F023F8DDF83D
:1002C00004E0DDE9022304B0524263EB43037047CC
:1002D00053B94AB9002908BF00281CBF4FF0FF31AD
:1002E0004FF0FF3000F00CB8ADF1080C6DE904CE12
:1002F00000F008F8DDF804E0DDE9022304B07047FF
:10030000704700BF2DE9F04786468C460846089E98
:10031000154674461946002B40F0C2808542B2FA59
:1003200082F245D94AB1C2F1200300FA02FC2EFA4A
:1003300003F3954043EA0C0C94404FEA154EA8B2E3
:10034000BCFBFEF8230C0EFB18CC08FB00F943EABB
:100350000C43994528D9EB1808F1FF3704D2994589
:1003600002D9A8F102072B44A3EB0903A4B2B3FB03
:10037000FEFC0EFB1C330CFB00F044EA0344A042DD
:1003800014D92C190CF1FF3304D2A04202D9ACF1DC
:1003900002032C44241A43EA07401EB1D440002330
:1003A00034607360BDE8F0874746DDE76346F1E7F8
:1003B00092BB431B01214FEA154EAFB2B3FBFEFCCB
:1003C000200C0EFB1C330CFB07F840EA0343984556
:1003D00062D9EB180CF1FF3004D2984502D9ACF188
:1003E00002002B44A3EB0803A4B2B3FBFEFC0EFBFC
:1003F0001C330CFB07F744EA0344A7424ED92C19DF
:100400000CF1FF3304D2A74202D9ACF102032C4411
:10041000E41B43EA0040C0E7C2F1200320FA03F1E5
:10042000954090402EFA03F303434FEA154EAFB2C6
:10043000B1FBFEFC0EFB1C10190C0CFB07F841EA8B
:100440000041884504FA02F422D969180CF1FF3002
:1004500004D2884502D9ACF102002944A1EB08017D
:100460009BB2B1FBFEFC0EFB1C110CFB07F743EA31
:1004700001439F420ED9EB180CF1FF3104D29F4289
:1004800002D9ACF102012B44DB1B41EA004192E7A7
:100490006046E3E76146F7E76046A3E76346B7E7F0
:1004A000834206D916B9002108467BE7C6E900E079
:1004B000F9E7B3FA83F78FB9834201D3724508D8BD
:1004C000BEEB020460EB030301209C461EB9002131
:1004D00068E73846FAE7C6E9004CF8E7C7F1200CB0
:1004E000BB4022FA0CF41C432EFA0CF120FA0CF358
:1004F000B84001434FEA14490EFA07F5B3FBF9F887
:100500001FFA84FE09FB18300B0C08FB0EFA43EAB5
:1005100000439A4502FA07F240D9E31808F1FF3088
:1005200004D29A4502D9A8F102002344A3EB0A039E
:1005300089B2B3FBF9F809FB183308FB0EFE41EA58
:1005400003418E452CD9611808F1FF3304D28E4542
:1005500002D9A8F10203214443EA0040A0FB02981B
:10056000A1EB0E014145CE46434602D306D14D458F
:1005700004D2B9EB020E68EB04030138002EA6D0BA
:10058000B5EB0E0261EB030101FA0CFC22FA07F352
:100590004CEA0303F940C6E9003198E74046C5E755
:1005A0004346D9E710F8012B11F8013B012A28BF77
:1005B0009A42F7D0D01A7047034611F8012B03F87E
:1005C000012B002AF9D17047034613F8012B002AAA
:1005D000FBD1181A013870472DE9F04704468AB05C
:1005E0008846174622F0B2F80A220023FFF770FE71
:1005F000B8F1010F06460D4608D1CDE900012A4A9F
:10060000082120461BF0A4FF002012E07F68274845
:100610003946FFF7C7FF78B125483946FFF7C2FFD3
:1006200050B12046234A3B4601211BF091FF6FF059
:1006300004000AB0BDE8F0873046294618A3D3E984
:100640000023FFF7F5FD06460D46104619461A4AE7
:100650000023FFF7EDFD80460F46104619464EF683
:1006600060220023FFF7E4FD8246894610461946C2
:100670004FF47A720023FFF7DBFDCDE904A9CDE941
:100680000601CDE90823CDE90287CDE900650B4AD3
:10069000082120461BF05CFFB6E700BFAFF30080E7
:1006A000005C2605000000008B5402089C540208E0
:1006B0009F540208A854020880EE3600BF54020876
:1006C000012870B50C4607D022F0AEFC1C4B162258
:1006D0001A504FF0FF3070BD8A681A4B9A42F3D817
:1006E00022F034F8184D23686668A468A3FB05322D
:1006F00005FB0622154D1B1942EBE474A0FB050215
:10070000181A05FB012164EB01010BA3D3E90023B7
:10071000FFF78EFDEFF31184102383F31288BFF3EC
:100720006F8F0B4BC3E900019A6084F31188BFF30C
:100730006F8F0020CFE700BF00CA9A3B0000000087
:100740000C000000FFC99A3B00CA9A3BA08601003A
:1007500098170020000000002DE9F04F0F468FB0E1
:100760000023042408A93846CDE90834CDE90A332A
:10077000CDE90C3316680FF01BFA054620B96FF06F
:1007800004000FB0BDE8F08F214638461FF0B5F8E1
:1007900038461FF0EFF9032822D907A938461FF081
:1007A00088F90028EBD117F0DDFB079B3449DFF80F
:1007B000D490C31AB3FBF1F801FB18310793A1FBE6
:1007C00009012DA3D3E90023FFF782FD2E4B2F4A09
:1007D00009FB08001021B0FBF3F30AA819F00CFB89
:1007E0007488DFF8AC807B8FD8F8609064BAA4B2CC
:1007F000E41A043C06F10C0106F1100A0AAF0120CC
:10080000B9F1000F1FD00DF003FF514683460120C0
:100810000DF0FEFE0497337A03936B881D4ACDF8E2
:1008200000B05BBA9BB2CDE90103082123464846DC
:100830001BF08EFE6B88D8F864205BBA9BB29342A3
:1008400016D000209DE70DF0E3FE514681460120C1
:100850000DF0DEFE0297327A0192698849BA89B2B8
:10086000034600910B484A4621461AF00DFFE1E786
:10087000074809F0D5FCE4E7007A030A000000000D
:10088000007A030A00CA9A3B40420F008D88020892
:10089000D81C0020988802082DE9F04F0F468FB031
:1008A0000023042408A93846CDE90834CDE90A33E9
:1008B000CDE90C3316680FF07BF9054620B96FF0CF
:1008C00004000FB0BDE8F08F214638461FF015F840
:1008D00038461FF04FF9032822D907A938461FF0E0
:1008E000E8F80028EBD117F03DFB079B3449DFF80F
:1008F000D490C31AB3FBF1F801FB18310793A1FBA5
:1009000009012DA3D3E90023FFF7E2FC2E4B2F4A68
:1009100009FB08001021B0FBF3F30AA819F06CFAE8
:10092000B488DFF8AC807B8FD8F8609064BAA4B24A
:10093000E41A043C06F1080106F1180A0AAF022085
:10094000B9F1000F1FD00DF063FE5146834602201F
:100950000DF05EFE0497F37903936B881D4ACDF882
:1009600000B05BBA9BB2CDE901030821234648469B
:100970001BF0EEFD6B88D8F864205BBA9BB2934203
:1009800016D000209DE70DF043FE5146814602201F
:100990000DF03EFE0297F2790192698849BA89B258
:1009A000034600910B484A4621461AF06DFEE1E7E6
:1009B000074809F035FCE4E7007A030A000000006C
:1009C000007A030A00CA9A3B40420F008D88020851
:1009D000D81C00209888020808B50848036803F06E
:1009E0000703022B03D9064A03211BF0A5FB00F0E5
:1009F000C1FBBDE8084000F06DBD00BF6C0A0020DF
:100A00006A4B020810B504460B48036803F007035D
:100A1000022B03D9094A03211BF08EFB084B01224C
:100A20001A700CB123681C8B064B1C619C63064832
:100A3000BDE8104017F014BF6C0A0020764B020886
:100A4000063F002008000020840C002008B5104B51
:100A50000B401046DBB90F4B994203D1BDE808406B
:100A6000FFF7D0BF0C4B994211D10C48036803F03B
:100A70000703022B03D90A4A03211BF05DFB094B34
:100A800000221A700848BDE8084017F035BF08BDBD
:100A9000FCFFEB0E010014F1020014F16C0A0020BF
:100AA000884B0208063F0020840C00202DE9804876
:100AB000DFF8C88183B0D8F8003003F00703022BB9
:100AC00000AF04D96E4A032140461BF035FB6D4848
:100AD0006D4B43606D4B03610DF06EFF16F066FACF
:100AE0006B486C4B43606C4B03610DF065FF00F08D
:100AF000C3FA22F099FA694B18584FF0FF3118F0F9
:100B000041FC674E6748684D4FF0FF324FF0FF33AE
:100B100017F0CCFE33E03368012145F8332005EBB4
:100B2000C3020B44918033607BE000F09B80B5F9F9
:100B30000630002B00F09680286839461CF057FDDF
:100B4000D8F800305B0740F18D80EB4688B06A46EC
:100B5000564B5361564B9361032342F8103F47486D
:100B600023464FF4C85101F023FEDD467AE000F041
:100B7000F1FA99F8003000EAE074002B54D0DFF865
:100B8000349199F8003023B1FFF726FF002389F84C
:100B90000030D8F8003003F00703022B04D9464A8E
:100BA000364803211BF0C8FA00F04EFC041E39DB66
:100BB00000F07CFA041E35DB0021084631601CF091
:100BC00014FD33683D49286005EBC3024C680120E1
:100BD0009080002C03EB0002326006DB45F83240C7
:100BE00005EBC2020233908033608A69002A08DB79
:100BF0003368012045F8332005EBC302034490809D
:100C00003360CA6A002A08DB3368012045F83320C4
:100C100005EBC3020344908033600A6C002ABFF6E0
:100C20007AAF0024DFF898A09AF80030F3B1ECB95D
:100C300031681D484FF0FF321CF006FE0028BFF659
:100C400074AF204B1A786AB901211970D8F80030B6
:100C50005A0707D022F0E8F91B4B1B581B4A0748DC
:100C60001BF073FA00F026FC002880DA99F80030B7
:100C7000002B84D1FFF7B0FE44E700BF6C0A0020D0
:100C80009D4B0208D42500204D0A0008030014F1F2
:100C9000C025002035B20108150060E00800000002
:100CA000E8250020840C0020EC250020CA4B020817
:100CB000E64B0208053F0020AD4B0208080000206B
:100CC000063F0020043F00200C000000B94B020842
:100CD00010B5084904460022483021F07EFD06493F
:100CE000002204F1100021F078FD2046BDE81040FC
:100CF00021F0CCBE050E00083DB2010830B5124D02
:100D000085B00446042103A805F0BEFB039A2B68B6
:100D1000B2FBF3F103FB1122A260002AF2D0236997
:100D20009A42EFD80949606800231CF09BFD606976
:100D3000483000220023CDE90023054A002318F0A3
:100D4000A7FE05B030BD00BF083C02080C4C0208ED
:100D5000A08601002DE9F04792B03822002103A8B7
:100D600022F094F8224E234FDFF88C80DFF88C902D
:100D7000079601238DF819308DF82D300C978DF8DA
:100D80004130CDF844804FF0140A4FF0FF324FF05D
:100D9000FF33032103A818F0E5FE03AC002520690A
:100DA00002AA01A921F07AFE019B2BB90135032D7E
:100DB00004F11404F3D1E8E7206921F06CFE12ABD2
:100DC0000AFB053353F8302C6FF3943243F8302C80
:100DD0002369B34209D0BB4203D10948FFF78EFF14
:100DE000E4E74345E2D14846F8E712B0BDE8F087B2
:100DF00014260020A80D0020280D0020300000201F
:100E000008000020B0B5134AA0F148045169124807
:100E100002F12803A14208BF13460268520700AF3F
:100E200012D06D4688B01B686A460C49C2E90513AA
:100E30004FF4007393830A4B42F8103F00234FF4A2
:100E4000E25101F0B5FCAD4620461AF0F4F9BD467A
:100E5000B0BD00BF080000206C0A002097500208B7
:100E600003000001F0B50D4685B0044602AF2888A6
:100E70001646022111221CF003FD0028606024DACE
:100E8000234E244D336813F0070F17D022F0CCF80F
:100E900021682B586C468AB002AA1F48D3614FF4D0
:100EA000007313841D4BC2E9050142F8103F002373
:100EB0004FF41151304601F07BFCA54622F0B4F806
:100EC000285840420C37BD46F0BD2B88022B08D174
:100ED00001237B60042300934822FB1829211CF086
:100EE000C9FC6068324629461CF0B2FC0028E9DAE9
:100EF000074E084D336813F0070FDFD022F094F847
:100F000021682B586C468AB002AA0548C6E700BF84
:100F10006C0A00200C000000B85002080400000118
:100F2000DD500208F0B583B0494902AF04464023C2
:100F300040684FF4A0621CF08DFC051E00F0858017
:100F400009DA22F071F8434B18580B2836D040428A
:100F50000437BD46F0BDA3689D4231D03E480368CA
:100F60005A0712D06E4688B0236802AA3B49C2E9EC
:100F700005134FF400739383394B42F8103F00235D
:100F80004FF4E25101F014FCB5463348036813F006
:100F9000060F13D023686C468AB002AA3149D56186
:100FA000C2E905134FF4007313842F4B42F8103F2E
:100FB00000234FF4125101F0FBFBA5460020C7E7C8
:100FC0002A4923482A4621F0A5FD48B12248036852
:100FD0005B07DAD06E4688B0236802AA2449C6E7C8
:100FE000E1684FF47A720131B1FBF2F302FB1313A3
:100FF000E1607BB16069483021F0FBFB6069103033
:1010000000220023CDE9002340F2DC52002318F037
:101010003FFDD3E71048026802F00702022AE9D92F
:101020006D468AB0266802AADFF848C0D1614FF445
:10103000007111840C49C2E905C642F8101F4FF433
:10104000135101F0B5FBAD46D4E76FF004007FE724
:10105000073F00200C0000006C0A0020035102082A
:101060000300000149510208040000010C4C020871
:101070002B5102087F51020838B5084D084C28460C
:10108000FFF726FE6561074D2846FFF721FEE56361
:101090000548BDE8384021F0F9BC00BFA80D00208C
:1010A00008000020280D00201426002030B591B043
:1010B0001E4B1F490A930BAA02201CF0C7FB1D48B8
:1010C00018220AA9FFF7CEFE041E2BDB1A4D1B4B7C
:1010D0001B49089309AA01201CF0B8FB082208A9A3
:1010E0002846FFF7BFFE041E1CDB00220023CDE9CB
:1010F000062300234FF0FF32CDE90323CDE901336E
:1011000000931049104B11484FF4006217F000FF94
:101110000F490E4817F028FEE86B1AF08CF8686942
:101120001AF089F8204611B030BD00BF02001092BD
:101130009C5102083000002008000020010010929D
:10114000A851020880470020550D0008280E0020F5
:10115000B251020808B50548FFF7E4FE002804DB99
:10116000BDE808400248FFF7DDBE08BD30000020A2
:101170000800002010B50E4821F03BFB0D4C0E4836
:1011800021F037FBE06A002801DB1CF05BFB0B4819
:1011900021F02FFB0A4821F02CFB6068002801DBBE
:1011A0001CF050FBBDE8104006481AF044B800BFE0
:1011B000380D002008000020700D0020B80D002020
:1011C000F00D002014260020F0B50D4685B0044631
:1011D00002AF28881646012106221CF051FB002888
:1011E000A06124DA234E244D336813F0070F17D083
:1011F00021F01AFF21682B586C468AB002AA1F48BA
:10120000D3614FF4007313841D4BC2E9050142F80A
:10121000103F00234FF41151304601F0C9FAA546A2
:1012200021F002FF285840420C37BD46F0BD2B8804
:10123000022B08D101237B60042300934822FB1872
:1012400029211CF017FBA069324629461CF000FB3F
:101250000028E9DA074E084D336813F0070FDFD096
:1012600021F0E2FE21682B586C468AB002AA05489C
:10127000C6E700BF6C0A00200C000000B95102084C
:1012800004000001DE510208B0B5104C23685B0772
:1012900000AF18D001680E4B21F0C6FE6D468AB033
:1012A0001B586A460B48D3614FF4007313840A4BF2
:1012B000C2E9050142F8103F00234FF411512046C6
:1012C00001F076FAAD46BD46B0BD00BF6C0A002005
:1012D0000C00000004520208040000012DE9F34153
:1012E000144D064604210DEB010005F0CDF8019CDC
:1012F0002B68B4FBF3F203FB1244F461002CF1D031
:101300000023D6F818800C4F33620023224639465A
:1013100040461CF0A7FA051E07DB641B2F44F4D1DE
:101320002546284602B0BDE8F0813046FFF7ACFF05
:10133000F7E700BF083C02080C4C02082DE9F04119
:10134000DFF8E480A0B0044600AF8022A06940230B
:1013500039461CF07FFA021E27D00ADA21F064FE1B
:10136000324B18580B285DD040428037BD46BDE84F
:10137000F081216AE6695518B54219D92C480368ED
:101380005A0712D023686C4688B06A462949C2E9D8
:1013900005134FF400739383274B42F8103F00234B
:1013A0004FF4E25101F004FAA5466FF00400DCE7C7
:1013B0004144384621F0AEFB48B11D4803685B0745
:1013C000F3D023686C4688B06A461C49DFE7B54213
:1013D0002562BAD3616A4FF47A720131B1FBF2F33C
:1013E00002FB13136162CBB91148026802F00702D5
:1013F000022A13D96D468AB026686A46DFF840C0D3
:10140000D1614FF4007111840E49C2E905C642F85A
:10141000101F4FF4135101F0CBF9AD462046FFF7F2
:101420005DFFA2E70020A0E70C4C02080C000000C2
:101430006C0A00202A5202080300000149520208E7
:10144000675202080400000100B589B0134B14492B
:10145000029303AA02201CF0F9F91248182202A9EB
:10146000FFF7B2FE002815DB0F4B1049009301AACD
:1014700001201CF0EBF90E4808226946FFF7A4FE94
:10148000002807DB0748FFF729FF002802DB084890
:10149000FFF724FF09B05DF804FB00BF02001092C3
:1014A0009C5102083000002001001092A85102084F
:1014B0000800002008B50548FFF740FF002804DBBE
:1014C000BDE808400248FFF739BF08BD30000020E2
:1014D0000800002010B5074C206C002801DB1CF030
:1014E000B1F9A069002803DBBDE810401CF0AAB9DF
:1014F00010BD00BF080000202DE9F04F91B0840717
:10150000009302F004030293C2F3C20303F1010348
:10151000DDF86890039205460E46059340F0BA81C7
:10152000041D30B1072909D86FF01B0011B0BDE8C8
:10153000F08F01F00706341DC6F10806009B4FF03E
:101540000008591E4FF0040A4FF0FF330193CDF805
:1015500010804746C34653460DB1009A2260059855
:10156000002800F3E8809848009A824203D3974805
:101570008242C0F0E080039AA4EB050E92074FEA86
:101580009E0000F103810F2F00F2B180002D00F0CA
:10159000058107F140020DEB020C019A0CF8200CBA
:1015A0000CF8102C049801300490E7E07A285DD8FC
:1015B0004B280ED8472859D829282DD8252852D06D
:1015C00054D820287AD02338D0F1000B4BEB000BF5
:1015D00074E04C382E2849D8DFE800F070484848BD
:1015E00048484848484848484B4848484848484878
:1015F0004859484B4B595959704B6D487048184BD6
:10160000184848827F4B48484B487F0000204FF0E5
:10161000000B4FF0040A38E02A38C0B2012202FA67
:1016200000F010EA0E0F49D110F0625C2FD110EAE1
:10163000020B43D06046013C5444B4FBFAF40AFB6D
:1016400004F4002D61D0A3EB050CA444B4453FF68F
:101650006BAF002868D1042B47D159F8043B2360B5
:10166000043404232AE0019A013A01924FF0000B5E
:1016700024E011F8010C6C2834D111F8023C002050
:101680006C2B8346C5D14FF0080A5346D3E709F1C6
:10169000070929F007090734F9E802AB24F0070429
:1016A00035B106982044B0423FF63EAFC4E900ABE6
:1016B00008344FF0000B4FF0080A534611F8010FA1
:1016C000002878D0BBF1000F7FF470AF2528F5D14A
:1016D000019B013301934FF0010B4FF0040AECE73B
:1016E000584694E700208346A5E7082B02D06FF008
:1016F00015001BE709F1070929F00709F9E802239A
:10170000C4E9002308340823D8E768B9042B02D1C0
:1017100009F10409A4E7082BE9D109F1070929F027
:10172000070909F10809EDE7059A013A059259F808
:10173000042B009210E7039A900720D5A4EB050E26
:101740004FEA9E004FF0010CBEF5007FCFD20F2F65
:10175000CDD8F5B107F140020DEB020EC0B2019AEF
:101760000EF8200C0EF8102CBCF1000F3FF41AAF4D
:1017700060F07F000EF8200C08F101080137C5F178
:101780000802043406924FF6DA7E97E74FF0000C19
:10179000DAE7BCF1000F01D00136EFE7029802361C
:1017A0000028EBD10098CDE90631FEF70DFFDDE909
:1017B00006310644E2E7631BB3F5806F97D23DB96B
:1017C000A6F10804E018B1E63C3002083CAB020880
:1017D000029A28609B082B709DF81030C2B1EB7004
:1017E00085F80280B8F1000F05D008A80022C5F1E5
:1017F000010C97420ED1C5F101030DF120094FF004
:10180000000A01930DF1300B574512D1601B8DE694
:101810006B70E5E710F8013B190608D504EB0C0ED8
:10182000B64503F07F033FF67FAE04F8013B01327B
:10183000DFE7B8F1000F03D099F90020002A17DB89
:10184000029BD3B11AF80B2004F8012B0022019B54
:1018500098182044B0423FF667AE99F8000004F8AB
:10186000010B00990392204621F0E8FA039A1444F0
:101870000AF1010A09F10109C6E799F8002055F8B3
:1018800022300093029B45F822300098FEF79CFE20
:10189000421CDCE76FF00D0048E600BF2DE9F04F79
:1018A00097B000AF90F802A0D7F880B03B62CBF3BE
:1018B000C0030446FA62BB61894641B945780078A5
:1018C0000AEB800020444D4517D8A0EB0409E378CB
:1018D000FB61BAF1000F02D01BF0010F16D1FB69BA
:1018E00053BBFB6A1BB13A6A4946204698474D46AE
:1018F00028465C37BD46BDE8F08F461C3046FEF7F3
:1019000063FE0130304409F10109DCE723786268A5
:101910007A62FA6A9900796104EB8301002A40F047
:1019200004814D460E4601EB0A094FF000084E4572
:1019300050D101EB0A0610E01BF0020FD1D0237842
:101940009A007A6162687A62FA6A04EB8301002A7B
:101950007BD14D4601EB0A0690461BF0050F0CBFEC
:1019600002230123FB62FB6906EB430A0BF002032F
:10197000BB625645BCD016F8021B16F8013C54F861
:1019800023909B4B994502D39A4B99453AD3BB6917
:10199000002B44D0786A19F050FE00283FD09648BA
:1019A000036813F0060F13D0E9468AB06A46934BDA
:1019B00053617B6AC2E906314FF400731384904B84
:1019C00042F8103F00234FF4125100F0F1FECD46D3
:1019D000023DCEE716F8013BF96254F82300FEF70A
:1019E000F3FDD7F88430F96A01304BB1D7F888306D
:1019F00098453EBFD7F8843023F8180008F1010855
:101A0000054494E7BB6923B1786A19F016FE0028F3
:101A1000C5D11BF0010F05D1FB6AED1AA9E7BB6A1E
:101A2000002BA6D04846FEF7CFFDD7F8843053B13F
:101A3000D7F8883098453FBFD7F88420431C22F858
:101A4000183008F10108054493E7BAF1000F72D08D
:101A50001BF0040672D0D046002607F1480052461B
:101A60003B61B96221F0EAF9B96A3B6901EB0A020C
:101A7000BA62FA69F9695200FA60BA6A02EB410285
:101A80003A610BF00202BA603A69B96A8A4257D1E8
:101A900062787A621BF0020F32440CBF4FEA5801A1
:101AA00000211BF0010FD2B240F09F801BF0040F09
:101AB00014BF40460020BB616270A070E1703A6ABA
:101AC0007969FB6A20469847051EFFF611AFBB698E
:101AD00023707B6A6370FB69E37041463A6AFB6A74
:101AE00084F802A007F148009847B0F10008C0F25E
:101AF000B5807B693A6AA9EB0A01C91AFB68C91A61
:101B0000D7E90A0398470028C0F2AA80A84408EB46
:101B100000054FF0000B07F1380AB34572D30021DE
:101B20003A6AFB6A08469847E2E656464FF00008D4
:101B300007F1380093E75646D04697E7B04695E759
:101B4000BA6A12F8021BBA6212F8015C284A54F809
:101B50002500904202D3274A90421ED3BA6932B17F
:101B6000786A7B6019F069FD7B6800288CD1BA68BF
:101B700002BB08F1280207F1300C08F1010094447F
:101B800007F1580252FA80F008F102080CF8101C14
:101B90005FFA88F800F8105C76E7BA693AB1786ABB
:101BA0007B6019F04AFD7B6800287FF46DAF1BF065
:101BB000010F09D006F1280207F13000711C161838
:101BC00006F8205CCEB25FE71BF0040F3FF45CAF79
:101BD00008F1280207F1300008F1010102EB0008CA
:101BE00008F8105C5FFA81F84EE7002063E700BF59
:101BF0003C3002083CAB0208340A00208452020840
:101C0000040000011BF80A3087F8373054F823909D
:101C1000D7F88430FBB133F81B803A6AFB6A0121A4
:101C200007F13700984700281ADB0544B8F1000F88
:101C300006D14846FEF7C8FC00F101081FFA88F8F3
:101C40003A6AFB6A414648469847002808DB054443
:101C50000BF1010B61E7D7F88480DEE7454647E6E4
:101C6000054645E6014B1860704700BF580000204C
:101C700080B505460E461746984617F039FC0346D0
:101C800021F0D2F9DFF81890044649F800304246B6
:101C900030463946A84754F8090003F08DFD00BFCF
:101CA0000800000000B521F0BFF9034B16221A50BE
:101CB0004FF0FF305DF804FB0C0000000F2800B56A
:101CC00008D921F0B1F9094B09221A504FF0FF3021
:101CD0005DF804FB30235843054BBFF35B8F1B5863
:101CE000BFF35B8F002BECD00020F1E70C0000006D
:101CF0006400002030B530231049434308330B44BF
:101D0000BFF35B8F1A68BFF35B8FB2B1BFF35B8F1A
:101D1000541E53E8005F954204D143E8004CBCF1E7
:101D2000000FF6D1BFF35B8FEAD1012A05D1302332
:101D300058430A1800230B50536030BD5C0000204C
:101D400038B504461546FFF7B9FF00280BDB094AF2
:101D500059B1302303FB04235B688B4205D021F08B
:101D600063F9054B1D50002038BD30235C431059EA
:101D7000FAE700BF5C0000200C0000002DE9F041F4
:101D8000184E90461F46002435463368984202D1CB
:101D9000736899420BD00134102C06F13006F4D14F
:101DA00021F042F9104B17221A504FF0FF34204611
:101DB000FFF784FF002812DBB8F1000F05D03021B7
:101DC00001FB04510C31C8F8001017B90120BDE81F
:101DD000F081302303FB045520353D60F6E70020F9
:101DE000F5E700BF5C0000200C00000038B5044699
:101DF0001546FFF763FF00280DDB084A30236343D5
:101E0000D0184068086015B10C3313442B603023A0
:101E10005C43105938BD0020FCE700BF5C00002087
:101E200070B54FF0FF331D484FF0FF3219F04CFCF6
:101E30001B4B0025BFF35B8F1A68BFF35B8F82B12A
:101E40000135102D03F13003F4D121F0EDF8154BDD
:101E500017221A504FF0FF35104819F037FC28466A
:101E600070BD30246C43BFF35B8F53E8000F01302B
:101E700043E800010029F8D1BFF35B8F0A4E331904
:101E800032515A6004F10C00304420F023F904F17F
:101E90002000304420F0C4FADEE700BF800B0020B1
:101EA000640000200C0000005C00002030B40446F8
:101EB00030251046084A6C43151911516860EB62D1
:101EC00040B1C36833B10C34131930BC40F2051271
:101ED00019F0E9BB30BC70475C000020F8B505463E
:101EE000FFF7ECFE00281ADB30246C430D4F04F1A1
:101EF0000C063E444FF0FF324FF0FF33304619F0EE
:101F0000E3FB3B1938595B689B68984704463046A9
:101F100019F0DCFB2846FFF7EDFE2046F8BD4FF038
:101F2000FF34FAE75C00002008B50446EFF31183A4
:101F3000102383F31288BFF36F8F1FF0CDFF20466D
:101F400003F028FC024819F09FFB1BF026FBFCE77E
:101F5000385302082DE9F84344690569C76840F21F
:101F60006C73E1170135E41841F10001022D8CBFBB
:101F700000230123E41A61F100010029064607F15C
:101F8000FF3751DA6FF4C77020184FF4C8724FF062
:101F9000000361F10001FEF74BF9264B03FB0044FF
:101FA000D6E90083B6684FEAE37C4FF03C0E9946D1
:101FB0006346C6FB0E93A9FB0EC60EFB0366A30881
:101FC00040F26D1E022D0EFB043302463B448CBFD3
:101FD0006FF00200092064270544B4FBF7F4992050
:101FE0001B1B154C45431CEB080C4FF0050005F17D
:101FF0000205B5FBF0F5A2FB04202B4404FB010114
:1020000046EBE87698180D4A41F1000380180C4A17
:1020100063F10003A0FB020102FB031110EB0C00B3
:1020200041EB0601BDE8F8834FF4C8720023204657
:10203000B1E700BF70FEFFFFB13A02009405F5FF63
:102040008051010010B5FFF785FF024620F0ECFF3C
:102050000B460349002444501046194610BD00BFEA
:102060000C000000034A536823F002035360002071
:10207000704700BF002004E0084B1A6842F48072E9
:102080001A601A6842F400721A601A6842F4806298
:102090001A60034B034A1A6000207047003C02405C
:1020A000B00900200024F4002DE9F047DFF8588043
:1020B000044607464FF0010914B93846BDE8F087D9
:1020C00094FAA4F5B5FA85F509FA05F32E0108EBA3
:1020D00005156FEA030A24EA03042B7B002BEBD0DF
:1020E00058F806301B694BB94644042273682846E9
:1020F000196807EA0A0700F01BFBDDE72846984746
:102100000028D9D1F0E700BF6436020830B5104985
:10211000104889B0002220F060FB0F4D0F490022CB
:102120000023CDE9062300240E23CDE90334CDE9B5
:1021300001440B4B00944FF44072284616F0E8FE21
:102140000849284616F010FE204609B030BD00BFF1
:1021500069210008C0130020F00E0020C04F0020AD
:102160007524000861530208014816F079BB00BFCE
:102170006C0C00202DE9F04780461E480F4619F0F0
:1021800039FF064678B300252846BDE8F087237B53
:102190006BB12368DB680BB12046984723681B6945
:1021A000CBB9636804221968204600F0C1FA0136F1
:1021B00010344C45EBD3B8F1000FE5D0002DE2D040
:1021C0002846FFF771FF0546002FF7D00021642055
:1021D00017F070F9F2E7204698470028E1D00AFA94
:1021E00006F31D43E3E7044CDFF8109005464FF07B
:1021F000010ADEE73426002064360208743602083D
:1022000008B5034608462BB1044A136000F072FD7E
:10221000002008BD6FF01500FBE700BF5C03002045
:1022200010B5044C237813B9034816F019FB0123A9
:10223000237010BD074400206C0C002010B504462C
:10224000084819F0D7FE5CB1BFF35B8F064B53E82B
:10225000001F013943E80012002AF8D1BFF35B8F59
:1022600010BD00BF2C260020302600200020064B89
:10227000BFF35B8F014653E8000F43E80012002ACA
:10228000F9D1BFF35B8F70472C26002070B5FFF7A4
:10229000EDFF084C084E0546B44200D370BD63689C
:1022A0005B792BB123685B6813B1294620469847B8
:1022B0001034F1E7643602087436020810B5044C95
:1022C0000449204619F000FB034B1C6010BD00BF01
:1022D000F00900201C3C020824260020094A0A4874
:1022E00008B500231370094A1360094A4FF47A7144
:1022F0001360FFF785FFFFF7E1FFBDE8084000F03E
:1023000067B900BF084400200FC001082C26002038
:1023100030260020014600220148002319F0F5BABA
:10232000F0090020014819F08BBB00BFF009002024
:10233000024B0146186819F0D7BB00BF24260020C5
:10234000014819F00CBC00BFF00900202DE9F04154
:10235000314B187800285DD0FFF7E4FF044698B1B0
:10236000BFF35B8F2D4B53E8001F013943E8001288
:10237000002AF8D1BFF35B8F294DDFF8A8804545CF
:1023800026D32046FFF7D4FF274B284C1B68002B91
:1023900012DD20F0DBF90A220023FDF799FFD4E9D2
:1023A0000032C01A40F2E93361EB0201984271F148
:1023B000000101D3FFF76AFFD4E9003213F57A7305
:1023C00042F10002C4E90032BDE8F041FFF7B8BFB6
:1023D0006B685B793BB121784B0706D52B682146AA
:1023E0001B68284698471035C9E720462688C1F360
:1023F000C20700F0BDFAC6F382160246002EEDD0E9
:102400000028EBDB01233946284600F0ABF9B04247
:10241000E9D3E3E7BDE8F08107440020302600203F
:1024200064360208743602082C260020B8130020F7
:1024300070B50D4D297861B90120FFF79BFE0B4C5B
:102440000B4EB44206D3FFF781FF0028FBD10123D6
:102450002B7070BD63685B791BB1236820469B6855
:1024600098471034EDE700BF0844002064360208A6
:102470007436020800212DE9F0470846FFF77AFE7E
:10248000044658B34FF4FA784FF0000920F0CCFD21
:102490001B4B1C4A1B58136033B11B4B1B68092B89
:1024A00002DD1A4816F0DCF9194FDFF860A00025AC
:1024B00044B12046FFF7F8FD044618B94FF0FF3845
:1024C0004FF0FF39FFF742FF064628B9B5B942463B
:1024D0004B46504616F0EAF93546E9E74FF0FF382B
:1024E0004FF0FF39D2E72B689B691BB100221146E0
:1024F000284698471035BD42F5D3E8E7054DFAE781
:102500000800000028260020302600206C0C002047
:10251000743602086436020813B5184819F06AFDCB
:10252000174B1B7873B1EFF31184102383F31288D8
:10253000BFF36F8FFFF70AFF84F31188BFF36F8F2C
:1025400002B010BD0F4B1B68002BF9D050B9002210
:102550000023CDE900230C4842F21072002317F04B
:1025600097FAEDE70928EBD1074820F042F9074830
:1025700002B0BDE8104016F073B900BF302600204D
:102580000844002028260020C01300206C0C0020E6
:1025900010B5064B1B68044698472146A0600448C6
:1025A00019F02FFABDE81040FFF7B6BF5C0300201A
:1025B000F0090020044A054B9B1AB1EBD30F34BF3E
:1025C00052F8310000207047EC34020864360208EB
:1025D0000B480C4B30B51B1A0B4CDB0800210430A8
:1025E000994200D130BD10F83120256802F0070271
:1025F00025F007052A4344F8042B0131F0E700BF1A
:10260000EC34020864360208340A0020F8B50B4F97
:102610000B4DED1B0646ED080024AC4203D14FF0F4
:10262000FF342046F8BD57F8340020B13146FDF79D
:10263000B9FF0028F5D00134EFE700BFEC34020801
:102640006436020800282DE9F047884615461F46E3
:102650001DDADFF89890264E4FF0000AA6EB090627
:1026600036095446B24509F1100902D12046BDE8A9
:10267000F08759F80C0C3B4600792A464146FFF793
:10268000E1FF844238BF04460AF1010AEAE7194B28
:10269000194AD21AB5EBD20F26D203EBC5031C7927
:1026A000BC4228BF3C46154EC0B200EB400056F875
:1026B00025300722824023EA020304F00702824009
:1026C00013430021032223FA02F000F007008142A5
:1026D00002F1030238BF01461E2AF4D123F007039A
:1026E0000B4346F82530C1E70024DCE764360208D6
:1026F00074360208EC34020864360208340A0020FA
:10270000F8B5094D094BED1A06460F46ED080024B1
:10271000AC4200D3F8BD002122B23B463046013422
:1027200019F090FCA4B2F3E764360208EC34020816
:1027300038B50B4BC31A0D461B11114642680133C5
:102740001371436804469971FFF7DAFF63681D60EF
:10275000636801225A71BDE83840FFF761BD00BFD0
:102760006436020870B14168097973B1002A17DB39
:10277000CBB20C4951F8220003EB4303D84000F0E0
:10278000070070474FF0FF31EFE707490748401A4D
:10279000B2EBD00F3ABF01EBC2010879184670477F
:1027A00004207047340A0020EC3402086436020822
:1027B0002DE9F04F8FB004AFC1F34A28B8600D4641
:1027C00091467B600C0DB8F1000F67D0002607F131
:1027D00014034FF0040B4FF00A0AC7F80C80C7E946
:1027E00007667E620193CDF808B0CDF800A007F12E
:1027F0001C03F96832464846FFF750F8B0F5006F01
:10280000034620D32A48036813F0060F17D06C46FE
:102810008AB0D9F8041004AB264DC3E9055140F243
:10282000FF71D9611A464FF400711984224B42F8A6
:10283000103F4FF412513346FFF7BAFFA5462C372D
:10284000BD46BDE8F08FC0F30A0804F11700184434
:1028500020F0070080083B60FFF75CFD68F353251C
:10286000044690B13B68154AC7E9083600F11001EB
:1028700007F11403F961CDE900A3CDF808B0F968B8
:1028800007F11C034846FFF709F868F353257B68F6
:10289000B9682A46204619F0FFFBD0E704F117007B
:1028A00020F007008008FFF735FD0446EDE700BF84
:1028B000480A002076530208040000016DC0010898
:1028C0002DE9F04F87B0DDE91279DDE9105A0446B1
:1028D000039193469846DFB1CDF800903B465246AF
:1028E00010210020CDF81490FEF706FEB0F5006F21
:1028F00006460ED31C48036813F0060F30D01B4A5F
:1029000040F2FF73022107B0BDE8F04F19F01DBC83
:102910003E4605F11700304420F0070004F007049C
:102920008008FFF7F7FC0BF0070BE40044EA8B1478
:1029300044EA462444EA0554054640B13FB1CDF887
:1029400000903B46524631461030FEF7D5FD0399C4
:1029500043462246284607B0BDE8F04F19F09CBB1D
:1029600007B0BDE8F08F00BF480A0020B553020849
:10297000406820B1034BC01A40F38F0070474FF0FE
:10298000FF307047340A00200EB403B503AB014694
:1029900053F8042B0448019303F0E6F902B05DF804
:1029A00004EB03B0704700BFADC10108CA0605D4EF
:1029B0008B064CBF02490349FFF7E6BF704700BFD3
:1029C000EA550208ED5302082DE9F04F89B09B4605
:1029D000149B06939DF84CA0159B0593169B179E80
:1029E000049304460D469046BAF1000F00F09D8016
:1029F00006F48073079319F023FB06F002090246E0
:102A000000283ED091492046FFF7BEFF0746B9F1A6
:102A1000000F08D016F0440F35D18D492A462046C4
:102A2000FFF7B2FF074406F0010353B1894B8A490F
:102A300053F82A20894B2046002A08BF1A46FFF780
:102A4000A3FF06F48073002B49D006F00803002B87
:102A500063D1B8F1000F66D0814942462046FFF7A6
:102A600093FF0546069B3D44002B6DD1049B002B34
:102A700073D1F30700F1E48031462046FFF796FF5B
:102A8000D8E00746C3E7774B18680028CAD0764BD2
:102A90004FF47A791B68B5FBF3F54FF46161B5FB30
:102AA000F0F300FB135509FB05F54FF03C0CB3FBAD
:102AB000F1F201FB1231B5FBF0FEB1FBFCF300FBC0
:102AC0001E550CFB131109FB05F50091B5FBF0F544
:102AD0006649CDE901E52046FFF756FFA2E706F07B
:102AE0000803EBB1624B634953F82A202046FFF7F5
:102AF0004BFF0546B8F1000F05D059494246204624
:102B0000FFF742FF0544BBF1000FABD05A495A46CC
:102B10002046FFF739FF0544A4E74FF0000BE1E73B
:102B200006F00805E6E745469CE7BBF1010F069B6A
:102B300006D1002B64D1049B002B7BD000250CE038
:102B4000002BF8D04D485CE04D48069B4D4922468D
:102B500018F042FD049B002B68D0DFF82C81DFF8D1
:102B60002C91049F3146102F204628BF1027FFF7D5
:102B70001DFF4FF0000B5D4545DC059B49461A786B
:102B80002046FFF701FF4FF0010B1BF0070F03D1A9
:102B900041462046FFF7F8FE5F453BD9059B494675
:102BA00013F80B202046FFF7EFFE0BF1010BBBF1F2
:102BB000100FEAD1364920464FF0000BFFF7E4FE34
:102BC0005A46059B9A5CA2F120015F2928BF2E225C
:102BD00030492046FFF7D8FE0BF1010BBBF1100F77
:102BE0001DD01BF0070F03D141462046FFF7CCFE56
:102BF0005F455A46E5D841462046FFF7C5FEEBE75C
:102C00001F485546A1E741462046FFF7BDFE0BF1A0
:102C1000010BB0E720492046FFF7B6FEC5E7059B4C
:102C20003B440593049BDB1B04939AD1BAF1000F3C
:102C30007FF41FAF204609B0BDE8F04F19F0A9BAE4
:102C4000064A05492046FFF79FFE15E7F55302089F
:102C5000F9530208303C020854580208F0530208A5
:102C60001E5402083C260020382600200254020888
:102C7000443C02082254020828540208E3C1010817
:102C8000ADC10108695D00082C8702082D540208B7
:102C9000335402083F5F02082A87020873B542F2E4
:102CA0000F738B4228BF0B4605680F4A0446052167
:102CB000684617F0A1F863680C495B680646042271
:102CC000284619F058FA63683246694628465B6818
:102CD00019F051FA636806495B681722284619F013
:102CE0004AFA02B070BD00BF15A102084D54020897
:102CF00035540208074A00210123904206D8064AAB
:102D000001B901231360054B1860704740085B0050
:102D10000121F2E740420F00382600203C26002027
:102D2000014B036000207047583C020808B5034A75
:102D3000034B082119F00CFC002008BD7854020850
:102D40007254020810B5044615F0EEF8084A03461E
:102D50000821204619F0FCFB064A2046082119F0FC
:102D6000F7FB0548214616F07FFC002010BD00BF90
:102D70000D5502082C5502087D2D000870B58EB047
:102D800004460D46D0F89C601FF054FB024620F02C
:102D90004BF9254B1958254B002A18BF1346CDE98E
:102DA0000043234A234B28468C4218BF1346224A2D
:102DB000082119F0CDFBD4E90A23CDE9022394F9C7
:102DC0000E300093237B1D4A2846082119F0C0FBD2
:102DD00006A92022204615F0D7FF626E0092034616
:102DE000174A0821284619F0B3FB05A920461FF011
:102DF00031FB034630B1134A0821284619F0A8FBDD
:102E00000EB070BD059A6423B11ACDE900214B4381
:102E10000D4AB3FBF6F30821CDE902632846334699
:102E200019F096FBECE700BF0800000036550208D9
:102E30002C87020806690208395502084555020820
:102E40007155020888550208B5550208F0B50025ED
:102E500093B0044629460AAF1C220BA820F016F8AE
:102E6000144E1A222021384620F010F8214612482C
:102E700016F0FAFB09AA4FF4006130461FF0DEFAA3
:102E800009996422C1F5006042434FF40063D20AFD
:102E9000CDE90403CDE9023106922046CDE9005781
:102EA000064AA6F14003082119F052FB284613B048
:102EB000F0BD00BFC06B00209D2F0008EC5502083C
:102EC00010B5044615F04EF8034A03460821204683
:102ED00019F03EFB002010BD355602082DE9F341E4
:102EE00017460023044601AAB86801930A2101F09D
:102EF00061FC019DC6B255B12B46154A0121204601
:102F000019F026FB019D284602B0BDE8F081042E91
:102F10000AD9104A33460121204619F019FB2046F0
:102F200019F068FB0125EEE77868FFF76FFBB0F159
:102F3000000805DA7B68084A0121204619F008FBE1
:102F4000002133460FFA88F2084619F07BF8DAE7D9
:102F50004B560208725602088956020837B51346C6
:102F600000220192054601AA58680A2101F022FCBC
:102F7000019C4CB920EAE0700A2180FB010116F0A7
:102F800099FA204603B030BD2346034A0121284662
:102F900019F0DEFA019CF4E7A8560208F0B50446E1
:102FA000D0F89C6089B00D4607A91FF053FA03467C
:102FB00030B1104A0821284619F0CAFA09B0F0BD0C
:102FC00020461FF037FA0C4F079A002818BF074613
:102FD000B11A6423CDE902214B43CDE90076B3FB5E
:102FE000F6F3064ACDE9046308212346284619F082
:102FF000AFFAE3E78855020836550208C8560208BA
:103000002DE9F04387B00546684615F05FF8009E4D
:10301000184A194FDFF86480DFF86490142303FB2B
:1030200000660821284619F093FA009CB44203D3A5
:10303000002007B0BDE8F08323680BB11A7832B9DD
:1030400023463A46142101A816F0D6FE01AB4246AB
:103050000821284619F07CFA20461EF053FF094B40
:10306000094A002808BF4B460821284619F070FA83
:103070001434DBE7435802084D580208525802083E
:103080003A58020834580208EC7B02087FB50A68F7
:103090004B6904924A6803928A680292CA68019254
:1030A0000A690132009203F26C73034A082119F095
:1030B0004FFA07B05DF804FB8B580208F7B5137898
:1030C0003A2B06460F46154616D1541C23783A2B48
:1030D0002DD1013400230A2201A92046019316F0C4
:1030E000B7FE019A3860A24203461AD01078C0B9E0
:1030F0003C2B18D9184A10E000230A2201A92846BF
:10310000019316F0A5FE019CB860AC4209D023786B
:103110003A2B06D1172808D9104A0121304619F058
:1031200017FA6FF0150003B0F0BD0134CEE70023AD
:103130000A2201A92046019316F08AFE019B7860BD
:10314000A342EED01A783A2AEBD13B2801D9044A9F
:10315000E3E75C1CBEE700BFCA580208AC5802088F
:10316000BA5802082DE9F04391B00D46044602A971
:103170000120174602F022FF07A902A816F096FDCB
:10318000032D5FD17D684FF000090A2201A928466E
:10319000CDF8049016F05CFE019EB542804618D032
:1031A00032782D2A15D101360A2201A93046CDF8F0
:1031B000049016F04DFE019B9E420AD01A782D2AEB
:1031C00007D1451E0B2D0DD92A4A0121204619F0A1
:1031D000BFF9204619F00EFA6FF01505284611B018
:1031E000BDE8F0835E1C0A2201A93046CDF80490A8
:1031F00016F02EFE019B9E42EBD01B78002BE8D1EF
:10320000431E1E2B01D91C4ADFE7A8F26C73CDE9DF
:103210000B53BA680A9007A92046FFF74FFF002812
:10322000D7D107A8FEF70EFFB1F1FF3F08BFB0F1FD
:10323000FF3FCDE9020109D1104A0121204619F0D2
:1032400087F9C9E7022DC4D17A68E4E7002302A90F
:1032500001200493FDF734FA054630B10346084ACD
:103260000121204619F074F9B6E707A92046FFF7B7
:103270000DFFB3E7DA580208E9580208F6580208C9
:103280001F5902088B1E022B2DE9F0410746884684
:10329000144637D860681022002116F04FFEB8F1AE
:1032A000020F064607D1264A20230821384619F086
:1032B0004FF9336816E00A220021A06816F03EFE9E
:1032C000C5B21F4A2B460821384619F041F9B8F11A
:1032D000040F1AD0102D0DD0202DEAD0082D0CD1BE
:1032E0003378DBB2174A0821384619F031F900204B
:1032F000BDE8F08133889BB2F4E7134A08213846D1
:1033000019F026F96FF01500F2E7E06810220021AD
:1033100016F014FE0D4A034604460821384619F0FB
:1033200017F9102D06D0202D07D0082DE5D1E4B2D5
:103330003470DCE7A4B23480D9E73460D7E700BF4B
:10334000645902088F59020879590208A0590208E5
:103350002DE9F04F594BDFF868A185B09146012265
:10336000074688461A6002F041FD4FF0FF352026DF
:103370002C4649465246404602F05CFD411C07D1AE
:103380006A1C52D14F4A0121384619F0E1F81DE07C
:10339000732820D0772833D0612817D1DFF828B1DF
:1033A0001022DBF80000002116F0C8FD05460028B9
:1033B000DFD11FF039FE454B1B58162BD9D1DBF856
:1033C0000030434A0121384619F0C2F86FF0150069
:1033D00005B0BDE8F08FDFF8F0B00022DBF80000A8
:1033E000114616F0ABFD04460028C2D11FF01CFEAA
:1033F000364B1B58162BBCD1DBF80030354AE1E7C1
:10340000DFF8C4B00022DBF80000114616F096FD8C
:1034100006460028ADD11FF007FE2C4B1B58162B7B
:10342000A7D1DBF800302C4ACCE7631C01D12B4A32
:10343000A9E75FFA86F8C6F3C406002C3CD06B46B9
:1034400029461A46A6EB050C0CE0B8F1100F1DD06A
:10345000B8F1200F20D0B8F1080F2AD108781870E1
:1034600031443344A64203D80CEB01001028ECD9B8
:10347000102CA14628BF4FF0100929464B4638466C
:1034800001F064F81035A4EB0904D6E7088880B28F
:103490001870000A5870E3E7086818704FEA102E99
:1034A00083F801E04FEA104E000E83F802E0D87076
:1034B000D6E70B4A082167E7204689E7CC030020BE
:1034C000EE590208F5590208AC2A00200C00000051
:1034D000B4590208C7590208DA590208125A0208F8
:1034E0007959020870B5104E044633780D4681B103
:1034F0002BB1BDE870400D4A012119F029B8012314
:1035000033700B4A0821204619F022F8012333704A
:1035100004E083F001033370002BF2D129462046EA
:10352000BDE8704019F083B8094400202C5A020805
:10353000675A020870B504463C480378182B02D13C
:103540000B78112B31D0013A0B468D18AB4225D1A7
:103550008B5C0A780370A2F13003092B344C04D938
:1035600022F02003413B052B04D823683149CA547B
:10357000013323602368022B34D110222D4800210F
:1035800016F0DCFC2C4A136803F8010B13602B4A7D
:103590001368013313600023236023E013F8016BE9
:1035A000182ED3D11E78112ED0D1244D244A2B6849
:1035B0000821204618F0CCFF20460021FFF792FF9B
:1035C000204B187870B9204A2B681168042B0ADC4C
:1035D00008B111602B6013F003010BD1126813685E
:1035E0001BBA136070BD086800BA41F8040B043BB5
:1035F0000120EBE75B4203F0030358BF5942022965
:1036000004D1126813885BBA9BB2EAE70329E9D1B7
:10361000106802681104C2F3074301F47F010B43F1
:1036200002F47F4213430360DCE700BF0A4400203A
:10363000402600200C4400204C2600204426002078
:10364000915A02080B440020482600202DE9F84F2B
:103650000C462B49DFF8AC80DFF8AC90DFF8ACB05B
:1036600000230B602A4988F8003006460B60154697
:10367000012C2F4655F804AF1ED902224946504668
:103680001FF065FA80B99AF80220003A18BF0122AB
:1036900092442049022250461FF059FA30B90123C2
:1036A00088F80030013CE3E70022F1E74946504644
:1036B000FCF778FFA8B9043700221146786816F0A5
:1036C000C7FB154B002211461860786816F0C0FB46
:1036D000124B134918603046FFF704FF0020BDE885
:1036E000F88F9AF800202D2AE6D19AF80120002AB6
:1036F000E2D053465A460821304618F029FFD1E758
:10370000402600200B440020AB5A0208B15A0208A0
:1037100044260020AE5A02084C26002048260020ED
:103720003535000807B50A481EF0ECFB60B1094AC0
:1037300007491268084804230093012300F078FF2A
:10374000002003B05DF804FB6FF01200F9E700BF42
:10375000243202084C3E02087436020810B5446850
:10376000C4E90012A36042684023D36402F1580305
:10377000136300230821C2E90E33C2E91133C2E901
:103780000633C2E90933D1621468536302F1500170
:103790001364116153611362C2F8D030A36823B17E
:1037A0009B6C13B1044920469847A3689B6A0BB1F0
:1037B00020469847002010BDBD3700082DE9F7438B
:1037C00004460D4683685B6C03B19847A3685B6B46
:1037D0000BBB4FF0000905F13008EA6C01A9404627
:1037E00018F04DFB0746002836D0A36801999B6965
:1037F0003BB3024620469847064628B3314640462A
:1038000018F05CFBB7424FF00109E6D0D5E9013171
:103810000020984703E0204698470028D9D1A368A4
:103820005B6A63BB05F11007EA6A01A9384618F024
:1038300079FB064650BB204618F040FDC5F8D06025
:103840002FE06FF05706D9E70146404618F036FBE7
:10385000B9F1000FE3D0D9E71648036813F0060F5B
:1038600003D0154A022118F067FCA3689B69002B5E
:10387000EED001220DF1030120469847E8E72046EB
:1038800098470028CED103B0BDE8F083A368019922
:103890005B695BB10246204698470146384618F0FE
:1038A00061FBD5E9013101209847ECE76FF0570142
:1038B000F4E700BFE40A0020125C020810B581683A
:1038C0000446183101F0AAF9A168034A20461831CC
:1038D000BDE8104001F048B9545C020838B583686F
:1038E000D3F87832DB0704461DD4C06919F0AEFB6B
:1038F000606803685B689847054620B9E06819F07E
:103900007AFDA3681D75A3685B6C13B12946204638
:103910009847A3681FF088FB0022C3F82023034BBD
:10392000185801F049FF6FF00F05ECE708000000A0
:10393000014918F067BD00BFEA550208F7B5044613
:103940008068D0F878325A070D4605D5002118F066
:103950007BFDE06819F021FDE368DB6873B9002D99
:103960003BD0A66806F15607384618F045FD0028FA
:1039700035D0394606F5AB70FCF71EFEA268E0684C
:103980000DF106035632294619F00AFD58B9A06810
:1039900000F5AB715630FCF70FFEA068563018F0FA
:1039A0002BFDADF80600204619F033F9A368D3F8D3
:1039B00074329B0603D50B49606918F023FD20463D
:1039C00000F060FFA268BDF80630A2F85230A2688D
:1039D0002046A2F8503019F081F803B0F0BD86F807
:1039E0005601CBE7383902082DE9F04FA7B004465D
:1039F0005422002111A81FF049FA0023CDE9053314
:103A0000A36820465633029319F00AF9204619F0AC
:103A10004EF810B96069FFF78BFFA06814220021EF
:103A200018301FF033FA204618F0E8FFA168E0686C
:103A3000B1F850205631002619F0E9FC204619F063
:103A400068FD4FF0FF37B24603960DF14408B346C8
:103A50003546B146DDE90532012A6DD0132B6ED80B
:103A60005FBBBBF1000F0AD0204619F073FDA268BE
:103A70001423563211A90DEB030018F03EFEB9F1E4
:103A8000000F0CD099F81130FE2B08D1059B26AA07
:103A900002EB830252F8542C0AB101330593A0685B
:103AA000059D436A002B40F0B680CEB1C3699E42AB
:103AB0002DD00D9600F1180524E0029A022341460C
:103AC00006A818F01AFE0699D8F8042002920346B8
:103AD00031B101290AD148B16D4A204619F052F995
:103AE0006FF00705284627B0BDE8F08F059B002B37
:103AF00034D0D8F8000001F0B1F898B166B1A568EB
:103B00000D9618350CAE0FCE0FC533682B602046CE
:103B1000FFF7D4FE0125E5E75E4A0121204619F0B2
:103B200031F9DDE7059BCBB1D8F8002029462046C6
:103B300001F046FA022809D1059B132B91D9069B67
:103B4000022B8ED1544B554A0121C6E7032805D0DC
:103B5000059B013305934FF0010B7BE7039B33B9C2
:103B6000D8F8001007AA484618F0BEFE054608F12E
:103B70000408013F9DB3EB68BBF1000F08D0F3B11F
:103B8000204619F04DF8204618F0A8FF444AC4E733
:103B9000ABB1A368DDF814A0AE4603F1180CBEE883
:103BA0000F00ACE80F00DEF80030CCF80030AB6856
:103BB0002BB96B7CFE2B04BF2F7C07F1FF37D5F8A8
:103BC00004C0BCF1000F08D0AE46BEE80F000CAE3A
:103BD0000FC6DEF8003033606646A94603E0059B59
:103BE00053B101230393069B17B9022B7FF432AF25
:103BF000059B013305932DE7A368DB6A13B1DB68EE
:103C0000002BEED1274B0093274A119B0121204620
:103C100019F0B8F8E5E790F82830A5EB0A05BBB134
:103C200090F829104FF6FF72FF2918BF0A469D42EF
:103C300002D313449D420BD983691C4A01212046BB
:103C400019F0A0F82046FFF739FE6FF0150549E797
:103C5000012118F0EEFBA06800F5437018F00DFC90
:103C6000A36811AA294602EB8A025B6A204698479C
:103C70000546A0684FF0FF324FF0FF3300F5437068
:103C800018F0A2FBA068002118F0D3FB2AE700BFC0
:103C9000625C0208765C0208D75C02081D700208AC
:103CA000945C0208C35C020857770208FB5C0208B8
:103CB00010B5836802221A7583689B6C0446BBB9F1
:103CC00018F059FB8368D3F87832DB040BD5032155
:103CD000084B094A19F056F8A0686FF4805100F5B6
:103CE0001E7018F062FB2046BDE8104000F01EBFB9
:103CF00010BD00BF165D0208545802082DE9F04FB0
:103D000004468068B1B0012100F51E7018F03EFB3A
:103D1000A3681B7D022B20D100230993A368606850
:103D20009E6C03681D6909AB0EB310221BA9A8473E
:103D3000099B93B1A068012118F07BFB099A1BA98C
:103D40002046B047A068002118F073FBA3689B6C65
:103D5000002BE3D12046FFF7ABFFA0686FF0010115
:103D600000F51E7031B0BDE8F04F18F01EBB012207
:103D70000DF12301A847099B002BEED09DF92320CC
:103D80009DF82310A368002AC8DB5A7D032A00F29D
:103D90009882DFE812F0040085029C0296020D2949
:103DA0007CD00A2958D0B3F878226FF3CA02A3F85E
:103DB00078220929A06800F086803DD80029ADD07E
:103DC000082900F0FC810346D3F874229207A5D598
:103DD00001391629A2D801A252F821F07143000836
:103DE000F941000801420008F1410008654300085C
:103DF0001F4200081D3D00081D3D00081D3D000834
:103E00001D3D0008274200082F4200081D3D000804
:103E1000594200081D3D0008634200081D3D00088E
:103E20001D3D00081D3D00081D3D000867420008BB
:103E30001D3D0008914200081B2941D07F2900F058
:103E4000CA81A1F120025E2A0346BDD8012118F0E3
:103E5000FBFA9DF82310B9E0D3F87822C2F3C70229
:103E60002AB1D3F87822C2F3C7020A2AACD1B3F838
:103E7000782261F3CA02A3F87822A568B5F8501039
:103E8000C1B9284618F0E0FAE06819F086FA6069CE
:103E9000FFF74EFD2046FFF70BFF3FE7D3F87822F0
:103EA000C2F3C702002AE2D0D3F87822C2F3C702D5
:103EB0000D2ADBE72046FFF797FDC5F82403E9E765
:103EC000012343752AE7D0F874329B077FF526AFAC
:103ED000012118F0B9FAA068B0F85030FF2B3FF478
:103EE0001DAFB0F8522000F1560100F5AB701EF086
:103EF000A5FFA368B3F852201344002583F8565158
:103F0000A2681BA9142302F5AB720BA818F0F5FBED
:103F10000B9914293FF602AF30AB03EB810343F852
:103F2000545CA368B3F85220002A53D0134493F88A
:103F30005530202B02D0093B042B4BD800294CD103
:103F400000250A950A9B30AA02EB8303002653F84A
:103F500054AC504618F050FAB3468146B046374646
:103F600016AA3946284600F0EBFB0346002840D14C
:103F7000012EA76865D10A9B30AA02EB830353F890
:103F8000540C18F039FA07F1180206464146284643
:103F900000F0D6FB0568284618F02EFA864205D0B8
:103FA000821B92B2A919204618F033FFA068B0F81E
:103FB0005230034493F85630202B31D0093B042B68
:103FC0002ED9D0F87432DF072FD42021204600F0FC
:103FD00075FDA3E60129B3D9013900200CAB00938C
:103FE00001900AAB1BAA18F0AAFC05460028A9D12B
:103FF00094E61B6803934A46514618461EF0A7FDF7
:1040000060B9039B1846FCF7DFFA584538BF58469D
:104010001FFA80FB002E08BFB846013601379FE724
:104020000121204618F08EFD78E6002118F016FADE
:104030002021204600F042FDA068012118F00EFA70
:104040006CE604907FF66AAE0A9A30AB03EB82020C
:10405000C14652F8543C0393184618F0CDF9049B1E
:104060000590A7F840300496A268494618322846C1
:1040700000F066FB039BD0F800A009F101094BB1E9
:10408000BAF1000F06D0059A194650461EF05FFDA2
:104090000028E9D1A168BAF1000F4ED1A1F840A0E3
:1040A000049B013B0493DFD16069FFF741FC20468C
:1040B00000F03CFD0A9B30AA02EB830308F1010AE1
:1040C00053F8540C18F098F9414611AA8146284635
:1040D00000F036FB0746A0683968FF2200F5AB7098
:1040E0001EF047FD3B6803934FF6FF77B84616AACC
:1040F000514628460AF1010B00F022FB002852D05D
:10410000A168036801F25511002211F801EF985CD3
:10411000704503D110B101324245F6D1B9F1000F1B
:1041200001D04A4507DBBA4206F1FF36A8BF3A463E
:10413000012E97B237D0DA46D9E79948069118F0A0
:104140005BF9069907914A8F00EB0B07BFB2121A71
:10415000504692FBF7F292B2069218F04DF9079989
:10416000069A3F1AB1F8400000F1010CA1F840C0D6
:10417000B0FBF2F102FB110080B2BFB260B9884B14
:10418000884ACDF800A00621204618F0FBFD3946EC
:10419000204600F061FB83E7834A53460621204610
:1041A00018F0F0FDF3E7002F3FF4B8AD0399A7EB4B
:1041B000090292B24944204618F02BFEAEE5D0F831
:1041C00074329E077FF5AAAD012118F03DF9204613
:1041D00018F040FEA2E5D0F874329D077FF59EAD41
:1041E000012118F031F9A368D3F874321907EED41D
:1041F000204618F010FE91E5204618F01AFD8DE5D6
:10420000204618F00DFD204618F051FC10B96069E9
:10421000FFF78EFBA068012118F016F93AE6204658
:1042200018F010FD7AE5204618F017FD76E5D3F872
:1042300074329B0603D55D49606918F0E3F8A36802
:10424000D3F874329F0603D55949606918F0DAF83B
:10425000204600F06BFC61E500212046FFF76EFB75
:104260005CE50121F9E7204618F0D3FC204618F060
:1042700082F80121A06818F0E7F8A368D3F8743237
:104280009E067FF54BAD4B49606918F0BBF845E5DC
:10429000204600F071FBA068012118F0D5F83DE53B
:1042A0005B2902D102225A7538E5D3F874329D0792
:1042B00006D5622907D14FF0FF31204618F06BFC7C
:1042C000A3680022EFE76629FAD10121F5E7002271
:1042D0005A75A268D2F8743298077FF51FADA1F124
:1042E00031031B2B3FF61AAD01A151F823F000BF9B
:1042F0006D430008794300088D43000861430008BE
:104300001D3D00081D3D00081D3D00081D3D000825
:104310001D3D00081D3D00081D3D00081D3D000815
:104320001D3D00081D3D00081D3D00081D3D000805
:1043300063420008594200081F420008F941000882
:104340001D3D0008654300081D3D0008714300083D
:104350001D3D00081D3D00081D3D00087D4300086F
:1043600003235375204618F05BFCD7E403235375F1
:10437000204618F04EFCD1E403235375A068D0F812
:10438000741201F0010181F0010157E60323537516
:10439000A368D3F874329B077FF5C0AC28E700BF51
:1043A0002B8702085A5D0208545802083D3902085A
:1043B000423902083839020810B583681A7D012A8B
:1043C00004462BD1D3F87822510408D5D3F87422AF
:1043D000520704D40146DA6CC06918F020FEA068C8
:1043E0004FF0FF324FF0FF3300F5437017F0ECFF52
:1043F0002046082100F082FA206817F0FDFF18B16E
:104400000849606917F0FEFF2046FFF751FCA068DD
:1044100000F5437018F031F8002010BD6FF08500F2
:10442000FBE700BFE95502082DE9F041044680682A
:10443000154600F51E70002937D04FF4804117F063
:10444000A5FFA368DD646068036800219B68984746
:1044500000284BD12046FFF7AFFF002846D1244E5D
:10446000244FDFF89480A06800F52F704FF0FF32E2
:104470004FF0FF33032115F075FB0546A0684FF0A0
:10448000FF324FF0FF3300F543709DB117F09CFFF2
:1044900020462B46194A012118F074FCA068BDE89B
:1044A000F04100F5437017F0E8BF6FF4804117F05A
:1044B0007CFFC6E717F088FF32460221204617F03E
:1044C00085FF3A462946204617F080FF204642469F
:1044D000012117F07BFF606803685B6903B19847AF
:1044E000A06800F5437017F0C8FFBCE7BDE8F08195
:1044F000DD380008FD3C00087FC40108605D02084B
:1045000010B50D4A0446082118F022F820460B4A3F
:10451000082118F01DF82046094A082118F018F85B
:104520002046084A082118F013F82046064A0021C0
:1045300000F01AFB002010BD775D0208B55D02088F
:10454000145E0208685E0208025F0208F8B51E46A3
:1045500017460B462F4A0821044617F0F9FF6EB3A1
:104560003B782D4A0821204617F0F2FF01256A0703
:1045700004D12A4A0821204617F0EAFFAE4223D987
:104580007B5D254A0821204617F0E2FF0135102DFA
:10459000EDD1234A0821204617F0DAFFD6B91F4A89
:1045A0000821204617F0D4FF0125AE422B4613D830
:1045B0001A4A0821204617F0CBFF18E0194A0821B3
:1045C000204617F0C5FF0125164A0821204617F09E
:1045D000BFFFDBE700252B46FB5CA3F120025F2A2F
:1045E00028BF2E23104A0821204617F0B1FF0135BD
:1045F000102D07D06B07D8D1084A0821204617F0A4
:10460000A7FFD2E72046094ABDE8F840082117F085
:104610009FBF00BF185F02082D5402082C870208B4
:10462000335402082A8702083F5F02081F5F02080E
:104630002DE9F043044680688846D0F8201389B0FD
:1046400015461F46002960D14FF44A721EF01EFC29
:10465000E06818F044FFA06800F543701DF03AFDD3
:104660004FF42F794FF41F76A06830441EF00EFAF5
:10467000A068002283190121484410361EF0DDF99C
:10468000B6F52F7F09F11409EED1A36900261E604B
:10469000A068022100F51E7017F078FEA368502272
:1046A0005A87A36818221A872168204617F075FFD9
:1046B000A368174A66F38205C3F8745260680368FA
:1046C00041461D682346A8470546D0B9A368012284
:1046D0001A75D4E90A0100220023CDE906230E232E
:1046E0000393109B0495CDE901730094094B4FF49B
:1046F000006214F00DFCA368C3F82003616A14F093
:1047000033FB284609B0BDE8F0836FF07705F8E782
:104710001FC401082944000810B5044613460A4680
:104720000146064801F020FB23691B7923B120468E
:10473000BDE8104017F081BF10BD00BF53C601088F
:1047400038B50B46154648B91449154A521AB3EB09
:10475000920F05D251F82350284638BD84680CB911
:104760000025F9E70F4A94420AD30F4A944207D230
:1047700018462268294690472B68002BECD1EFE7BA
:104780000A4A944202D30A4A944205D32468142266
:104790005343E518E358F0E70133F8E7A43602087D
:1047A000D43602081839020824390208D43602081F
:1047B00018390208F7B51646027800232D2A044658
:1047C000019305D16FF015033360002003B0F0BDF5
:1047D0001EF02AFC0B4F0546C3510A46204601A98C
:1047E00015F0ACFBEB59222B02D16FF02103EBE764
:1047F000002BE7D1019BA342E4D01B78002BE5D02E
:10480000E0E700BF0C0000008368D3F874329B0619
:1048100003D50249406918F02CB97047483902089D
:10482000014918F026B900BFEA5502080A1E0DDC3E
:104830000ED042238168D1F87412890608D5002A67
:1048400004494069B8BF524218F013B94123F1E757
:10485000704700BF3B5F02080A1E0DDC0ED04423E8
:104860008168D1F87412890608D5002A0449406984
:10487000B8BF524218F0FDB84323F1E7704700BFBC
:104880003B5F02082DE9F0478568DFF86890044631
:1048900005F15600FBF798FE002395F83C7086B2B0
:1048A0009846A268558FED1BB54209DB002E1FDD2F
:1048B000563360691049BDE8F0471A4418F0D9B87A
:1048C0001D442A44563392F856A082F85680A268B6
:1048D00060691A44494618F0CCF8A3682B4483F861
:1048E00056A0A3685B8FDB1BF61A00272B46D8E780
:1048F000BDE8F0871D7002085458020808290A46CE
:1049000017D8836893F83E10914212D083F83E2066
:104910008368082AD3F8743205D0990609D5054969
:10492000406918F0A6B89B0603D50349406918F002
:10493000A0B87047425F02084D39020838B50D46ED
:1049400009780446FFF7DAFF6A78072A11D8A368C6
:1049500093F83F1091420CD083F83F20A368D3F81E
:1049600074329B0605D560690249BDE8384018F0ED
:1049700080B838BD4B5F0208F8B58368B3F85020A3
:104980000446002A55D0B3F85210002951D05531B1
:1049900003F156050B441846A84206D3014611F808
:1049A0000169202E3CD0A8423CD286B29DB2AB1BFE
:1049B0009BB2591C471CD21A014438461EF04CFACF
:1049C000A268B2F85030711B13FA81F3A2F850308C
:1049D000A368B3F850201344002283F8562009B28C
:1049E000204618F0AFF8A368D3F874329A0603D5BE
:1049F0001049606918F03DF83B460F4A08212046EF
:104A000018F0C0F92046FFF7FFFEA368D3F8743210
:104A10009B060ED560690949BDE8F84018F029B831
:104A20000846B9E7014611F80169202EBDD00846B5
:104A3000B9E7F8BD5239020854580208563902083D
:104A40002DE9F04104460D4617460AB1FFF7DCFE9A
:104A5000A368B3F85220D3F87412563213444A07AD
:104A600021D51846FBF7B0FDDFF848800646A6B909
:104A7000A368B3F85020A3F85220A06818F006F8F5
:104A800020B107B115B16069FFF7CAFE694220463F
:104A900009B2BDE8F04118F055B86069414617F019
:104AA000E8FF013EE3E7044A0821204618F06AF9CE
:104AB000DEE700BF066902085458020813B5836890
:104AC0008DF80710D3F874220446D00725D5B3F823
:104AD0005210B3F850208A421FD0481CA3F852004D
:104AE0000B449DF8072083F85620A368D3F874126E
:104AF000890710D5D3F8743260690B4913F0040F9D
:104B000018BF2A2217F0B5FF204617F0D0FF10B1CA
:104B10006069FFF785FE02B010BD01220DF10701AB
:104B2000204618F03CF9F6E73F5F020810B504464E
:104B30008368094A022118F025F9A368D3F8743272
:104B40009B0707D52046FFF79DFE2046BDE8104095
:104B500017F0D3BF10BD00BF54580208014918F028
:104B6000EBBA00BFEA5502082DE9F04F0E460021CE
:104B700089B0044617460D4603AA304601F10108E4
:104B8000FFF7DEFDB0B995B127B13A4608212046BE
:104B900018F0F8F81E4FDFF87C90DFF87CA00021B9
:104BA00003AA304601F10108FFF7CAFD60B909B058
:104BB000BDE8F08F006810B1FBF706FD80B28542BA
:104BC00038BF05464146D7E703688BB11A787AB1FA
:104BD000D0F804B04A46CDE9005308213B462046B0
:104BE00018F0D0F8BBF1000F04D16069FFF7B6FFF1
:104BF0004146D5E7524620463B46082118F0C2F808
:104C00006A1D92B25946204618F0A3FAF0E700BF99
:104C1000695F0208545F020828540208F7B50F685C
:104C200005460E46A7B13846FBF7CEFC84B2094BC9
:104C300000932846084A3B46082118F0A3F8E21CD6
:104C4000716892B2284603B0BDE8F04018F081BA0E
:104C50003C46ECE7655F02085B5D020810B507495A
:104C60000446FBF79FFC38B105492046FBF79AFC48
:104C7000B0FA80F0400910BD0120FCE75B5F02083C
:104C80005E5F020810B58368D3F874329B06044651
:104C900003D50649406918F0D3FAA36850225A8711
:104CA000A36818221A87002010BD00BF5A390208D5
:104CB00008B58369034A1B68082117F049FC0020E6
:104CC00008BD00BF6C5F02082DE9F3410F4A104C8C
:104CD000104EDFF844800821054617F039FC002308
:104CE000B44203F1010703D3002002B0BDE8F08114
:104CF000626A0192A26800929BB24246082128464D
:104D000017F026FC30343B46EAE700BF7C5F020820
:104D100074360208A4360208945F020808B50249F6
:104D200017F03BFC002008BD3C8C02087FB50F4EFD
:104D300004460025A268E0680DF10E0302F5AB728F
:104D4000012118F02DFBBDF80E00A36850B103F54A
:104D5000AB73009332462B460821204617F0F8FB30
:104D60000135E7E783F8560104B070BDA55F02087E
:104D700010B5044617F053FC034A034608212046A9
:104D800017F0E6FB002010BD048F0208022907B5CA
:104D90000DD1536801930E4B009313680D4A012106
:104DA00017F0D6FB6FF0150003B05DF804FB8368C5
:104DB000094AD3F8743213F0020F4FF00801074B81
:104DC00008BF1346064A17F0C3FB0020ECE700BFFC
:104DD000BC5F0208B35F0208AF5F0208CE5702084B
:104DE000D15F020810B58368D3F874329A0604467E
:104DF00003D50749406918F023FAA368D3F8743241
:104E00009B0603D50349606918F01AFA002010BD0B
:104E10006139020866390208F0B5012985B00446F7
:104E20000CD053680193604B009313685F4A0121D3
:104E300017F08EFB6FF0150005B0F0BD8368D3F856
:104E40007432990603D55A49406918F0F9F96FF0A0
:104E5000F9012046FFF7EAFCFA212046FFF7FCFCA7
:104E6000A06800254FF48072294600F5AB708DF8DC
:104E70000B501EF00BF84F49606918F0E1F96069BA
:104E800017F0DBFB4FF47A766068036801221F6934
:104E90000DF10B0103ABB847039BF3B9013E4FF48F
:104EA0007A70B6B21DF01FF8002EEDD1A368D3F8CA
:104EB00074329B0603D54049606918F0C1F9A368B4
:104EC00050225A87A36818221A8720463B4A03219A
:104ED00017F03EFB6FF00700AEE79DF80B20A368CC
:104EE0001B2A53D093F856111B29CDD1522A4DD1EC
:104EF0005A19002382F85631A66896F857215B2A82
:104F00002BD106F25710022510F8011F2A463B2923
:104F100005F10105ADB223D1FF2AC7D002F5AB726E
:104F200016FA82F1002211F8010F18BB86F856011B
:104F3000FA2AA16828BFFA224A87FA2BA26828BF5A
:104F4000FA231387A368D3F874329A0603D51A4953
:104F5000606918F075F900206EE786F85631A5E70C
:104F600003EB8303303901EB4301B5F5807F8BB24E
:104F7000CAD19BE7013502EB8202ADB2303800EBBB
:104F80004200B5F5807F82B2CDD18FE72B44013549
:104F9000ADB2092D83F856217FF676AFA3680022C3
:104FA00083F8562182E700BFBC5F0208B35F0208A6
:104FB0006C3902081C60020870390208E25F0208BE
:104FC0002DE9F04F074689B01546894621B11046B4
:104FD00018F08BFA00285BD1032455E05C463CE0D6
:104FE00029460AF5AB701DF0F6FD0646002854D0A0
:104FF000FBF7EAFA82B2601C0132314630441DF000
:105000002BFF2246594630461DF018FF4FF0200373
:105010003355BAF8543001331C44AAF8544008F10F
:105020000108002401994B1C03AA48460193FFF78D
:1050300087FB0646E8B131680022284618F0FFFBDE
:105040000028EFD1D6F800B0D7F808A0BBF1000FC8
:10505000C4D05846FBF7B8FA84B2BAF854302344A7
:10506000FF2BBDDD0E4A2B460321384617F08AFE82
:105070000124B8F1000F07D0B8682A4600F15401A6
:1050800000F5AB7017F009FC204609B0BDE8F08FC1
:105090004FF0000841460224C5E70224E9E700BFBB
:1050A000CA6402082DE9F843054600AF0C46002902
:1050B00048D0DFF8B890D9F800305A0742D06E4691
:1050C0008AB0D1E90001A3686A46DFF8A4C04FF0B6
:1050D0000508C2E905C0C2E9071342F8108F002392
:1050E0004FF421514846FDF763FBD9F800305B07C8
:1050F000B54627D08AB0D4E9030163696A46DFF870
:1051000074C0C2E90713C2E905C042F8108F00233A
:1051100048464FF42151FDF74BFBD9F800305807B2
:10512000B5460FD0E3690121134A484617F00DF840
:10513000D9F80030590705D0A369104A0121484623
:1051400017F003F8012D0AD1EFF305830748026831
:10515000520704D00A4A103B294616F0F6FF2146B2
:10516000284612F0D3FFBD46BDE8F883C00A0020F0
:105170001C6502084B6502087A6502088965020809
:10518000B765020808B5034B1B689847BDE808409F
:1051900000F026B8A003002030BFFFF7FDBF00BF1E
:1051A0002DE9F0410B4EDFF8308006EB0807CC1BF1
:1051B00005463246094920461DF040FEA0194246E8
:1051C0000021083C1DF062FEC5F8A84007F1080068
:1051D000BDE8F0810000000008000000243902084A
:1051E000074A936893F90E10002907DB526993422E
:1051F0001FBF044A536843F080535360704700BF99
:10520000BC3E002000ED00E0F8B5374C23685B079A
:1052100006460D4603D03549204618F0AFF9344B09
:105220009B6ADF0451D52368580703D031492E48C3
:1052300018F0A4F917202E4B9B6A190507D523688F
:105240005A0703D02C49284818F098F91820284FFD
:10525000BB6A9B0519D52368580703D02749224804
:1052600018F08CF9BB6BBA6A11040DD5226852078D
:1052700004D0234A1C48012116F067FF26B11C4ABE
:10528000936A23F4004393621920194B9B6A5B05D0
:1052900007D523685F0703D01A49134818F06EF941
:1052A0001A20134B9A6AD60511D52368590703D0E3
:1052B00015490D4818F062F91B200D4A936A43F412
:1052C0007F43936200232B70F8BD1620B3E79B6ADF
:1052D0009A04F2D523685B0703D00C49024818F002
:1052E0004DF91C20E9E700BFC00A0020CA6502088A
:1052F00000ED00E0E0650208F165020804660208BE
:105300001D660208326602084D66020865660208DC
:1053100010B52D4C23685A0703D02C49204618F0AD
:105320002DF92B4B9B6A9B014BD52368580703D063
:105330002849254818F022F91E20254B9B6AD901DF
:1053400007D523685A0703D023491F4818F016F9D8
:105350001F201F4B9B6A1B0307D52368580703D0E8
:105360001E49194818F00AF92120194B9B6A590364
:1053700007D523685A0703D01949134818F0FEF8D7
:105380002220134B9B6A9B0307D52368590703D040
:1053900014490D4818F0F2F823200D4B9B6ADA03EC
:1053A00007D523685B0703D00F49074818F0E6F8D4
:1053B0002420074A936A6FEA03436FEA1343936218
:1053C00010BD1D20B9E700BFC00A00209466020886
:1053D00000ED00E0AC660208BF660208D96602086C
:1053E000F76602081C670208366702082DE9F047D5
:1053F000454D2B68894659078046174603D04349D7
:10540000284618F0BBF8424B9B6ADA0639D52B6860
:105410005B0703D03F493C4818F0B0F811243C4BDF
:105420009B6A1E0707D52B68580703D03A493648B0
:1054300018F0A4F81224DFF8D8A0DAF82830990779
:1054400021D52B685A0703D034492F4818F096F815
:10545000DAF83460DAF828301B0651D52B685C077F
:1054600005D02F4A28483346012116F06EFEB9F1C7
:10547000000F04D0264A936A23F08003936213241A
:1054800003E01024CBE76FF01506214B9B6AD80789
:1054900007D52B68590703D022491B4818F06EF82E
:1054A00014241B4B9B6A9A0607D52B685B0703D015
:1054B0001D49154818F062F81524154B9A6AD5064F
:1054C00002D49A6A90070AD55B68190507D5414648
:1054D000304600F059FA10B180F3098802240C4BD1
:1054E0009A6A920642BF5A6A22F400525A629A6A33
:1054F00042F0FF029A6200233B702046BDE8F0872D
:105500006FF01506BBE700BFC00A00206167020804
:1055100000ED00E077670208F1650208AA6702085B
:10552000C2670208D8670208656602082DE9F041E3
:10553000744B8AB0D3F8048000AF0446C8F3080661
:10554000002585F31188BFF36F8F02F07F43B3F11D
:105550007F4F0AD102F00C03082B15D16A4803686B
:10556000590702D0694918F009F800252C46002394
:10557000FB71F31E092B00F29F80DFE803F00A9114
:10558000948D9D9D9D9D9D9712074CBF0C460125B6
:10559000EDE75D4E33685B0703D05D49304617F099
:1055A000EDFF0023FB71574BDA6A900708D533688B
:1055B000590703D05749544817F0E0FF00233CE057
:1055C000DA6A002A04DA33685A07F7D05249F2E758
:1055D000DB6A5B00F2D53368580703D04F494A486D
:1055E00017F0CCFF474BA1695A6942F480725A61A7
:1055F000BFF34F8FBFF36F8F5A6931F8021C22F44B
:1056000080725A61BFF34F8FBFF36F8F4DF60272F6
:10561000914208D09A6AD2B28AB3FA1D012120467B
:10562000FFF7E4FE3AE03368590705D023683C4AA7
:105630003548012116F089FD2368FA79DAB907F1B6
:10564000080604F1200C20686168324603C2083461
:1056500064451646F7D17A6A002D4DD0C2F3080191
:1056600021B96FEA52226FEA42227A6207F10801F9
:105670001846FFF717FD2837BD46BDE8F0819A6A46
:1056800012F47F4F04D0F91D0120FFF7BDFD05E0A6
:105690009B6AB3F5803F91D3FFF73AFE0346CCE710
:1056A000FA1D0021BBE7F91D0020EEE7164803684C
:1056B0005A0783D01B497FE7134803685B073FF411
:1056C0007DAF194A194B18F4F87FE8468AB018BF25
:1056D00013466A461649C2E905134FF40073138452
:1056E000103E144BD66142F8103F00234FF4115185
:1056F000FDF75EF8C54661E722F4FF7222F0010271
:10570000B3E700BF00ED00E0C00A002025680208F2
:1057100050680208676802088868020896680208EC
:10572000B5680208D16802080C680208F767020829
:10573000F568020804000001024A536943F01003AF
:105740005361704700ED00E0EFF30880EFF309814B
:1057500001B57246FFF7EAFE01BD00BF102080F3DD
:1057600011880B484FF0AA014FF404621CF0F5FBBE
:1057700007484FF40461401880F30988EFF3148060
:105780000221084380F31488BFF36F8F00F0BCF848
:10579000806B0020BFF34F8F0549064BCA6802F4A7
:1057A000E0621343CB60BFF34F8F00BFFDE700BF44
:1057B00000ED00E00400FA05084B9B6883420BD122
:1057C000EFF3058343B1064B5A6842F080525A60AA
:1057D0005A6A22F400425A621CF03EBFBC3E0020CE
:1057E00000ED00E00A4A93686FF00A01C3F8C410A4
:1057F0000849C3F8C0004B6843F080534B60002356
:1058000083F31188BFF36F8F9368D3F8C400704798
:10581000BC3E002000ED00E010B50446EFF311831C
:10582000102383F31288BFF36F8F0C4B5869986075
:105830000B4B4FF000625A600A4BD0F8A8201A6058
:105840000022D0F8C030C0F8C02083F31188BFF325
:105850006F8F00F005F9204610BD00BFBC3E002050
:1058600000ED00E0D82900200B498A684FF0300095
:105870001044EFF3098C80E8F01F74467046FFF780
:10588000CBFFA64604498A6802F1300090E8F01F79
:105890008CF3098870470000BC3E00201EF0040F06
:1058A0000CBFEFF30880EFF30980816911F8021C47
:1058B0000229FFD001B517F05DFE01BD40B20028FE
:1058C00007DB044A4109012300F01F00834042F82E
:1058D0002130704700E100E040B20028A8BF00F18D
:1058E000604001F10101B8BF064B4FEA0111ACBFA6
:1058F00000F5614000F00F00C9B2B4BF195480F840
:105900000013704714ED00E00F4A08B50F4B22F06A
:105910007F029A60BFF34F8FBFF36F8FD3F8882059
:1059200022F47002C3F88820EFF3148323F00403F9
:1059300083F31488BFF36F8F12F0E8FC13F0B8FE06
:1059400000F064F812F034FD0000000800ED00E003
:1059500042F8203C009B42F81C3C0A49019B42F85B
:10596000183C029B42F8143C21F001014FF0807377
:1059700042F8043C42F8081C0023203A0265C0F8B3
:10598000C0307047711C00080A4A0346906878B11D
:1059900013F1160FD0F8980005D0A0F140029A42FA
:1059A00005D8834203D2814228BF002070470020DF
:1059B000704700BFBC3E002008B515460C4A0D4B91
:1059C0009060D0F8A8201A600E4600F049F82C46E6
:1059D00086F309884FF00000074B984720464FF0A8
:1059E00000014FF000024FF00003044C204700BFBD
:1059F000BC3E0020D82900208DD50108711C00086C
:105A0000014B10221A61704700ED00E004480023AA
:105A10001021C2180133522B82F80013F9D17047BC
:105A200000E100E008B5EFF30583064A103B02EB06
:105A3000C30152F8330049688847BDE80840FFF7C2
:105A4000CFBB00BF4C320208024B034A034801217E
:105A500000F092B80000022000000020B0410208CF
:105A6000D0F89820054B403A1A60054A4021C3E916
:105A700001121846012100F089B800BFDC2900207E
:105A800000000B1508B503461148D0F89020C2F36A
:105A90000722013A93420AD90E480268520703D0FE
:105AA0000D4A012116F051FB6FF0150008BDC0F83A
:105AB00098300A6822F01F021A4342F01002C0F820
:105AC0009C208A6842F00102C0F8A0201846EDE749
