:020000040800F2
:1000000080B400AF084B4FF40052DA60064B40F268
:1000100041329A60044B00221A61034B00225A615C
:1000200000BFBD4680BC70470010014080B483B063
:1000300000AF0346FB7100BF064B1B6803F0800353
:10004000002BF9D0034AFB79536000BF0C37BD4643
:1000500080BC70470010014080B582B000AF78606E
:1000600007E07B681B781846FFF7E0FF7B680133E9
:100070007B607B681B78002BF3D100BF00BF083783
:10008000BD4680BD80B483B000AF0346FB71FB79F1
:1000900003F00103002B05D00A4BDB68094A43F447
:1000A0000053D360FB7903F00203002B05D0064B0D
:1000B000DB68054A43F40053D36000BF0C37BD46EC
:1000C00080BC7047001001400044004080B485B0FF
:1000D00000AF786039600023FB600FE000BF0C4B7D
:1000E0001B6803F08003002BF9D07A68FB68134487
:1000F0001A78074B5A60FB680133FB60FA683B686B
:100100009A42EBD300BF00BF1437BD4680BC704796
:100110000010014080B584B000AF0B4A3B1D07CAF8
:1001200083E80700FFF76CFF0848FFF795FF3B1DCA
:100130000B211846FFF7CAFF0320FFF7A3FF002398
:1001400018461037BD4680BD680100085001000800
:1001500054657374696E67204D4D494F2064657412
:10016000656374696F6E0A0048656C6C6F204D4D55
:04017000494F2100D2
:0400000508000115D9
:00000001FF
