:10000000805E0020F54B0000D7020200E14B0000AB
:10001000E14B0000E14B0000E14B0000000000005C
:10002000000000000000000000000000FD4C000087
:10003000E14B000000000000C94C0000E14B000053
:10004000C14E000093500200C14E0000C14E00009E
:10005000C14E0000C14E0000C14E0000C14E000064
:10006000C14E0000C14E0000C14E0000C14E000054
:10007000C14E0000C14E0000C14E0000C14E000044
:10008000C14E0000C14E0000C14E0000C14E000034
:10009000C14E0000C14E0000C14E0000C14E000024
:1000A000C14E0000C14E0000C14E0000C14E000014
:1000B000C14E0000C14E0000C14E0000C14E000004
:1000C000C14E0000C14E0000C14E0000C14E0000F4
:1000D000C14E0000C14E0000C14E0000C14E0000E4
:1000E000C14E0000C14E0000C14E0000C14E0000D4
:1000F000C14E0000C14E0000C14E0000C14E0000C4
:1001000053B94AB9002908BF00281CBF4FF0FF317E
:100110004FF0FF3000F00CB8ADF1080C6DE904CEE3
:1001200000F008F8DDF804E0DDE9022304B07047D0
:10013000704700BF2DE9F04786468C460846089E6A
:10014000154674461946002B40F0C2808542B2FA2B
:1001500082F245D94AB1C2F1200300FA02FC2EFA1C
:1001600003F3954043EA0C0C94404FEA154EA8B2B5
:10017000BCFBFEF8230C0EFB18CC08FB00F943EA8D
:100180000C43994528D9EB1808F1FF3704D299455B
:1001900002D9A8F102072B44A3EB0903A4B2B3FBD5
:1001A000FEFC0EFB1C330CFB00F044EA0344A042AF
:1001B00014D92C190CF1FF3304D2A04202D9ACF1AE
:1001C00002032C44241A43EA07401EB1D440002302
:1001D00034607360BDE8F0874746DDE76346F1E7CA
:1001E00092BB431B01214FEA154EAFB2B3FBFEFC9D
:1001F000200C0EFB1C330CFB07F840EA0343984528
:1002000062D9EB180CF1FF3004D2984502D9ACF159
:1002100002002B44A3EB0803A4B2B3FBFEFC0EFBCD
:100220001C330CFB07F744EA0344A7424ED92C19B0
:100230000CF1FF3304D2A74202D9ACF102032C44E3
:10024000E41B43EA0040C0E7C2F1200320FA03F1B7
:10025000954090402EFA03F303434FEA154EAFB298
:10026000B1FBFEFC0EFB1C10190C0CFB07F841EA5D
:100270000041884504FA02F422D969180CF1FF30D4
:1002800004D2884502D9ACF102002944A1EB08014F
:100290009BB2B1FBFEFC0EFB1C110CFB07F743EA03
:1002A00001439F420ED9EB180CF1FF3104D29F425B
:1002B00002D9ACF102012B44DB1B41EA004192E779
:1002C0006046E3E76146F7E76046A3E76346B7E7C2
:1002D000834206D916B9002108467BE7C6E900E04B
:1002E000F9E7B3FA83F78FB9834201D3724508D88F
:1002F000BEEB020460EB030301209C461EB9002103
:1003000068E73846FAE7C6E9004CF8E7C7F1200C81
:10031000BB4022FA0CF41C432EFA0CF120FA0CF329
:10032000B84001434FEA14490EFA07F5B3FBF9F858
:100330001FFA84FE09FB18300B0C08FB0EFA43EA87
:1003400000439A4502FA07F240D9E31808F1FF305A
:1003500004D29A4502D9A8F102002344A3EB0A0370
:1003600089B2B3FBF9F809FB183308FB0EFE41EA2A
:1003700003418E452CD9611808F1FF3304D28E4514
:1003800002D9A8F10203214443EA0040A0FB0298ED
:10039000A1EB0E014145CE46434602D306D14D4561
:1003A00004D2B9EB020E68EB04030138002EA6D08C
:1003B000B5EB0E0261EB030101FA0CFC22FA07F324
:1003C0004CEA0303F940C6E9003198E74046C5E727
:1003D0004346D9E710F8012B11F8013B012A28BF49
:1003E0009A42F7D0D01A7047034611F8012B03F850
:1003F000012B002AF9D17047034613F8012B002A7C
:10040000FBD1181A013870472DE9F04182B000AFD6
:100410003A1D002140F6034006F056FC0446002831
:1004200074D17868C3681B788BB9BFF35B8F3A4B84
:100430001A68BFF35B8F02F00902BFF35B8F53E8CA
:10044000001F43E80024002CF9D1BFF35B8F18F0A4
:1004500045FB3A1D002141F2030006F035FC04463D
:10046000002853D17A682D4DD168D1F80100D1F818
:10047000051005F1780303C3104618F02FFB214641
:100480003A1D41F2010006F01FFC044600283DD150
:100490007868C3685A7885F870205A88A5F8722061
:1004A0001A7985F87120B3F80720A5F87420B3F8FD
:1004B0000530A5F8763018F011FB21463A1D41F2BF
:1004C000020006F001FC044600BBD7F80480D8F80F
:1004D0000C2005F18006531C4132186859683446D7
:1004E00003C4083393422646F7D10D481FF092FF0C
:1004F000404618F0F3FA95F87C305A0616D4094AAB
:100500000948012120F0AAF86FF0120420460837AC
:10051000BD46BDE8F08100BFD400002000000020EF
:10052000800000206F9102001C6E02003A1D002125
:1005300042F2030006F0C8FB04460028E6D17B68BF
:10054000B14EDA68D2F80100D2F8051003C6184699
:1005500018F0C4FA21463A1D42F2020006F0B4FB3C
:1005600004460028D2D17C68E368B3F8012091B238
:1005700049B1D97839B1A5F80421DA78114606F1E4
:10058000280025F017FE204618F0A8FA95F87C60A0
:100590001F2316F02006A5F8203118D1022140F6BD
:1005A0006D4005F0A3FF0446002800F0E48002211E
:1005B0000C3025F016F901230370467021463246AF
:1005C00040F66D4006F080FB044600289ED195F869
:1005D0009C301B0712D53A1D002142F21C0006F088
:1005E00073FB0446002891D17868C368D3F80120D2
:1005F000D3F80530C5E9382318F070FA95F8D830EB
:100600009E0622D5B91C384606F020FC0446002878
:100610007FF47CAF042142F2240005F067FF064618
:10062000002800F0A88004210C3025F0DAF83B887F
:1006300003807B8843802246314642F2240006F044
:1006400043FB044600287FF461AF95F8D8305C0680
:100650002AD5022142F22E0005F048FF0446002868
:1006600000F0898002210C3025F0BBF8B5F8B031DC
:1006700003802146002242F22E0006F025FB0446AC
:1006800000287FF443AF01463A1D42F22A0006F0EB
:100690001BFB044600287FF439AF7868C3685B7899
:1006A00085F8223118F01AFA082142F2010005F00B
:1006B0001DFF044600285ED008210C3025F091F87B
:1006C00095F8D81011F0400F024640F2022308BFFF
:1006D000032388074CBF43F02C0043F00C008B062B
:1006E00095F8D93048BF40F0400013F0090F95F855
:1006F000A23018BF40F4006003F00603CE0748BFE5
:1007000040F01000062B08BF40F4C07000211FF01D
:10071000D8FF2146002242F2010006F0D5FA044635
:1007200000287FF4F3AE95F87C30B5F804119806F4
:1007300024D4C9B93A1D41F2050006F0C5FA0446B1
:1007400000287FF4E3AEB5F804317C684BB9E36868
:10075000B3F80120A5F804219A882C48114625F009
:1007600029FD204618F0BAF9082140F6014005F0AD
:10077000BDFE044660B96FF06804C7E60029F3D1F6
:10078000234A244801211FF069FF6FF00404BDE6ED
:1007900008210C3025F025F895F8D830D907024605
:1007A0002AD41D484FF000511FF08BFF2146002234
:1007B00040F6014006F088FA044600287FF4A6AE11
:1007C00001463A1D4FF6014006F07EFA40B3134A47
:1007D000104802211FF042FF07F06EFB044600287C
:1007E0007FF494AE08F014FF044600287FF48EAE28
:1007F00006F0B4F8044689E601A1D1E90001D3E787
:100800009088000200800020D8000020080100200D
:10081000939102001C6E020010880002B691020043
:100820007B68DC68B4F80130032B96BF434A444927
:1008300052F823106E468AB06A464248D3614FF49C
:1008400000731384404BC2E9050142F8103F3F4852
:100850004FF413511FF018FFB4F80120B4F803301F
:10086000022AB54649D1052B47D8394A52F82310F8
:100870006E468AB06A463748D3614FF400731384DA
:10088000314BC2E9050142F8103F4FF413512F4894
:100890001FF0FAFE637994F806C0D4F80900032B20
:1008A000B54698BF2C4AB4F8076094BF52F823109D
:1008B00023496C468CB06A46DFF8A0E0C2E9073CE9
:1008C0004FF400739385264BC2E905E1C2E9096044
:1008D0004FF4735142F8103F1C481FF0D5FEA54657
:1008E000786818F0FBF83A1D00214FF6024006F038
:1008F000EBF9044618B11B4A6AE71149B8E7786872
:10090000C368B3F80130A5F8C13018F0E7F895F8DE
:10091000C1305B077FF560AF3A1D21464FF60340BB
:1009200006F0D2F908B1104A52E77868C3685B78DC
:1009300085F8C03018F0D2F84EE700BFAC76020060
:10094000298F0200DA910200040000011C6E0200EF
:1009500094760200F3910200847602000B9202006A
:1009600007000001389202006192020000000000BE
:100970002DE9F0470F46D0E906A1D0F82090DFF826
:10098000688001EB09043034A245164614A3D3E96C
:10099000002314D8A1FB0801FFF7B2FB10A3D3E991
:1009A0000023A4EB0A0420F07F45A4FB0801FFF715
:1009B000A7FB20F07F403D603060BDE8F087AAFBD8
:1009C0000801FFF79DFB20F07F4509F1300004A3EB
:1009D000D3E90023A0FB0801E9E700BFAFF30080E3
:1009E0008D49FD1A0700000000CA9A3B0000000074
:1009F0002DE9F04F8DB020B90DB0BDE8F04F11F0EA
:100A00006DBBC74D95F86A4014F0010440F0558164
:100A100095F82500FF2300F0030085F8263015F037
:100A200079F895F86A0041070DD5224605F16B016A
:100A3000C0F3C00015F0CCF9FF2885F8260002D0DD
:100A4000204615F081F895F8293005EB8303DF6A1D
:100A500095F8353005EB8303D3F838A057B1B0488B
:100A6000394622F0B9FC3B785A060ED4AC485146C0
:100A700022F0B2FC3B7813F00E0F40F09F802B6AFF
:100A800053B10C200DB0BDE8F08F062122F002F822
:100A90000028EBD11220F5E70EF0B6FE804630B10B
:100AA0000EF024FF814620B940460EF0B3FE072029
:100AB000E8E711F049FD044618B948460EF01CFF5E
:100AC000F2E74FF6FF730385D0F8883000F11C0B76
:100AD0001BB900F18003C0F8883004F17C0204F1F6
:100AE0007801D4F8880021F0E0FF94F88E3023F0EC
:100AF000070384F88E30B4F8763023F4EF6323F0E4
:100B0000070343F48C7343F00103A4F8763094F8A0
:100B1000393003F03F0363F07F0384F8393094F8F1
:100B20003C3023F00703002684F83C304FF4C02308
:100B3000C4F888312046C4E91266C4F88860A4F875
:100B40008C60E685266384F83B602665A4F88E6198
:100B5000A4F8846123F0BFFA84F85061C4F854818A
:100B600011F04CFE94F8943160F3020384F8943150
:100B700011F04AFE94F8943160F3C50384F894317F
:100B800094F8803166F3410384F8803101212046D6
:100B900012F044F804F1D40023F07CF9C5E9188977
:100BA000C5F820B0C4E905662670E46116F098F92E
:100BB00020B15B4810F0E6FF032063E795F824308E
:100BC0000121C3F342030DF12B008DF82B3021F0EE
:100BD00098FF0246002800F094809AF801103846E9
:100BE00022F0ABFB002431234E492C70C5E90234BE
:100BF0004D4B6C60A0FB0101C01841F1070146A3F9
:100C0000D3E90023C5E90544FFF77AFAB5F868602F
:100C1000286122F081FA00F109082EB93C7804F02D
:100C20000F04631E5C425C4195F824702B693F4AB7
:100C3000DFF8FCA03F4964F3000785F824704FF00B
:100C4000020917F001070BACCDF82C9037D000202B
:100C50001060CDE90431CDE90842CDE9000303215C
:100C6000CDE9065ACDE9020043464A4622F01AFA77
:100C700021460FF08BF8002843D12F4A06954AF2FF
:100C8000D833CDE904020093CDE907A4CDE90200F1
:100C90000190434601220321CDF82C9022F009FA5D
:100CA00021460FF073F860BB95F86A30012043F0DD
:100CB000010385F86A3014F00DFF0020E2E603F22C
:100CC000471010601D48CDE904314FF0910CA6FB90
:100CD00000014FF6FF73CDE90842CDE902730CFB2A
:100CE00006110DA3D3E90023CDE9065AFFF708FA50
:100CF0004346CDE900704A460321384622F0D2F936
:100D0000CEE72B6A002B3FF4BCAE054810F03AFF4B
:100D1000B7E600BFAFF300808D49FD1A0700000061
:100D2000F026002000CA9A3B8C49FD1AE4260020D8
:100D3000FDF70000991D0100791A0100002AE784DF
:100D400070B590F824308AB0C3F342030D460446D0
:100D500001210DF1230016468DF8233021F0D1FE3C
:100D600071780246284622F0E8FA1D49A0FB0131BD
:100D70001C48181841F1070117A3D3E90023FFF716
:100D8000BFF9216905468D4220D2481B0021164A31
:100D900002230993A21A7423B2FBF3F2134B0593B7
:100DA00009AE00230232CDE90110CDE9033303215E
:100DB00006960093D2B2184622F096F931460EF00C
:100DC000E5FF38B9256100200AB070BDFBD9691A6A
:100DD0000020DCE70C20F7E78D49FD1A0700000032
:100DE00000CA9A3B8C49FD1AF0260020FDF700004E
:100DF0002DE9F04F06468BB08A4601200221994624
:100E0000154617F09BFC00220221804601200DF0C0
:100E10005BFD304611F0A4FBC71CFFB2364B0096B9
:100E20003A46012100200EF083FB10F0FD0F0ED09A
:100E3000324A3349334840F632031DF083F8002329
:100E400083F31188BFF36F8F0323184602DF2E4C04
:100E5000A5FB044526A3D3E9002320462946FFF736
:100E60004FF92A4B0896CDE90663294B0593336960
:100E700004934FF6FE730393264B20F07F46A6FBA8
:100E800003310722E01A02FB061165EB01014FF462
:100E90007A720023FFF734F94FF0000BCDE90160BF
:100EA000CDF800A04B463A460121584622F001F900
:100EB00010F0FD0F0DD0114A1149124840F64703BA
:100EC0001DF040F88BF31188BFF36F8F0323184692
:100ED00002DFB8F1000F07D00122022110460BB04B
:100EE000BDE8F04F0DF0F0BC0BB0BDE8F08F00BFD7
:100EF0008D49FD1A07000000E924010000AF02003F
:100F0000B0AF0200EB8D020000CA9A3B89240100B9
:100F1000595501008D49FD1A2DE9F0438468228D51
:100F20004FF6FF739A428DB0804600F0A7802046AE
:100F300023F058FA98F81430012B2ED0022B32D01F
:100F40000BBB94F88E3003F01803182B1BD1A18D26
:100F5000B4F886218B1D9A42C4BF931F5B1AB4F864
:100F60008211CCBF9BB21346994208D0A4F88231BB
:100F7000B4F88231A4F88431A4F8882103E0B4F8ED
:100F80008831002BF4D094F8507187B1394620464F
:100F90000DB0BDE8F04311F0CBBC0023A4F88831BC
:100FA000A4F88431EFE73D2384F85031EBE7E58D79
:100FB000268E5DB335440023CDE90A33B8F81030EE
:100FC000ADB2DBB194F93930002B14DA40460AAAED
:100FD0000BA904F1D409FFF7CBFC484622F095FF9A
:100FE00010B9FF2011F072FC484622F08EFF024635
:100FF00070B1002323860023A4F88A3198F81230B8
:10100000D90711D50023A4F88E3115E0751CD2E75D
:10101000D4E91E0121F05EFD0028EAD194F83C30AD
:101020005807E8D5A38DE5E7B4F88A314BB3AB4256
:1010300020D95B1BA4F88A31B4F88E317BB1AB4266
:101040003ED95B1B9BB20022062BA4F88E31228670
:1010500004D994F93930934201DA26B301270DF10E
:1010600027022946204612F029FC74302AD19DF827
:10107000271000E03E21204611F05AFC0DB0BDE8DB
:10108000F083B4F88E31002BD6D1628D40F2E2436A
:101090005A43B4F88C3142F2107101FB0323013B37
:1010A000B3FBF2F3AFE7D4F878215308D20702D4A8
:1010B000C4F87831D3E743F00043C4F87831CDE782
:1010C0000821D8E7B4F88831A3B1AB4203D95B1B40
:1010D000A4F888310EE00EF0F9FD0146002850D04A
:1010E0000023A4F88831238DC3801B23037100687B
:1010F00022F054F8B4F8843123B1AB4243D95B1BDE
:10110000A4F88431238E0FB99E4243D05E1CB6B240
:1011100094F8D13013F001013ED1DDE90A23002B10
:101120007DD10AB9002E77D000210D460B46228DC5
:101130003F48D4F81C80019103320A990091CDE90F
:101140000470CDE90256CDF81880D2B201210020FA
:1011500021F0CAFF10F0FD0F90D00EF03FFE804549
:101160008CD0344A344935484FF4A3631CF0EAFE6E
:10117000002383F31188BFF36F8F0323184602DF28
:101180007CE70123A4E70023A4F88431204623F060
:1011900008F8B7E73E46BBE76FF3000384F8D130A9
:1011A00094F93930002B2EDA94F87700012100F001
:1011B000070023F0B6FFB4F86E20B4F86C30DFF807
:1011C00080C0204D134403F2D51318440721E0FBDF
:1011D0000C5115A3D3E900232846FEF791FF25699A
:1011E000DDE90A2320F07F40854235BF411B2D1ADF
:1011F000002500212061002B99D10A4397D1002DB1
:1012000090D0194693E794F87600C0F3C00100F03F
:10121000070023F084FFCEE7002F85D12EE70D468F
:1012200085E700BFAFF300808D49FD1A070000007D
:101230004524010000AF020028B00200EB8D02003F
:1012400000CA9A3B8C49FD1A2DE9F04F85B004463F
:10125000BDF844900393CDE90112BDF838A022F007
:1012600031FBA368D4F80C61A0EB0905002B834681
:10127000ADB209DAE168626823F0004391422CBF05
:101280007618B618A360F61A638D634F13FB05F347
:101290009BB2B3FBFAF11AFB01F080B283421FFA52
:1012A00081F840F2E24280F09480C01A5043A0FBE3
:1012B000070157A3D3E90023FEF722FF20F07F4068
:1012C0000644E38DB4F814211344994494F839305A
:1012D000A9EB0B09C14440F2E24BDB09A4F82E90C4
:1012E0000BFB0AF900F08280226CA36C02FB153321
:1012F000A36423F04AFF054694F87401C0F342004A
:1013000015F03CFE029A454B05440BFB02F22265A8
:1013100009FB05F50022C4F87C2105F57425A26CB3
:1013200005F23F25B5FBF3F54FEA590305FB08F03D
:10133000963B0244256463649A4294BFA264A3640A
:10134000A0FB070132A3D3E90023FEF7D9FE039BDC
:10135000361AB3FBFBF00BFB00F0A0FB07012CA33C
:10136000D3E90023FEF7CCFEA9EB050520F07F476B
:10137000BDF83C30A385BDF84030A4F88C31494617
:101380002046A4F82AA012F0D3FAA18D244A881D81
:101390004A44B2FBF9F293B29842A4F886313EBFB8
:1013A0005B1A063B9BB2A4F88231019B13B1002368
:1013B000A4F88E3133462A4639462046FFF718FDF9
:1013C00094F8803143F0010384F8803105B0BDE822
:1013D000F08F0AFB113080B25043A0FB07010CA331
:1013E000D3E90023FEF78CFE361A6AE70D4A0E4950
:1013F0000E4840F6BD031CF0A5FD002787F31188B9
:10140000BFF36F8F0323184602DF4D46B0E700BFDE
:101410008D49FD1A0700000000CA9A3B40420F00A8
:101420007FC3C90100AF020048BB0200EB8D020080
:101430002DE9F04F0B6891F811A0D3F80090037FCD
:101440001668044695B0C3F38013D0F81E008DF8DB
:101450003F301546BAF1FF0F628C12900F4612AB67
:10146000ADF84C2050D010AA0DF13F01504614F0B9
:1014700095FA9DF83F3002338DF83F30234605F151
:10148000180053F82E2B0B92E28D2A819B78AB72B9
:10149000D4F82A306B60D4F83A30AB6194F83E301F
:1014A0000371052121F02DFB6B7F00F03F0060F3FD
:1014B00005036B7794F83F30C3F30402AA77A28E3A
:1014C000EA81012803F01F0391B205D91B3303F011
:1014D0001F030B2B00D8E9B90022C9F8142095F896
:1014E00020300B9862F3000385F82030E568012670
:1014F000214626710EF0BEFB28682E71294621F088
:101500004DFE15B0BDE8F08F93E803001090ADF8E4
:101510004410B3E73B6800215960E38E2B82638E51
:101520000C933046B5F80E8022F00EFE94F83F2062
:1015300096F87411520962F3430186F8741123F08E
:1015400024FE0D9096F87401C0F3420015F016FDCC
:101550000D9A40F2E24B0BFB08F8104408FB00F038
:1015600000F57420B04A00F23F20B0FBF2F04FEAE1
:101570005802963A6862AA6294F831200BFB02F393
:10158000AB63238FA6F88C314146304612F0D0F978
:10159000A64BC6F89031A64B4344B3FBF8F39AB27E
:1015A000A6F88621298A881D82421346C1BFC1F54B
:1015B0007F43FA33D21892B2A6F882216B68C6F83C
:1015C0007831234613F81C2FC2F3401BDA070DD5E0
:1015D000984A99499948F8231CF0B4FC002383F3F6
:1015E0001188BFF36F8F0323184602DF4FF4807317
:1015F000A38399F8260014F01DFE04F12B030028A4
:1016000000F00681626AC4F82B20228D9A80BAF11C
:10161000FF0F04F125031DBF1298BDF84C20C4F83C
:101620002500002208BFC4F825209A809DF83F308D
:10163000A3771098BDF84430C4F81F00A4F82330F5
:10164000EB8963862B8AA386B6F88C31E38696F8FD
:101650007431C3F3420384F83830304610F080FF11
:10166000A881E080D7F804A00B9821460EF002FB79
:10167000AB89AAF806301C23DAF800408AF8043057
:10168000BBF1000F00F0C8806B7F43F040036B7725
:10169000281D23F0C6FC0123E8838AF81C3051463C
:1016A000204621F07BFD95F85B00B5F850A0B5F819
:1016B0005240012100F0070023F033FD834604EB84
:1016C0000A00DFF87CC15F4C00F2D51058440721B6
:1016D000E0FB04C14FF0000A31236046C6E901A3D4
:1016E000C6F80CA04EA3D3E90023FEF709FD20F0B5
:1016F0007F403061F9680C9A6D6A40F2E243012044
:10170000A8EB050503FB0218524602210DF0DCF898
:10171000484610F0C1FC08F2B248A8EB0B0840A301
:10172000D3E900238346A8FB0401FEF7E9FCBB686C
:101730004549009120F07F483A3B0BF102024344B7
:10174000D2B20121CDF8049050460DF02BFF49464E
:1017500013F0E4FE99F82430DB0707D50122CDF819
:1017600000A05346114650460DF0E2FE304610F000
:10177000F7FEA5FB04542AA3D3E9002381462146A2
:101780002846FEF7BDFCBB68A3F13A0A40F2D1132C
:1017900008932E4BCDE906632D4B059333690493D3
:1017A0002C4B20F07F46A6FB03310722E81A02FBF0
:1017B000061164EB010109F103074FF47A724FF04F
:1017C00000090023CDF80C90FEF79AFCFFB2CDE99A
:1017D0000160CDF8008053463A460121484621F089
:1017E00068FC10F0FD0F0DD0124A1B4913484FF44E
:1017F000E9731CF0A7FB89F31188BFF36F8F0323F4
:10180000184602DF0122022110460DF05DF878E64D
:10181000C4F82B009880FAE65B463EE7AFF3008001
:101820008D49FD1A0700000040420F00404B4C005C
:101830007FC3C90178B402008FAC0200EB8D0200B7
:101840008C49FD1A00CA9A3B1D550100ED54010058
:10185000595501008D49FD1AB0AF0200000000008B
:101860002DE9F04F8FB0DFF8D8800B900DF13701E4
:101870000DF1360021F099FC324F9DF836A09DF80D
:1018800037B021F049FCD8F800400A90A4FB075477
:1018900029A3D3E90023002621462846FEF730FC81
:1018A0000B9B0693CDE90766274B05938146D8F835
:1018B000040021A3D3E90023A0FB0701FEF720FCCD
:1018C000224B29F07F47A7FB033120F07F400722FE
:1018D000CDE9036002FB0711E81A64EB01014FF444
:1018E0007A720023FEF70CFC0A9B0096CDE901708A
:1018F0005A460321504621F0DCFB10F0FD0416D1BE
:10190000134A144800231AF0F7FC68B19DF83720F9
:101910009DF836000094234603210DF009FE6FF078
:1019200073000FB0BDE8F08FD8F80C00F9E76FF046
:101930008B00F6E7AFF300808D49FD1A0700000029
:10194000F42C002000CA9A3BA16401008D49FD1AC5
:10195000447B0B00DC2C002038B50F4D044621F0F1
:10196000DBFBA96821F0DAFB6968B0FBF4F40444FE
:101970000A4807A3D3E90023A1FB0001FEF7C0FB3F
:1019800020F07F40844294BF0020012038BD00BF7A
:101990008D49FD1A07000000F42C002000CA9A3B74
:1019A000F7B5C468636805465BB193F820309A07C1
:1019B00007D04B48214616F0BFFA16F075FB002001
:1019C00070E016F0D9FA002016F0FAFA0021084665
:1019D00016F0E8FA00222521082016F029FB414BD9
:1019E000019301A816F00CFB3F4940F25B6016F032
:1019F0009DFB237AC3F3420262F30613237220464F
:101A000015F06EFC14F0D6FC637A00284CD013F06D
:101A1000030018BF012014F051F84178821C0078AF
:101A200016F086FC27682E68384623F058FB0644DB
:101A30006A6806F10901012016F0ECFC16F0ACFD15
:101A4000204610F033FB811C3246C9B2384623F0E1
:101A500054FB054660B3254A2549264840F2144305
:101A60001CF070FA24480726A5FB00011AA3D3E94D
:101A7000002306FB0511FEF743FB204902462048E0
:101A80001CF060FA002383F31188BFF36F8F0323E8
:101A9000184602DF1B48214616F04EFA16F004FBEA
:101AA0006FF08B0003B0F0BD9B07BBD00120B2E705
:101AB000204623F00FFB002881D00C4A12490D4824
:101AC00040F22C431CF03EFA85F31188BFF36F8F70
:101AD0000323184602DF72E700CA9A3B00000000A9
:101AE000A56C0100D6BE898E55555500C5B80200BB
:101AF00048BB0200EB8D02008D49FD1A61B902005E
:101B000037B902008F5102005BAA020000000000FA
:101B10002DE9F341C468A2894FF6FF739A42054646
:101B200007D17D48214616F007FA16F0BDFA0020CD
:101B3000C7E015F0F5FD2B89628AE08A1A4492B25B
:101B4000104480B2431CE38200236382637FA2823D
:101B5000590604F1180640F1B780E18B03F03F030A
:101B6000324613F09FFDD4E90B23A16A1344994236
:101B700094BF21632363D4E90D1300220B44C4E90D
:101B80000D23E26294F8722012F0040206460AD194
:101B9000D4E9170120F09EFF28B994F8723043F081
:101BA000040384F8723016F0E7F9002016F008FA02
:101BB000201D16F025FA2389A17A40F25B6043EAE2
:101BC000014116F0B3FA304615F00AF821465348A1
:101BD00016F0B2F9962016F011FC94F85A2094F8F9
:101BE0005B00C2F3C003002102F0070200F007000F
:101BF00016F068FB204615F0F1FD27682E68384680
:101C000023F06DFA06446A6806F10901002016F017
:101C100001FC804616F094FC002016F0ABFC236B10
:101C200094F85B0003F13002A36B012100F0070080
:101C300003EB420523F00BFD4544054494F85B009B
:101C400000F00700022849D004280CBF4FF4BC73F1
:101C5000282301211D4423F0FCFC284416F064FCD9
:101C6000A18903313246C9B2384623F046FA054607
:101C7000002835D02A4A2B492B4840F24B131CF040
:101C800061F92A480726A5FB000121A3D3E9002317
:101C900006FB0511FEF734FA2549024625481CF0DB
:101CA00051F9002383F31188BFF36F8F0323184684
:101CB00002DF2148214616F03FF916F0F5F96FF0E2
:101CC0008B0002B0BDE8F08103F03F03A17F0093D9
:101CD00004F11F00334623F082F944E71823B8E7E4
:101CE000204623F0F7F900283FF421AF0C4A1349AE
:101CF0000D4840F255131CF025F985F31188BFF308
:101D00006F8F0323184602DF11E700BFAFF3008097
:101D100000CA9A3B00000000A56C01002179010077
:101D2000CDB9020048BB0200EB8D02008D49FD1ABF
:101D30001EBA020037B90200615102005BAA02001C
:101D40008B1E59425941014B19707047A532002032
:101D500001481CF0EAB800BFDA7D020001481CF01F
:101D6000E4B800BFFC7D020001481CF0DEB800BFF3
:101D70001A7E020001481CF0D8B800BF2E7E020077
:101D800001481CF0D2B800BF427E020008B50348EB
:101D90001CF0CBF8024B00221A7008BD517E0200E5
:101DA000A43200200349044B0448002A18BF1946F6
:101DB0001CF0BBB86B7E0200667E0200737E0200E0
:101DC00011B103481CF0B1B802481CF0AEB800BF16
:101DD000827E0200A27E020070B503788AB00446BB
:101DE0000E4607AD032B20D8DFE803F002191B1DB8
:101DF00011492846FEF7F8FA059563780493A3780D
:101E00000393E37802932379019363790093A37991
:101E10000A4A1E2130461BF0E3FA0AB070BD084999
:101E2000E7E70849E5E70849E3E7084A0A212846C1
:101E30001BF0D6FAE0E700BFAD7E0200CF7E0200C5
:101E4000B47E0200BB7E0200C57E02004BAD0200E4
:101E500000B589B01FF054F86946FFF7BDFF03488D
:101E600069461CF062F809B05DF804FBF27E0200DE
:101E700010B588B00C461FF043F86946FFF7ACFF79
:101E80000348224669461CF050F808B010BD00BF58
:101E9000097F02002DE9F04100208CB005F020F808
:101EA000014600286AD1394D39481CF03EF800F04F
:101EB000A9F81CF0F7FF0FCD02AC0FC42B6823600C
:101EC0000123344900930322334B02A806F030FA71
:101ED000014600284ED031481CF027F83048314DDB
:101EE000314E09F051FD314807F060FB304A31486E
:101EF0000D2109F041FF2522044602A92C4803F0D8
:101F00008DFE2D4802AA21461CF00FF800214FF447
:101F100000401AF057FF00F08BF82B780133D8B24D
:101F2000A02808BF5A20287001F0CAFF01F04EFF18
:101F3000431E13F0FF0008BF642001F04DFF33780B
:101F4000002BE3D0002CE1D01C4F38780028DDD1E5
:101F50001B491C4B8B601C4B4C604FF00108C1E9C6
:101F60000337A1F8148009F097FF0028CED187F835
:101F70000080CBE715481BF0D8FFAFE714481BF0F3
:101F8000D4FF00200CB0BDE8F08100BF906F0200CC
:101F90003F7F0200A070020098700200567F02008E
:101FA00020020020AA060020A532002008020020FE
:101FB00025800200B87002009E7F0200A43200203B
:101FC00074180020A51D00008D1D00007C7F0200FC
:101FD0001F7F020038B50C46BDF81000E5681C46AE
:101FE000C3180A2B114608DC2246284424F0CDFCF5
:101FF000034B01221A70204638BD6FF00604FAE741
:10200000A6320020094B40F2DF721A8005229A7036
:102010001E220C21DA709A7101221971DA712D21B8
:10202000002259711A725A72704700BFA7320020FD
:1020300010B50C4B1A7886B08AB1002421461822BC
:1020400068461C7024F0C9FC074B0193074B0293B0
:1020500069460A232046ADF80C300AF0ABF806B00A
:1020600010BD00BFA6320020D0710200A7320020B0
:1020700010B5094C0A44914200D110BD11F8013B42
:10208000584003090001E35CC0B2434018091B013A
:10209000205CDBB25840EEE7478002002DE9F04FAC
:1020A00091B08407009302F004030293C2F3C203C9
:1020B00003F10103DDF86890039205460E4605938F
:1020C00040F0BA81041D30B1072909D86FF01B0018
:1020D00011B0BDE8F08F01F00706341DC6F1080607
:1020E000009B4FF00008591E4FF0040A4FF0FF33D9
:1020F0000193CDF810804746C34653460DB1009A70
:1021000022600598002800F3E8809848009A8242EF
:1021100003D397488242C0F0E080039AA4EB050EF7
:1021200092074FEA9E0000F103810F2F00F2B18069
:10213000002D00F0058107F140020DEB020C019A21
:102140000CF8200C0CF8102C049801300490E7E0F7
:102150007A285DD84B280ED8472859D829282DD859
:10216000252852D054D820287AD02338D0F1000B1B
:102170004BEB000B74E04C382E2849D8DFE800F018
:102180007048484848484848484848484B484848A4
:10219000484848484859484B4B595959704B6D4825
:1021A0007048184B184848827F4B48484B487F007E
:1021B00000204FF0000B4FF0040A38E02A38C0B27C
:1021C000012202FA00F010EA0E0F49D110F0625C11
:1021D0002FD110EA020B43D06046013C5444B4FBBB
:1021E000FAF40AFB04F4002D61D0A3EB050CA4441F
:1021F000B4453FF66BAF002868D1042B47D159F89E
:10220000043B2360043404232AE0019A013A01923A
:102210004FF0000B24E011F8010C6C2834D111F8B8
:10222000023C00206C2B8346C5D14FF0080A534670
:10223000D3E709F1070929F007090734F9E802ABE8
:1022400024F0070435B106982044B0423FF63EAF73
:10225000C4E900AB08344FF0000B4FF0080A5346B6
:1022600011F8010F002878D0BBF1000F7FF470AF98
:102270002528F5D1019B013301934FF0010B4FF05D
:10228000040AECE7584694E700208346A5E7082BAC
:1022900002D06FF015001BE709F1070929F00709C3
:1022A000F9E80223C4E9002308340823D8E768B911
:1022B000042B02D109F10409A4E7082BE9D109F1A3
:1022C000070929F0070909F10809EDE7059A013A1C
:1022D000059259F8042B009210E7039A900720D535
:1022E000A4EB050E4FEA9E004FF0010CBEF5007FF7
:1022F000CFD20F2FCDD8F5B107F140020DEB020E72
:10230000C0B2019A0EF8200C0EF8102CBCF1000F90
:102310003FF41AAF60F07F000EF8200C08F10108BE
:102320000137C5F10802043406924FF6DA7E97E7CA
:102330004FF0000CDAE7BCF1000F01D00136EFE7F7
:10234000029802360028EBD10098CDE90631FEF75D
:1023500053F8DDE906310644E2E7631BB3F5806F0D
:1023600097D23DB9A6F10804E018B1E6106A020060
:1023700080BF0200029A28609B082B709DF81030E5
:10238000C2B1EB7085F80280B8F1000F05D008A843
:102390000022C5F1010C97420ED1C5F101030DF1E8
:1023A00020094FF0000A01930DF1300B574512D16F
:1023B000601B8DE66B70E5E710F8013B190608D548
:1023C00004EB0C0EB64503F07F033FF67FAE04F836
:1023D000013B0132DFE7B8F1000F03D099F900208B
:1023E000002A17DB029BD3B11AF80B2004F8012B4B
:1023F0000022019B98182044B0423FF667AE99F83E
:10240000000004F8010B00990392204624F0BDFA65
:10241000039A14440AF1010A09F10109C6E799F87F
:10242000002055F822300093029B45F82230009896
:10243000FDF7E2FF421CDCE76FF00D0048E600BF4D
:102440002DE9F04F97B000AF90F802A0D7F880B018
:102450003B62CBF3C0030446FA62BB61894641B9D3
:10246000457800780AEB800020444D4517D8A0EB52
:102470000409E378FB61BAF1000F02D01BF0010FF1
:1024800016D1FB6953BBFB6A1BB13A6A4946204629
:1024900098474D4628465C37BD46BDE8F08F461C40
:1024A0003046FDF7A9FF0130304409F10109DCE7AE
:1024B000237862687A62FA6A9900796104EB830191
:1024C000002A40F000814D460E4601EB0A094FF00C
:1024D00000084E454CD101EB0A0610E01BF0020F3C
:1024E000D1D023789A007A6162687A62FA6A04EB42
:1024F0008301002A77D14D4601EB0A0690461BF076
:10250000050F0CBF02230123FB62FB6906EB430AA4
:102510000BF00203BB625645BCD016F8021B16F83E
:10252000013C54F82390AF4B994502D3AE4B9945EB
:1025300036D3BB69002B40D0786A1BF0CDFC002855
:102540003BD0E9468AB06A46A84B53617B6AC2E930
:1025500006314FF400731384A54B42F8103FA54891
:1025600000234FF4125101F04BF8023DCD46D2E763
:1025700016F8013BF96254F82300FDF73DFFD7F848
:102580008430F96A01304BB1D7F8883098453EBFA6
:10259000D7F8843023F8180008F10108054498E7BB
:1025A000BB6923B1786A1BF097FC0028C9D11BF0E6
:1025B000010F05D1FB6AED1AADE7BB6A002BAAD06B
:1025C0004846FDF719FFD7F8843053B1D7F8883063
:1025D00098453FBFD7F88420431C22F8183008F1F3
:1025E0000108054497E7BAF1000F72D01BF004060A
:1025F00072D0D046002607F1480052463B61B962CE
:1026000024F0C3F9B96A3B6901EB0A02BA62FA69BC
:10261000F9695200FA60BA6A02EB41023A610BF0C2
:102620000202BA603A69B96A8A4257D162787A621C
:102630001BF0020F32440CBF4FEA580100211BF07F
:10264000010FD2B240F09F801BF0040F14BF404630
:102650000020BB616270A070E1703A6A7969FB6A20
:1026600020469847051EFFF615AFBB6923707B6AAD
:102670006370FB69E37041463A6AFB6A84F802A022
:1026800007F148009847B0F10008C0F2B5807B69B7
:102690003A6AA9EB0A01C91AFB68C91AD7E90A0301
:1026A00098470028C0F2AA80A84408EB00054FF024
:1026B000000B07F1380AB34567D300213A6AFB6A79
:1026C00008469847E6E656464FF0000807F13800FE
:1026D00093E75646D04697E7B04695E7BA6A12F8B0
:1026E000021BBA6212F8015C3E4A54F8250090427F
:1026F00002D33D4A90421ED3BA6932B1786A7B60F8
:102700001BF0EAFB7B6800288CD1BA6802BB08F199
:10271000280207F1300C08F10100944407F1580237
:1027200052FA80F008F102080CF8101C5FFA88F8E1
:1027300000F8105C76E7BA693AB1786A7B601BF002
:10274000CBFB7B6800287FF46DAF1BF0010F09D035
:1027500006F1280207F13000711C161806F8205CFB
:10276000CEB25FE71BF0040F3FF45CAF08F1280224
:1027700007F1300008F1010102EB000808F8105CD5
:102780005FFA81F84EE7002063E71BF80A3087F80C
:10279000373054F82390D7F88430FBB133F81B80DE
:1027A0003A6AFB6A012107F137009847002825DBC8
:1027B0000544B8F1000F06D14846FDF71DFE00F1B3
:1027C00001081FFA88F83A6AFB6A4146484698476A
:1027D000002813DB05440BF1010B6CE7D7F884806C
:1027E000DEE700BF106A020080BF020057800200CF
:1027F000040000015C6E020045464BE6054649E6D2
:10280000014B1860704700BF8802002080B5054664
:102810000E46174698461AF0F3FA034624F0EEF8EF
:10282000DFF81890044649F80030424630463946F1
:10283000A84754F8090002F0F5F900BF08000000AD
:102840002DE9F047058B04462807904611D402294C
:1028500005F0070540F0CC8020461BF04BFE78B118
:102860000138218B042811D8DFE800F0C2106D85F3
:10287000950001290CBF45F0100545F02005258382
:1028800088F31188BFF36F8FBDE8F08701F0070A66
:10289000AA4500F0A5800027B9463E46A368002B54
:1028A00000F0BC8041F00801218388F31188BFF358
:1028B0006F8FA168002900F0BA800D68002900F030
:1028C000B680D1F80480334652462046C047002DDA
:1028D00076D02B6829461D46F0E701F007035A1F02
:1028E000012A1BD8002221F00701062B276889B294
:1028F000C4E9002209D13B4603E0628B01326283C6
:102900001B68002BF9D141F00201218320461BF006
:10291000F1FD00287AD041F0200176E0042B0AD1A5
:1029200021F0070189B2218320461BF0E3FD10B19D
:1029300041F020012183218B01F0070AAA454FD0E5
:102940000027B946AAE7236921F0070141F00601F3
:10295000062DD3F8009021832DD1B9F1000F3FD07F
:1029600041F00801218388F31188BFF36F8F3A4942
:102970002046C84729E021F00701236941F00401FE
:1029800089B2042DD3F804902183E6D000273E4677
:102990004FF0040A82E721F00701236941F00501A5
:1029A00089B2052DD3F808902183D6D000273E4662
:1029B0004FF0050A72E700273E464FF0060A6DE722
:1029C0002B4687E7B9F1000FD1D1EFF3118820230F
:1029D00083F31288BFF36F8F238B23F008032383C5
:1029E000258BEA062ED525F01003238305F0070575
:1029F0006669218B002EBFF670AF00232768C4E9FB
:102A0000003321F0070141F001012183218B01F006
:102A1000070AAA454FF000097FF440AF002F9CD071
:102A200041F00801218388F31188BFF36F8F002FD5
:102A3000C8D03D6839463346524620461BF086FDD5
:102A40002F46F4E7AB067FF51BAF25F02003238369
:102A500005F0070500E700BF79E501002DE9F74320
:102A60000F4606460821C06ADFF850901BF0B7FEFB
:102A70003C68241A80463C6004EA0905AC4203D84D
:102A8000002003B0BDE8F08308236A4621463046A3
:102A90001BF03BFE0028F4D1694630461BF0A9FE2E
:102AA00040B1BDF80230BDF804203C6005EA0905DC
:102AB00013441D44A4EB0804E0E700BF0000FFFF3F
:102AC0002DE9F04704468AB000F11407384623F098
:102AD000B5FAA06A8368DB689847E06250B9864A15
:102AE000864801211BF057FE6FF0150528460AB0F5
:102AF000BDE8F087A06A8368DB6898470368013BFC
:102B00001F2B01D97E4AEBE7A06A216807AA22F0B1
:102B1000F1FF08B17B4AE3E7A5892DB1089BB5FB1E
:102B2000F3F203FB12550DB1774AD9E7E389012B84
:102B300001D8764AD4E7E36A029593F805904FF0FE
:102B4000FF334FF0FF32384619F0CCFAE06A082123
:102B50001BF045FEA8460646E3891FFA85FA534551
:102B600008D8E389434523D1384619F033FB6FF089
:102B70002C05BBE7A1892B04891B13FA81F14A4676
:102B80000823204602911BF0CEFD78B102A9204611
:102B90001BF0F4FD08F10108029908234A4620467B
:102BA0001FFA88F81BF0BFFD0028DAD00135D3E703
:102BB00053450BD1029908234A46891B20461BF036
:102BC000B2FD18B902A920461BF0D8FD02A9204683
:102BD000FFF744FF054618B1384619F0FBFA85E7C0
:102BE000029B63604FEA13484FEA0848C4F8088024
:102BF000D4E9011399420FD3082303AA20461BF0FE
:102C000084FD05460028E7D103AB13F8012B91455D
:102C10003DD10135082DF8D163681B0C1B0402A9B6
:102C2000204602931BF0AAFDA38902994A4620463A
:102C30001BF079FD051ECFDB63687BD006EB030834
:102C40004FF6FF79A389CDF808801FFA88F29B1B05
:102C50009A4238D32E4A294803211BF09CFD616813
:102C600020461BF09AFD05460028B5D16368294A25
:102C7000A18913400B44A3EB460363601340A36098
:102C800020461BF09EFE0546002D6FD0A4E703A949
:102C900020461BF0AEFD626810B9921B6260A7E788
:102CA000BDF81050BDF80E10E06AC4F80880294441
:102CB0001BF095FD40449042A060EED1002DECD079
:102CC0006FF01C057DE0082305AA414620461BF055
:102CD0001CFD054600287FF47FAF05A920461BF0A8
:102CE00088FD38B1BDF814304B4503D1BDF818301C
:102CF000002B6CD0B044A5E71F8102007C6E02005F
:102D0000418102005E810200768102008A81020018
:102D1000E78102000000FFFF5B1A4A4620461BF0D5
:102D200002FD051EFFF658AF08D0E26AA3681268DC
:102D30001344A360D4E901318B42EDD86168A389C3
:102D400001EB46029A429FD1DFF8A880A26801EA0F
:102D500008039A4298D020461BF01FFD0546002824
:102D60007FF43AAF636803EA0803A360A389A288EB
:102D7000A3EB46039A4220D0384619F02BFA0123E0
:102D80002374A289E3891C48009203211B4A1BF08B
:102D90009DFF63689AB200921748194A1B0C0321E1
:102DA0001BF094FFA3689AB200921348154A1B0CBB
:102DB00003211BF08BFF002598E620461BF0EAFD5F
:102DC0000546384619F006FA002DD8D08EE60E4A90
:102DD000094803211BF0DFFC63681B0C1B0402A9DC
:102DE000204602931BF0CAFC029920461BF0D5FC3A
:102DF00049E700BF0000FFFF7C6E0200AD810200CA
:102E0000C4810200D68102000E8202002DE9F04F3B
:102E10001D4691B0037C02910446009253B9744A56
:102E2000744801211BF0B7FC6FF00C06304611B05E
:102E3000BDE8F08FC26A082110461BF0D0FC29467D
:102E4000019010461BF0CBFCA389019AA3EB8203EF
:102E5000AB420746C0F0C9801DB1009B002B00F0BB
:102E6000C4806368059306AA05A92046DDF814A06E
:102E70001BF0FCFC06460028D8D1BDF81830029A99
:102E8000934206D06268059B9A42ECD1002D36D160
:102E9000CCE706A920461BF0ACFC0028F2D0BDF818
:102EA0001A80BDF81C3045B39D4228D1E36ADDF895
:102EB00000B01B684FEA1A4A5B424FEA0A4A03F025
:102EC0002003D0440393AA46DDF80C90D14528BFD7
:102ED000D1464B4608AA414620461BF016FC002866
:102EE0004ED14A4608A9584623F0CAFC38B9BAEB75
:102EF000090AC844CB44E7D198E7002B96D0002FAD
:102F000041D104F114094FF0FF324FF0FF3348462E
:102F100019F0E8F8DFF8E0B04FF6FF7AE3899E4257
:102F200060D0D4E901217B189A4230D3029BADF8DE
:102F30002030FF23009A8DF8263020462B46ADF82E
:102F40002210ADF824501BF0DBFC29468046E06AD5
:102F50001BF045FCA2680244A260B8F1000F0AD140
:102F600008A81BF033FC08A920461BF002FD00282E
:102F700014BF8046A846484619F02CF9464655E746
:102F8000BDDC064652E7019B1F44BFB2B9E70821EA
:102F9000E06A1BF024FC0023ADF824301318ADF8D0
:102FA0002230A389ADF820A002EA0B021A44101ABD
:102FB000606008A88DF826A01BF008FC08A9204630
:102FC0001BF0D7FC211D20461BF0D8FB636803EAE9
:102FD0000B03A36020461BF0F4FC80460028CAD1F6
:102FE00001369BE76FF01B08C5E76FF015061DE77C
:102FF0000B8102007C6E02000000FFFF2DE9FF47FD
:103000001E46037CBDF8309004460F4690464BB9EF
:103010002C482D4A01211BF0BEFB6FF00C0004B0C0
:10302000BDE8F087C06A08211BF0D9FBA389A3EB98
:103030004003B34243D3D4F804A0CDF804A0002544
:103040004D455146DDF804A009D9636853451ED1AA
:10305000BDF80830BB421AD06FF00100DFE702AACA
:1030600001A920461BF002FC0028D8D1BDF8083089
:10307000BB4206D102A920461BF0BBFB08B10135BB
:10308000ADB26268019B9A42DAD15146E0E7BDF8E1
:103090000C30002BE0D0A945DED8BDF80A00090CA1
:1030A000B3424FEA014128BF33460144424620461D
:1030B0001BF02BFB0028B2D1BDF80C00AFE76FF07E
:1030C0001500ACE77C6E02000B8102002DE9F04791
:1030D000DFF85880044607464FF0010914B9384616
:1030E000BDE8F08794FAA4F5B5FA85F509FA05F379
:1030F0002E0108EB05156FEA030A24EA03042B7B73
:10310000002BEBD058F806301B694BB9464404221B
:1031100073682846196807EA0A0700F05DFADDE7D8
:10312000284698470028D9D1F0E700BFEC6E02008E
:1031300030B51049104889B0002223F011FB0F4D23
:103140000F4900220023CDE9062300240E23CDE9F8
:103150000334CDE901440B4B00944FF440722846F0
:1031600019F080FB0849284623F05AF9204609B097
:1031700030BD00BF8D310000580E0020D009002066
:10318000C03900207D3400002A820200014819F075
:103190008FB800BF280800202DE9F04780461F485F
:1031A0000F461BF0FAFC0646002830D000252846C2
:1031B000BDE8F087237B6BB12368DB680BB1204649
:1031C000984723681B69D3B96368042219682046AD
:1031D00000F002FA013610344C45EBD3B8F1000F81
:1031E000E5D0002DE2D02846FFF770FF0546002FFE
:1031F000F7D000214FF4A47019F0E4FDF1E7204668
:1032000098470028E0D00AFA06F31D43E2E7044C91
:10321000DFF8109005464FF0010ADDE79C1800200A
:10322000EC6E02000C6F0200014B53F82000704757
:103230002072020008B5034608462BB1044A136009
:1032400000F074FC002008BD6FF01500FBE700BF24
:103250008C02002010B5044C237813B9034819F0F0
:1032600027F80123237010BDB13200202808002068
:1032700010B5044608481BF090FC5CB1BFF35B8FAF
:10328000064B53E8001F013943E80012002AF8D129
:10329000BFF35B8F10BD00BF94180020981800206A
:1032A0000020064BBFF35B8F014653E8000F43E855
:1032B0000012002AF9D1BFF35B8F704794180020E9
:1032C00070B5FFF7EDFF084C084E0546B44200D339
:1032D00070BD63685B792BB123685B6813B12946C5
:1032E000204698471034F1E7EC6E02000C6F0200A4
:1032F00010B5044C044920461AF02BFF034B1C6008
:1033000010BD00BF680700200C7202008C1800205E
:10331000084A094808B500231370084A1360084A90
:103320004FF400411360FFF785FFBDE80840FFF749
:10333000DFBF00BFB232002097EB010094180020DD
:103340009818002001460022014800231AF022BFED
:103350006807002001481AF0B8BF00BF68070020C6
:10336000024B014618681BF004B800BF8C180020FF
:1033700001481BF039B800BF6807002070B5284B22
:10338000187800284BD0FFF7E5FF054690B1BFF352
:103390005B8F244B53E8001F013943E80012002AD9
:1033A000F8D1BFF35B8F204C204EB4422DD328467A
:1033B000FFF7D6FF1E4B1F4C1B68002B19DD23F0B7
:1033C00088F94FF47A72A0FB020302FB0131C30BB0
:1033D000D4E9002043EA41439B1A4FEAD13140F23D
:1033E000E93261EB0001934271F1000101D3FFF773
:1033F00067FFD4E9003213F57A7342F10002C4E9A1
:103400000032BDE87040FFF7B3BF63685B7923B15A
:10341000236829461B68204698471034C5E770BDCD
:10342000B132002098180020EC6E02000C6F0200F0
:1034300094180020500E002070B50D4D297861B908
:103440000120FFF7A9FE0B4C0B4EB44206D3FFF749
:1034500095FF0028FBD101232B7070BD63685B7959
:103460001BB1236820469B6898471034EDE700BFE6
:10347000B2320020EC6E02000C6F020000212DE938
:10348000F0470846FFF788FE044658B340F26768E5
:103490004FF0000923F0B2FA1B4B1C4A1B58136073
:1034A00033B11B4B1B68092B02DD1A4818F000FFD3
:1034B000194FDFF860A0002544B12046FFF706FE53
:1034C000044618B94FF0FF384FF0FF39FFF756FFA9
:1034D000064628B9B5B942464B46504618F00CFF8F
:1034E0003546E9E74FF0FF384FF0FF39D2E72B6858
:1034F0009B691BB100221146284698471035BD42F2
:10350000F5D3E8E7054DFAE7080000009018002021
:1035100098180020280800200C6F0200EC6E0200B2
:1035200013B518481BF039FB174B1B7873B1EFF339
:103530001184202383F31288BFF36F8FFFF71EFFE0
:1035400084F31188BFF36F8F02B010BD0F4B1B685F
:10355000002BF9D050B900220023CDE900230C48FC
:103560004FF40042002319F0B3FEEDE70928EBD138
:10357000074823F001F9074802B0BDE8104018F0F1
:1035800097BE00BF98180020B2320020901800208B
:10359000580E00202808002010B5064B1B68044672
:1035A00098472146A06004481AF070FEBDE810401C
:1035B000FFF7B6BF8C02002068070020044A054BC5
:1035C0009B1AB1EBD30F34BF52F831000020704783
:1035D000A46D0200EC6E0200084BC31A10B41B115C
:1035E00044680133237143689A71436819604368E2
:1035F00001225A7110BCFFF72DBE00BFEC6E020015
:103600002DE9F04F8FB004AFC1F34A28B8600D46E2
:1036100091467B600C0DB8F1000F63D0002607F1D6
:1036200014034FF0040B4FF00A0AC7F80C80C7E9E7
:1036300007667E620193CDF808B0CDF800A007F1CF
:103640001C03F96832464846FEF7FAFEB0F5006FF3
:1036500003461CD36C468AB0D9F8041004AB264844
:10366000C3E9050140F2FF71D9611A464FF40071B8
:103670001984224B42F8103F214833464FF412512F
:10368000FFF7BEFFA5462C37BD46BDE8F08FC0F35F
:103690000A0804F11700184420F0070080083B6076
:1036A000FFF750FE68F35325044690B13B68154A76
:1036B000C7E9083600F1100107F11403F961CDE9FB
:1036C00000A3CDF808B0F96807F11C034846FEF7DF
:1036D000B7FE68F353257B68B9682A4620461BF07D
:1036E00092FAD0E704F1170020F007008008FFF7F6
:1036F00029FE0446EDE700BF3F82020004000001FE
:10370000946E0200DBEB01002DE9F04F87B0DDE99C
:103710001279DDE9105A0446039193469846BFB1E9
:10372000CDF800903B46524610210020CDF8149071
:10373000FEF7B4FCB0F5006F06460AD3184A1948E4
:1037400040F2FF73022107B0BDE8F04F1BF0B4BA9E
:103750003E4605F11700304420F0070004F007044E
:103760008008FFF7EFFD0BF0070BE40044EA8B1431
:1037700044EA462444EA0554054640B13FB1CDF839
:1037800000903B46524631461030FEF787FC0399C5
:1037900043462246284607B0BDE8F04F1BF033BA37
:1037A0007E820200946E0200406820B1034BC01A72
:1037B00040F3CF0070474FF0FF307047A46D020018
:1037C0000EB403B503AB014653F8042B0448019330
:1037D00001F010FD02B05DF804EB03B0704700BFCC
:1037E0001BED0100CA0605D48B064CBF02490349F4
:1037F000FFF7E6BF704700BFB7820200B682020043
:103800002DE9F04F89B09B46149B06939DF84CA080
:10381000159B0593169B179E049304460D469046F0
:10382000BAF1000F00F09D8006F4807307931BF03F
:10383000D2F906F00209024600283ED091492046FE
:10384000FFF7BEFF0746B9F1000F08D016F0440F8E
:1038500035D18D492A462046FFF7B2FF074406F0CE
:10386000010353B1894B8A4953F82A20894B2046DA
:10387000002A08BF1A46FFF7A3FF06F48073002B47
:1038800049D006F00803002B63D1B8F1000F66D0D1
:10389000814942462046FFF793FF0546069B3D447B
:1038A000002B6DD1049B002B73D1F30700F1E48052
:1038B00031462046FFF796FFD8E00746C3E7774B2F
:1038C00018680028CAD0764B4FF47A791B68B5FB8C
:1038D000F3F54FF46161B5FBF0F300FB135509FB01
:1038E00005F54FF03C0CB3FBF1F201FB1231B5FBD7
:1038F000F0FEB1FBFCF300FB1E550CFB131109FBA2
:1039000005F50091B5FBF0F56649CDE901E52046E6
:10391000FFF756FFA2E706F00803EBB1624B6349DD
:1039200053F82A202046FFF74BFF0546B8F1000F59
:1039300005D0594942462046FFF742FF0544BBF1F6
:10394000000FABD05A495A462046FFF739FF0544CD
:10395000A4E74FF0000BE1E706F00805E6E745466F
:103960009CE7BBF1010F069B06D1002B64D1049BA1
:10397000002B7BD000250CE0002BF8D04D485CE0FC
:103980004D48069B4D4922461AF075FA049B002BC0
:1039900068D0DFF82C81DFF82C91049F3146102F7E
:1039A000204628BF1027FFF71DFF4FF0000B5D4595
:1039B00045DC059B49461A782046FFF701FF4FF08A
:1039C000010B1BF0070F03D141462046FFF7F8FE1D
:1039D0005F453BD9059B494613F80B202046FFF76E
:1039E000EFFE0BF1010BBBF1100FEAD13649204677
:1039F0004FF0000BFFF7E4FE5A46059B9A5CA2F1DC
:103A000020015F2928BF2E2230492046FFF7D8FE2B
:103A10000BF1010BBBF1100F1DD01BF0070F03D1F1
:103A200041462046FFF7CCFE5F455A46E5D8414661
:103A30002046FFF7C5FEEBE71F485546A1E7414684
:103A40002046FFF7BDFE0BF1010BB0E720492046F1
:103A5000FFF7B6FEC5E7059B3B440593049BDB1BC4
:103A600004939AD1BAF1000F7FF41FAF204609B03A
:103A7000BDE8F04F1BF044B9064A05492046FFF760
:103A80009FFE15E7BE820200C28202003072020071
:103A90007F8F0200B9820200E7820200A418002092
:103AA000A0180020CB82020044720200EB820200C8
:103AB000F182020051ED01001BED0100F551000003
:103AC000FE820200F68202000083020002830200EE
:103AD000FC82020073B542F20F738B4228BF0B4683
:103AE00005680F4A04460521684619F079FC6368A9
:103AF0000C495B6806460B2228461BF0F3F8636806
:103B00003246694628465B681BF0ECF86368064954
:103B10005B681B2228461BF0E5F802B070BD00BFB1
:103B200015BC02002183020005830200074A002120
:103B30000123904206D8064A01B901231360054BC0
:103B40001860704740085B000121F2E740420F0017
:103B5000A0180020A4180020014B01221A70704701
:103B6000B3320020014B002019607047BC180020C0
:103B7000024B034801221A701BF0C2B8B432002075
:103B8000747202000148FFF7A5BF00BF7472020003
:103B900010B5064B18680C46FFF746FB2146034656
:103BA000BDE8104002480F22184700BFBC18002093
:103BB0007472020010B9074B18707047064B1B78DF
:103BC0001BB141F2883022F04DB9A420002119F038
:103BD000F9B800BFB3320020B43200202DE9F84319
:103BE000DFF874901D4F80460E46042499F800506B
:103BF00095B918F065F828463246414618F012F893
:103C0000054618F067F8E5B101233B7099F80030DC
:103C100073B93046BDE8F88332464146002018F0BB
:103C200001F80546EFE72046FFF7C4FF651E2C4666
:103C3000002018F03BF80028EBD03B78002BF2D1A5
:103C4000E7E73B78002BE4D0013C2046FFF7B2FFCA
:103C50003B78002BCAD1DCE7B4320020B33200201D
:103C6000F8B5074F0D4604464618B44201D1284620
:103C7000F8BD14F8011BBB6801485B689847F4E77E
:103C8000246B0200014B036000207047B8720200F1
:103C900070B5114B1C680D46DCB1104B1968002340
:103CA0008B4202DB6FF0010070BD224612F8106BF0
:103CB000864202D001331446F2E7E06810B96FF093
:103CC0001200F1E722F0D3F80028F8D02C60002091
:103CD000EAE76FF00C00E7E798020020B8720200F4
:103CE00070B588B005460C46C0B269461646FFF767
:103CF000CFFF00281BDB0098C8B14368029383689C
:103D000022680195CDE903360023CDE9062305930A
:103D1000C5681BF088F86DB12846084901AA21F052
:103D2000EDFE079808B9059B236008B070BD6FF0E1
:103D30001500FAE76FF01200F7E700BF29EE010067
:103D40001FB507240294044C0194BDF81840009458
:103D50001EF033F804B010BD4C07002010B5084C1D
:103D600086B024788DF81740012402940DF11704D1
:103D70000194BDF8204000941EF01FF806B010BD5D
:103D80005307002080B50C4A0C4B00AF88B00129C6
:103D900008BF13466A460A49C2E905134FF4007387
:103DA0009383084B42F8103F074800234FF4E65135
:103DB000FFF726FCBD4680BD908302009883020079
:103DC000A183020003000001A46D0200014B1878DA
:103DD000704700BF5307002000B589B064288DF8F4
:103DE000070019D80E4B18221870002102A822F0E3
:103DF000F4FD0C4B03930DF10703049302A9012377
:103E00000020ADF8143008F0D5F910F1800F08BF8C
:103E1000002009B05DF804FB6FF01500F9E700BF62
:103E2000530700209C730200024B01221A700020ED
:103E3000704700BFC83200201FB501240294044C13
:103E40000194BDF8184000941DF0B7FF04B010BDF8
:103E5000C8320020B0B5144A144B012900AF6C469B
:103E600088B006BF1346012500256A461049C2E9FD
:103E700005134FF4007393830E4B42F8103F002359
:103E80000D484FF4E651FFF7BBFB0C4BA5461C68F1
:103E90003CB154F8043C043C0BB128469847646894
:103EA000F6E7BD46B0BD00BF9083020098830200D4
:103EB000BA83020003000001846E0200EC180020A7
:103EC00010B50D4C86B0062360701822002168469C
:103ED000237022F082FD094B6946CDE901340020B0
:103EE0000223ADF80C3008F065F910F1800F08BF1F
:103EF000002006B010BD00BFC632002000740200D2
:103F000038B5124A124B11781B7899420BD0022B0C
:103F1000104D137008D1104C03E0A36803B198470B
:103F20000C34AC42F9D338BD012B0B4C0AD0AC4257
:103F3000F9D2236803B198470C34F8E7636803B1FA
:103F400098470C34AC42F9D3EDE700BFC9320020EA
:103F5000CA320020A46D0200986D020008B504F07A
:103F600065FF034B00221A54BDE80840FFF7C8BFA5
:103F7000CA3200207FB51C46BDF8203006461146E7
:103F8000ABB9012C16D1224601A821F019FC01A8D9
:103F900021F056FC0546304604F048FF084B022D40
:103FA0001D540AD8FFF7ACFF204604B070BD6FF077
:103FB0000600FAE76FF00C00F7E76FF01200F4E785
:103FC000CA3200202DE9F0410F4B1C6805460E4611
:103FD0001746ACB14FF0FF324FF0FF330B4818F0EB
:103FE00081F863683246D3F8088029463B4620466C
:103FF000C0470446054818F0EDF82046BDE8F081BA
:104000006FF00104F9E700BFF41800201408002045
:1040100000230360044B5A6812B9C3E900007047DB
:1040200010605860704700BFF8180020014B1860FE
:10403000704700BFF418002030B585B00023054656
:10404000CDE9023301904FF0FF330C484FF0FF32BF
:1040500018F048F80A4B1C684CB9284600F0E0F804
:104060000446064818F0B6F8204605B030BD63682F
:1040700020461B6801A998472468EDE71408002032
:10408000F81800201FB5CDE9010103924FF0FF336E
:104090000A484FF0FF3218F025F8094B1C682CB97C
:1040A000064818F097F8204604B010BD6368204613
:1040B0001B6801A998472468F1E700BF1408002095
:1040C000F8180020024B0022C3E90022704700BF0D
:1040D000F8180020024B0022C3E90022FFF7F2BFCC
:1040E000001900202DE9F74307460C4609B10023CB
:1040F0000B601F4DDFF87C9000264D450FD31E4B03
:104100001D6885B355F8148C01AA41463846143D04
:104110001AF0CFFE10B3D6B914BB2E461EE0D5F868
:10412000008001AA414638461AF0C3FE50B116B9C4
:1041300054B92E4606E03168002240461AF0B9FE16
:104140000028F5D11435D8E7019B2360F1E73168E9
:10415000002240461AF0ADFE0028DDD16D69D0E79F
:10416000019B2360D9E7304603B0BDE8F08300BF70
:104170000C6F0200846F0200001900202DE9F04747
:1041800084B002AF0446D7F8289078600D461646F2
:104190009846B9F1000F07D0D9F8001031BBD9F813
:1041A00004A0BAF1000F28D1391D2046FFF79AFF6D
:1041B00008B3D0F808907868434632462946C84785
:1041C000C8B16D468AB002AA124BD061C2E905346B
:1041D0004FF400731384104B42F8103F0F48002334
:1041E0004FF41151FFF70CFAAD4604E03A1D1AF0F6
:1041F00060FE0028D3D1002007E0D9F808300093F2
:104200007868434632462946D0470837BD46BDE860
:10421000F08700BFD783020004000001D46E0200C3
:10422000F8B5184C184F06460025BC4208D3174B6A
:104230001C682CB3143CB6B9E368E3B96469F8E7C9
:104240002EB9E3685BB9284614340546EDE72068CB
:10425000002231461AF02DFE0028F2D1F3E79847EC
:10426000002DF0D1F0E72068002231461AF021FE3F
:104270000028E1D1E2E79847002D08BF0546DDE7B9
:104280002846F8BD0C6F0200846F02000019002060
:1042900038B50C4D0C484FF0FF334FF0FF3217F09C
:1042A00021FF2B783BB9FFF715FF00F06DF80446AE
:1042B00010B901232B700024034817F08BFF204610
:1042C00038BD00BFCB320020140800202DE9F04794
:1042D000048FDFF8B0A0013498B006468946A4B236
:1042E00000F10807651EADB2B5F5004F47D04A236F
:1042F00005AA294638461AF035FC04F57F543F34A8
:10430000A4B28046214601230DF10B0238461AF073
:1043100029FCB8F1000F014610DC002810DC338FB7
:10432000AB4209D132466B1E22F8383F4FF40041B0
:1043300002233846FEF76AFD2C46D3E7002808DC46
:10434000294638461AF00AFC214638461AF006FC7F
:10435000E5E708F160030DEB0308002308F84C3C87
:104360005246CDF8009003AB05A80397ADF8104076
:10437000FFF704FF0028DFD018B0BDE8F087002069
:10438000FAE700BF23EF01007FB501236946032050
:104390000193FFF77DFC044660BB02AA01A903203C
:1043A000FFF79EFC044610B110F10C0F22D10399C7
:1043B000B1F5803F23D2009A002394681846084440
:1043C00084421AD30133082BF9D10E4DA982EB8216
:1043D0005368AB602846D368EB631AF03AFE044694
:1043E00040B9094E6E602846FFF712FE28466E60FF
:1043F000FFF71CFE204604B070BD9BB2E5E76FF0EE
:104400002004F7E7081900200C030020014B18686E
:10441000704700BF20030020F0B5082289B01AF0D1
:10442000FCFFCB6A03930B6B04934B6B05938B6B75
:104430000693CB6B079313466A460C460646002745
:1044400011461046CDE9017700971AF0F9FE314682
:10445000054630461AF0F4FE216B0391616B04911E
:10446000A16B0591E16B0544CDE906171046114695
:104470001AF0E6FE3146054430461AF0E1FE0544E6
:10448000206A0090606A0190A06A0290A06B06907A
:10449000E06B07903046CDE9047703971AF0D0FE21
:1044A0000544606A0090A06AD4F838C00190E06AC0
:1044B0000290CDF810C0606BD4F83CC00390CDE9F9
:1044C00005C0206A079030461AF0BAFE0544E06A3B
:1044D0000090206B0190606B0290206A0690A06AA9
:1044E00007903046CDE9047703971AF0C9FF236B94
:1044F0000093636B0193A36B0293E36B0393636A73
:104500000693E36A07932D1A082330461AF0B8FF82
:10451000636B0093A36B0193E36B0293236A039392
:10452000636A0493A36ACDE90537236B07932D1AB9
:10453000082330461AF0A4FFA36B0093E36BCDE988
:104540000137636A0393A36A0493E36A0593636B79
:1045500007932D1A082330461AF092FF2D1A10D413
:104560000D4C35B90822314620461AF062FF012869
:104570000FD008232246314630461AF081FF2D1A0B
:10458000EFE7054A0823314630461AF059FE2D1848
:10459000F8D409B0F0BD00BFCC7402000449431E3A
:1045A0000F3013F8012F8A5C1A708342F9D17047DB
:1045B000FC830200F0B5264E07460C460FCE8DB0A8
:1045C00001AD0FC50FCE0FC596E8070085E80700BF
:1045D0003846002F38D0002C38D0381F21460246EC
:1045E00010344B780D781B0443EA0563CD782B43D8
:1045F0008D78043143EA05238C4242F8043FF0D120
:10460000144C04218A07036916D1C3F30742A55C41
:104610001A0EA25C42EA0562C3F30725DBB2655DB0
:10462000E35C42EA054242EA032221F0030330330D
:104630006B4453F82C3C534050F8042F0131534045
:104640002C290361DED101200DB0F0BD2046FBE72F
:10465000A46F0200FC8302002DE9F047064600AF7C
:104660000C46002936D0E9468AB0D1E90012A36889
:104670006D462148A8464FF0050AC5E90501C5E980
:10468000072348F810AF1D48424600234FF421513C
:10469000FEF7B6FFCD46D4E903126369AD4618486C
:1046A000C5F810A0C5E90501C5E907231348002393
:1046B00042464FF42151FEF7A3FFCD46E369114A6C
:1046C0000E4801211AF0F8FAA3690F4A0B4801219C
:1046D0001AF0F2FA012E07D1EFF305830B4A0748CF
:1046E000103B31461AF0E8FA2146304617F008FB35
:1046F000BD46BDE8F08700BFFC840200C46E020026
:104700002B8502005A850200698502009785020008
:1047100030BFFFF7FDBF00BF2DE9F0410B4EDFF8C2
:10472000308006EB0807CC1B054632460949204677
:1047300022F02BF9A01942460021083C22F04DF945
:104740006C6707F10800BDE8F08100BF00000000C1
:1047500008000000846F0200074A936893F90E1066
:10476000002907DB526993421FBF044A536843F094
:1047700080535360704700BF4432002000ED00E0DA
:1047800070B5294C06460D46284829491BF0AAFD5C
:10479000A36AD9043CD5254826491BF0A3FD172060
:1047A000A36A1A0504D5214823491BF09BFD182054
:1047B0001D4CA36A9B0512D51C4820491BF092FD95
:1047C000A36BA26A100409D51D4A184801211AF0EA
:1047D00073FA1EB1A36A23F40043A3621920124C9A
:1047E000A36A590504D5114816491BF07BFD1A2010
:1047F000A36ADA050ED50D4813491BF073FD1B2083
:10480000094A936A43F47F43936200232B7070BD7F
:104810001620C5E7A36A9B04F2D504480B491BF098
:1048200061FD1C20ECE700BF00ED00E0C46E02005B
:10483000AA850200C0850200D1850200E48502003D
:10484000FD850200128602002D86020045860200C8
:1048500010B5204C204921481BF044FDA36A990162
:1048600036D51E481E491BF03DFD1E20A36ADA0105
:1048700004D51A481B491BF035FD1F20154CA36AAF
:104880001B0304D5154818491BF02CFD2120A36AF1
:10489000590304D5114815491BF024FD22200D4C65
:1048A000A36A9A0304D50D4811491BF01BFD232070
:1048B000A36ADB0304D509480E491BF013FD24202D
:1048C000044A936A6FEA03436FEA1343936210BD8D
:1048D0001D20CBE700ED00E074860200C46E0200EC
:1048E0008C8602009F860200B9860200D7860200ED
:1048F000FC860200168702002DE9F843364D8046FB
:1049000089463648364917461BF0ECFCAB6ADE0692
:1049100027D5344931481BF0E5FC1124AB6A1D074B
:1049200004D531492D481BF0DDFC12242A4DAB6A19
:10493000980718D52D4929481BF0D4FC6E6BAB6A3B
:10494000190646D52A4A2548334601211AF0B4F9FA
:10495000B9F1000F03D0AB6A23F08003AB621324DC
:1049600003E01024DAE76FF015061B4DAB6ADA0797
:1049700004D5204919481BF0B5FC1424AB6A9B06EA
:1049800004D51D4915481BF0ADFC1524124B9A6A3D
:10499000D50602D49A6A90070AD55B68190507D52F
:1049A0004146304600F042FA10B180F309880224F3
:1049B000094B9A6A920642BF5A6A22F400525A621E
:1049C0009A6A42F0FF029A6200233B702046BDE8DB
:1049D000F8836FF01506C2E700ED00E0C46E020038
:1049E0004187020057870200D18502008A870200B2
:1049F000A2870200B8870200458602002DE9F04137
:104A0000664B8AB0D3F8048000AF0446C8F30805AB
:104A1000002686F31188BFF36F8F02F07F43B3F156
:104A20007F4F07D102F00C03082B12D15C495D487F
:104A30001BF058FC002634460023FB71EB1E092BAB
:104A400000F28A80DFE803F00A80837D8888888806
:104A5000888610074CBF0C460126EDE752495148A5
:104A60004E4D1BF03FFC0023FB71EB6A9A0705D506
:104A70004E494C481BF036FC002333E0EB6A002B18
:104A800001DA4B49F5E7EB6A5B00F5D54949454842
:104A90001BF028FC6B69A26943F480736B61BFF360
:104AA0004F8FBFF36F8F6B6932F8022C23F4807342
:104AB0006B61BFF34F8FBFF36F8F4DF602739A4256
:104AC00009D0AB6ADBB27BB3FA1D01212046FFF7A8
:104AD00013FF034606E02368374A324801211AF0E3
:104AE000EBF82368FA79DAB907F1080504F1200C2C
:104AF000206861682A4603C2083464451546F7D128
:104B00007A6A002E44D0C2F3080121B96FEA52221A
:104B10006FEA42227A6207F108011846FFF79CFD0E
:104B20002837BD46BDE8F081AB6A13F47F4F04D04F
:104B3000F91D0120FFF724FECBE7AB6AB3F5803FF8
:104B40009AD3FFF785FEC4E7FA1D0021BEE7F91DE1
:104B50000020EFE719498CE7194A1A4B18F4F87F3F
:104B6000E8468AB018BF13466A461749C2E90513DA
:104B70004FF400731384103D144BD56142F8103F7D
:104B8000084800234FF41151FEF73AFDC54673E77C
:104B900022F4FF7222F00102BCE700BF00ED00E04A
:104BA00005880200C46E02003088020047880200B7
:104BB000688802007688020095880200B1880200A9
:104BC000EC870200D7870200D588020004000001AC
:104BD000024A536943F010035361704700ED00E04F
:104BE000EFF30880EFF3098101B57246FFF706FF86
:104BF00001BD00BF15F016FE202080F31188084883
:104C00004FF40461401880F30988EFF31480022107
:104C1000084380F31488BFF36F8F00F0C7F80000DB
:104C2000C0500020084B9B6883420BD1EFF30583F3
:104C300043B1064B5A6842F080525A605A6A22F4D5
:104C400000425A6221F0E8BC4432002000ED00E04E
:104C5000094A93686FF00A01D967084998674B6859
:104C600043F080534B60002383F31188BFF36F8FB1
:104C70009368D86F704700BF4432002000ED00E019
:104C800010B50446EFF31183202383F31288BFF39A
:104C90006F8F0A4B58699860094B4FF000625A6059
:104CA000084B426F1A600022836F826783F311887A
:104CB000BFF36F8F00F022F9204610BD4432002070
:104CC00000ED00E0481900200B498A684FF03000E1
:104CD0001044EFF3098C80E8F01F74467046FFF72C
:104CE000CFFFA64604498A6802F1300090E8F01F21
:104CF0008CF3098870470000443200201EF0040F36
:104D00000CBFEFF30880EFF30980816911F8021CF2
:104D10000229FFD001B51BF0DAFA01BD40B200282C
:104D200007DB044A4109012300F01F00834042F8D9
:104D30002130704700E100E040B200280CDB43095D
:104D4000064900F01F0020330122824041F8232051
:104D5000BFF34F8FBFF36F8F704700BF00E100E0DC
:104D6000054B420900F01F0053F82220012303FAEB
:104D700000F01040704700BF00E100E040B20028A2
:104D8000A8BF00F1604001F10101B8BF064B4FEA36
:104D90004111ACBF00F5614000F00F00C9B2B4BFD3
:104DA000195480F80013704714ED00E00F4A08B55D
:104DB0000F4B22F07F029A60BFF34F8FBFF36F8FCC
:104DC000D3F8882022F47002C3F88820EFF314830C
:104DD00023F0040383F31488BFF36F8F17F07CF87C
:104DE00018F0ACF800F060F817F0BAF80000000016
:104DF00000ED00E042F8203C009B42F81C3C0A49D0
:104E0000019B42F8183C029B42F8143C21F001013E
:104E10004FF0807342F8043C42F8081C0023203A0B
:104E200002658367704700BF0D280000094A0346EA
:104E3000906870B113F1160F406E05D0A0F14002DA
:104E40009A4205D8834203D2814228BF002070478E
:104E5000002070474432002008B515460B4A0C4B21
:104E60009060426F1A600E4600F048F82C4686F3B8
:104E700009884FF00000074B984720464FF000018B
:104E80004FF000024FF00003034C20474432002053
:104E900048190020F50202000D280000014B1022E5
:104EA0001A61704700ED00E0044800232021C21879
:104EB0000133302B82F80013F9D1704700E100E094
:104EC00008B5EFF30583064A103B02EBC30152F825
:104ED000330049688847BDE80840FFF73DBC00BF84
:104EE000746B0200024B034A0348012100F08AB8A8
:104EF000000004200000002078750200426E054B7F
:104F0000403A1A60044A4021C3E9011218460121BF
:104F100000F082B84C19002000000B1508B50346BC
:104F20001048D0F89020C2F30722013A934207D9E3
:104F30000D480E4A012119F0BFFE6FF0150008BDA3
:104F4000C0F898300A6822F01F021A4342F010029B
:104F5000C0F89C208A6842F00102C0F8A0201846E0
:104F6000EDE700BF00ED00E0AC6E0200EC8802004F
:104F7000F0B50E4685B01F4604460025B5420DDA51
:104F8000606810B397B1431E18420AD0104A114806
:104F90002B46012119F090FE6FF01502104605B066
:104FA000F0BD1F28F2D921680B42EFD1236801938D
:104FB0001BF0C3F9A36801A90343D0B20393FFF721
:104FC000ADFF10F1160FE7D0421C01350C34D5E7C8
:104FD00012890200AC6E0200044B0522C3F8942033
:104FE000BFF34F8FBFF36F8F704700BF00ED00E03E
:104FF000BFF35F8F024B0022C3F89420704700BFBD
:1050000000ED00E010B5034C01232278FFF7B0FF5C
:10501000207010BDCC32002008B50B4A0023127856
:10502000FFF7A6FF10F1160F07D0084A0021D2F8AB
:105030009030C3F30723984200DB08BDC2F8980004
:10504000C2F8A0100130F2E7CC32002000ED00E001
:105050002DE9F04357485849D0F890300D68C3F314
:1050600007239D4285B000F2A180FFF7C1FF496888
:105070000022954201F10C011AD1504C504F25707D
:105080006846FEF7FFFDDFF83C81DFF83C910646FD
:105090000025AE421FD1237846490020D1F8902048
:1050A000C2F3072293427BDBFFF796FF00204CE020
:1050B000C0F8982051F80C3C23F01F03134343F031
:1050C0001003C0F89C3051F8043C43F00103C0F8D1
:1050D000A0300132CDE7009800EB05114FEA051C26
:1050E000CB683B40B3F5000F44D00AD8B3F5001F9E
:1050F0002ED0B3F5800F34D0B3F5801F10D001351A
:10510000C7E7B3F1807F3ED0B3F1007FF7D150F80D
:105110000C3088684A681BF010F940F4802009E0E0
:1051200050F80C3088684A681BF007F940F0885046
:1051300040F43020039001A92078CDE90123FFF746
:10514000EDFE002828DA6FF0150005B0BDE8F08309
:1051500050F80C3088684A681BF0EFF840EA080005
:10516000E8E750F80C3088684A681BF0E6F840EA37
:105170000900DFE750F80C3088684A681BF0DDF85A
:1051800040F08270D6E750F80C3088684A681BF00F
:10519000D4F840F08870CDE7237801332370AEE770
:1051A000C1F89830C1F8A000013377E74FF0FF3025
:1051B000CBE700BF00ED00E084750200CC32002098
:1051C0000000F0FF000008110000020208B5024BC9
:1051D0001B689847002008BD58190020034B044A5B
:1051E0001860937843F002039370704758190020B9
:1051F00024030020F0B587B007460E461446002170
:10520000102268461D4621F0E8FB02238DF802308B
:105210002A46054B019321466846CDE9047618F0ED
:1052200071F907B0F0BD00BF5B03020008B5064985
:10523000064821F00701C1F1005202F5802218F062
:10524000DDFD002008BD00BFFC7300205C190020BC
:105250000E4A0123C2F840354FF080424FF0805192
:10526000C2F87835D1F83001082808D1D1F83411C6
:10527000052904D80648415C09B1C2F838364FF018
:1052800080430122C3F880250020704700E00140E0
:105290004489020020B1034B800143F00103184709
:1052A000704700BF9070020008B5044820F0DFFD91
:1052B00000280CBF6FF01200002008BDFC6A02003D
:1052C0000E4B402970B528BF40210D4C46181D4695
:1052D000B04203F1020304D1002305F8113007485E
:1052E00070BD02781209A25C03F8022C10F8012BA1
:1052F00002F00F02A25C03F8012CE9E7EB32002078
:105300006889020030B503788BB0044607AD032BE3
:1053100021D8DFE803F0021A1C1E12492846FBF7C9
:1053200063F8059563780493A3780393E378029375
:105330002379019363790093A3790B4A0B481E21CB
:1053400018F04EF809480BB030BD0949E6E70949A5
:10535000E4E70949E2E7094A0A21284618F040F83B
:10536000DFE700BFAD7E0200CF7E0200CD3200201D
:10537000B47E0200BB7E0200C57E02004BAD02007F
:105380002DE9F0414FF0FF3206460D464FF0FF3356
:1053900000210F2000F08AFC012700F10C080446D0
:1053A00007760221404620F01CFA0F2304210370E7
:1053B0004170404620F015FA054B47704680057055
:1053C0002146D3F86C01BDE8F04101F0FFB900BF00
:1053D00000000020F8B5624DBFF35B8F2C68BFF36F
:1053E0005B8F14F0010459D05E4F5F4C5F4E6048F4
:1053F0003A46214619F07AFE00283DD15D4A5E48C2
:10540000012119F050FC1F274FF0FF324FF0FF33FE
:10541000012000F03BFC00F10C060221044630465E
:1054200020F0DFF93E230370422343700121304610
:1054300020F0D7F9082303704121304620F0D1F93C
:10544000064600F8017B07B34022002121F0C5FA8F
:10545000BFF35B8F55E8003F23F0010345E80032BE
:10546000002AF7D1BFF35B8F2146444BD3F86C0180
:10547000BDE8F84001F0AAB920223146204621F0CB
:10548000FFF90028B3D00027BEE739491AF0B8FF6A
:10549000203106F121001AF0B3FFD9E7BFF35B8F8B
:1054A0002B68BFF35B8F9B0759D5BFF35B8F2D49EB
:1054B0002E682F48BFF35B8F1AF0D4FC031EC6F38F
:1054C000800639DA2E4A2C48012119F0F5FB6FF0DD
:1054D00004044FF0FF324FF0FF33012000F0D6FB01
:1054E00000F10C0702210646384620F07AF93E23E7
:1054F0000370222343700121384620F072F90923FA
:1055000003702121384620F06CF9034601300CB3BA
:105510001F221A70FF21202221F05FFABFF35B8F58
:1055200055E8003F23F0020345E80032002AF7D196
:10553000BFF35B8F314698E70B490C48094B01F1EB
:105540002002002E18BF0146104619F01EFE00284A
:10555000BDD0BEE706491C701AF052FFDEE7F8BD69
:1055600068190020A47502006C330020CA8902006B
:105570008C33002080890200246E0200000000208D
:10558000A989020070B5214CBFF35B8F2368BFF37C
:105590005B8FDA0706460D4601D50C2070BD012948
:1055A00031D8BFF35B8F54E8003F43F0020244E878
:1055B00000210029F7D1BFF35B8F9B07EDD414487E
:1055C00031461AF01DFF134806F120011AF018FFAA
:1055D000BFF35B8F75B154E8003F43F0040344E828
:1055E0000032002AF7D1BFF35B8F0B4800F0D4FAEA
:1055F0000020D3E754E8003F23F0040344E80032DE
:10560000002AF0D0F6E71220C8E700BF6819002092
:105610008C330020AC3300203403002070B5067EAC
:10562000044676B9C3681D8842F22602954246D0E8
:1056300010D842F20102954250D042F225039D4219
:1056400014D02B4BD3F86C01836821469B68BDE8CE
:105650007040184742F25E039D42F2D103210C30A4
:1056600020F0DEF8E06890F840102EE003210C30C6
:1056700020F0D6F8204613F031FABFF35B8F1D4BB4
:105680001A68BFF35B8F920707D50C26314642F2AA
:105690002500FFF775FE002070BDBFF35B8F53E858
:1056A000002F42F0010143E800100028F7D1BFF3BA
:1056B0005B8FD307E9D4104800F06EFAE6E70321C8
:1056C0000C3020F0ADF8E0683146FFF75BFF06468E
:1056D000204613F003FA31462846DAE7DA7802F07A
:1056E0007F02DA701A7922F001021A71A9E700BF6D
:1056F0000000002068190020340300202DE9F74342
:105700003D4CBFF35B8F1F462368BFF35B8F16468C
:10571000DA07054620D538B9384A3948012119F049
:10572000C2FA6FF0010018E001A919F0E6FB354953
:1057300080460246284621F0B3F850BBBFF35B8F8A
:105740002368BFF35B8FC3F3C0081B0708D52E4A3D
:105750002B48022119F0A7FA002003B0BDE8F0831E
:10576000A4F1D405072229463846B04706280BD8AD
:10577000264A2348012119F096FA44F8D48C85F87A
:105780000780C5F80380E7E70723B0FBF3F0E87173
:10579000E2E71F494246284621F082F8814680B957
:1057A000412204F1DE013846B047031E05DA194AEA
:1057B0001348012119F080FACEE7234483F8DE90E4
:1057C000CAE728461449424621F06AF805460028EF
:1057D000A7D1102204F19C013846B0470F28BBD84E
:1057E0000E4A0748012119F05EFA1022294604F1F9
:1057F0009C0021F0F2F8AFE7D4000020F589020008
:105800004C6E0200C27E0200168A02003A8A020032
:10581000249002005F8A0200918A0200958A0200A9
:105820002DE9F04188B09C79DDF838805D791E79EA
:10583000DF7893F802C093F801E01B78B8F1000F0D
:105840000ED0CDE90638CDE904CE1346CDE9026786
:10585000CDE90045084A17F0C3FD08B0BDE8F08166
:10586000CDE905E3CDE9037C1346CDE90156034AB2
:10587000009417F0B5FDF0E7B38A0200D78A020062
:1058800010B5FEF705FD044628B1044A0346012180
:10589000034819F011FA204610BD00BFF88A020033
:1058A0004C6E020070B504468CB01E461546A2B17F
:1058B00029B10A4602A8042118F0A3FD02A900910B
:1058C0002B462246242103A8FFF7AAFF109A31464F
:1058D00003A8FEF777FB0CB070BD0346044A2421F1
:1058E00003A817F07DFD0028F0DA6FF01500F2E74D
:1058F0001D8B020007B50B4B0B48DA79C2EBC202D5
:10590000009200221146FFF7CDFF034638B1074A47
:105910000748012103B05DF804EB19F0CDB903B0DD
:105920005DF804FB00000020C27E0200238B020011
:105930004C6E020007B50C4B0C48DA79120100924C
:10594000002203F5B8731146FFF7ACFF034638B1E8
:10595000074A0848012103B05DF804EB19F0ACB91F
:1059600003B05DF804FB00BF00000020918A020034
:105970003E8B02004C6E020030B504468DB01546D9
:1059800092B129B10A4602A8042118F03AFD02A9F1
:1059900000912B462246242103A8FFF741FF03A8CC
:1059A00019F083FA0DB030BD0346054A242103A83F
:1059B00017F016FD0028F2DA6FF01500F2E700BFCD
:1059C0001D8B020007B5009313460A4601460348A3
:1059D000FFF768FF03B05DF804FB00BF95A202006B
:1059E0000A4601460148FFF7C7BF00BF95A2020063
:1059F00007B5009313460A4601460348FFF752FFD6
:105A000003B05DF804FB00BF8FA2020007B500934E
:105A100013460A4601460348FFF744FF03B05DF80A
:105A200004FB00BF74A102000A4601460148FFF7CB
:105A3000A3BF00BF74A1020007B500220346009176
:105A400003481146FFF72EFF03B05DF804FB00BFCB
:105A500087A2020007B500220346009103481146C1
:105A6000FFF720FF03B05DF804FB00BF24900200A5
:105A700008B5024816F002FE002008BD54030020BD
:105A800008B5024816F0FAFD002008BD44030020C6
:105A9000F8B5214DBFF35B8F2B68BFF35B8F13F01D
:105AA000010F2E4636D095F8DE30A5F1D40713B994
:105AB0001A4800F077FFFB798BB902F0A5F804468D
:105AC00030B1174A1748012119F0EDF82046F8BD0A
:105AD000FB7923B902F0E2F804460028F1D1BFF3C4
